{
	"contracts/PokeDIO.sol": {
		"PokeDIO": {
			"abi": [
				{
					"inputs": [],
					"stateMutability": "nonpayable",
					"type": "constructor"
				},
				{
					"inputs": [
						{
							"internalType": "address",
							"name": "sender",
							"type": "address"
						},
						{
							"internalType": "uint256",
							"name": "tokenId",
							"type": "uint256"
						},
						{
							"internalType": "address",
							"name": "owner",
							"type": "address"
						}
					],
					"name": "ERC721IncorrectOwner",
					"type": "error"
				},
				{
					"inputs": [
						{
							"internalType": "address",
							"name": "operator",
							"type": "address"
						},
						{
							"internalType": "uint256",
							"name": "tokenId",
							"type": "uint256"
						}
					],
					"name": "ERC721InsufficientApproval",
					"type": "error"
				},
				{
					"inputs": [
						{
							"internalType": "address",
							"name": "approver",
							"type": "address"
						}
					],
					"name": "ERC721InvalidApprover",
					"type": "error"
				},
				{
					"inputs": [
						{
							"internalType": "address",
							"name": "operator",
							"type": "address"
						}
					],
					"name": "ERC721InvalidOperator",
					"type": "error"
				},
				{
					"inputs": [
						{
							"internalType": "address",
							"name": "owner",
							"type": "address"
						}
					],
					"name": "ERC721InvalidOwner",
					"type": "error"
				},
				{
					"inputs": [
						{
							"internalType": "address",
							"name": "receiver",
							"type": "address"
						}
					],
					"name": "ERC721InvalidReceiver",
					"type": "error"
				},
				{
					"inputs": [
						{
							"internalType": "address",
							"name": "sender",
							"type": "address"
						}
					],
					"name": "ERC721InvalidSender",
					"type": "error"
				},
				{
					"inputs": [
						{
							"internalType": "uint256",
							"name": "tokenId",
							"type": "uint256"
						}
					],
					"name": "ERC721NonexistentToken",
					"type": "error"
				},
				{
					"anonymous": false,
					"inputs": [
						{
							"indexed": true,
							"internalType": "address",
							"name": "owner",
							"type": "address"
						},
						{
							"indexed": true,
							"internalType": "address",
							"name": "approved",
							"type": "address"
						},
						{
							"indexed": true,
							"internalType": "uint256",
							"name": "tokenId",
							"type": "uint256"
						}
					],
					"name": "Approval",
					"type": "event"
				},
				{
					"anonymous": false,
					"inputs": [
						{
							"indexed": true,
							"internalType": "address",
							"name": "owner",
							"type": "address"
						},
						{
							"indexed": true,
							"internalType": "address",
							"name": "operator",
							"type": "address"
						},
						{
							"indexed": false,
							"internalType": "bool",
							"name": "approved",
							"type": "bool"
						}
					],
					"name": "ApprovalForAll",
					"type": "event"
				},
				{
					"anonymous": false,
					"inputs": [
						{
							"indexed": true,
							"internalType": "address",
							"name": "from",
							"type": "address"
						},
						{
							"indexed": true,
							"internalType": "address",
							"name": "to",
							"type": "address"
						},
						{
							"indexed": true,
							"internalType": "uint256",
							"name": "tokenId",
							"type": "uint256"
						}
					],
					"name": "Transfer",
					"type": "event"
				},
				{
					"inputs": [
						{
							"internalType": "address",
							"name": "to",
							"type": "address"
						},
						{
							"internalType": "uint256",
							"name": "tokenId",
							"type": "uint256"
						}
					],
					"name": "approve",
					"outputs": [],
					"stateMutability": "nonpayable",
					"type": "function"
				},
				{
					"inputs": [
						{
							"internalType": "address",
							"name": "owner",
							"type": "address"
						}
					],
					"name": "balanceOf",
					"outputs": [
						{
							"internalType": "uint256",
							"name": "",
							"type": "uint256"
						}
					],
					"stateMutability": "view",
					"type": "function"
				},
				{
					"inputs": [
						{
							"internalType": "uint256",
							"name": "_attackingPokemon",
							"type": "uint256"
						},
						{
							"internalType": "uint256",
							"name": "_defendingPokemon",
							"type": "uint256"
						}
					],
					"name": "battle",
					"outputs": [],
					"stateMutability": "nonpayable",
					"type": "function"
				},
				{
					"inputs": [
						{
							"internalType": "string",
							"name": "_name",
							"type": "string"
						},
						{
							"internalType": "address",
							"name": "_to",
							"type": "address"
						},
						{
							"internalType": "string",
							"name": "_img",
							"type": "string"
						}
					],
					"name": "createNewPokemon",
					"outputs": [],
					"stateMutability": "nonpayable",
					"type": "function"
				},
				{
					"inputs": [],
					"name": "gameOwner",
					"outputs": [
						{
							"internalType": "address",
							"name": "",
							"type": "address"
						}
					],
					"stateMutability": "view",
					"type": "function"
				},
				{
					"inputs": [
						{
							"internalType": "uint256",
							"name": "tokenId",
							"type": "uint256"
						}
					],
					"name": "getApproved",
					"outputs": [
						{
							"internalType": "address",
							"name": "",
							"type": "address"
						}
					],
					"stateMutability": "view",
					"type": "function"
				},
				{
					"inputs": [
						{
							"internalType": "address",
							"name": "owner",
							"type": "address"
						},
						{
							"internalType": "address",
							"name": "operator",
							"type": "address"
						}
					],
					"name": "isApprovedForAll",
					"outputs": [
						{
							"internalType": "bool",
							"name": "",
							"type": "bool"
						}
					],
					"stateMutability": "view",
					"type": "function"
				},
				{
					"inputs": [],
					"name": "name",
					"outputs": [
						{
							"internalType": "string",
							"name": "",
							"type": "string"
						}
					],
					"stateMutability": "view",
					"type": "function"
				},
				{
					"inputs": [
						{
							"internalType": "uint256",
							"name": "tokenId",
							"type": "uint256"
						}
					],
					"name": "ownerOf",
					"outputs": [
						{
							"internalType": "address",
							"name": "",
							"type": "address"
						}
					],
					"stateMutability": "view",
					"type": "function"
				},
				{
					"inputs": [
						{
							"internalType": "uint256",
							"name": "",
							"type": "uint256"
						}
					],
					"name": "pokemons",
					"outputs": [
						{
							"internalType": "string",
							"name": "name",
							"type": "string"
						},
						{
							"internalType": "uint256",
							"name": "level",
							"type": "uint256"
						},
						{
							"internalType": "string",
							"name": "img",
							"type": "string"
						}
					],
					"stateMutability": "view",
					"type": "function"
				},
				{
					"inputs": [
						{
							"internalType": "address",
							"name": "from",
							"type": "address"
						},
						{
							"internalType": "address",
							"name": "to",
							"type": "address"
						},
						{
							"internalType": "uint256",
							"name": "tokenId",
							"type": "uint256"
						}
					],
					"name": "safeTransferFrom",
					"outputs": [],
					"stateMutability": "nonpayable",
					"type": "function"
				},
				{
					"inputs": [
						{
							"internalType": "address",
							"name": "from",
							"type": "address"
						},
						{
							"internalType": "address",
							"name": "to",
							"type": "address"
						},
						{
							"internalType": "uint256",
							"name": "tokenId",
							"type": "uint256"
						},
						{
							"internalType": "bytes",
							"name": "data",
							"type": "bytes"
						}
					],
					"name": "safeTransferFrom",
					"outputs": [],
					"stateMutability": "nonpayable",
					"type": "function"
				},
				{
					"inputs": [
						{
							"internalType": "address",
							"name": "operator",
							"type": "address"
						},
						{
							"internalType": "bool",
							"name": "approved",
							"type": "bool"
						}
					],
					"name": "setApprovalForAll",
					"outputs": [],
					"stateMutability": "nonpayable",
					"type": "function"
				},
				{
					"inputs": [
						{
							"internalType": "bytes4",
							"name": "interfaceId",
							"type": "bytes4"
						}
					],
					"name": "supportsInterface",
					"outputs": [
						{
							"internalType": "bool",
							"name": "",
							"type": "bool"
						}
					],
					"stateMutability": "view",
					"type": "function"
				},
				{
					"inputs": [],
					"name": "symbol",
					"outputs": [
						{
							"internalType": "string",
							"name": "",
							"type": "string"
						}
					],
					"stateMutability": "view",
					"type": "function"
				},
				{
					"inputs": [
						{
							"internalType": "uint256",
							"name": "tokenId",
							"type": "uint256"
						}
					],
					"name": "tokenURI",
					"outputs": [
						{
							"internalType": "string",
							"name": "",
							"type": "string"
						}
					],
					"stateMutability": "view",
					"type": "function"
				},
				{
					"inputs": [
						{
							"internalType": "address",
							"name": "from",
							"type": "address"
						},
						{
							"internalType": "address",
							"name": "to",
							"type": "address"
						},
						{
							"internalType": "uint256",
							"name": "tokenId",
							"type": "uint256"
						}
					],
					"name": "transferFrom",
					"outputs": [],
					"stateMutability": "nonpayable",
					"type": "function"
				}
			],
			"devdoc": {
				"errors": {
					"ERC721IncorrectOwner(address,uint256,address)": [
						{
							"details": "Indicates an error related to the ownership over a particular token. Used in transfers.",
							"params": {
								"owner": "Address of the current owner of a token.",
								"sender": "Address whose tokens are being transferred.",
								"tokenId": "Identifier number of a token."
							}
						}
					],
					"ERC721InsufficientApproval(address,uint256)": [
						{
							"details": "Indicates a failure with the `operator`’s approval. Used in transfers.",
							"params": {
								"operator": "Address that may be allowed to operate on tokens without being their owner.",
								"tokenId": "Identifier number of a token."
							}
						}
					],
					"ERC721InvalidApprover(address)": [
						{
							"details": "Indicates a failure with the `approver` of a token to be approved. Used in approvals.",
							"params": {
								"approver": "Address initiating an approval operation."
							}
						}
					],
					"ERC721InvalidOperator(address)": [
						{
							"details": "Indicates a failure with the `operator` to be approved. Used in approvals.",
							"params": {
								"operator": "Address that may be allowed to operate on tokens without being their owner."
							}
						}
					],
					"ERC721InvalidOwner(address)": [
						{
							"details": "Indicates that an address can't be an owner. For example, `address(0)` is a forbidden owner in EIP-20. Used in balance queries.",
							"params": {
								"owner": "Address of the current owner of a token."
							}
						}
					],
					"ERC721InvalidReceiver(address)": [
						{
							"details": "Indicates a failure with the token `receiver`. Used in transfers.",
							"params": {
								"receiver": "Address to which tokens are being transferred."
							}
						}
					],
					"ERC721InvalidSender(address)": [
						{
							"details": "Indicates a failure with the token `sender`. Used in transfers.",
							"params": {
								"sender": "Address whose tokens are being transferred."
							}
						}
					],
					"ERC721NonexistentToken(uint256)": [
						{
							"details": "Indicates a `tokenId` whose `owner` is the zero address.",
							"params": {
								"tokenId": "Identifier number of a token."
							}
						}
					]
				},
				"events": {
					"Approval(address,address,uint256)": {
						"details": "Emitted when `owner` enables `approved` to manage the `tokenId` token."
					},
					"ApprovalForAll(address,address,bool)": {
						"details": "Emitted when `owner` enables or disables (`approved`) `operator` to manage all of its assets."
					},
					"Transfer(address,address,uint256)": {
						"details": "Emitted when `tokenId` token is transferred from `from` to `to`."
					}
				},
				"kind": "dev",
				"methods": {
					"approve(address,uint256)": {
						"details": "See {IERC721-approve}."
					},
					"balanceOf(address)": {
						"details": "See {IERC721-balanceOf}."
					},
					"getApproved(uint256)": {
						"details": "See {IERC721-getApproved}."
					},
					"isApprovedForAll(address,address)": {
						"details": "See {IERC721-isApprovedForAll}."
					},
					"name()": {
						"details": "See {IERC721Metadata-name}."
					},
					"ownerOf(uint256)": {
						"details": "See {IERC721-ownerOf}."
					},
					"safeTransferFrom(address,address,uint256)": {
						"details": "See {IERC721-safeTransferFrom}."
					},
					"safeTransferFrom(address,address,uint256,bytes)": {
						"details": "See {IERC721-safeTransferFrom}."
					},
					"setApprovalForAll(address,bool)": {
						"details": "See {IERC721-setApprovalForAll}."
					},
					"supportsInterface(bytes4)": {
						"details": "See {IERC165-supportsInterface}."
					},
					"symbol()": {
						"details": "See {IERC721Metadata-symbol}."
					},
					"tokenURI(uint256)": {
						"details": "See {IERC721Metadata-tokenURI}."
					},
					"transferFrom(address,address,uint256)": {
						"details": "See {IERC721-transferFrom}."
					}
				},
				"version": 1
			},
			"evm": {
				"assembly": "    /* \"contracts/PokeDIO.sol\":117:1295  contract PokeDIO is ERC721{... */\n  mstore(0x40, 0x80)\n    /* \"contracts/PokeDIO.sol\":300:379  constructor () ERC721 (\"PokeDIO\", \"PKD\"){... */\n  callvalue\n  dup1\n  iszero\n  tag_1\n  jumpi\n  0x00\n  dup1\n  revert\ntag_1:\n  pop\n    /* \"@openzeppelin/contracts/token/ERC721/ERC721.sol\":1381:1494  constructor(string memory name_, string memory symbol_) {... */\n  mload(0x40)\n  dup1\n  0x40\n  add\n  0x40\n  mstore\n  dup1\n  0x07\n  dup2\n  mstore\n  0x20\n  add\n  0x506f6b6544494f00000000000000000000000000000000000000000000000000\n  dup2\n  mstore\n  pop\n  mload(0x40)\n  dup1\n  0x40\n  add\n  0x40\n  mstore\n  dup1\n  0x03\n  dup2\n  mstore\n  0x20\n  add\n  0x504b440000000000000000000000000000000000000000000000000000000000\n  dup2\n  mstore\n  pop\n    /* \"@openzeppelin/contracts/token/ERC721/ERC721.sol\":1455:1460  name_ */\n  dup2\n    /* \"@openzeppelin/contracts/token/ERC721/ERC721.sol\":1447:1452  _name */\n  0x00\n    /* \"@openzeppelin/contracts/token/ERC721/ERC721.sol\":1447:1460  _name = name_ */\n  swap1\n  dup2\n  tag_5\n  swap2\n  swap1\n  tag_6\n  jump\t// in\ntag_5:\n  pop\n    /* \"@openzeppelin/contracts/token/ERC721/ERC721.sol\":1480:1487  symbol_ */\n  dup1\n    /* \"@openzeppelin/contracts/token/ERC721/ERC721.sol\":1470:1477  _symbol */\n  0x01\n    /* \"@openzeppelin/contracts/token/ERC721/ERC721.sol\":1470:1487  _symbol = symbol_ */\n  swap1\n  dup2\n  tag_7\n  swap2\n  swap1\n  tag_6\n  jump\t// in\ntag_7:\n  pop\n    /* \"@openzeppelin/contracts/token/ERC721/ERC721.sol\":1381:1494  constructor(string memory name_, string memory symbol_) {... */\n  pop\n  pop\n    /* \"contracts/PokeDIO.sol\":362:372  msg.sender */\n  caller\n    /* \"contracts/PokeDIO.sol\":350:359  gameOwner */\n  0x07\n  0x00\n    /* \"contracts/PokeDIO.sol\":350:372  gameOwner = msg.sender */\n  0x0100\n  exp\n  dup2\n  sload\n  dup2\n  0xffffffffffffffffffffffffffffffffffffffff\n  mul\n  not\n  and\n  swap1\n  dup4\n  0xffffffffffffffffffffffffffffffffffffffff\n  and\n  mul\n  or\n  swap1\n  sstore\n  pop\n    /* \"contracts/PokeDIO.sol\":117:1295  contract PokeDIO is ERC721{... */\n  jump(tag_9)\n    /* \"#utility.yul\":7:106   */\ntag_10:\n    /* \"#utility.yul\":59:65   */\n  0x00\n    /* \"#utility.yul\":93:98   */\n  dup2\n    /* \"#utility.yul\":87:99   */\n  mload\n    /* \"#utility.yul\":77:99   */\n  swap1\n  pop\n    /* \"#utility.yul\":7:106   */\n  swap2\n  swap1\n  pop\n  jump\t// out\n    /* \"#utility.yul\":112:292   */\ntag_11:\n    /* \"#utility.yul\":160:237   */\n  0x4e487b7100000000000000000000000000000000000000000000000000000000\n    /* \"#utility.yul\":157:158   */\n  0x00\n    /* \"#utility.yul\":150:238   */\n  mstore\n    /* \"#utility.yul\":257:261   */\n  0x41\n    /* \"#utility.yul\":254:255   */\n  0x04\n    /* \"#utility.yul\":247:262   */\n  mstore\n    /* \"#utility.yul\":281:285   */\n  0x24\n    /* \"#utility.yul\":278:279   */\n  0x00\n    /* \"#utility.yul\":271:286   */\n  revert\n    /* \"#utility.yul\":298:478   */\ntag_12:\n    /* \"#utility.yul\":346:423   */\n  0x4e487b7100000000000000000000000000000000000000000000000000000000\n    /* \"#utility.yul\":343:344   */\n  0x00\n    /* \"#utility.yul\":336:424   */\n  mstore\n    /* \"#utility.yul\":443:447   */\n  0x22\n    /* \"#utility.yul\":440:441   */\n  0x04\n    /* \"#utility.yul\":433:448   */\n  mstore\n    /* \"#utility.yul\":467:471   */\n  0x24\n    /* \"#utility.yul\":464:465   */\n  0x00\n    /* \"#utility.yul\":457:472   */\n  revert\n    /* \"#utility.yul\":484:804   */\ntag_13:\n    /* \"#utility.yul\":528:534   */\n  0x00\n    /* \"#utility.yul\":565:566   */\n  0x02\n    /* \"#utility.yul\":559:563   */\n  dup3\n    /* \"#utility.yul\":555:567   */\n  div\n    /* \"#utility.yul\":545:567   */\n  swap1\n  pop\n    /* \"#utility.yul\":612:613   */\n  0x01\n    /* \"#utility.yul\":606:610   */\n  dup3\n    /* \"#utility.yul\":602:614   */\n  and\n    /* \"#utility.yul\":633:651   */\n  dup1\n    /* \"#utility.yul\":623:704   */\n  tag_35\n  jumpi\n    /* \"#utility.yul\":689:693   */\n  0x7f\n    /* \"#utility.yul\":681:687   */\n  dup3\n    /* \"#utility.yul\":677:694   */\n  and\n    /* \"#utility.yul\":667:694   */\n  swap2\n  pop\n    /* \"#utility.yul\":623:704   */\ntag_35:\n    /* \"#utility.yul\":751:753   */\n  0x20\n    /* \"#utility.yul\":743:749   */\n  dup3\n    /* \"#utility.yul\":740:754   */\n  lt\n    /* \"#utility.yul\":720:738   */\n  dup2\n    /* \"#utility.yul\":717:755   */\n  sub\n    /* \"#utility.yul\":714:798   */\n  tag_36\n  jumpi\n    /* \"#utility.yul\":770:788   */\n  tag_37\n  tag_12\n  jump\t// in\ntag_37:\n    /* \"#utility.yul\":714:798   */\ntag_36:\n    /* \"#utility.yul\":535:804   */\n  pop\n    /* \"#utility.yul\":484:804   */\n  swap2\n  swap1\n  pop\n  jump\t// out\n    /* \"#utility.yul\":810:951   */\ntag_14:\n    /* \"#utility.yul\":859:863   */\n  0x00\n    /* \"#utility.yul\":882:885   */\n  dup2\n    /* \"#utility.yul\":874:885   */\n  swap1\n  pop\n    /* \"#utility.yul\":905:908   */\n  dup2\n    /* \"#utility.yul\":902:903   */\n  0x00\n    /* \"#utility.yul\":895:909   */\n  mstore\n    /* \"#utility.yul\":939:943   */\n  0x20\n    /* \"#utility.yul\":936:937   */\n  0x00\n    /* \"#utility.yul\":926:944   */\n  keccak256\n    /* \"#utility.yul\":918:944   */\n  swap1\n  pop\n    /* \"#utility.yul\":810:951   */\n  swap2\n  swap1\n  pop\n  jump\t// out\n    /* \"#utility.yul\":957:1050   */\ntag_15:\n    /* \"#utility.yul\":994:1000   */\n  0x00\n    /* \"#utility.yul\":1041:1043   */\n  0x20\n    /* \"#utility.yul\":1036:1038   */\n  0x1f\n    /* \"#utility.yul\":1029:1034   */\n  dup4\n    /* \"#utility.yul\":1025:1039   */\n  add\n    /* \"#utility.yul\":1021:1044   */\n  div\n    /* \"#utility.yul\":1011:1044   */\n  swap1\n  pop\n    /* \"#utility.yul\":957:1050   */\n  swap2\n  swap1\n  pop\n  jump\t// out\n    /* \"#utility.yul\":1056:1163   */\ntag_16:\n    /* \"#utility.yul\":1100:1108   */\n  0x00\n    /* \"#utility.yul\":1150:1155   */\n  dup3\n    /* \"#utility.yul\":1144:1148   */\n  dup3\n    /* \"#utility.yul\":1140:1156   */\n  shl\n    /* \"#utility.yul\":1119:1156   */\n  swap1\n  pop\n    /* \"#utility.yul\":1056:1163   */\n  swap3\n  swap2\n  pop\n  pop\n  jump\t// out\n    /* \"#utility.yul\":1169:1562   */\ntag_17:\n    /* \"#utility.yul\":1238:1244   */\n  0x00\n    /* \"#utility.yul\":1288:1289   */\n  0x08\n    /* \"#utility.yul\":1276:1286   */\n  dup4\n    /* \"#utility.yul\":1272:1290   */\n  mul\n    /* \"#utility.yul\":1311:1408   */\n  tag_42\n    /* \"#utility.yul\":1341:1407   */\n  0xffffffffffffffffffffffffffffffffffffffffffffffffffffffffffffffff\n    /* \"#utility.yul\":1330:1339   */\n  dup3\n    /* \"#utility.yul\":1311:1408   */\n  tag_16\n  jump\t// in\ntag_42:\n    /* \"#utility.yul\":1429:1468   */\n  tag_43\n    /* \"#utility.yul\":1459:1467   */\n  dup7\n    /* \"#utility.yul\":1448:1457   */\n  dup4\n    /* \"#utility.yul\":1429:1468   */\n  tag_16\n  jump\t// in\ntag_43:\n    /* \"#utility.yul\":1417:1468   */\n  swap6\n  pop\n    /* \"#utility.yul\":1501:1505   */\n  dup1\n    /* \"#utility.yul\":1497:1506   */\n  not\n    /* \"#utility.yul\":1490:1495   */\n  dup5\n    /* \"#utility.yul\":1486:1507   */\n  and\n    /* \"#utility.yul\":1477:1507   */\n  swap4\n  pop\n    /* \"#utility.yul\":1550:1554   */\n  dup1\n    /* \"#utility.yul\":1540:1548   */\n  dup7\n    /* \"#utility.yul\":1536:1555   */\n  and\n    /* \"#utility.yul\":1529:1534   */\n  dup5\n    /* \"#utility.yul\":1526:1556   */\n  or\n    /* \"#utility.yul\":1516:1556   */\n  swap3\n  pop\n    /* \"#utility.yul\":1245:1562   */\n  pop\n  pop\n    /* \"#utility.yul\":1169:1562   */\n  swap4\n  swap3\n  pop\n  pop\n  pop\n  jump\t// out\n    /* \"#utility.yul\":1568:1645   */\ntag_18:\n    /* \"#utility.yul\":1605:1612   */\n  0x00\n    /* \"#utility.yul\":1634:1639   */\n  dup2\n    /* \"#utility.yul\":1623:1639   */\n  swap1\n  pop\n    /* \"#utility.yul\":1568:1645   */\n  swap2\n  swap1\n  pop\n  jump\t// out\n    /* \"#utility.yul\":1651:1711   */\ntag_19:\n    /* \"#utility.yul\":1679:1682   */\n  0x00\n    /* \"#utility.yul\":1700:1705   */\n  dup2\n    /* \"#utility.yul\":1693:1705   */\n  swap1\n  pop\n    /* \"#utility.yul\":1651:1711   */\n  swap2\n  swap1\n  pop\n  jump\t// out\n    /* \"#utility.yul\":1717:1859   */\ntag_20:\n    /* \"#utility.yul\":1767:1776   */\n  0x00\n    /* \"#utility.yul\":1800:1853   */\n  tag_47\n    /* \"#utility.yul\":1818:1852   */\n  tag_48\n    /* \"#utility.yul\":1827:1851   */\n  tag_49\n    /* \"#utility.yul\":1845:1850   */\n  dup5\n    /* \"#utility.yul\":1827:1851   */\n  tag_18\n  jump\t// in\ntag_49:\n    /* \"#utility.yul\":1818:1852   */\n  tag_19\n  jump\t// in\ntag_48:\n    /* \"#utility.yul\":1800:1853   */\n  tag_18\n  jump\t// in\ntag_47:\n    /* \"#utility.yul\":1787:1853   */\n  swap1\n  pop\n    /* \"#utility.yul\":1717:1859   */\n  swap2\n  swap1\n  pop\n  jump\t// out\n    /* \"#utility.yul\":1865:1940   */\ntag_21:\n    /* \"#utility.yul\":1908:1911   */\n  0x00\n    /* \"#utility.yul\":1929:1934   */\n  dup2\n    /* \"#utility.yul\":1922:1934   */\n  swap1\n  pop\n    /* \"#utility.yul\":1865:1940   */\n  swap2\n  swap1\n  pop\n  jump\t// out\n    /* \"#utility.yul\":1946:2215   */\ntag_22:\n    /* \"#utility.yul\":2056:2095   */\n  tag_52\n    /* \"#utility.yul\":2087:2094   */\n  dup4\n    /* \"#utility.yul\":2056:2095   */\n  tag_20\n  jump\t// in\ntag_52:\n    /* \"#utility.yul\":2117:2208   */\n  tag_53\n    /* \"#utility.yul\":2166:2207   */\n  tag_54\n    /* \"#utility.yul\":2190:2206   */\n  dup3\n    /* \"#utility.yul\":2166:2207   */\n  tag_21\n  jump\t// in\ntag_54:\n    /* \"#utility.yul\":2158:2164   */\n  dup5\n    /* \"#utility.yul\":2151:2155   */\n  dup5\n    /* \"#utility.yul\":2145:2156   */\n  sload\n    /* \"#utility.yul\":2117:2208   */\n  tag_17\n  jump\t// in\ntag_53:\n    /* \"#utility.yul\":2111:2115   */\n  dup3\n    /* \"#utility.yul\":2104:2209   */\n  sstore\n    /* \"#utility.yul\":2022:2215   */\n  pop\n    /* \"#utility.yul\":1946:2215   */\n  pop\n  pop\n  pop\n  jump\t// out\n    /* \"#utility.yul\":2221:2294   */\ntag_23:\n    /* \"#utility.yul\":2266:2269   */\n  0x00\n    /* \"#utility.yul\":2221:2294   */\n  swap1\n  jump\t// out\n    /* \"#utility.yul\":2300:2489   */\ntag_24:\n    /* \"#utility.yul\":2377:2409   */\n  tag_57\n  tag_23\n  jump\t// in\ntag_57:\n    /* \"#utility.yul\":2418:2483   */\n  tag_58\n    /* \"#utility.yul\":2476:2482   */\n  dup2\n    /* \"#utility.yul\":2468:2474   */\n  dup5\n    /* \"#utility.yul\":2462:2466   */\n  dup5\n    /* \"#utility.yul\":2418:2483   */\n  tag_22\n  jump\t// in\ntag_58:\n    /* \"#utility.yul\":2353:2489   */\n  pop\n    /* \"#utility.yul\":2300:2489   */\n  pop\n  pop\n  jump\t// out\n    /* \"#utility.yul\":2495:2681   */\ntag_25:\n    /* \"#utility.yul\":2555:2675   */\ntag_60:\n    /* \"#utility.yul\":2572:2575   */\n  dup2\n    /* \"#utility.yul\":2565:2570   */\n  dup2\n    /* \"#utility.yul\":2562:2576   */\n  lt\n    /* \"#utility.yul\":2555:2675   */\n  iszero\n  tag_62\n  jumpi\n    /* \"#utility.yul\":2626:2665   */\n  tag_63\n    /* \"#utility.yul\":2663:2664   */\n  0x00\n    /* \"#utility.yul\":2656:2661   */\n  dup3\n    /* \"#utility.yul\":2626:2665   */\n  tag_24\n  jump\t// in\ntag_63:\n    /* \"#utility.yul\":2599:2600   */\n  0x01\n    /* \"#utility.yul\":2592:2597   */\n  dup2\n    /* \"#utility.yul\":2588:2601   */\n  add\n    /* \"#utility.yul\":2579:2601   */\n  swap1\n  pop\n    /* \"#utility.yul\":2555:2675   */\n  jump(tag_60)\ntag_62:\n    /* \"#utility.yul\":2495:2681   */\n  pop\n  pop\n  jump\t// out\n    /* \"#utility.yul\":2687:3230   */\ntag_26:\n    /* \"#utility.yul\":2788:2790   */\n  0x1f\n    /* \"#utility.yul\":2783:2786   */\n  dup3\n    /* \"#utility.yul\":2780:2791   */\n  gt\n    /* \"#utility.yul\":2777:3223   */\n  iszero\n  tag_65\n  jumpi\n    /* \"#utility.yul\":2822:2860   */\n  tag_66\n    /* \"#utility.yul\":2854:2859   */\n  dup2\n    /* \"#utility.yul\":2822:2860   */\n  tag_14\n  jump\t// in\ntag_66:\n    /* \"#utility.yul\":2906:2935   */\n  tag_67\n    /* \"#utility.yul\":2924:2934   */\n  dup5\n    /* \"#utility.yul\":2906:2935   */\n  tag_15\n  jump\t// in\ntag_67:\n    /* \"#utility.yul\":2896:2904   */\n  dup2\n    /* \"#utility.yul\":2892:2936   */\n  add\n    /* \"#utility.yul\":3089:3091   */\n  0x20\n    /* \"#utility.yul\":3077:3087   */\n  dup6\n    /* \"#utility.yul\":3074:3092   */\n  lt\n    /* \"#utility.yul\":3071:3120   */\n  iszero\n  tag_68\n  jumpi\n    /* \"#utility.yul\":3110:3118   */\n  dup2\n    /* \"#utility.yul\":3095:3118   */\n  swap1\n  pop\n    /* \"#utility.yul\":3071:3120   */\ntag_68:\n    /* \"#utility.yul\":3133:3213   */\n  tag_69\n    /* \"#utility.yul\":3189:3211   */\n  tag_70\n    /* \"#utility.yul\":3207:3210   */\n  dup6\n    /* \"#utility.yul\":3189:3211   */\n  tag_15\n  jump\t// in\ntag_70:\n    /* \"#utility.yul\":3179:3187   */\n  dup4\n    /* \"#utility.yul\":3175:3212   */\n  add\n    /* \"#utility.yul\":3162:3173   */\n  dup3\n    /* \"#utility.yul\":3133:3213   */\n  tag_25\n  jump\t// in\ntag_69:\n    /* \"#utility.yul\":2792:3223   */\n  pop\n  pop\n    /* \"#utility.yul\":2777:3223   */\ntag_65:\n    /* \"#utility.yul\":2687:3230   */\n  pop\n  pop\n  pop\n  jump\t// out\n    /* \"#utility.yul\":3236:3353   */\ntag_27:\n    /* \"#utility.yul\":3290:3298   */\n  0x00\n    /* \"#utility.yul\":3340:3345   */\n  dup3\n    /* \"#utility.yul\":3334:3338   */\n  dup3\n    /* \"#utility.yul\":3330:3346   */\n  shr\n    /* \"#utility.yul\":3309:3346   */\n  swap1\n  pop\n    /* \"#utility.yul\":3236:3353   */\n  swap3\n  swap2\n  pop\n  pop\n  jump\t// out\n    /* \"#utility.yul\":3359:3528   */\ntag_28:\n    /* \"#utility.yul\":3403:3409   */\n  0x00\n    /* \"#utility.yul\":3436:3487   */\n  tag_73\n    /* \"#utility.yul\":3484:3485   */\n  0x00\n    /* \"#utility.yul\":3480:3486   */\n  not\n    /* \"#utility.yul\":3472:3477   */\n  dup5\n    /* \"#utility.yul\":3469:3470   */\n  0x08\n    /* \"#utility.yul\":3465:3478   */\n  mul\n    /* \"#utility.yul\":3436:3487   */\n  tag_27\n  jump\t// in\ntag_73:\n    /* \"#utility.yul\":3432:3488   */\n  not\n    /* \"#utility.yul\":3517:3521   */\n  dup1\n    /* \"#utility.yul\":3511:3515   */\n  dup4\n    /* \"#utility.yul\":3507:3522   */\n  and\n    /* \"#utility.yul\":3497:3522   */\n  swap2\n  pop\n    /* \"#utility.yul\":3410:3528   */\n  pop\n    /* \"#utility.yul\":3359:3528   */\n  swap3\n  swap2\n  pop\n  pop\n  jump\t// out\n    /* \"#utility.yul\":3533:3828   */\ntag_29:\n    /* \"#utility.yul\":3609:3613   */\n  0x00\n    /* \"#utility.yul\":3755:3784   */\n  tag_75\n    /* \"#utility.yul\":3780:3783   */\n  dup4\n    /* \"#utility.yul\":3774:3778   */\n  dup4\n    /* \"#utility.yul\":3755:3784   */\n  tag_28\n  jump\t// in\ntag_75:\n    /* \"#utility.yul\":3747:3784   */\n  swap2\n  pop\n    /* \"#utility.yul\":3817:3820   */\n  dup3\n    /* \"#utility.yul\":3814:3815   */\n  0x02\n    /* \"#utility.yul\":3810:3821   */\n  mul\n    /* \"#utility.yul\":3804:3808   */\n  dup3\n    /* \"#utility.yul\":3801:3822   */\n  or\n    /* \"#utility.yul\":3793:3822   */\n  swap1\n  pop\n    /* \"#utility.yul\":3533:3828   */\n  swap3\n  swap2\n  pop\n  pop\n  jump\t// out\n    /* \"#utility.yul\":3833:5228   */\ntag_6:\n    /* \"#utility.yul\":3950:3987   */\n  tag_77\n    /* \"#utility.yul\":3983:3986   */\n  dup3\n    /* \"#utility.yul\":3950:3987   */\n  tag_10\n  jump\t// in\ntag_77:\n    /* \"#utility.yul\":4052:4070   */\n  0xffffffffffffffff\n    /* \"#utility.yul\":4044:4050   */\n  dup2\n    /* \"#utility.yul\":4041:4071   */\n  gt\n    /* \"#utility.yul\":4038:4094   */\n  iszero\n  tag_78\n  jumpi\n    /* \"#utility.yul\":4074:4092   */\n  tag_79\n  tag_11\n  jump\t// in\ntag_79:\n    /* \"#utility.yul\":4038:4094   */\ntag_78:\n    /* \"#utility.yul\":4118:4156   */\n  tag_80\n    /* \"#utility.yul\":4150:4154   */\n  dup3\n    /* \"#utility.yul\":4144:4155   */\n  sload\n    /* \"#utility.yul\":4118:4156   */\n  tag_13\n  jump\t// in\ntag_80:\n    /* \"#utility.yul\":4203:4270   */\n  tag_81\n    /* \"#utility.yul\":4263:4269   */\n  dup3\n    /* \"#utility.yul\":4255:4261   */\n  dup3\n    /* \"#utility.yul\":4249:4253   */\n  dup6\n    /* \"#utility.yul\":4203:4270   */\n  tag_26\n  jump\t// in\ntag_81:\n    /* \"#utility.yul\":4297:4298   */\n  0x00\n    /* \"#utility.yul\":4321:4325   */\n  0x20\n    /* \"#utility.yul\":4308:4325   */\n  swap1\n  pop\n    /* \"#utility.yul\":4353:4355   */\n  0x1f\n    /* \"#utility.yul\":4345:4351   */\n  dup4\n    /* \"#utility.yul\":4342:4356   */\n  gt\n    /* \"#utility.yul\":4370:4371   */\n  0x01\n    /* \"#utility.yul\":4365:4983   */\n  dup2\n  eq\n  tag_83\n  jumpi\n    /* \"#utility.yul\":5027:5028   */\n  0x00\n    /* \"#utility.yul\":5044:5050   */\n  dup5\n    /* \"#utility.yul\":5041:5118   */\n  iszero\n  tag_84\n  jumpi\n    /* \"#utility.yul\":5093:5102   */\n  dup3\n    /* \"#utility.yul\":5088:5091   */\n  dup8\n    /* \"#utility.yul\":5084:5103   */\n  add\n    /* \"#utility.yul\":5078:5104   */\n  mload\n    /* \"#utility.yul\":5069:5104   */\n  swap1\n  pop\n    /* \"#utility.yul\":5041:5118   */\ntag_84:\n    /* \"#utility.yul\":5144:5211   */\n  tag_85\n    /* \"#utility.yul\":5204:5210   */\n  dup6\n    /* \"#utility.yul\":5197:5202   */\n  dup3\n    /* \"#utility.yul\":5144:5211   */\n  tag_29\n  jump\t// in\ntag_85:\n    /* \"#utility.yul\":5138:5142   */\n  dup7\n    /* \"#utility.yul\":5131:5212   */\n  sstore\n    /* \"#utility.yul\":5000:5222   */\n  pop\n    /* \"#utility.yul\":4335:5222   */\n  jump(tag_82)\n    /* \"#utility.yul\":4365:4983   */\ntag_83:\n    /* \"#utility.yul\":4417:4421   */\n  0x1f\n    /* \"#utility.yul\":4413:4422   */\n  not\n    /* \"#utility.yul\":4405:4411   */\n  dup5\n    /* \"#utility.yul\":4401:4423   */\n  and\n    /* \"#utility.yul\":4451:4488   */\n  tag_86\n    /* \"#utility.yul\":4483:4487   */\n  dup7\n    /* \"#utility.yul\":4451:4488   */\n  tag_14\n  jump\t// in\ntag_86:\n    /* \"#utility.yul\":4510:4511   */\n  0x00\n    /* \"#utility.yul\":4524:4732   */\ntag_87:\n    /* \"#utility.yul\":4538:4545   */\n  dup3\n    /* \"#utility.yul\":4535:4536   */\n  dup2\n    /* \"#utility.yul\":4532:4546   */\n  lt\n    /* \"#utility.yul\":4524:4732   */\n  iszero\n  tag_89\n  jumpi\n    /* \"#utility.yul\":4617:4626   */\n  dup5\n    /* \"#utility.yul\":4612:4615   */\n  dup10\n    /* \"#utility.yul\":4608:4627   */\n  add\n    /* \"#utility.yul\":4602:4628   */\n  mload\n    /* \"#utility.yul\":4594:4600   */\n  dup3\n    /* \"#utility.yul\":4587:4629   */\n  sstore\n    /* \"#utility.yul\":4668:4669   */\n  0x01\n    /* \"#utility.yul\":4660:4666   */\n  dup3\n    /* \"#utility.yul\":4656:4670   */\n  add\n    /* \"#utility.yul\":4646:4670   */\n  swap2\n  pop\n    /* \"#utility.yul\":4715:4717   */\n  0x20\n    /* \"#utility.yul\":4704:4713   */\n  dup6\n    /* \"#utility.yul\":4700:4718   */\n  add\n    /* \"#utility.yul\":4687:4718   */\n  swap5\n  pop\n    /* \"#utility.yul\":4561:4565   */\n  0x20\n    /* \"#utility.yul\":4558:4559   */\n  dup2\n    /* \"#utility.yul\":4554:4566   */\n  add\n    /* \"#utility.yul\":4549:4566   */\n  swap1\n  pop\n    /* \"#utility.yul\":4524:4732   */\n  jump(tag_87)\ntag_89:\n    /* \"#utility.yul\":4760:4766   */\n  dup7\n    /* \"#utility.yul\":4751:4758   */\n  dup4\n    /* \"#utility.yul\":4748:4767   */\n  lt\n    /* \"#utility.yul\":4745:4924   */\n  iszero\n  tag_90\n  jumpi\n    /* \"#utility.yul\":4818:4827   */\n  dup5\n    /* \"#utility.yul\":4813:4816   */\n  dup10\n    /* \"#utility.yul\":4809:4828   */\n  add\n    /* \"#utility.yul\":4803:4829   */\n  mload\n    /* \"#utility.yul\":4861:4909   */\n  tag_91\n    /* \"#utility.yul\":4903:4907   */\n  0x1f\n    /* \"#utility.yul\":4895:4901   */\n  dup10\n    /* \"#utility.yul\":4891:4908   */\n  and\n    /* \"#utility.yul\":4880:4889   */\n  dup3\n    /* \"#utility.yul\":4861:4909   */\n  tag_28\n  jump\t// in\ntag_91:\n    /* \"#utility.yul\":4853:4859   */\n  dup4\n    /* \"#utility.yul\":4846:4910   */\n  sstore\n    /* \"#utility.yul\":4768:4924   */\n  pop\n    /* \"#utility.yul\":4745:4924   */\ntag_90:\n    /* \"#utility.yul\":4970:4971   */\n  0x01\n    /* \"#utility.yul\":4966:4967   */\n  0x02\n    /* \"#utility.yul\":4958:4964   */\n  dup9\n    /* \"#utility.yul\":4954:4968   */\n  mul\n    /* \"#utility.yul\":4950:4972   */\n  add\n    /* \"#utility.yul\":4944:4948   */\n  dup9\n    /* \"#utility.yul\":4937:4973   */\n  sstore\n    /* \"#utility.yul\":4372:4983   */\n  pop\n  pop\n  pop\n    /* \"#utility.yul\":4335:5222   */\ntag_82:\n  pop\n    /* \"#utility.yul\":3925:5228   */\n  pop\n  pop\n  pop\n    /* \"#utility.yul\":3833:5228   */\n  pop\n  pop\n  jump\t// out\n    /* \"contracts/PokeDIO.sol\":117:1295  contract PokeDIO is ERC721{... */\ntag_9:\n  dataSize(sub_0)\n  dup1\n  dataOffset(sub_0)\n  0x00\n  codecopy\n  0x00\n  return\nstop\n\nsub_0: assembly {\n        /* \"contracts/PokeDIO.sol\":117:1295  contract PokeDIO is ERC721{... */\n      mstore(0x40, 0x80)\n      callvalue\n      dup1\n      iszero\n      tag_1\n      jumpi\n      0x00\n      dup1\n      revert\n    tag_1:\n      pop\n      jumpi(tag_2, lt(calldatasize, 0x04))\n      shr(0xe0, calldataload(0x00))\n      dup1\n      0x6352211e\n      gt\n      tag_20\n      jumpi\n      dup1\n      0xa22cb465\n      gt\n      tag_21\n      jumpi\n      dup1\n      0xa22cb465\n      eq\n      tag_15\n      jumpi\n      dup1\n      0xb88d4fde\n      eq\n      tag_16\n      jumpi\n      dup1\n      0xc87b56dd\n      eq\n      tag_17\n      jumpi\n      dup1\n      0xe985e9c5\n      eq\n      tag_18\n      jumpi\n      dup1\n      0xf6b12f28\n      eq\n      tag_19\n      jumpi\n      jump(tag_2)\n    tag_21:\n      dup1\n      0x6352211e\n      eq\n      tag_11\n      jumpi\n      dup1\n      0x70a08231\n      eq\n      tag_12\n      jumpi\n      dup1\n      0x85831079\n      eq\n      tag_13\n      jumpi\n      dup1\n      0x95d89b41\n      eq\n      tag_14\n      jumpi\n      jump(tag_2)\n    tag_20:\n      dup1\n      0x23b872dd\n      gt\n      tag_22\n      jumpi\n      dup1\n      0x23b872dd\n      eq\n      tag_7\n      jumpi\n      dup1\n      0x2a0c5221\n      eq\n      tag_8\n      jumpi\n      dup1\n      0x42842e0e\n      eq\n      tag_9\n      jumpi\n      dup1\n      0x555072de\n      eq\n      tag_10\n      jumpi\n      jump(tag_2)\n    tag_22:\n      dup1\n      0x01ffc9a7\n      eq\n      tag_3\n      jumpi\n      dup1\n      0x06fdde03\n      eq\n      tag_4\n      jumpi\n      dup1\n      0x081812fc\n      eq\n      tag_5\n      jumpi\n      dup1\n      0x095ea7b3\n      eq\n      tag_6\n      jumpi\n    tag_2:\n      0x00\n      dup1\n      revert\n        /* \"@openzeppelin/contracts/token/ERC721/ERC721.sol\":1561:1861  function supportsInterface(bytes4 interfaceId) public view virtual override(ERC165, IERC165) returns (bool) {... */\n    tag_3:\n      tag_23\n      0x04\n      dup1\n      calldatasize\n      sub\n      dup2\n      add\n      swap1\n      tag_24\n      swap2\n      swap1\n      tag_25\n      jump\t// in\n    tag_24:\n      tag_26\n      jump\t// in\n    tag_23:\n      mload(0x40)\n      tag_27\n      swap2\n      swap1\n      tag_28\n      jump\t// in\n    tag_27:\n      mload(0x40)\n      dup1\n      swap2\n      sub\n      swap1\n      return\n        /* \"@openzeppelin/contracts/token/ERC721/ERC721.sol\":2365:2454  function name() public view virtual returns (string memory) {... */\n    tag_4:\n      tag_29\n      tag_30\n      jump\t// in\n    tag_29:\n      mload(0x40)\n      tag_31\n      swap2\n      swap1\n      tag_32\n      jump\t// in\n    tag_31:\n      mload(0x40)\n      dup1\n      swap2\n      sub\n      swap1\n      return\n        /* \"@openzeppelin/contracts/token/ERC721/ERC721.sol\":3497:3651  function getApproved(uint256 tokenId) public view virtual returns (address) {... */\n    tag_5:\n      tag_33\n      0x04\n      dup1\n      calldatasize\n      sub\n      dup2\n      add\n      swap1\n      tag_34\n      swap2\n      swap1\n      tag_35\n      jump\t// in\n    tag_34:\n      tag_36\n      jump\t// in\n    tag_33:\n      mload(0x40)\n      tag_37\n      swap2\n      swap1\n      tag_38\n      jump\t// in\n    tag_37:\n      mload(0x40)\n      dup1\n      swap2\n      sub\n      swap1\n      return\n        /* \"@openzeppelin/contracts/token/ERC721/ERC721.sol\":3323:3436  function approve(address to, uint256 tokenId) public virtual {... */\n    tag_6:\n      tag_39\n      0x04\n      dup1\n      calldatasize\n      sub\n      dup2\n      add\n      swap1\n      tag_40\n      swap2\n      swap1\n      tag_41\n      jump\t// in\n    tag_40:\n      tag_42\n      jump\t// in\n    tag_39:\n      stop\n        /* \"@openzeppelin/contracts/token/ERC721/ERC721.sol\":4143:4721  function transferFrom(address from, address to, uint256 tokenId) public virtual {... */\n    tag_7:\n      tag_43\n      0x04\n      dup1\n      calldatasize\n      sub\n      dup2\n      add\n      swap1\n      tag_44\n      swap2\n      swap1\n      tag_45\n      jump\t// in\n    tag_44:\n      tag_46\n      jump\t// in\n    tag_43:\n      stop\n        /* \"contracts/PokeDIO.sol\":547:990  function battle(uint _attackingPokemon, uint _defendingPokemon) public onlyOwnerOf(_attackingPokemon){... */\n    tag_8:\n      tag_47\n      0x04\n      dup1\n      calldatasize\n      sub\n      dup2\n      add\n      swap1\n      tag_48\n      swap2\n      swap1\n      tag_49\n      jump\t// in\n    tag_48:\n      tag_50\n      jump\t// in\n    tag_47:\n      stop\n        /* \"@openzeppelin/contracts/token/ERC721/ERC721.sol\":4787:4919  function safeTransferFrom(address from, address to, uint256 tokenId) public {... */\n    tag_9:\n      tag_51\n      0x04\n      dup1\n      calldatasize\n      sub\n      dup2\n      add\n      swap1\n      tag_52\n      swap2\n      swap1\n      tag_45\n      jump\t// in\n    tag_52:\n      tag_53\n      jump\t// in\n    tag_51:\n      stop\n        /* \"contracts/PokeDIO.sol\":996:1293  function createNewPokemon(string memory _name, address _to, string memory _img) public {... */\n    tag_10:\n      tag_54\n      0x04\n      dup1\n      calldatasize\n      sub\n      dup2\n      add\n      swap1\n      tag_55\n      swap2\n      swap1\n      tag_56\n      jump\t// in\n    tag_55:\n      tag_57\n      jump\t// in\n    tag_54:\n      stop\n        /* \"@openzeppelin/contracts/token/ERC721/ERC721.sol\":2185:2303  function ownerOf(uint256 tokenId) public view virtual returns (address) {... */\n    tag_11:\n      tag_58\n      0x04\n      dup1\n      calldatasize\n      sub\n      dup2\n      add\n      swap1\n      tag_59\n      swap2\n      swap1\n      tag_35\n      jump\t// in\n    tag_59:\n      tag_60\n      jump\t// in\n    tag_58:\n      mload(0x40)\n      tag_61\n      swap2\n      swap1\n      tag_38\n      jump\t// in\n    tag_61:\n      mload(0x40)\n      dup1\n      swap2\n      sub\n      swap1\n      return\n        /* \"@openzeppelin/contracts/token/ERC721/ERC721.sol\":1920:2128  function balanceOf(address owner) public view virtual returns (uint256) {... */\n    tag_12:\n      tag_62\n      0x04\n      dup1\n      calldatasize\n      sub\n      dup2\n      add\n      swap1\n      tag_63\n      swap2\n      swap1\n      tag_64\n      jump\t// in\n    tag_63:\n      tag_65\n      jump\t// in\n    tag_62:\n      mload(0x40)\n      tag_66\n      swap2\n      swap1\n      tag_67\n      jump\t// in\n    tag_66:\n      mload(0x40)\n      dup1\n      swap2\n      sub\n      swap1\n      return\n        /* \"contracts/PokeDIO.sol\":238:263  Pokemon[] public pokemons */\n    tag_13:\n      tag_68\n      0x04\n      dup1\n      calldatasize\n      sub\n      dup2\n      add\n      swap1\n      tag_69\n      swap2\n      swap1\n      tag_35\n      jump\t// in\n    tag_69:\n      tag_70\n      jump\t// in\n    tag_68:\n      mload(0x40)\n      tag_71\n      swap4\n      swap3\n      swap2\n      swap1\n      tag_72\n      jump\t// in\n    tag_71:\n      mload(0x40)\n      dup1\n      swap2\n      sub\n      swap1\n      return\n        /* \"@openzeppelin/contracts/token/ERC721/ERC721.sol\":2518:2611  function symbol() public view virtual returns (string memory) {... */\n    tag_14:\n      tag_73\n      tag_74\n      jump\t// in\n    tag_73:\n      mload(0x40)\n      tag_75\n      swap2\n      swap1\n      tag_32\n      jump\t// in\n    tag_75:\n      mload(0x40)\n      dup1\n      swap2\n      sub\n      swap1\n      return\n        /* \"@openzeppelin/contracts/token/ERC721/ERC721.sol\":3718:3862  function setApprovalForAll(address operator, bool approved) public virtual {... */\n    tag_15:\n      tag_76\n      0x04\n      dup1\n      calldatasize\n      sub\n      dup2\n      add\n      swap1\n      tag_77\n      swap2\n      swap1\n      tag_78\n      jump\t// in\n    tag_77:\n      tag_79\n      jump\t// in\n    tag_76:\n      stop\n        /* \"@openzeppelin/contracts/token/ERC721/ERC721.sol\":4985:5193  function safeTransferFrom(address from, address to, uint256 tokenId, bytes memory data) public virtual {... */\n    tag_16:\n      tag_80\n      0x04\n      dup1\n      calldatasize\n      sub\n      dup2\n      add\n      swap1\n      tag_81\n      swap2\n      swap1\n      tag_82\n      jump\t// in\n    tag_81:\n      tag_83\n      jump\t// in\n    tag_80:\n      stop\n        /* \"@openzeppelin/contracts/token/ERC721/ERC721.sol\":2677:2932  function tokenURI(uint256 tokenId) public view virtual returns (string memory) {... */\n    tag_17:\n      tag_84\n      0x04\n      dup1\n      calldatasize\n      sub\n      dup2\n      add\n      swap1\n      tag_85\n      swap2\n      swap1\n      tag_35\n      jump\t// in\n    tag_85:\n      tag_86\n      jump\t// in\n    tag_84:\n      mload(0x40)\n      tag_87\n      swap2\n      swap1\n      tag_32\n      jump\t// in\n    tag_87:\n      mload(0x40)\n      dup1\n      swap2\n      sub\n      swap1\n      return\n        /* \"@openzeppelin/contracts/token/ERC721/ERC721.sol\":3928:4081  function isApprovedForAll(address owner, address operator) public view virtual returns (bool) {... */\n    tag_18:\n      tag_88\n      0x04\n      dup1\n      calldatasize\n      sub\n      dup2\n      add\n      swap1\n      tag_89\n      swap2\n      swap1\n      tag_90\n      jump\t// in\n    tag_89:\n      tag_91\n      jump\t// in\n    tag_88:\n      mload(0x40)\n      tag_92\n      swap2\n      swap1\n      tag_28\n      jump\t// in\n    tag_92:\n      mload(0x40)\n      dup1\n      swap2\n      sub\n      swap1\n      return\n        /* \"contracts/PokeDIO.sol\":269:293  address public gameOwner */\n    tag_19:\n      tag_93\n      tag_94\n      jump\t// in\n    tag_93:\n      mload(0x40)\n      tag_95\n      swap2\n      swap1\n      tag_38\n      jump\t// in\n    tag_95:\n      mload(0x40)\n      dup1\n      swap2\n      sub\n      swap1\n      return\n        /* \"@openzeppelin/contracts/token/ERC721/ERC721.sol\":1561:1861  function supportsInterface(bytes4 interfaceId) public view virtual override(ERC165, IERC165) returns (bool) {... */\n    tag_26:\n        /* \"@openzeppelin/contracts/token/ERC721/ERC721.sol\":1663:1667  bool */\n      0x00\n        /* \"@openzeppelin/contracts/token/ERC721/ERC721.sol\":1713:1738  type(IERC721).interfaceId */\n      0x80ac58cd00000000000000000000000000000000000000000000000000000000\n        /* \"@openzeppelin/contracts/token/ERC721/ERC721.sol\":1698:1738  interfaceId == type(IERC721).interfaceId */\n      not(0xffffffffffffffffffffffffffffffffffffffffffffffffffffffff)\n      and\n        /* \"@openzeppelin/contracts/token/ERC721/ERC721.sol\":1698:1709  interfaceId */\n      dup3\n        /* \"@openzeppelin/contracts/token/ERC721/ERC721.sol\":1698:1738  interfaceId == type(IERC721).interfaceId */\n      not(0xffffffffffffffffffffffffffffffffffffffffffffffffffffffff)\n      and\n      eq\n        /* \"@openzeppelin/contracts/token/ERC721/ERC721.sol\":1698:1802  interfaceId == type(IERC721).interfaceId ||... */\n      dup1\n      tag_97\n      jumpi\n      pop\n        /* \"@openzeppelin/contracts/token/ERC721/ERC721.sol\":1769:1802  type(IERC721Metadata).interfaceId */\n      0x5b5e139f00000000000000000000000000000000000000000000000000000000\n        /* \"@openzeppelin/contracts/token/ERC721/ERC721.sol\":1754:1802  interfaceId == type(IERC721Metadata).interfaceId */\n      not(0xffffffffffffffffffffffffffffffffffffffffffffffffffffffff)\n      and\n        /* \"@openzeppelin/contracts/token/ERC721/ERC721.sol\":1754:1765  interfaceId */\n      dup3\n        /* \"@openzeppelin/contracts/token/ERC721/ERC721.sol\":1754:1802  interfaceId == type(IERC721Metadata).interfaceId */\n      not(0xffffffffffffffffffffffffffffffffffffffffffffffffffffffff)\n      and\n      eq\n        /* \"@openzeppelin/contracts/token/ERC721/ERC721.sol\":1698:1802  interfaceId == type(IERC721).interfaceId ||... */\n    tag_97:\n        /* \"@openzeppelin/contracts/token/ERC721/ERC721.sol\":1698:1854  interfaceId == type(IERC721).interfaceId ||... */\n      dup1\n      tag_98\n      jumpi\n      pop\n        /* \"@openzeppelin/contracts/token/ERC721/ERC721.sol\":1818:1854  super.supportsInterface(interfaceId) */\n      tag_99\n        /* \"@openzeppelin/contracts/token/ERC721/ERC721.sol\":1842:1853  interfaceId */\n      dup3\n        /* \"@openzeppelin/contracts/token/ERC721/ERC721.sol\":1818:1841  super.supportsInterface */\n      tag_100\n        /* \"@openzeppelin/contracts/token/ERC721/ERC721.sol\":1818:1854  super.supportsInterface(interfaceId) */\n      jump\t// in\n    tag_99:\n        /* \"@openzeppelin/contracts/token/ERC721/ERC721.sol\":1698:1854  interfaceId == type(IERC721).interfaceId ||... */\n    tag_98:\n        /* \"@openzeppelin/contracts/token/ERC721/ERC721.sol\":1679:1854  return... */\n      swap1\n      pop\n        /* \"@openzeppelin/contracts/token/ERC721/ERC721.sol\":1561:1861  function supportsInterface(bytes4 interfaceId) public view virtual override(ERC165, IERC165) returns (bool) {... */\n      swap2\n      swap1\n      pop\n      jump\t// out\n        /* \"@openzeppelin/contracts/token/ERC721/ERC721.sol\":2365:2454  function name() public view virtual returns (string memory) {... */\n    tag_30:\n        /* \"@openzeppelin/contracts/token/ERC721/ERC721.sol\":2410:2423  string memory */\n      0x60\n        /* \"@openzeppelin/contracts/token/ERC721/ERC721.sol\":2442:2447  _name */\n      0x00\n        /* \"@openzeppelin/contracts/token/ERC721/ERC721.sol\":2435:2447  return _name */\n      dup1\n      sload\n      tag_102\n      swap1\n      tag_103\n      jump\t// in\n    tag_102:\n      dup1\n      0x1f\n      add\n      0x20\n      dup1\n      swap2\n      div\n      mul\n      0x20\n      add\n      mload(0x40)\n      swap1\n      dup2\n      add\n      0x40\n      mstore\n      dup1\n      swap3\n      swap2\n      swap1\n      dup2\n      dup2\n      mstore\n      0x20\n      add\n      dup3\n      dup1\n      sload\n      tag_104\n      swap1\n      tag_103\n      jump\t// in\n    tag_104:\n      dup1\n      iszero\n      tag_105\n      jumpi\n      dup1\n      0x1f\n      lt\n      tag_106\n      jumpi\n      0x0100\n      dup1\n      dup4\n      sload\n      div\n      mul\n      dup4\n      mstore\n      swap2\n      0x20\n      add\n      swap2\n      jump(tag_105)\n    tag_106:\n      dup3\n      add\n      swap2\n      swap1\n      0x00\n      mstore\n      keccak256(0x00, 0x20)\n      swap1\n    tag_107:\n      dup2\n      sload\n      dup2\n      mstore\n      swap1\n      0x01\n      add\n      swap1\n      0x20\n      add\n      dup1\n      dup4\n      gt\n      tag_107\n      jumpi\n      dup3\n      swap1\n      sub\n      0x1f\n      and\n      dup3\n      add\n      swap2\n    tag_105:\n      pop\n      pop\n      pop\n      pop\n      pop\n      swap1\n      pop\n        /* \"@openzeppelin/contracts/token/ERC721/ERC721.sol\":2365:2454  function name() public view virtual returns (string memory) {... */\n      swap1\n      jump\t// out\n        /* \"@openzeppelin/contracts/token/ERC721/ERC721.sol\":3497:3651  function getApproved(uint256 tokenId) public view virtual returns (address) {... */\n    tag_36:\n        /* \"@openzeppelin/contracts/token/ERC721/ERC721.sol\":3564:3571  address */\n      0x00\n        /* \"@openzeppelin/contracts/token/ERC721/ERC721.sol\":3583:3605  _requireOwned(tokenId) */\n      tag_109\n        /* \"@openzeppelin/contracts/token/ERC721/ERC721.sol\":3597:3604  tokenId */\n      dup3\n        /* \"@openzeppelin/contracts/token/ERC721/ERC721.sol\":3583:3596  _requireOwned */\n      tag_110\n        /* \"@openzeppelin/contracts/token/ERC721/ERC721.sol\":3583:3605  _requireOwned(tokenId) */\n      jump\t// in\n    tag_109:\n      pop\n        /* \"@openzeppelin/contracts/token/ERC721/ERC721.sol\":3623:3644  _getApproved(tokenId) */\n      tag_111\n        /* \"@openzeppelin/contracts/token/ERC721/ERC721.sol\":3636:3643  tokenId */\n      dup3\n        /* \"@openzeppelin/contracts/token/ERC721/ERC721.sol\":3623:3635  _getApproved */\n      tag_112\n        /* \"@openzeppelin/contracts/token/ERC721/ERC721.sol\":3623:3644  _getApproved(tokenId) */\n      jump\t// in\n    tag_111:\n        /* \"@openzeppelin/contracts/token/ERC721/ERC721.sol\":3616:3644  return _getApproved(tokenId) */\n      swap1\n      pop\n        /* \"@openzeppelin/contracts/token/ERC721/ERC721.sol\":3497:3651  function getApproved(uint256 tokenId) public view virtual returns (address) {... */\n      swap2\n      swap1\n      pop\n      jump\t// out\n        /* \"@openzeppelin/contracts/token/ERC721/ERC721.sol\":3323:3436  function approve(address to, uint256 tokenId) public virtual {... */\n    tag_42:\n        /* \"@openzeppelin/contracts/token/ERC721/ERC721.sol\":3394:3429  _approve(to, tokenId, _msgSender()) */\n      tag_114\n        /* \"@openzeppelin/contracts/token/ERC721/ERC721.sol\":3403:3405  to */\n      dup3\n        /* \"@openzeppelin/contracts/token/ERC721/ERC721.sol\":3407:3414  tokenId */\n      dup3\n        /* \"@openzeppelin/contracts/token/ERC721/ERC721.sol\":3416:3428  _msgSender() */\n      tag_115\n        /* \"@openzeppelin/contracts/token/ERC721/ERC721.sol\":3416:3426  _msgSender */\n      tag_116\n        /* \"@openzeppelin/contracts/token/ERC721/ERC721.sol\":3416:3428  _msgSender() */\n      jump\t// in\n    tag_115:\n        /* \"@openzeppelin/contracts/token/ERC721/ERC721.sol\":3394:3402  _approve */\n      tag_117\n        /* \"@openzeppelin/contracts/token/ERC721/ERC721.sol\":3394:3429  _approve(to, tokenId, _msgSender()) */\n      jump\t// in\n    tag_114:\n        /* \"@openzeppelin/contracts/token/ERC721/ERC721.sol\":3323:3436  function approve(address to, uint256 tokenId) public virtual {... */\n      pop\n      pop\n      jump\t// out\n        /* \"@openzeppelin/contracts/token/ERC721/ERC721.sol\":4143:4721  function transferFrom(address from, address to, uint256 tokenId) public virtual {... */\n    tag_46:\n        /* \"@openzeppelin/contracts/token/ERC721/ERC721.sol\":4251:4252  0 */\n      0x00\n        /* \"@openzeppelin/contracts/token/ERC721/ERC721.sol\":4237:4253  to == address(0) */\n      0xffffffffffffffffffffffffffffffffffffffff\n      and\n        /* \"@openzeppelin/contracts/token/ERC721/ERC721.sol\":4237:4239  to */\n      dup3\n        /* \"@openzeppelin/contracts/token/ERC721/ERC721.sol\":4237:4253  to == address(0) */\n      0xffffffffffffffffffffffffffffffffffffffff\n      and\n      sub\n        /* \"@openzeppelin/contracts/token/ERC721/ERC721.sol\":4233:4320  if (to == address(0)) {... */\n      tag_119\n      jumpi\n        /* \"@openzeppelin/contracts/token/ERC721/ERC721.sol\":4306:4307  0 */\n      0x00\n        /* \"@openzeppelin/contracts/token/ERC721/ERC721.sol\":4276:4309  ERC721InvalidReceiver(address(0)) */\n      mload(0x40)\n      0x64a0ae9200000000000000000000000000000000000000000000000000000000\n      dup2\n      mstore\n      0x04\n      add\n      tag_120\n      swap2\n      swap1\n      tag_38\n      jump\t// in\n    tag_120:\n      mload(0x40)\n      dup1\n      swap2\n      sub\n      swap1\n      revert\n        /* \"@openzeppelin/contracts/token/ERC721/ERC721.sol\":4233:4320  if (to == address(0)) {... */\n    tag_119:\n        /* \"@openzeppelin/contracts/token/ERC721/ERC721.sol\":4538:4559  address previousOwner */\n      0x00\n        /* \"@openzeppelin/contracts/token/ERC721/ERC721.sol\":4562:4596  _update(to, tokenId, _msgSender()) */\n      tag_121\n        /* \"@openzeppelin/contracts/token/ERC721/ERC721.sol\":4570:4572  to */\n      dup4\n        /* \"@openzeppelin/contracts/token/ERC721/ERC721.sol\":4574:4581  tokenId */\n      dup4\n        /* \"@openzeppelin/contracts/token/ERC721/ERC721.sol\":4583:4595  _msgSender() */\n      tag_122\n        /* \"@openzeppelin/contracts/token/ERC721/ERC721.sol\":4583:4593  _msgSender */\n      tag_116\n        /* \"@openzeppelin/contracts/token/ERC721/ERC721.sol\":4583:4595  _msgSender() */\n      jump\t// in\n    tag_122:\n        /* \"@openzeppelin/contracts/token/ERC721/ERC721.sol\":4562:4569  _update */\n      tag_123\n        /* \"@openzeppelin/contracts/token/ERC721/ERC721.sol\":4562:4596  _update(to, tokenId, _msgSender()) */\n      jump\t// in\n    tag_121:\n        /* \"@openzeppelin/contracts/token/ERC721/ERC721.sol\":4538:4596  address previousOwner = _update(to, tokenId, _msgSender()) */\n      swap1\n      pop\n        /* \"@openzeppelin/contracts/token/ERC721/ERC721.sol\":4627:4631  from */\n      dup4\n        /* \"@openzeppelin/contracts/token/ERC721/ERC721.sol\":4610:4631  previousOwner != from */\n      0xffffffffffffffffffffffffffffffffffffffff\n      and\n        /* \"@openzeppelin/contracts/token/ERC721/ERC721.sol\":4610:4623  previousOwner */\n      dup2\n        /* \"@openzeppelin/contracts/token/ERC721/ERC721.sol\":4610:4631  previousOwner != from */\n      0xffffffffffffffffffffffffffffffffffffffff\n      and\n      eq\n        /* \"@openzeppelin/contracts/token/ERC721/ERC721.sol\":4606:4715  if (previousOwner != from) {... */\n      tag_124\n      jumpi\n        /* \"@openzeppelin/contracts/token/ERC721/ERC721.sol\":4675:4679  from */\n      dup4\n        /* \"@openzeppelin/contracts/token/ERC721/ERC721.sol\":4681:4688  tokenId */\n      dup3\n        /* \"@openzeppelin/contracts/token/ERC721/ERC721.sol\":4690:4703  previousOwner */\n      dup3\n        /* \"@openzeppelin/contracts/token/ERC721/ERC721.sol\":4654:4704  ERC721IncorrectOwner(from, tokenId, previousOwner) */\n      mload(0x40)\n      0x64283d7b00000000000000000000000000000000000000000000000000000000\n      dup2\n      mstore\n      0x04\n      add\n      tag_125\n      swap4\n      swap3\n      swap2\n      swap1\n      tag_126\n      jump\t// in\n    tag_125:\n      mload(0x40)\n      dup1\n      swap2\n      sub\n      swap1\n      revert\n        /* \"@openzeppelin/contracts/token/ERC721/ERC721.sol\":4606:4715  if (previousOwner != from) {... */\n    tag_124:\n        /* \"@openzeppelin/contracts/token/ERC721/ERC721.sol\":4223:4721  {... */\n      pop\n        /* \"@openzeppelin/contracts/token/ERC721/ERC721.sol\":4143:4721  function transferFrom(address from, address to, uint256 tokenId) public virtual {... */\n      pop\n      pop\n      pop\n      jump\t// out\n        /* \"contracts/PokeDIO.sol\":547:990  function battle(uint _attackingPokemon, uint _defendingPokemon) public onlyOwnerOf(_attackingPokemon){... */\n    tag_50:\n        /* \"contracts/PokeDIO.sol\":630:647  _attackingPokemon */\n      dup2\n        /* \"contracts/PokeDIO.sol\":465:475  msg.sender */\n      caller\n        /* \"contracts/PokeDIO.sol\":442:475  ownerOf(_monsterId) == msg.sender */\n      0xffffffffffffffffffffffffffffffffffffffff\n      and\n        /* \"contracts/PokeDIO.sol\":442:461  ownerOf(_monsterId) */\n      tag_128\n        /* \"contracts/PokeDIO.sol\":450:460  _monsterId */\n      dup3\n        /* \"contracts/PokeDIO.sol\":442:449  ownerOf */\n      tag_60\n        /* \"contracts/PokeDIO.sol\":442:461  ownerOf(_monsterId) */\n      jump\t// in\n    tag_128:\n        /* \"contracts/PokeDIO.sol\":442:475  ownerOf(_monsterId) == msg.sender */\n      0xffffffffffffffffffffffffffffffffffffffff\n      and\n      eq\n        /* \"contracts/PokeDIO.sol\":434:523  require(ownerOf(_monsterId) == msg.sender,\"Apenas o dono pode batalhar com este Pokemon\") */\n      tag_129\n      jumpi\n      mload(0x40)\n      0x08c379a000000000000000000000000000000000000000000000000000000000\n      dup2\n      mstore\n      0x04\n      add\n      tag_130\n      swap1\n      tag_131\n      jump\t// in\n    tag_130:\n      mload(0x40)\n      dup1\n      swap2\n      sub\n      swap1\n      revert\n    tag_129:\n        /* \"contracts/PokeDIO.sol\":658:682  Pokemon storage attacker */\n      0x00\n        /* \"contracts/PokeDIO.sol\":685:693  pokemons */\n      0x06\n        /* \"contracts/PokeDIO.sol\":694:711  _attackingPokemon */\n      dup5\n        /* \"contracts/PokeDIO.sol\":685:712  pokemons[_attackingPokemon] */\n      dup2\n      sload\n      dup2\n      lt\n      tag_133\n      jumpi\n      tag_134\n      tag_135\n      jump\t// in\n    tag_134:\n    tag_133:\n      swap1\n      0x00\n      mstore\n      keccak256(0x00, 0x20)\n      swap1\n      0x03\n      mul\n      add\n        /* \"contracts/PokeDIO.sol\":658:712  Pokemon storage attacker = pokemons[_attackingPokemon] */\n      swap1\n      pop\n        /* \"contracts/PokeDIO.sol\":722:746  Pokemon storage defender */\n      0x00\n        /* \"contracts/PokeDIO.sol\":749:757  pokemons */\n      0x06\n        /* \"contracts/PokeDIO.sol\":758:775  _defendingPokemon */\n      dup5\n        /* \"contracts/PokeDIO.sol\":749:776  pokemons[_defendingPokemon] */\n      dup2\n      sload\n      dup2\n      lt\n      tag_137\n      jumpi\n      tag_138\n      tag_135\n      jump\t// in\n    tag_138:\n    tag_137:\n      swap1\n      0x00\n      mstore\n      keccak256(0x00, 0x20)\n      swap1\n      0x03\n      mul\n      add\n        /* \"contracts/PokeDIO.sol\":722:776  Pokemon storage defender = pokemons[_defendingPokemon] */\n      swap1\n      pop\n        /* \"contracts/PokeDIO.sol\":810:818  defender */\n      dup1\n        /* \"contracts/PokeDIO.sol\":810:824  defender.level */\n      0x01\n      add\n      sload\n        /* \"contracts/PokeDIO.sol\":792:800  attacker */\n      dup3\n        /* \"contracts/PokeDIO.sol\":792:806  attacker.level */\n      0x01\n      add\n      sload\n        /* \"contracts/PokeDIO.sol\":792:824  attacker.level >= defender.level */\n      lt\n        /* \"contracts/PokeDIO.sol\":788:984  if (attacker.level >= defender.level) {... */\n      tag_140\n      jumpi\n        /* \"contracts/PokeDIO.sol\":858:859  2 */\n      0x02\n        /* \"contracts/PokeDIO.sol\":840:848  attacker */\n      dup3\n        /* \"contracts/PokeDIO.sol\":840:854  attacker.level */\n      0x01\n      add\n      0x00\n        /* \"contracts/PokeDIO.sol\":840:859  attacker.level += 2 */\n      dup3\n      dup3\n      sload\n      tag_141\n      swap2\n      swap1\n      tag_142\n      jump\t// in\n    tag_141:\n      swap3\n      pop\n      pop\n      dup2\n      swap1\n      sstore\n      pop\n        /* \"contracts/PokeDIO.sol\":891:892  1 */\n      0x01\n        /* \"contracts/PokeDIO.sol\":873:881  defender */\n      dup2\n        /* \"contracts/PokeDIO.sol\":873:887  defender.level */\n      0x01\n      add\n      0x00\n        /* \"contracts/PokeDIO.sol\":873:892  defender.level += 1 */\n      dup3\n      dup3\n      sload\n      tag_143\n      swap2\n      swap1\n      tag_142\n      jump\t// in\n    tag_143:\n      swap3\n      pop\n      pop\n      dup2\n      swap1\n      sstore\n      pop\n        /* \"contracts/PokeDIO.sol\":788:984  if (attacker.level >= defender.level) {... */\n      jump(tag_144)\n    tag_140:\n        /* \"contracts/PokeDIO.sol\":939:940  1 */\n      0x01\n        /* \"contracts/PokeDIO.sol\":921:929  attacker */\n      dup3\n        /* \"contracts/PokeDIO.sol\":921:935  attacker.level */\n      0x01\n      add\n      0x00\n        /* \"contracts/PokeDIO.sol\":921:940  attacker.level += 1 */\n      dup3\n      dup3\n      sload\n      tag_145\n      swap2\n      swap1\n      tag_142\n      jump\t// in\n    tag_145:\n      swap3\n      pop\n      pop\n      dup2\n      swap1\n      sstore\n      pop\n        /* \"contracts/PokeDIO.sol\":972:973  2 */\n      0x02\n        /* \"contracts/PokeDIO.sol\":954:962  defender */\n      dup2\n        /* \"contracts/PokeDIO.sol\":954:968  defender.level */\n      0x01\n      add\n      0x00\n        /* \"contracts/PokeDIO.sol\":954:973  defender.level += 2 */\n      dup3\n      dup3\n      sload\n      tag_146\n      swap2\n      swap1\n      tag_142\n      jump\t// in\n    tag_146:\n      swap3\n      pop\n      pop\n      dup2\n      swap1\n      sstore\n      pop\n        /* \"contracts/PokeDIO.sol\":788:984  if (attacker.level >= defender.level) {... */\n    tag_144:\n        /* \"contracts/PokeDIO.sol\":648:990  {... */\n      pop\n      pop\n        /* \"contracts/PokeDIO.sol\":547:990  function battle(uint _attackingPokemon, uint _defendingPokemon) public onlyOwnerOf(_attackingPokemon){... */\n      pop\n      pop\n      pop\n      jump\t// out\n        /* \"@openzeppelin/contracts/token/ERC721/ERC721.sol\":4787:4919  function safeTransferFrom(address from, address to, uint256 tokenId) public {... */\n    tag_53:\n        /* \"@openzeppelin/contracts/token/ERC721/ERC721.sol\":4873:4912  safeTransferFrom(from, to, tokenId, \"\") */\n      tag_148\n        /* \"@openzeppelin/contracts/token/ERC721/ERC721.sol\":4890:4894  from */\n      dup4\n        /* \"@openzeppelin/contracts/token/ERC721/ERC721.sol\":4896:4898  to */\n      dup4\n        /* \"@openzeppelin/contracts/token/ERC721/ERC721.sol\":4900:4907  tokenId */\n      dup4\n        /* \"@openzeppelin/contracts/token/ERC721/ERC721.sol\":4873:4912  safeTransferFrom(from, to, tokenId, \"\") */\n      mload(0x40)\n      dup1\n      0x20\n      add\n      0x40\n      mstore\n      dup1\n      0x00\n      dup2\n      mstore\n      pop\n        /* \"@openzeppelin/contracts/token/ERC721/ERC721.sol\":4873:4889  safeTransferFrom */\n      tag_83\n        /* \"@openzeppelin/contracts/token/ERC721/ERC721.sol\":4873:4912  safeTransferFrom(from, to, tokenId, \"\") */\n      jump\t// in\n    tag_148:\n        /* \"@openzeppelin/contracts/token/ERC721/ERC721.sol\":4787:4919  function safeTransferFrom(address from, address to, uint256 tokenId) public {... */\n      pop\n      pop\n      pop\n      jump\t// out\n        /* \"contracts/PokeDIO.sol\":996:1293  function createNewPokemon(string memory _name, address _to, string memory _img) public {... */\n    tag_57:\n        /* \"contracts/PokeDIO.sol\":1115:1124  gameOwner */\n      0x07\n      0x00\n      swap1\n      sload\n      swap1\n      0x0100\n      exp\n      swap1\n      div\n      0xffffffffffffffffffffffffffffffffffffffff\n      and\n        /* \"contracts/PokeDIO.sol\":1101:1124  msg.sender == gameOwner */\n      0xffffffffffffffffffffffffffffffffffffffff\n      and\n        /* \"contracts/PokeDIO.sol\":1101:1111  msg.sender */\n      caller\n        /* \"contracts/PokeDIO.sol\":1101:1124  msg.sender == gameOwner */\n      0xffffffffffffffffffffffffffffffffffffffff\n      and\n      eq\n        /* \"contracts/PokeDIO.sol\":1093:1176  require(msg.sender == gameOwner, \"Apenas o dono do jogo pode criar novos Pokemons\") */\n      tag_150\n      jumpi\n      mload(0x40)\n      0x08c379a000000000000000000000000000000000000000000000000000000000\n      dup2\n      mstore\n      0x04\n      add\n      tag_151\n      swap1\n      tag_152\n      jump\t// in\n    tag_151:\n      mload(0x40)\n      dup1\n      swap2\n      sub\n      swap1\n      revert\n    tag_150:\n        /* \"contracts/PokeDIO.sol\":1186:1193  uint id */\n      0x00\n        /* \"contracts/PokeDIO.sol\":1196:1204  pokemons */\n      0x06\n        /* \"contracts/PokeDIO.sol\":1196:1211  pokemons.length */\n      dup1\n      sload\n      swap1\n      pop\n        /* \"contracts/PokeDIO.sol\":1186:1211  uint id = pokemons.length */\n      swap1\n      pop\n        /* \"contracts/PokeDIO.sol\":1221:1229  pokemons */\n      0x06\n        /* \"contracts/PokeDIO.sol\":1235:1257  Pokemon(_name, 1,_img) */\n      mload(0x40)\n      dup1\n      0x60\n      add\n      0x40\n      mstore\n      dup1\n        /* \"contracts/PokeDIO.sol\":1243:1248  _name */\n      dup7\n        /* \"contracts/PokeDIO.sol\":1235:1257  Pokemon(_name, 1,_img) */\n      dup2\n      mstore\n      0x20\n      add\n        /* \"contracts/PokeDIO.sol\":1250:1251  1 */\n      0x01\n        /* \"contracts/PokeDIO.sol\":1235:1257  Pokemon(_name, 1,_img) */\n      dup2\n      mstore\n      0x20\n      add\n        /* \"contracts/PokeDIO.sol\":1252:1256  _img */\n      dup5\n        /* \"contracts/PokeDIO.sol\":1235:1257  Pokemon(_name, 1,_img) */\n      dup2\n      mstore\n      pop\n        /* \"contracts/PokeDIO.sol\":1221:1258  pokemons.push(Pokemon(_name, 1,_img)) */\n      swap1\n      dup1\n      0x01\n      dup2\n      sload\n      add\n      dup1\n      dup3\n      sstore\n      dup1\n      swap2\n      pop\n      pop\n      0x01\n      swap1\n      sub\n      swap1\n      0x00\n      mstore\n      keccak256(0x00, 0x20)\n      swap1\n      0x03\n      mul\n      add\n      0x00\n      swap1\n      swap2\n      swap1\n      swap2\n      swap1\n      swap2\n      pop\n      0x00\n      dup3\n      add\n      mload\n      dup2\n      0x00\n      add\n      swap1\n      dup2\n      tag_154\n      swap2\n      swap1\n      tag_155\n      jump\t// in\n    tag_154:\n      pop\n      0x20\n      dup3\n      add\n      mload\n      dup2\n      0x01\n      add\n      sstore\n      0x40\n      dup3\n      add\n      mload\n      dup2\n      0x02\n      add\n      swap1\n      dup2\n      tag_156\n      swap2\n      swap1\n      tag_155\n      jump\t// in\n    tag_156:\n      pop\n      pop\n      pop\n        /* \"contracts/PokeDIO.sol\":1268:1286  _safeMint(_to, id) */\n      tag_157\n        /* \"contracts/PokeDIO.sol\":1278:1281  _to */\n      dup4\n        /* \"contracts/PokeDIO.sol\":1283:1285  id */\n      dup3\n        /* \"contracts/PokeDIO.sol\":1268:1277  _safeMint */\n      tag_158\n        /* \"contracts/PokeDIO.sol\":1268:1286  _safeMint(_to, id) */\n      jump\t// in\n    tag_157:\n        /* \"contracts/PokeDIO.sol\":1083:1293  {... */\n      pop\n        /* \"contracts/PokeDIO.sol\":996:1293  function createNewPokemon(string memory _name, address _to, string memory _img) public {... */\n      pop\n      pop\n      pop\n      jump\t// out\n        /* \"@openzeppelin/contracts/token/ERC721/ERC721.sol\":2185:2303  function ownerOf(uint256 tokenId) public view virtual returns (address) {... */\n    tag_60:\n        /* \"@openzeppelin/contracts/token/ERC721/ERC721.sol\":2248:2255  address */\n      0x00\n        /* \"@openzeppelin/contracts/token/ERC721/ERC721.sol\":2274:2296  _requireOwned(tokenId) */\n      tag_160\n        /* \"@openzeppelin/contracts/token/ERC721/ERC721.sol\":2288:2295  tokenId */\n      dup3\n        /* \"@openzeppelin/contracts/token/ERC721/ERC721.sol\":2274:2287  _requireOwned */\n      tag_110\n        /* \"@openzeppelin/contracts/token/ERC721/ERC721.sol\":2274:2296  _requireOwned(tokenId) */\n      jump\t// in\n    tag_160:\n        /* \"@openzeppelin/contracts/token/ERC721/ERC721.sol\":2267:2296  return _requireOwned(tokenId) */\n      swap1\n      pop\n        /* \"@openzeppelin/contracts/token/ERC721/ERC721.sol\":2185:2303  function ownerOf(uint256 tokenId) public view virtual returns (address) {... */\n      swap2\n      swap1\n      pop\n      jump\t// out\n        /* \"@openzeppelin/contracts/token/ERC721/ERC721.sol\":1920:2128  function balanceOf(address owner) public view virtual returns (uint256) {... */\n    tag_65:\n        /* \"@openzeppelin/contracts/token/ERC721/ERC721.sol\":1983:1990  uint256 */\n      0x00\n        /* \"@openzeppelin/contracts/token/ERC721/ERC721.sol\":2023:2024  0 */\n      dup1\n        /* \"@openzeppelin/contracts/token/ERC721/ERC721.sol\":2006:2025  owner == address(0) */\n      0xffffffffffffffffffffffffffffffffffffffff\n      and\n        /* \"@openzeppelin/contracts/token/ERC721/ERC721.sol\":2006:2011  owner */\n      dup3\n        /* \"@openzeppelin/contracts/token/ERC721/ERC721.sol\":2006:2025  owner == address(0) */\n      0xffffffffffffffffffffffffffffffffffffffff\n      and\n      sub\n        /* \"@openzeppelin/contracts/token/ERC721/ERC721.sol\":2002:2089  if (owner == address(0)) {... */\n      tag_162\n      jumpi\n        /* \"@openzeppelin/contracts/token/ERC721/ERC721.sol\":2075:2076  0 */\n      0x00\n        /* \"@openzeppelin/contracts/token/ERC721/ERC721.sol\":2048:2078  ERC721InvalidOwner(address(0)) */\n      mload(0x40)\n      0x89c62b6400000000000000000000000000000000000000000000000000000000\n      dup2\n      mstore\n      0x04\n      add\n      tag_163\n      swap2\n      swap1\n      tag_38\n      jump\t// in\n    tag_163:\n      mload(0x40)\n      dup1\n      swap2\n      sub\n      swap1\n      revert\n        /* \"@openzeppelin/contracts/token/ERC721/ERC721.sol\":2002:2089  if (owner == address(0)) {... */\n    tag_162:\n        /* \"@openzeppelin/contracts/token/ERC721/ERC721.sol\":2105:2114  _balances */\n      0x03\n        /* \"@openzeppelin/contracts/token/ERC721/ERC721.sol\":2105:2121  _balances[owner] */\n      0x00\n        /* \"@openzeppelin/contracts/token/ERC721/ERC721.sol\":2115:2120  owner */\n      dup4\n        /* \"@openzeppelin/contracts/token/ERC721/ERC721.sol\":2105:2121  _balances[owner] */\n      0xffffffffffffffffffffffffffffffffffffffff\n      and\n      0xffffffffffffffffffffffffffffffffffffffff\n      and\n      dup2\n      mstore\n      0x20\n      add\n      swap1\n      dup2\n      mstore\n      0x20\n      add\n      0x00\n      keccak256\n      sload\n        /* \"@openzeppelin/contracts/token/ERC721/ERC721.sol\":2098:2121  return _balances[owner] */\n      swap1\n      pop\n        /* \"@openzeppelin/contracts/token/ERC721/ERC721.sol\":1920:2128  function balanceOf(address owner) public view virtual returns (uint256) {... */\n      swap2\n      swap1\n      pop\n      jump\t// out\n        /* \"contracts/PokeDIO.sol\":238:263  Pokemon[] public pokemons */\n    tag_70:\n      0x06\n      dup2\n      dup2\n      sload\n      dup2\n      lt\n      tag_164\n      jumpi\n      0x00\n      dup1\n      revert\n    tag_164:\n      swap1\n      0x00\n      mstore\n      keccak256(0x00, 0x20)\n      swap1\n      0x03\n      mul\n      add\n      0x00\n      swap2\n      pop\n      swap1\n      pop\n      dup1\n      0x00\n      add\n      dup1\n      sload\n      tag_166\n      swap1\n      tag_103\n      jump\t// in\n    tag_166:\n      dup1\n      0x1f\n      add\n      0x20\n      dup1\n      swap2\n      div\n      mul\n      0x20\n      add\n      mload(0x40)\n      swap1\n      dup2\n      add\n      0x40\n      mstore\n      dup1\n      swap3\n      swap2\n      swap1\n      dup2\n      dup2\n      mstore\n      0x20\n      add\n      dup3\n      dup1\n      sload\n      tag_167\n      swap1\n      tag_103\n      jump\t// in\n    tag_167:\n      dup1\n      iszero\n      tag_168\n      jumpi\n      dup1\n      0x1f\n      lt\n      tag_169\n      jumpi\n      0x0100\n      dup1\n      dup4\n      sload\n      div\n      mul\n      dup4\n      mstore\n      swap2\n      0x20\n      add\n      swap2\n      jump(tag_168)\n    tag_169:\n      dup3\n      add\n      swap2\n      swap1\n      0x00\n      mstore\n      keccak256(0x00, 0x20)\n      swap1\n    tag_170:\n      dup2\n      sload\n      dup2\n      mstore\n      swap1\n      0x01\n      add\n      swap1\n      0x20\n      add\n      dup1\n      dup4\n      gt\n      tag_170\n      jumpi\n      dup3\n      swap1\n      sub\n      0x1f\n      and\n      dup3\n      add\n      swap2\n    tag_168:\n      pop\n      pop\n      pop\n      pop\n      pop\n      swap1\n      dup1\n      0x01\n      add\n      sload\n      swap1\n      dup1\n      0x02\n      add\n      dup1\n      sload\n      tag_171\n      swap1\n      tag_103\n      jump\t// in\n    tag_171:\n      dup1\n      0x1f\n      add\n      0x20\n      dup1\n      swap2\n      div\n      mul\n      0x20\n      add\n      mload(0x40)\n      swap1\n      dup2\n      add\n      0x40\n      mstore\n      dup1\n      swap3\n      swap2\n      swap1\n      dup2\n      dup2\n      mstore\n      0x20\n      add\n      dup3\n      dup1\n      sload\n      tag_172\n      swap1\n      tag_103\n      jump\t// in\n    tag_172:\n      dup1\n      iszero\n      tag_173\n      jumpi\n      dup1\n      0x1f\n      lt\n      tag_174\n      jumpi\n      0x0100\n      dup1\n      dup4\n      sload\n      div\n      mul\n      dup4\n      mstore\n      swap2\n      0x20\n      add\n      swap2\n      jump(tag_173)\n    tag_174:\n      dup3\n      add\n      swap2\n      swap1\n      0x00\n      mstore\n      keccak256(0x00, 0x20)\n      swap1\n    tag_175:\n      dup2\n      sload\n      dup2\n      mstore\n      swap1\n      0x01\n      add\n      swap1\n      0x20\n      add\n      dup1\n      dup4\n      gt\n      tag_175\n      jumpi\n      dup3\n      swap1\n      sub\n      0x1f\n      and\n      dup3\n      add\n      swap2\n    tag_173:\n      pop\n      pop\n      pop\n      pop\n      pop\n      swap1\n      pop\n      dup4\n      jump\t// out\n        /* \"@openzeppelin/contracts/token/ERC721/ERC721.sol\":2518:2611  function symbol() public view virtual returns (string memory) {... */\n    tag_74:\n        /* \"@openzeppelin/contracts/token/ERC721/ERC721.sol\":2565:2578  string memory */\n      0x60\n        /* \"@openzeppelin/contracts/token/ERC721/ERC721.sol\":2597:2604  _symbol */\n      0x01\n        /* \"@openzeppelin/contracts/token/ERC721/ERC721.sol\":2590:2604  return _symbol */\n      dup1\n      sload\n      tag_177\n      swap1\n      tag_103\n      jump\t// in\n    tag_177:\n      dup1\n      0x1f\n      add\n      0x20\n      dup1\n      swap2\n      div\n      mul\n      0x20\n      add\n      mload(0x40)\n      swap1\n      dup2\n      add\n      0x40\n      mstore\n      dup1\n      swap3\n      swap2\n      swap1\n      dup2\n      dup2\n      mstore\n      0x20\n      add\n      dup3\n      dup1\n      sload\n      tag_178\n      swap1\n      tag_103\n      jump\t// in\n    tag_178:\n      dup1\n      iszero\n      tag_179\n      jumpi\n      dup1\n      0x1f\n      lt\n      tag_180\n      jumpi\n      0x0100\n      dup1\n      dup4\n      sload\n      div\n      mul\n      dup4\n      mstore\n      swap2\n      0x20\n      add\n      swap2\n      jump(tag_179)\n    tag_180:\n      dup3\n      add\n      swap2\n      swap1\n      0x00\n      mstore\n      keccak256(0x00, 0x20)\n      swap1\n    tag_181:\n      dup2\n      sload\n      dup2\n      mstore\n      swap1\n      0x01\n      add\n      swap1\n      0x20\n      add\n      dup1\n      dup4\n      gt\n      tag_181\n      jumpi\n      dup3\n      swap1\n      sub\n      0x1f\n      and\n      dup3\n      add\n      swap2\n    tag_179:\n      pop\n      pop\n      pop\n      pop\n      pop\n      swap1\n      pop\n        /* \"@openzeppelin/contracts/token/ERC721/ERC721.sol\":2518:2611  function symbol() public view virtual returns (string memory) {... */\n      swap1\n      jump\t// out\n        /* \"@openzeppelin/contracts/token/ERC721/ERC721.sol\":3718:3862  function setApprovalForAll(address operator, bool approved) public virtual {... */\n    tag_79:\n        /* \"@openzeppelin/contracts/token/ERC721/ERC721.sol\":3803:3855  _setApprovalForAll(_msgSender(), operator, approved) */\n      tag_183\n        /* \"@openzeppelin/contracts/token/ERC721/ERC721.sol\":3822:3834  _msgSender() */\n      tag_184\n        /* \"@openzeppelin/contracts/token/ERC721/ERC721.sol\":3822:3832  _msgSender */\n      tag_116\n        /* \"@openzeppelin/contracts/token/ERC721/ERC721.sol\":3822:3834  _msgSender() */\n      jump\t// in\n    tag_184:\n        /* \"@openzeppelin/contracts/token/ERC721/ERC721.sol\":3836:3844  operator */\n      dup4\n        /* \"@openzeppelin/contracts/token/ERC721/ERC721.sol\":3846:3854  approved */\n      dup4\n        /* \"@openzeppelin/contracts/token/ERC721/ERC721.sol\":3803:3821  _setApprovalForAll */\n      tag_185\n        /* \"@openzeppelin/contracts/token/ERC721/ERC721.sol\":3803:3855  _setApprovalForAll(_msgSender(), operator, approved) */\n      jump\t// in\n    tag_183:\n        /* \"@openzeppelin/contracts/token/ERC721/ERC721.sol\":3718:3862  function setApprovalForAll(address operator, bool approved) public virtual {... */\n      pop\n      pop\n      jump\t// out\n        /* \"@openzeppelin/contracts/token/ERC721/ERC721.sol\":4985:5193  function safeTransferFrom(address from, address to, uint256 tokenId, bytes memory data) public virtual {... */\n    tag_83:\n        /* \"@openzeppelin/contracts/token/ERC721/ERC721.sol\":5098:5129  transferFrom(from, to, tokenId) */\n      tag_187\n        /* \"@openzeppelin/contracts/token/ERC721/ERC721.sol\":5111:5115  from */\n      dup5\n        /* \"@openzeppelin/contracts/token/ERC721/ERC721.sol\":5117:5119  to */\n      dup5\n        /* \"@openzeppelin/contracts/token/ERC721/ERC721.sol\":5121:5128  tokenId */\n      dup5\n        /* \"@openzeppelin/contracts/token/ERC721/ERC721.sol\":5098:5110  transferFrom */\n      tag_46\n        /* \"@openzeppelin/contracts/token/ERC721/ERC721.sol\":5098:5129  transferFrom(from, to, tokenId) */\n      jump\t// in\n    tag_187:\n        /* \"@openzeppelin/contracts/token/ERC721/ERC721.sol\":5139:5186  _checkOnERC721Received(from, to, tokenId, data) */\n      tag_188\n        /* \"@openzeppelin/contracts/token/ERC721/ERC721.sol\":5162:5166  from */\n      dup5\n        /* \"@openzeppelin/contracts/token/ERC721/ERC721.sol\":5168:5170  to */\n      dup5\n        /* \"@openzeppelin/contracts/token/ERC721/ERC721.sol\":5172:5179  tokenId */\n      dup5\n        /* \"@openzeppelin/contracts/token/ERC721/ERC721.sol\":5181:5185  data */\n      dup5\n        /* \"@openzeppelin/contracts/token/ERC721/ERC721.sol\":5139:5161  _checkOnERC721Received */\n      tag_189\n        /* \"@openzeppelin/contracts/token/ERC721/ERC721.sol\":5139:5186  _checkOnERC721Received(from, to, tokenId, data) */\n      jump\t// in\n    tag_188:\n        /* \"@openzeppelin/contracts/token/ERC721/ERC721.sol\":4985:5193  function safeTransferFrom(address from, address to, uint256 tokenId, bytes memory data) public virtual {... */\n      pop\n      pop\n      pop\n      pop\n      jump\t// out\n        /* \"@openzeppelin/contracts/token/ERC721/ERC721.sol\":2677:2932  function tokenURI(uint256 tokenId) public view virtual returns (string memory) {... */\n    tag_86:\n        /* \"@openzeppelin/contracts/token/ERC721/ERC721.sol\":2741:2754  string memory */\n      0x60\n        /* \"@openzeppelin/contracts/token/ERC721/ERC721.sol\":2766:2788  _requireOwned(tokenId) */\n      tag_191\n        /* \"@openzeppelin/contracts/token/ERC721/ERC721.sol\":2780:2787  tokenId */\n      dup3\n        /* \"@openzeppelin/contracts/token/ERC721/ERC721.sol\":2766:2779  _requireOwned */\n      tag_110\n        /* \"@openzeppelin/contracts/token/ERC721/ERC721.sol\":2766:2788  _requireOwned(tokenId) */\n      jump\t// in\n    tag_191:\n      pop\n        /* \"@openzeppelin/contracts/token/ERC721/ERC721.sol\":2799:2820  string memory baseURI */\n      0x00\n        /* \"@openzeppelin/contracts/token/ERC721/ERC721.sol\":2823:2833  _baseURI() */\n      tag_192\n        /* \"@openzeppelin/contracts/token/ERC721/ERC721.sol\":2823:2831  _baseURI */\n      tag_193\n        /* \"@openzeppelin/contracts/token/ERC721/ERC721.sol\":2823:2833  _baseURI() */\n      jump\t// in\n    tag_192:\n        /* \"@openzeppelin/contracts/token/ERC721/ERC721.sol\":2799:2833  string memory baseURI = _baseURI() */\n      swap1\n      pop\n        /* \"@openzeppelin/contracts/token/ERC721/ERC721.sol\":2874:2875  0 */\n      0x00\n        /* \"@openzeppelin/contracts/token/ERC721/ERC721.sol\":2856:2863  baseURI */\n      dup2\n        /* \"@openzeppelin/contracts/token/ERC721/ERC721.sol\":2850:2871  bytes(baseURI).length */\n      mload\n        /* \"@openzeppelin/contracts/token/ERC721/ERC721.sol\":2850:2875  bytes(baseURI).length > 0 */\n      gt\n        /* \"@openzeppelin/contracts/token/ERC721/ERC721.sol\":2850:2925  bytes(baseURI).length > 0 ? string.concat(baseURI, tokenId.toString()) : \"\" */\n      tag_194\n      jumpi\n      mload(0x40)\n      dup1\n      0x20\n      add\n      0x40\n      mstore\n      dup1\n      0x00\n      dup2\n      mstore\n      pop\n      jump(tag_195)\n    tag_194:\n        /* \"@openzeppelin/contracts/token/ERC721/ERC721.sol\":2892:2899  baseURI */\n      dup1\n        /* \"@openzeppelin/contracts/token/ERC721/ERC721.sol\":2901:2919  tokenId.toString() */\n      tag_196\n        /* \"@openzeppelin/contracts/token/ERC721/ERC721.sol\":2901:2908  tokenId */\n      dup5\n        /* \"@openzeppelin/contracts/token/ERC721/ERC721.sol\":2901:2917  tokenId.toString */\n      tag_197\n        /* \"@openzeppelin/contracts/token/ERC721/ERC721.sol\":2901:2919  tokenId.toString() */\n      jump\t// in\n    tag_196:\n        /* \"@openzeppelin/contracts/token/ERC721/ERC721.sol\":2878:2920  string.concat(baseURI, tokenId.toString()) */\n      add(0x20, mload(0x40))\n      tag_198\n      swap3\n      swap2\n      swap1\n      tag_199\n      jump\t// in\n    tag_198:\n      mload(0x40)\n      0x20\n      dup2\n      dup4\n      sub\n      sub\n      dup2\n      mstore\n      swap1\n      0x40\n      mstore\n        /* \"@openzeppelin/contracts/token/ERC721/ERC721.sol\":2850:2925  bytes(baseURI).length > 0 ? string.concat(baseURI, tokenId.toString()) : \"\" */\n    tag_195:\n        /* \"@openzeppelin/contracts/token/ERC721/ERC721.sol\":2843:2925  return bytes(baseURI).length > 0 ? string.concat(baseURI, tokenId.toString()) : \"\" */\n      swap2\n      pop\n      pop\n        /* \"@openzeppelin/contracts/token/ERC721/ERC721.sol\":2677:2932  function tokenURI(uint256 tokenId) public view virtual returns (string memory) {... */\n      swap2\n      swap1\n      pop\n      jump\t// out\n        /* \"@openzeppelin/contracts/token/ERC721/ERC721.sol\":3928:4081  function isApprovedForAll(address owner, address operator) public view virtual returns (bool) {... */\n    tag_91:\n        /* \"@openzeppelin/contracts/token/ERC721/ERC721.sol\":4016:4020  bool */\n      0x00\n        /* \"@openzeppelin/contracts/token/ERC721/ERC721.sol\":4039:4057  _operatorApprovals */\n      0x05\n        /* \"@openzeppelin/contracts/token/ERC721/ERC721.sol\":4039:4064  _operatorApprovals[owner] */\n      0x00\n        /* \"@openzeppelin/contracts/token/ERC721/ERC721.sol\":4058:4063  owner */\n      dup5\n        /* \"@openzeppelin/contracts/token/ERC721/ERC721.sol\":4039:4064  _operatorApprovals[owner] */\n      0xffffffffffffffffffffffffffffffffffffffff\n      and\n      0xffffffffffffffffffffffffffffffffffffffff\n      and\n      dup2\n      mstore\n      0x20\n      add\n      swap1\n      dup2\n      mstore\n      0x20\n      add\n      0x00\n      keccak256\n        /* \"@openzeppelin/contracts/token/ERC721/ERC721.sol\":4039:4074  _operatorApprovals[owner][operator] */\n      0x00\n        /* \"@openzeppelin/contracts/token/ERC721/ERC721.sol\":4065:4073  operator */\n      dup4\n        /* \"@openzeppelin/contracts/token/ERC721/ERC721.sol\":4039:4074  _operatorApprovals[owner][operator] */\n      0xffffffffffffffffffffffffffffffffffffffff\n      and\n      0xffffffffffffffffffffffffffffffffffffffff\n      and\n      dup2\n      mstore\n      0x20\n      add\n      swap1\n      dup2\n      mstore\n      0x20\n      add\n      0x00\n      keccak256\n      0x00\n      swap1\n      sload\n      swap1\n      0x0100\n      exp\n      swap1\n      div\n      0xff\n      and\n        /* \"@openzeppelin/contracts/token/ERC721/ERC721.sol\":4032:4074  return _operatorApprovals[owner][operator] */\n      swap1\n      pop\n        /* \"@openzeppelin/contracts/token/ERC721/ERC721.sol\":3928:4081  function isApprovedForAll(address owner, address operator) public view virtual returns (bool) {... */\n      swap3\n      swap2\n      pop\n      pop\n      jump\t// out\n        /* \"contracts/PokeDIO.sol\":269:293  address public gameOwner */\n    tag_94:\n      0x07\n      0x00\n      swap1\n      sload\n      swap1\n      0x0100\n      exp\n      swap1\n      div\n      0xffffffffffffffffffffffffffffffffffffffff\n      and\n      dup2\n      jump\t// out\n        /* \"@openzeppelin/contracts/utils/introspection/ERC165.sol\":762:908  function supportsInterface(bytes4 interfaceId) public view virtual returns (bool) {... */\n    tag_100:\n        /* \"@openzeppelin/contracts/utils/introspection/ERC165.sol\":838:842  bool */\n      0x00\n        /* \"@openzeppelin/contracts/utils/introspection/ERC165.sol\":876:901  type(IERC165).interfaceId */\n      0x01ffc9a700000000000000000000000000000000000000000000000000000000\n        /* \"@openzeppelin/contracts/utils/introspection/ERC165.sol\":861:901  interfaceId == type(IERC165).interfaceId */\n      not(0xffffffffffffffffffffffffffffffffffffffffffffffffffffffff)\n      and\n        /* \"@openzeppelin/contracts/utils/introspection/ERC165.sol\":861:872  interfaceId */\n      dup3\n        /* \"@openzeppelin/contracts/utils/introspection/ERC165.sol\":861:901  interfaceId == type(IERC165).interfaceId */\n      not(0xffffffffffffffffffffffffffffffffffffffffffffffffffffffff)\n      and\n      eq\n        /* \"@openzeppelin/contracts/utils/introspection/ERC165.sol\":854:901  return interfaceId == type(IERC165).interfaceId */\n      swap1\n      pop\n        /* \"@openzeppelin/contracts/utils/introspection/ERC165.sol\":762:908  function supportsInterface(bytes4 interfaceId) public view virtual returns (bool) {... */\n      swap2\n      swap1\n      pop\n      jump\t// out\n        /* \"@openzeppelin/contracts/token/ERC721/ERC721.sol\":16138:16379  function _requireOwned(uint256 tokenId) internal view returns (address) {... */\n    tag_110:\n        /* \"@openzeppelin/contracts/token/ERC721/ERC721.sol\":16201:16208  address */\n      0x00\n        /* \"@openzeppelin/contracts/token/ERC721/ERC721.sol\":16220:16233  address owner */\n      dup1\n        /* \"@openzeppelin/contracts/token/ERC721/ERC721.sol\":16236:16253  _ownerOf(tokenId) */\n      tag_203\n        /* \"@openzeppelin/contracts/token/ERC721/ERC721.sol\":16245:16252  tokenId */\n      dup4\n        /* \"@openzeppelin/contracts/token/ERC721/ERC721.sol\":16236:16244  _ownerOf */\n      tag_204\n        /* \"@openzeppelin/contracts/token/ERC721/ERC721.sol\":16236:16253  _ownerOf(tokenId) */\n      jump\t// in\n    tag_203:\n        /* \"@openzeppelin/contracts/token/ERC721/ERC721.sol\":16220:16253  address owner = _ownerOf(tokenId) */\n      swap1\n      pop\n        /* \"@openzeppelin/contracts/token/ERC721/ERC721.sol\":16284:16285  0 */\n      0x00\n        /* \"@openzeppelin/contracts/token/ERC721/ERC721.sol\":16267:16286  owner == address(0) */\n      0xffffffffffffffffffffffffffffffffffffffff\n      and\n        /* \"@openzeppelin/contracts/token/ERC721/ERC721.sol\":16267:16272  owner */\n      dup2\n        /* \"@openzeppelin/contracts/token/ERC721/ERC721.sol\":16267:16286  owner == address(0) */\n      0xffffffffffffffffffffffffffffffffffffffff\n      and\n      sub\n        /* \"@openzeppelin/contracts/token/ERC721/ERC721.sol\":16263:16351  if (owner == address(0)) {... */\n      tag_205\n      jumpi\n        /* \"@openzeppelin/contracts/token/ERC721/ERC721.sol\":16332:16339  tokenId */\n      dup3\n        /* \"@openzeppelin/contracts/token/ERC721/ERC721.sol\":16309:16340  ERC721NonexistentToken(tokenId) */\n      mload(0x40)\n      0x7e27328900000000000000000000000000000000000000000000000000000000\n      dup2\n      mstore\n      0x04\n      add\n      tag_206\n      swap2\n      swap1\n      tag_67\n      jump\t// in\n    tag_206:\n      mload(0x40)\n      dup1\n      swap2\n      sub\n      swap1\n      revert\n        /* \"@openzeppelin/contracts/token/ERC721/ERC721.sol\":16263:16351  if (owner == address(0)) {... */\n    tag_205:\n        /* \"@openzeppelin/contracts/token/ERC721/ERC721.sol\":16367:16372  owner */\n      dup1\n        /* \"@openzeppelin/contracts/token/ERC721/ERC721.sol\":16360:16372  return owner */\n      swap2\n      pop\n      pop\n        /* \"@openzeppelin/contracts/token/ERC721/ERC721.sol\":16138:16379  function _requireOwned(uint256 tokenId) internal view returns (address) {... */\n      swap2\n      swap1\n      pop\n      jump\t// out\n        /* \"@openzeppelin/contracts/token/ERC721/ERC721.sol\":5938:6065  function _getApproved(uint256 tokenId) internal view virtual returns (address) {... */\n    tag_112:\n        /* \"@openzeppelin/contracts/token/ERC721/ERC721.sol\":6008:6015  address */\n      0x00\n        /* \"@openzeppelin/contracts/token/ERC721/ERC721.sol\":6034:6049  _tokenApprovals */\n      0x04\n        /* \"@openzeppelin/contracts/token/ERC721/ERC721.sol\":6034:6058  _tokenApprovals[tokenId] */\n      0x00\n        /* \"@openzeppelin/contracts/token/ERC721/ERC721.sol\":6050:6057  tokenId */\n      dup4\n        /* \"@openzeppelin/contracts/token/ERC721/ERC721.sol\":6034:6058  _tokenApprovals[tokenId] */\n      dup2\n      mstore\n      0x20\n      add\n      swap1\n      dup2\n      mstore\n      0x20\n      add\n      0x00\n      keccak256\n      0x00\n      swap1\n      sload\n      swap1\n      0x0100\n      exp\n      swap1\n      div\n      0xffffffffffffffffffffffffffffffffffffffff\n      and\n        /* \"@openzeppelin/contracts/token/ERC721/ERC721.sol\":6027:6058  return _tokenApprovals[tokenId] */\n      swap1\n      pop\n        /* \"@openzeppelin/contracts/token/ERC721/ERC721.sol\":5938:6065  function _getApproved(uint256 tokenId) internal view virtual returns (address) {... */\n      swap2\n      swap1\n      pop\n      jump\t// out\n        /* \"@openzeppelin/contracts/utils/Context.sol\":656:752  function _msgSender() internal view virtual returns (address) {... */\n    tag_116:\n        /* \"@openzeppelin/contracts/utils/Context.sol\":709:716  address */\n      0x00\n        /* \"@openzeppelin/contracts/utils/Context.sol\":735:745  msg.sender */\n      caller\n        /* \"@openzeppelin/contracts/utils/Context.sol\":728:745  return msg.sender */\n      swap1\n      pop\n        /* \"@openzeppelin/contracts/utils/Context.sol\":656:752  function _msgSender() internal view virtual returns (address) {... */\n      swap1\n      jump\t// out\n        /* \"@openzeppelin/contracts/token/ERC721/ERC721.sol\":14418:14538  function _approve(address to, uint256 tokenId, address auth) internal {... */\n    tag_117:\n        /* \"@openzeppelin/contracts/token/ERC721/ERC721.sol\":14498:14531  _approve(to, tokenId, auth, true) */\n      tag_210\n        /* \"@openzeppelin/contracts/token/ERC721/ERC721.sol\":14507:14509  to */\n      dup4\n        /* \"@openzeppelin/contracts/token/ERC721/ERC721.sol\":14511:14518  tokenId */\n      dup4\n        /* \"@openzeppelin/contracts/token/ERC721/ERC721.sol\":14520:14524  auth */\n      dup4\n        /* \"@openzeppelin/contracts/token/ERC721/ERC721.sol\":14526:14530  true */\n      0x01\n        /* \"@openzeppelin/contracts/token/ERC721/ERC721.sol\":14498:14506  _approve */\n      tag_211\n        /* \"@openzeppelin/contracts/token/ERC721/ERC721.sol\":14498:14531  _approve(to, tokenId, auth, true) */\n      jump\t// in\n    tag_210:\n        /* \"@openzeppelin/contracts/token/ERC721/ERC721.sol\":14418:14538  function _approve(address to, uint256 tokenId, address auth) internal {... */\n      pop\n      pop\n      pop\n      jump\t// out\n        /* \"@openzeppelin/contracts/token/ERC721/ERC721.sol\":8838:9633  function _update(address to, uint256 tokenId, address auth) internal virtual returns (address) {... */\n    tag_123:\n        /* \"@openzeppelin/contracts/token/ERC721/ERC721.sol\":8924:8931  address */\n      0x00\n        /* \"@openzeppelin/contracts/token/ERC721/ERC721.sol\":8943:8955  address from */\n      dup1\n        /* \"@openzeppelin/contracts/token/ERC721/ERC721.sol\":8958:8975  _ownerOf(tokenId) */\n      tag_213\n        /* \"@openzeppelin/contracts/token/ERC721/ERC721.sol\":8967:8974  tokenId */\n      dup5\n        /* \"@openzeppelin/contracts/token/ERC721/ERC721.sol\":8958:8966  _ownerOf */\n      tag_204\n        /* \"@openzeppelin/contracts/token/ERC721/ERC721.sol\":8958:8975  _ownerOf(tokenId) */\n      jump\t// in\n    tag_213:\n        /* \"@openzeppelin/contracts/token/ERC721/ERC721.sol\":8943:8975  address from = _ownerOf(tokenId) */\n      swap1\n      pop\n        /* \"@openzeppelin/contracts/token/ERC721/ERC721.sol\":9051:9052  0 */\n      0x00\n        /* \"@openzeppelin/contracts/token/ERC721/ERC721.sol\":9035:9053  auth != address(0) */\n      0xffffffffffffffffffffffffffffffffffffffff\n      and\n        /* \"@openzeppelin/contracts/token/ERC721/ERC721.sol\":9035:9039  auth */\n      dup4\n        /* \"@openzeppelin/contracts/token/ERC721/ERC721.sol\":9035:9053  auth != address(0) */\n      0xffffffffffffffffffffffffffffffffffffffff\n      and\n      eq\n        /* \"@openzeppelin/contracts/token/ERC721/ERC721.sol\":9031:9117  if (auth != address(0)) {... */\n      tag_214\n      jumpi\n        /* \"@openzeppelin/contracts/token/ERC721/ERC721.sol\":9069:9106  _checkAuthorized(from, auth, tokenId) */\n      tag_215\n        /* \"@openzeppelin/contracts/token/ERC721/ERC721.sol\":9086:9090  from */\n      dup2\n        /* \"@openzeppelin/contracts/token/ERC721/ERC721.sol\":9092:9096  auth */\n      dup5\n        /* \"@openzeppelin/contracts/token/ERC721/ERC721.sol\":9098:9105  tokenId */\n      dup7\n        /* \"@openzeppelin/contracts/token/ERC721/ERC721.sol\":9069:9085  _checkAuthorized */\n      tag_216\n        /* \"@openzeppelin/contracts/token/ERC721/ERC721.sol\":9069:9106  _checkAuthorized(from, auth, tokenId) */\n      jump\t// in\n    tag_215:\n        /* \"@openzeppelin/contracts/token/ERC721/ERC721.sol\":9031:9117  if (auth != address(0)) {... */\n    tag_214:\n        /* \"@openzeppelin/contracts/token/ERC721/ERC721.sol\":9177:9178  0 */\n      0x00\n        /* \"@openzeppelin/contracts/token/ERC721/ERC721.sol\":9161:9179  from != address(0) */\n      0xffffffffffffffffffffffffffffffffffffffff\n      and\n        /* \"@openzeppelin/contracts/token/ERC721/ERC721.sol\":9161:9165  from */\n      dup2\n        /* \"@openzeppelin/contracts/token/ERC721/ERC721.sol\":9161:9179  from != address(0) */\n      0xffffffffffffffffffffffffffffffffffffffff\n      and\n      eq\n        /* \"@openzeppelin/contracts/token/ERC721/ERC721.sol\":9157:9413  if (from != address(0)) {... */\n      tag_217\n      jumpi\n        /* \"@openzeppelin/contracts/token/ERC721/ERC721.sol\":9277:9325  _approve(address(0), tokenId, address(0), false) */\n      tag_218\n        /* \"@openzeppelin/contracts/token/ERC721/ERC721.sol\":9294:9295  0 */\n      0x00\n        /* \"@openzeppelin/contracts/token/ERC721/ERC721.sol\":9298:9305  tokenId */\n      dup6\n        /* \"@openzeppelin/contracts/token/ERC721/ERC721.sol\":9315:9316  0 */\n      0x00\n        /* \"@openzeppelin/contracts/token/ERC721/ERC721.sol\":9319:9324  false */\n      dup1\n        /* \"@openzeppelin/contracts/token/ERC721/ERC721.sol\":9277:9285  _approve */\n      tag_211\n        /* \"@openzeppelin/contracts/token/ERC721/ERC721.sol\":9277:9325  _approve(address(0), tokenId, address(0), false) */\n      jump\t// in\n    tag_218:\n        /* \"@openzeppelin/contracts/token/ERC721/ERC721.sol\":9387:9388  1 */\n      0x01\n        /* \"@openzeppelin/contracts/token/ERC721/ERC721.sol\":9368:9377  _balances */\n      0x03\n        /* \"@openzeppelin/contracts/token/ERC721/ERC721.sol\":9368:9383  _balances[from] */\n      0x00\n        /* \"@openzeppelin/contracts/token/ERC721/ERC721.sol\":9378:9382  from */\n      dup4\n        /* \"@openzeppelin/contracts/token/ERC721/ERC721.sol\":9368:9383  _balances[from] */\n      0xffffffffffffffffffffffffffffffffffffffff\n      and\n      0xffffffffffffffffffffffffffffffffffffffff\n      and\n      dup2\n      mstore\n      0x20\n      add\n      swap1\n      dup2\n      mstore\n      0x20\n      add\n      0x00\n      keccak256\n      0x00\n        /* \"@openzeppelin/contracts/token/ERC721/ERC721.sol\":9368:9388  _balances[from] -= 1 */\n      dup3\n      dup3\n      sload\n      sub\n      swap3\n      pop\n      pop\n      dup2\n      swap1\n      sstore\n      pop\n        /* \"@openzeppelin/contracts/token/ERC721/ERC721.sol\":9157:9413  if (from != address(0)) {... */\n    tag_217:\n        /* \"@openzeppelin/contracts/token/ERC721/ERC721.sol\":9441:9442  0 */\n      0x00\n        /* \"@openzeppelin/contracts/token/ERC721/ERC721.sol\":9427:9443  to != address(0) */\n      0xffffffffffffffffffffffffffffffffffffffff\n      and\n        /* \"@openzeppelin/contracts/token/ERC721/ERC721.sol\":9427:9429  to */\n      dup6\n        /* \"@openzeppelin/contracts/token/ERC721/ERC721.sol\":9427:9443  to != address(0) */\n      0xffffffffffffffffffffffffffffffffffffffff\n      and\n      eq\n        /* \"@openzeppelin/contracts/token/ERC721/ERC721.sol\":9423:9530  if (to != address(0)) {... */\n      tag_219\n      jumpi\n        /* \"@openzeppelin/contracts/token/ERC721/ERC721.sol\":9504:9505  1 */\n      0x01\n        /* \"@openzeppelin/contracts/token/ERC721/ERC721.sol\":9487:9496  _balances */\n      0x03\n        /* \"@openzeppelin/contracts/token/ERC721/ERC721.sol\":9487:9500  _balances[to] */\n      0x00\n        /* \"@openzeppelin/contracts/token/ERC721/ERC721.sol\":9497:9499  to */\n      dup8\n        /* \"@openzeppelin/contracts/token/ERC721/ERC721.sol\":9487:9500  _balances[to] */\n      0xffffffffffffffffffffffffffffffffffffffff\n      and\n      0xffffffffffffffffffffffffffffffffffffffff\n      and\n      dup2\n      mstore\n      0x20\n      add\n      swap1\n      dup2\n      mstore\n      0x20\n      add\n      0x00\n      keccak256\n      0x00\n        /* \"@openzeppelin/contracts/token/ERC721/ERC721.sol\":9487:9505  _balances[to] += 1 */\n      dup3\n      dup3\n      sload\n      add\n      swap3\n      pop\n      pop\n      dup2\n      swap1\n      sstore\n      pop\n        /* \"@openzeppelin/contracts/token/ERC721/ERC721.sol\":9423:9530  if (to != address(0)) {... */\n    tag_219:\n        /* \"@openzeppelin/contracts/token/ERC721/ERC721.sol\":9559:9561  to */\n      dup5\n        /* \"@openzeppelin/contracts/token/ERC721/ERC721.sol\":9540:9547  _owners */\n      0x02\n        /* \"@openzeppelin/contracts/token/ERC721/ERC721.sol\":9540:9556  _owners[tokenId] */\n      0x00\n        /* \"@openzeppelin/contracts/token/ERC721/ERC721.sol\":9548:9555  tokenId */\n      dup7\n        /* \"@openzeppelin/contracts/token/ERC721/ERC721.sol\":9540:9556  _owners[tokenId] */\n      dup2\n      mstore\n      0x20\n      add\n      swap1\n      dup2\n      mstore\n      0x20\n      add\n      0x00\n      keccak256\n      0x00\n        /* \"@openzeppelin/contracts/token/ERC721/ERC721.sol\":9540:9561  _owners[tokenId] = to */\n      0x0100\n      exp\n      dup2\n      sload\n      dup2\n      0xffffffffffffffffffffffffffffffffffffffff\n      mul\n      not\n      and\n      swap1\n      dup4\n      0xffffffffffffffffffffffffffffffffffffffff\n      and\n      mul\n      or\n      swap1\n      sstore\n      pop\n        /* \"@openzeppelin/contracts/token/ERC721/ERC721.sol\":9596:9603  tokenId */\n      dup4\n        /* \"@openzeppelin/contracts/token/ERC721/ERC721.sol\":9592:9594  to */\n      dup6\n        /* \"@openzeppelin/contracts/token/ERC721/ERC721.sol\":9577:9604  Transfer(from, to, tokenId) */\n      0xffffffffffffffffffffffffffffffffffffffff\n      and\n        /* \"@openzeppelin/contracts/token/ERC721/ERC721.sol\":9586:9590  from */\n      dup3\n        /* \"@openzeppelin/contracts/token/ERC721/ERC721.sol\":9577:9604  Transfer(from, to, tokenId) */\n      0xffffffffffffffffffffffffffffffffffffffff\n      and\n      0xddf252ad1be2c89b69c2b068fc378daa952ba7f163c4a11628f55a4df523b3ef\n      mload(0x40)\n      mload(0x40)\n      dup1\n      swap2\n      sub\n      swap1\n      log4\n        /* \"@openzeppelin/contracts/token/ERC721/ERC721.sol\":9622:9626  from */\n      dup1\n        /* \"@openzeppelin/contracts/token/ERC721/ERC721.sol\":9615:9626  return from */\n      swap2\n      pop\n      pop\n        /* \"@openzeppelin/contracts/token/ERC721/ERC721.sol\":8838:9633  function _update(address to, uint256 tokenId, address auth) internal virtual returns (address) {... */\n      swap4\n      swap3\n      pop\n      pop\n      pop\n      jump\t// out\n        /* \"@openzeppelin/contracts/token/ERC721/ERC721.sol\":10633:10733  function _safeMint(address to, uint256 tokenId) internal {... */\n    tag_158:\n        /* \"@openzeppelin/contracts/token/ERC721/ERC721.sol\":10700:10726  _safeMint(to, tokenId, \"\") */\n      tag_221\n        /* \"@openzeppelin/contracts/token/ERC721/ERC721.sol\":10710:10712  to */\n      dup3\n        /* \"@openzeppelin/contracts/token/ERC721/ERC721.sol\":10714:10721  tokenId */\n      dup3\n        /* \"@openzeppelin/contracts/token/ERC721/ERC721.sol\":10700:10726  _safeMint(to, tokenId, \"\") */\n      mload(0x40)\n      dup1\n      0x20\n      add\n      0x40\n      mstore\n      dup1\n      0x00\n      dup2\n      mstore\n      pop\n        /* \"@openzeppelin/contracts/token/ERC721/ERC721.sol\":10700:10709  _safeMint */\n      tag_222\n        /* \"@openzeppelin/contracts/token/ERC721/ERC721.sol\":10700:10726  _safeMint(to, tokenId, \"\") */\n      jump\t// in\n    tag_221:\n        /* \"@openzeppelin/contracts/token/ERC721/ERC721.sol\":10633:10733  function _safeMint(address to, uint256 tokenId) internal {... */\n      pop\n      pop\n      jump\t// out\n        /* \"@openzeppelin/contracts/token/ERC721/ERC721.sol\":15591:15903  function _setApprovalForAll(address owner, address operator, bool approved) internal virtual {... */\n    tag_185:\n        /* \"@openzeppelin/contracts/token/ERC721/ERC721.sol\":15718:15719  0 */\n      0x00\n        /* \"@openzeppelin/contracts/token/ERC721/ERC721.sol\":15698:15720  operator == address(0) */\n      0xffffffffffffffffffffffffffffffffffffffff\n      and\n        /* \"@openzeppelin/contracts/token/ERC721/ERC721.sol\":15698:15706  operator */\n      dup3\n        /* \"@openzeppelin/contracts/token/ERC721/ERC721.sol\":15698:15720  operator == address(0) */\n      0xffffffffffffffffffffffffffffffffffffffff\n      and\n      sub\n        /* \"@openzeppelin/contracts/token/ERC721/ERC721.sol\":15694:15785  if (operator == address(0)) {... */\n      tag_224\n      jumpi\n        /* \"@openzeppelin/contracts/token/ERC721/ERC721.sol\":15765:15773  operator */\n      dup2\n        /* \"@openzeppelin/contracts/token/ERC721/ERC721.sol\":15743:15774  ERC721InvalidOperator(operator) */\n      mload(0x40)\n      0x5b08ba1800000000000000000000000000000000000000000000000000000000\n      dup2\n      mstore\n      0x04\n      add\n      tag_225\n      swap2\n      swap1\n      tag_38\n      jump\t// in\n    tag_225:\n      mload(0x40)\n      dup1\n      swap2\n      sub\n      swap1\n      revert\n        /* \"@openzeppelin/contracts/token/ERC721/ERC721.sol\":15694:15785  if (operator == address(0)) {... */\n    tag_224:\n        /* \"@openzeppelin/contracts/token/ERC721/ERC721.sol\":15832:15840  approved */\n      dup1\n        /* \"@openzeppelin/contracts/token/ERC721/ERC721.sol\":15794:15812  _operatorApprovals */\n      0x05\n        /* \"@openzeppelin/contracts/token/ERC721/ERC721.sol\":15794:15819  _operatorApprovals[owner] */\n      0x00\n        /* \"@openzeppelin/contracts/token/ERC721/ERC721.sol\":15813:15818  owner */\n      dup6\n        /* \"@openzeppelin/contracts/token/ERC721/ERC721.sol\":15794:15819  _operatorApprovals[owner] */\n      0xffffffffffffffffffffffffffffffffffffffff\n      and\n      0xffffffffffffffffffffffffffffffffffffffff\n      and\n      dup2\n      mstore\n      0x20\n      add\n      swap1\n      dup2\n      mstore\n      0x20\n      add\n      0x00\n      keccak256\n        /* \"@openzeppelin/contracts/token/ERC721/ERC721.sol\":15794:15829  _operatorApprovals[owner][operator] */\n      0x00\n        /* \"@openzeppelin/contracts/token/ERC721/ERC721.sol\":15820:15828  operator */\n      dup5\n        /* \"@openzeppelin/contracts/token/ERC721/ERC721.sol\":15794:15829  _operatorApprovals[owner][operator] */\n      0xffffffffffffffffffffffffffffffffffffffff\n      and\n      0xffffffffffffffffffffffffffffffffffffffff\n      and\n      dup2\n      mstore\n      0x20\n      add\n      swap1\n      dup2\n      mstore\n      0x20\n      add\n      0x00\n      keccak256\n      0x00\n        /* \"@openzeppelin/contracts/token/ERC721/ERC721.sol\":15794:15840  _operatorApprovals[owner][operator] = approved */\n      0x0100\n      exp\n      dup2\n      sload\n      dup2\n      0xff\n      mul\n      not\n      and\n      swap1\n      dup4\n      iszero\n      iszero\n      mul\n      or\n      swap1\n      sstore\n      pop\n        /* \"@openzeppelin/contracts/token/ERC721/ERC721.sol\":15877:15885  operator */\n      dup2\n        /* \"@openzeppelin/contracts/token/ERC721/ERC721.sol\":15855:15896  ApprovalForAll(owner, operator, approved) */\n      0xffffffffffffffffffffffffffffffffffffffff\n      and\n        /* \"@openzeppelin/contracts/token/ERC721/ERC721.sol\":15870:15875  owner */\n      dup4\n        /* \"@openzeppelin/contracts/token/ERC721/ERC721.sol\":15855:15896  ApprovalForAll(owner, operator, approved) */\n      0xffffffffffffffffffffffffffffffffffffffff\n      and\n      0x17307eab39ab6107e8899845ad3d59bd9653f200f220920489ca2b5937696c31\n        /* \"@openzeppelin/contracts/token/ERC721/ERC721.sol\":15887:15895  approved */\n      dup4\n        /* \"@openzeppelin/contracts/token/ERC721/ERC721.sol\":15855:15896  ApprovalForAll(owner, operator, approved) */\n      mload(0x40)\n      tag_226\n      swap2\n      swap1\n      tag_28\n      jump\t// in\n    tag_226:\n      mload(0x40)\n      dup1\n      swap2\n      sub\n      swap1\n      log3\n        /* \"@openzeppelin/contracts/token/ERC721/ERC721.sol\":15591:15903  function _setApprovalForAll(address owner, address operator, bool approved) internal virtual {... */\n      pop\n      pop\n      pop\n      jump\t// out\n        /* \"@openzeppelin/contracts/token/ERC721/ERC721.sol\":16918:17700  function _checkOnERC721Received(address from, address to, uint256 tokenId, bytes memory data) private {... */\n    tag_189:\n        /* \"@openzeppelin/contracts/token/ERC721/ERC721.sol\":17051:17052  0 */\n      0x00\n        /* \"@openzeppelin/contracts/token/ERC721/ERC721.sol\":17034:17036  to */\n      dup4\n        /* \"@openzeppelin/contracts/token/ERC721/ERC721.sol\":17034:17048  to.code.length */\n      0xffffffffffffffffffffffffffffffffffffffff\n      and\n      extcodesize\n        /* \"@openzeppelin/contracts/token/ERC721/ERC721.sol\":17034:17052  to.code.length > 0 */\n      gt\n        /* \"@openzeppelin/contracts/token/ERC721/ERC721.sol\":17030:17694  if (to.code.length > 0) {... */\n      iszero\n      tag_228\n      jumpi\n        /* \"@openzeppelin/contracts/token/ERC721/ERC721.sol\":17088:17090  to */\n      dup3\n        /* \"@openzeppelin/contracts/token/ERC721/ERC721.sol\":17072:17108  IERC721Receiver(to).onERC721Received */\n      0xffffffffffffffffffffffffffffffffffffffff\n      and\n      0x150b7a02\n        /* \"@openzeppelin/contracts/token/ERC721/ERC721.sol\":17109:17121  _msgSender() */\n      tag_229\n        /* \"@openzeppelin/contracts/token/ERC721/ERC721.sol\":17109:17119  _msgSender */\n      tag_116\n        /* \"@openzeppelin/contracts/token/ERC721/ERC721.sol\":17109:17121  _msgSender() */\n      jump\t// in\n    tag_229:\n        /* \"@openzeppelin/contracts/token/ERC721/ERC721.sol\":17123:17127  from */\n      dup7\n        /* \"@openzeppelin/contracts/token/ERC721/ERC721.sol\":17129:17136  tokenId */\n      dup6\n        /* \"@openzeppelin/contracts/token/ERC721/ERC721.sol\":17138:17142  data */\n      dup6\n        /* \"@openzeppelin/contracts/token/ERC721/ERC721.sol\":17072:17143  IERC721Receiver(to).onERC721Received(_msgSender(), from, tokenId, data) */\n      mload(0x40)\n      dup6\n      0xffffffff\n      and\n      0xe0\n      shl\n      dup2\n      mstore\n      0x04\n      add\n      tag_230\n      swap5\n      swap4\n      swap3\n      swap2\n      swap1\n      tag_231\n      jump\t// in\n    tag_230:\n      0x20\n      mload(0x40)\n      dup1\n      dup4\n      sub\n      dup2\n      0x00\n      dup8\n      gas\n      call\n      swap3\n      pop\n      pop\n      pop\n      dup1\n      iszero\n      tag_232\n      jumpi\n      pop\n      mload(0x40)\n      returndatasize\n      not(0x1f)\n      0x1f\n      dup3\n      add\n      and\n      dup3\n      add\n      dup1\n      0x40\n      mstore\n      pop\n      dup2\n      add\n      swap1\n      tag_233\n      swap2\n      swap1\n      tag_234\n      jump\t// in\n    tag_233:\n      0x01\n    tag_232:\n        /* \"@openzeppelin/contracts/token/ERC721/ERC721.sol\":17068:17684  try IERC721Receiver(to).onERC721Received(_msgSender(), from, tokenId, data) returns (bytes4 retval) {... */\n      tag_235\n      jumpi\n      returndatasize\n      dup1\n      0x00\n      dup2\n      eq\n      tag_240\n      jumpi\n      mload(0x40)\n      swap2\n      pop\n      and(add(returndatasize, 0x3f), not(0x1f))\n      dup3\n      add\n      0x40\n      mstore\n      returndatasize\n      dup3\n      mstore\n      returndatasize\n      0x00\n      0x20\n      dup5\n      add\n      returndatacopy\n      jump(tag_239)\n    tag_240:\n      0x60\n      swap2\n      pop\n    tag_239:\n      pop\n        /* \"@openzeppelin/contracts/token/ERC721/ERC721.sol\":17398:17399  0 */\n      0x00\n        /* \"@openzeppelin/contracts/token/ERC721/ERC721.sol\":17381:17387  reason */\n      dup2\n        /* \"@openzeppelin/contracts/token/ERC721/ERC721.sol\":17381:17394  reason.length */\n      mload\n        /* \"@openzeppelin/contracts/token/ERC721/ERC721.sol\":17381:17399  reason.length == 0 */\n      sub\n        /* \"@openzeppelin/contracts/token/ERC721/ERC721.sol\":17377:17670  if (reason.length == 0) {... */\n      tag_241\n      jumpi\n        /* \"@openzeppelin/contracts/token/ERC721/ERC721.sol\":17452:17454  to */\n      dup4\n        /* \"@openzeppelin/contracts/token/ERC721/ERC721.sol\":17430:17455  ERC721InvalidReceiver(to) */\n      mload(0x40)\n      0x64a0ae9200000000000000000000000000000000000000000000000000000000\n      dup2\n      mstore\n      0x04\n      add\n      tag_242\n      swap2\n      swap1\n      tag_38\n      jump\t// in\n    tag_242:\n      mload(0x40)\n      dup1\n      swap2\n      sub\n      swap1\n      revert\n        /* \"@openzeppelin/contracts/token/ERC721/ERC721.sol\":17377:17670  if (reason.length == 0) {... */\n    tag_241:\n        /* \"@openzeppelin/contracts/token/ERC721/ERC721.sol\":17622:17628  reason */\n      dup1\n        /* \"@openzeppelin/contracts/token/ERC721/ERC721.sol\":17616:17629  mload(reason) */\n      mload\n        /* \"@openzeppelin/contracts/token/ERC721/ERC721.sol\":17607:17613  reason */\n      dup2\n        /* \"@openzeppelin/contracts/token/ERC721/ERC721.sol\":17603:17605  32 */\n      0x20\n        /* \"@openzeppelin/contracts/token/ERC721/ERC721.sol\":17599:17614  add(32, reason) */\n      add\n        /* \"@openzeppelin/contracts/token/ERC721/ERC721.sol\":17592:17630  revert(add(32, reason), mload(reason)) */\n      revert\n        /* \"@openzeppelin/contracts/token/ERC721/ERC721.sol\":17068:17684  try IERC721Receiver(to).onERC721Received(_msgSender(), from, tokenId, data) returns (bytes4 retval) {... */\n    tag_235:\n        /* \"@openzeppelin/contracts/token/ERC721/ERC721.sol\":17200:17241  IERC721Receiver.onERC721Received.selector */\n      shl(0xe0, 0x150b7a02)\n        /* \"@openzeppelin/contracts/token/ERC721/ERC721.sol\":17190:17241  retval != IERC721Receiver.onERC721Received.selector */\n      not(0xffffffffffffffffffffffffffffffffffffffffffffffffffffffff)\n      and\n        /* \"@openzeppelin/contracts/token/ERC721/ERC721.sol\":17190:17196  retval */\n      dup2\n        /* \"@openzeppelin/contracts/token/ERC721/ERC721.sol\":17190:17241  retval != IERC721Receiver.onERC721Received.selector */\n      not(0xffffffffffffffffffffffffffffffffffffffffffffffffffffffff)\n      and\n      eq\n        /* \"@openzeppelin/contracts/token/ERC721/ERC721.sol\":17186:17316  if (retval != IERC721Receiver.onERC721Received.selector) {... */\n      tag_245\n      jumpi\n        /* \"@openzeppelin/contracts/token/ERC721/ERC721.sol\":17294:17296  to */\n      dup4\n        /* \"@openzeppelin/contracts/token/ERC721/ERC721.sol\":17272:17297  ERC721InvalidReceiver(to) */\n      mload(0x40)\n      0x64a0ae9200000000000000000000000000000000000000000000000000000000\n      dup2\n      mstore\n      0x04\n      add\n      tag_246\n      swap2\n      swap1\n      tag_38\n      jump\t// in\n    tag_246:\n      mload(0x40)\n      dup1\n      swap2\n      sub\n      swap1\n      revert\n        /* \"@openzeppelin/contracts/token/ERC721/ERC721.sol\":17186:17316  if (retval != IERC721Receiver.onERC721Received.selector) {... */\n    tag_245:\n        /* \"@openzeppelin/contracts/token/ERC721/ERC721.sol\":17144:17330  returns (bytes4 retval) {... */\n      pop\n        /* \"@openzeppelin/contracts/token/ERC721/ERC721.sol\":17030:17694  if (to.code.length > 0) {... */\n    tag_228:\n        /* \"@openzeppelin/contracts/token/ERC721/ERC721.sol\":16918:17700  function _checkOnERC721Received(address from, address to, uint256 tokenId, bytes memory data) private {... */\n      pop\n      pop\n      pop\n      pop\n      jump\t// out\n        /* \"@openzeppelin/contracts/token/ERC721/ERC721.sol\":3174:3266  function _baseURI() internal view virtual returns (string memory) {... */\n    tag_193:\n        /* \"@openzeppelin/contracts/token/ERC721/ERC721.sol\":3225:3238  string memory */\n      0x60\n        /* \"@openzeppelin/contracts/token/ERC721/ERC721.sol\":3250:3259  return \"\" */\n      mload(0x40)\n      dup1\n      0x20\n      add\n      0x40\n      mstore\n      dup1\n      0x00\n      dup2\n      mstore\n      pop\n      swap1\n      pop\n        /* \"@openzeppelin/contracts/token/ERC721/ERC721.sol\":3174:3266  function _baseURI() internal view virtual returns (string memory) {... */\n      swap1\n      jump\t// out\n        /* \"@openzeppelin/contracts/utils/Strings.sol\":637:1335  function toString(uint256 value) internal pure returns (string memory) {... */\n    tag_197:\n        /* \"@openzeppelin/contracts/utils/Strings.sol\":693:706  string memory */\n      0x60\n        /* \"@openzeppelin/contracts/utils/Strings.sol\":742:756  uint256 length */\n      0x00\n        /* \"@openzeppelin/contracts/utils/Strings.sol\":779:780  1 */\n      0x01\n        /* \"@openzeppelin/contracts/utils/Strings.sol\":759:776  Math.log10(value) */\n      tag_249\n        /* \"@openzeppelin/contracts/utils/Strings.sol\":770:775  value */\n      dup5\n        /* \"@openzeppelin/contracts/utils/Strings.sol\":759:769  Math.log10 */\n      tag_250\n        /* \"@openzeppelin/contracts/utils/Strings.sol\":759:776  Math.log10(value) */\n      jump\t// in\n    tag_249:\n        /* \"@openzeppelin/contracts/utils/Strings.sol\":759:780  Math.log10(value) + 1 */\n      add\n        /* \"@openzeppelin/contracts/utils/Strings.sol\":742:780  uint256 length = Math.log10(value) + 1 */\n      swap1\n      pop\n        /* \"@openzeppelin/contracts/utils/Strings.sol\":794:814  string memory buffer */\n      0x00\n        /* \"@openzeppelin/contracts/utils/Strings.sol\":828:834  length */\n      dup2\n        /* \"@openzeppelin/contracts/utils/Strings.sol\":817:835  new string(length) */\n      0xffffffffffffffff\n      dup2\n      gt\n      iszero\n      tag_251\n      jumpi\n      tag_252\n      tag_253\n      jump\t// in\n    tag_252:\n    tag_251:\n      mload(0x40)\n      swap1\n      dup1\n      dup3\n      mstore\n      dup1\n      0x1f\n      add\n      not(0x1f)\n      and\n      0x20\n      add\n      dup3\n      add\n      0x40\n      mstore\n      dup1\n      iszero\n      tag_254\n      jumpi\n      dup2\n      0x20\n      add\n      0x01\n      dup3\n      mul\n      dup1\n      calldatasize\n      dup4\n      calldatacopy\n      dup1\n      dup3\n      add\n      swap2\n      pop\n      pop\n      swap1\n      pop\n    tag_254:\n      pop\n        /* \"@openzeppelin/contracts/utils/Strings.sol\":794:835  string memory buffer = new string(length) */\n      swap1\n      pop\n        /* \"@openzeppelin/contracts/utils/Strings.sol\":849:860  uint256 ptr */\n      0x00\n        /* \"@openzeppelin/contracts/utils/Strings.sol\":975:981  length */\n      dup3\n        /* \"@openzeppelin/contracts/utils/Strings.sol\":971:973  32 */\n      0x20\n        /* \"@openzeppelin/contracts/utils/Strings.sol\":967:982  add(32, length) */\n      add\n        /* \"@openzeppelin/contracts/utils/Strings.sol\":959:965  buffer */\n      dup3\n        /* \"@openzeppelin/contracts/utils/Strings.sol\":955:983  add(buffer, add(32, length)) */\n      add\n        /* \"@openzeppelin/contracts/utils/Strings.sol\":948:983  ptr := add(buffer, add(32, length)) */\n      swap1\n      pop\n        /* \"@openzeppelin/contracts/utils/Strings.sol\":1010:1292  while (true) {... */\n    tag_255:\n        /* \"@openzeppelin/contracts/utils/Strings.sol\":1017:1021  true */\n      0x01\n        /* \"@openzeppelin/contracts/utils/Strings.sol\":1010:1292  while (true) {... */\n      iszero\n      tag_256\n      jumpi\n        /* \"@openzeppelin/contracts/utils/Strings.sol\":1041:1046  ptr-- */\n      dup1\n      dup1\n      0x01\n      swap1\n      sub\n      swap2\n      pop\n      pop\n        /* \"@openzeppelin/contracts/utils/Strings.sol\":1180:1190  HEX_DIGITS */\n      0x3031323334353637383961626364656600000000000000000000000000000000\n        /* \"@openzeppelin/contracts/utils/Strings.sol\":1175:1177  10 */\n      0x0a\n        /* \"@openzeppelin/contracts/utils/Strings.sol\":1168:1173  value */\n      dup7\n        /* \"@openzeppelin/contracts/utils/Strings.sol\":1164:1178  mod(value, 10) */\n      mod\n        /* \"@openzeppelin/contracts/utils/Strings.sol\":1159:1191  byte(mod(value, 10), HEX_DIGITS) */\n      byte\n        /* \"@openzeppelin/contracts/utils/Strings.sol\":1154:1157  ptr */\n      dup2\n        /* \"@openzeppelin/contracts/utils/Strings.sol\":1146:1192  mstore8(ptr, byte(mod(value, 10), HEX_DIGITS)) */\n      mstore8\n        /* \"@openzeppelin/contracts/utils/Strings.sol\":1236:1238  10 */\n      0x0a\n        /* \"@openzeppelin/contracts/utils/Strings.sol\":1227:1238  value /= 10 */\n      dup6\n      dup2\n      tag_257\n      jumpi\n      tag_258\n      tag_259\n      jump\t// in\n    tag_258:\n    tag_257:\n      div\n      swap5\n      pop\n        /* \"@openzeppelin/contracts/utils/Strings.sol\":1269:1270  0 */\n      0x00\n        /* \"@openzeppelin/contracts/utils/Strings.sol\":1260:1265  value */\n      dup6\n        /* \"@openzeppelin/contracts/utils/Strings.sol\":1260:1270  value == 0 */\n      sub\n        /* \"@openzeppelin/contracts/utils/Strings.sol\":1010:1292  while (true) {... */\n      tag_255\n        /* \"@openzeppelin/contracts/utils/Strings.sol\":1256:1277  if (value == 0) break */\n      jumpi\n        /* \"@openzeppelin/contracts/utils/Strings.sol\":1010:1292  while (true) {... */\n    tag_256:\n        /* \"@openzeppelin/contracts/utils/Strings.sol\":1312:1318  buffer */\n      dup2\n        /* \"@openzeppelin/contracts/utils/Strings.sol\":1305:1318  return buffer */\n      swap4\n      pop\n      pop\n      pop\n      pop\n        /* \"@openzeppelin/contracts/utils/Strings.sol\":637:1335  function toString(uint256 value) internal pure returns (string memory) {... */\n      swap2\n      swap1\n      pop\n      jump\t// out\n        /* \"@openzeppelin/contracts/token/ERC721/ERC721.sol\":5707:5822  function _ownerOf(uint256 tokenId) internal view virtual returns (address) {... */\n    tag_204:\n        /* \"@openzeppelin/contracts/token/ERC721/ERC721.sol\":5773:5780  address */\n      0x00\n        /* \"@openzeppelin/contracts/token/ERC721/ERC721.sol\":5799:5806  _owners */\n      0x02\n        /* \"@openzeppelin/contracts/token/ERC721/ERC721.sol\":5799:5815  _owners[tokenId] */\n      0x00\n        /* \"@openzeppelin/contracts/token/ERC721/ERC721.sol\":5807:5814  tokenId */\n      dup4\n        /* \"@openzeppelin/contracts/token/ERC721/ERC721.sol\":5799:5815  _owners[tokenId] */\n      dup2\n      mstore\n      0x20\n      add\n      swap1\n      dup2\n      mstore\n      0x20\n      add\n      0x00\n      keccak256\n      0x00\n      swap1\n      sload\n      swap1\n      0x0100\n      exp\n      swap1\n      div\n      0xffffffffffffffffffffffffffffffffffffffff\n      and\n        /* \"@openzeppelin/contracts/token/ERC721/ERC721.sol\":5792:5815  return _owners[tokenId] */\n      swap1\n      pop\n        /* \"@openzeppelin/contracts/token/ERC721/ERC721.sol\":5707:5822  function _ownerOf(uint256 tokenId) internal view virtual returns (address) {... */\n      swap2\n      swap1\n      pop\n      jump\t// out\n        /* \"@openzeppelin/contracts/token/ERC721/ERC721.sol\":14720:15382  function _approve(address to, uint256 tokenId, address auth, bool emitEvent) internal virtual {... */\n    tag_211:\n        /* \"@openzeppelin/contracts/token/ERC721/ERC721.sol\":14880:14889  emitEvent */\n      dup1\n        /* \"@openzeppelin/contracts/token/ERC721/ERC721.sol\":14880:14911  emitEvent || auth != address(0) */\n      dup1\n      tag_263\n      jumpi\n      pop\n        /* \"@openzeppelin/contracts/token/ERC721/ERC721.sol\":14909:14910  0 */\n      0x00\n        /* \"@openzeppelin/contracts/token/ERC721/ERC721.sol\":14893:14911  auth != address(0) */\n      0xffffffffffffffffffffffffffffffffffffffff\n      and\n        /* \"@openzeppelin/contracts/token/ERC721/ERC721.sol\":14893:14897  auth */\n      dup3\n        /* \"@openzeppelin/contracts/token/ERC721/ERC721.sol\":14893:14911  auth != address(0) */\n      0xffffffffffffffffffffffffffffffffffffffff\n      and\n      eq\n      iszero\n        /* \"@openzeppelin/contracts/token/ERC721/ERC721.sol\":14880:14911  emitEvent || auth != address(0) */\n    tag_263:\n        /* \"@openzeppelin/contracts/token/ERC721/ERC721.sol\":14876:15336  if (emitEvent || auth != address(0)) {... */\n      iszero\n      tag_264\n      jumpi\n        /* \"@openzeppelin/contracts/token/ERC721/ERC721.sol\":14927:14940  address owner */\n      0x00\n        /* \"@openzeppelin/contracts/token/ERC721/ERC721.sol\":14943:14965  _requireOwned(tokenId) */\n      tag_265\n        /* \"@openzeppelin/contracts/token/ERC721/ERC721.sol\":14957:14964  tokenId */\n      dup5\n        /* \"@openzeppelin/contracts/token/ERC721/ERC721.sol\":14943:14956  _requireOwned */\n      tag_110\n        /* \"@openzeppelin/contracts/token/ERC721/ERC721.sol\":14943:14965  _requireOwned(tokenId) */\n      jump\t// in\n    tag_265:\n        /* \"@openzeppelin/contracts/token/ERC721/ERC721.sol\":14927:14965  address owner = _requireOwned(tokenId) */\n      swap1\n      pop\n        /* \"@openzeppelin/contracts/token/ERC721/ERC721.sol\":15109:15110  0 */\n      0x00\n        /* \"@openzeppelin/contracts/token/ERC721/ERC721.sol\":15093:15111  auth != address(0) */\n      0xffffffffffffffffffffffffffffffffffffffff\n      and\n        /* \"@openzeppelin/contracts/token/ERC721/ERC721.sol\":15093:15097  auth */\n      dup4\n        /* \"@openzeppelin/contracts/token/ERC721/ERC721.sol\":15093:15111  auth != address(0) */\n      0xffffffffffffffffffffffffffffffffffffffff\n      and\n      eq\n      iszero\n        /* \"@openzeppelin/contracts/token/ERC721/ERC721.sol\":15093:15128  auth != address(0) && owner != auth */\n      dup1\n      iszero\n      tag_266\n      jumpi\n      pop\n        /* \"@openzeppelin/contracts/token/ERC721/ERC721.sol\":15124:15128  auth */\n      dup3\n        /* \"@openzeppelin/contracts/token/ERC721/ERC721.sol\":15115:15128  owner != auth */\n      0xffffffffffffffffffffffffffffffffffffffff\n      and\n        /* \"@openzeppelin/contracts/token/ERC721/ERC721.sol\":15115:15120  owner */\n      dup2\n        /* \"@openzeppelin/contracts/token/ERC721/ERC721.sol\":15115:15128  owner != auth */\n      0xffffffffffffffffffffffffffffffffffffffff\n      and\n      eq\n      iszero\n        /* \"@openzeppelin/contracts/token/ERC721/ERC721.sol\":15093:15128  auth != address(0) && owner != auth */\n    tag_266:\n        /* \"@openzeppelin/contracts/token/ERC721/ERC721.sol\":15093:15162  auth != address(0) && owner != auth && !isApprovedForAll(owner, auth) */\n      dup1\n      iszero\n      tag_267\n      jumpi\n      pop\n        /* \"@openzeppelin/contracts/token/ERC721/ERC721.sol\":15133:15162  isApprovedForAll(owner, auth) */\n      tag_268\n        /* \"@openzeppelin/contracts/token/ERC721/ERC721.sol\":15150:15155  owner */\n      dup2\n        /* \"@openzeppelin/contracts/token/ERC721/ERC721.sol\":15157:15161  auth */\n      dup5\n        /* \"@openzeppelin/contracts/token/ERC721/ERC721.sol\":15133:15149  isApprovedForAll */\n      tag_91\n        /* \"@openzeppelin/contracts/token/ERC721/ERC721.sol\":15133:15162  isApprovedForAll(owner, auth) */\n      jump\t// in\n    tag_268:\n        /* \"@openzeppelin/contracts/token/ERC721/ERC721.sol\":15132:15162  !isApprovedForAll(owner, auth) */\n      iszero\n        /* \"@openzeppelin/contracts/token/ERC721/ERC721.sol\":15093:15162  auth != address(0) && owner != auth && !isApprovedForAll(owner, auth) */\n    tag_267:\n        /* \"@openzeppelin/contracts/token/ERC721/ERC721.sol\":15089:15231  if (auth != address(0) && owner != auth && !isApprovedForAll(owner, auth)) {... */\n      iszero\n      tag_269\n      jumpi\n        /* \"@openzeppelin/contracts/token/ERC721/ERC721.sol\":15211:15215  auth */\n      dup3\n        /* \"@openzeppelin/contracts/token/ERC721/ERC721.sol\":15189:15216  ERC721InvalidApprover(auth) */\n      mload(0x40)\n      0xa9fbf51f00000000000000000000000000000000000000000000000000000000\n      dup2\n      mstore\n      0x04\n      add\n      tag_270\n      swap2\n      swap1\n      tag_38\n      jump\t// in\n    tag_270:\n      mload(0x40)\n      dup1\n      swap2\n      sub\n      swap1\n      revert\n        /* \"@openzeppelin/contracts/token/ERC721/ERC721.sol\":15089:15231  if (auth != address(0) && owner != auth && !isApprovedForAll(owner, auth)) {... */\n    tag_269:\n        /* \"@openzeppelin/contracts/token/ERC721/ERC721.sol\":15249:15258  emitEvent */\n      dup2\n        /* \"@openzeppelin/contracts/token/ERC721/ERC721.sol\":15245:15326  if (emitEvent) {... */\n      iszero\n      tag_271\n      jumpi\n        /* \"@openzeppelin/contracts/token/ERC721/ERC721.sol\":15303:15310  tokenId */\n      dup4\n        /* \"@openzeppelin/contracts/token/ERC721/ERC721.sol\":15299:15301  to */\n      dup6\n        /* \"@openzeppelin/contracts/token/ERC721/ERC721.sol\":15283:15311  Approval(owner, to, tokenId) */\n      0xffffffffffffffffffffffffffffffffffffffff\n      and\n        /* \"@openzeppelin/contracts/token/ERC721/ERC721.sol\":15292:15297  owner */\n      dup3\n        /* \"@openzeppelin/contracts/token/ERC721/ERC721.sol\":15283:15311  Approval(owner, to, tokenId) */\n      0xffffffffffffffffffffffffffffffffffffffff\n      and\n      0x8c5be1e5ebec7d5bd14f71427d1e84f3dd0314c0f7b2291e5b200ac8c7c3b925\n      mload(0x40)\n      mload(0x40)\n      dup1\n      swap2\n      sub\n      swap1\n      log4\n        /* \"@openzeppelin/contracts/token/ERC721/ERC721.sol\":15245:15326  if (emitEvent) {... */\n    tag_271:\n        /* \"@openzeppelin/contracts/token/ERC721/ERC721.sol\":14913:15336  {... */\n      pop\n        /* \"@openzeppelin/contracts/token/ERC721/ERC721.sol\":14876:15336  if (emitEvent || auth != address(0)) {... */\n    tag_264:\n        /* \"@openzeppelin/contracts/token/ERC721/ERC721.sol\":15373:15375  to */\n      dup4\n        /* \"@openzeppelin/contracts/token/ERC721/ERC721.sol\":15346:15361  _tokenApprovals */\n      0x04\n        /* \"@openzeppelin/contracts/token/ERC721/ERC721.sol\":15346:15370  _tokenApprovals[tokenId] */\n      0x00\n        /* \"@openzeppelin/contracts/token/ERC721/ERC721.sol\":15362:15369  tokenId */\n      dup6\n        /* \"@openzeppelin/contracts/token/ERC721/ERC721.sol\":15346:15370  _tokenApprovals[tokenId] */\n      dup2\n      mstore\n      0x20\n      add\n      swap1\n      dup2\n      mstore\n      0x20\n      add\n      0x00\n      keccak256\n      0x00\n        /* \"@openzeppelin/contracts/token/ERC721/ERC721.sol\":15346:15375  _tokenApprovals[tokenId] = to */\n      0x0100\n      exp\n      dup2\n      sload\n      dup2\n      0xffffffffffffffffffffffffffffffffffffffff\n      mul\n      not\n      and\n      swap1\n      dup4\n      0xffffffffffffffffffffffffffffffffffffffff\n      and\n      mul\n      or\n      swap1\n      sstore\n      pop\n        /* \"@openzeppelin/contracts/token/ERC721/ERC721.sol\":14720:15382  function _approve(address to, uint256 tokenId, address auth, bool emitEvent) internal virtual {... */\n      pop\n      pop\n      pop\n      pop\n      jump\t// out\n        /* \"@openzeppelin/contracts/token/ERC721/ERC721.sol\":7082:7450  function _checkAuthorized(address owner, address spender, uint256 tokenId) internal view virtual {... */\n    tag_216:\n        /* \"@openzeppelin/contracts/token/ERC721/ERC721.sol\":7194:7232  _isAuthorized(owner, spender, tokenId) */\n      tag_273\n        /* \"@openzeppelin/contracts/token/ERC721/ERC721.sol\":7208:7213  owner */\n      dup4\n        /* \"@openzeppelin/contracts/token/ERC721/ERC721.sol\":7215:7222  spender */\n      dup4\n        /* \"@openzeppelin/contracts/token/ERC721/ERC721.sol\":7224:7231  tokenId */\n      dup4\n        /* \"@openzeppelin/contracts/token/ERC721/ERC721.sol\":7194:7207  _isAuthorized */\n      tag_274\n        /* \"@openzeppelin/contracts/token/ERC721/ERC721.sol\":7194:7232  _isAuthorized(owner, spender, tokenId) */\n      jump\t// in\n    tag_273:\n        /* \"@openzeppelin/contracts/token/ERC721/ERC721.sol\":7189:7444  if (!_isAuthorized(owner, spender, tokenId)) {... */\n      tag_275\n      jumpi\n        /* \"@openzeppelin/contracts/token/ERC721/ERC721.sol\":7269:7270  0 */\n      0x00\n        /* \"@openzeppelin/contracts/token/ERC721/ERC721.sol\":7252:7271  owner == address(0) */\n      0xffffffffffffffffffffffffffffffffffffffff\n      and\n        /* \"@openzeppelin/contracts/token/ERC721/ERC721.sol\":7252:7257  owner */\n      dup4\n        /* \"@openzeppelin/contracts/token/ERC721/ERC721.sol\":7252:7271  owner == address(0) */\n      0xffffffffffffffffffffffffffffffffffffffff\n      and\n      sub\n        /* \"@openzeppelin/contracts/token/ERC721/ERC721.sol\":7248:7434  if (owner == address(0)) {... */\n      tag_276\n      jumpi\n        /* \"@openzeppelin/contracts/token/ERC721/ERC721.sol\":7321:7328  tokenId */\n      dup1\n        /* \"@openzeppelin/contracts/token/ERC721/ERC721.sol\":7298:7329  ERC721NonexistentToken(tokenId) */\n      mload(0x40)\n      0x7e27328900000000000000000000000000000000000000000000000000000000\n      dup2\n      mstore\n      0x04\n      add\n      tag_277\n      swap2\n      swap1\n      tag_67\n      jump\t// in\n    tag_277:\n      mload(0x40)\n      dup1\n      swap2\n      sub\n      swap1\n      revert\n        /* \"@openzeppelin/contracts/token/ERC721/ERC721.sol\":7248:7434  if (owner == address(0)) {... */\n    tag_276:\n        /* \"@openzeppelin/contracts/token/ERC721/ERC721.sol\":7402:7409  spender */\n      dup2\n        /* \"@openzeppelin/contracts/token/ERC721/ERC721.sol\":7411:7418  tokenId */\n      dup2\n        /* \"@openzeppelin/contracts/token/ERC721/ERC721.sol\":7375:7419  ERC721InsufficientApproval(spender, tokenId) */\n      mload(0x40)\n      0x177e802f00000000000000000000000000000000000000000000000000000000\n      dup2\n      mstore\n      0x04\n      add\n      tag_279\n      swap3\n      swap2\n      swap1\n      tag_280\n      jump\t// in\n    tag_279:\n      mload(0x40)\n      dup1\n      swap2\n      sub\n      swap1\n      revert\n        /* \"@openzeppelin/contracts/token/ERC721/ERC721.sol\":7189:7444  if (!_isAuthorized(owner, spender, tokenId)) {... */\n    tag_275:\n        /* \"@openzeppelin/contracts/token/ERC721/ERC721.sol\":7082:7450  function _checkAuthorized(address owner, address spender, uint256 tokenId) internal view virtual {... */\n      pop\n      pop\n      pop\n      jump\t// out\n        /* \"@openzeppelin/contracts/token/ERC721/ERC721.sol\":10954:11136  function _safeMint(address to, uint256 tokenId, bytes memory data) internal virtual {... */\n    tag_222:\n        /* \"@openzeppelin/contracts/token/ERC721/ERC721.sol\":11048:11066  _mint(to, tokenId) */\n      tag_282\n        /* \"@openzeppelin/contracts/token/ERC721/ERC721.sol\":11054:11056  to */\n      dup4\n        /* \"@openzeppelin/contracts/token/ERC721/ERC721.sol\":11058:11065  tokenId */\n      dup4\n        /* \"@openzeppelin/contracts/token/ERC721/ERC721.sol\":11048:11053  _mint */\n      tag_283\n        /* \"@openzeppelin/contracts/token/ERC721/ERC721.sol\":11048:11066  _mint(to, tokenId) */\n      jump\t// in\n    tag_282:\n        /* \"@openzeppelin/contracts/token/ERC721/ERC721.sol\":11076:11129  _checkOnERC721Received(address(0), to, tokenId, data) */\n      tag_284\n        /* \"@openzeppelin/contracts/token/ERC721/ERC721.sol\":11107:11108  0 */\n      0x00\n        /* \"@openzeppelin/contracts/token/ERC721/ERC721.sol\":11111:11113  to */\n      dup5\n        /* \"@openzeppelin/contracts/token/ERC721/ERC721.sol\":11115:11122  tokenId */\n      dup5\n        /* \"@openzeppelin/contracts/token/ERC721/ERC721.sol\":11124:11128  data */\n      dup5\n        /* \"@openzeppelin/contracts/token/ERC721/ERC721.sol\":11076:11098  _checkOnERC721Received */\n      tag_189\n        /* \"@openzeppelin/contracts/token/ERC721/ERC721.sol\":11076:11129  _checkOnERC721Received(address(0), to, tokenId, data) */\n      jump\t// in\n    tag_284:\n        /* \"@openzeppelin/contracts/token/ERC721/ERC721.sol\":10954:11136  function _safeMint(address to, uint256 tokenId, bytes memory data) internal virtual {... */\n      pop\n      pop\n      pop\n      jump\t// out\n        /* \"@openzeppelin/contracts/utils/math/Math.sol\":12214:13130  function log10(uint256 value) internal pure returns (uint256) {... */\n    tag_250:\n        /* \"@openzeppelin/contracts/utils/math/Math.sol\":12267:12274  uint256 */\n      0x00\n        /* \"@openzeppelin/contracts/utils/math/Math.sol\":12286:12300  uint256 result */\n      dup1\n        /* \"@openzeppelin/contracts/utils/math/Math.sol\":12303:12304  0 */\n      0x00\n        /* \"@openzeppelin/contracts/utils/math/Math.sol\":12286:12304  uint256 result = 0 */\n      swap1\n      pop\n        /* \"@openzeppelin/contracts/utils/math/Math.sol\":12351:12359  10 ** 64 */\n      0x184f03e93ff9f4daa797ed6e38ed64bf6a1f010000000000000000\n        /* \"@openzeppelin/contracts/utils/math/Math.sol\":12342:12347  value */\n      dup4\n        /* \"@openzeppelin/contracts/utils/math/Math.sol\":12342:12359  value >= 10 ** 64 */\n      lt\n        /* \"@openzeppelin/contracts/utils/math/Math.sol\":12338:12441  if (value >= 10 ** 64) {... */\n      tag_286\n      jumpi\n        /* \"@openzeppelin/contracts/utils/math/Math.sol\":12388:12396  10 ** 64 */\n      0x184f03e93ff9f4daa797ed6e38ed64bf6a1f010000000000000000\n        /* \"@openzeppelin/contracts/utils/math/Math.sol\":12379:12396  value /= 10 ** 64 */\n      dup4\n      dup2\n      tag_287\n      jumpi\n      tag_288\n      tag_259\n      jump\t// in\n    tag_288:\n    tag_287:\n      div\n      swap3\n      pop\n        /* \"@openzeppelin/contracts/utils/math/Math.sol\":12424:12426  64 */\n      0x40\n        /* \"@openzeppelin/contracts/utils/math/Math.sol\":12414:12426  result += 64 */\n      dup2\n      add\n      swap1\n      pop\n        /* \"@openzeppelin/contracts/utils/math/Math.sol\":12338:12441  if (value >= 10 ** 64) {... */\n    tag_286:\n        /* \"@openzeppelin/contracts/utils/math/Math.sol\":12467:12475  10 ** 32 */\n      0x04ee2d6d415b85acef8100000000\n        /* \"@openzeppelin/contracts/utils/math/Math.sol\":12458:12463  value */\n      dup4\n        /* \"@openzeppelin/contracts/utils/math/Math.sol\":12458:12475  value >= 10 ** 32 */\n      lt\n        /* \"@openzeppelin/contracts/utils/math/Math.sol\":12454:12557  if (value >= 10 ** 32) {... */\n      tag_289\n      jumpi\n        /* \"@openzeppelin/contracts/utils/math/Math.sol\":12504:12512  10 ** 32 */\n      0x04ee2d6d415b85acef8100000000\n        /* \"@openzeppelin/contracts/utils/math/Math.sol\":12495:12512  value /= 10 ** 32 */\n      dup4\n      dup2\n      tag_290\n      jumpi\n      tag_291\n      tag_259\n      jump\t// in\n    tag_291:\n    tag_290:\n      div\n      swap3\n      pop\n        /* \"@openzeppelin/contracts/utils/math/Math.sol\":12540:12542  32 */\n      0x20\n        /* \"@openzeppelin/contracts/utils/math/Math.sol\":12530:12542  result += 32 */\n      dup2\n      add\n      swap1\n      pop\n        /* \"@openzeppelin/contracts/utils/math/Math.sol\":12454:12557  if (value >= 10 ** 32) {... */\n    tag_289:\n        /* \"@openzeppelin/contracts/utils/math/Math.sol\":12583:12591  10 ** 16 */\n      0x2386f26fc10000\n        /* \"@openzeppelin/contracts/utils/math/Math.sol\":12574:12579  value */\n      dup4\n        /* \"@openzeppelin/contracts/utils/math/Math.sol\":12574:12591  value >= 10 ** 16 */\n      lt\n        /* \"@openzeppelin/contracts/utils/math/Math.sol\":12570:12673  if (value >= 10 ** 16) {... */\n      tag_292\n      jumpi\n        /* \"@openzeppelin/contracts/utils/math/Math.sol\":12620:12628  10 ** 16 */\n      0x2386f26fc10000\n        /* \"@openzeppelin/contracts/utils/math/Math.sol\":12611:12628  value /= 10 ** 16 */\n      dup4\n      dup2\n      tag_293\n      jumpi\n      tag_294\n      tag_259\n      jump\t// in\n    tag_294:\n    tag_293:\n      div\n      swap3\n      pop\n        /* \"@openzeppelin/contracts/utils/math/Math.sol\":12656:12658  16 */\n      0x10\n        /* \"@openzeppelin/contracts/utils/math/Math.sol\":12646:12658  result += 16 */\n      dup2\n      add\n      swap1\n      pop\n        /* \"@openzeppelin/contracts/utils/math/Math.sol\":12570:12673  if (value >= 10 ** 16) {... */\n    tag_292:\n        /* \"@openzeppelin/contracts/utils/math/Math.sol\":12699:12706  10 ** 8 */\n      0x05f5e100\n        /* \"@openzeppelin/contracts/utils/math/Math.sol\":12690:12695  value */\n      dup4\n        /* \"@openzeppelin/contracts/utils/math/Math.sol\":12690:12706  value >= 10 ** 8 */\n      lt\n        /* \"@openzeppelin/contracts/utils/math/Math.sol\":12686:12786  if (value >= 10 ** 8) {... */\n      tag_295\n      jumpi\n        /* \"@openzeppelin/contracts/utils/math/Math.sol\":12735:12742  10 ** 8 */\n      0x05f5e100\n        /* \"@openzeppelin/contracts/utils/math/Math.sol\":12726:12742  value /= 10 ** 8 */\n      dup4\n      dup2\n      tag_296\n      jumpi\n      tag_297\n      tag_259\n      jump\t// in\n    tag_297:\n    tag_296:\n      div\n      swap3\n      pop\n        /* \"@openzeppelin/contracts/utils/math/Math.sol\":12770:12771  8 */\n      0x08\n        /* \"@openzeppelin/contracts/utils/math/Math.sol\":12760:12771  result += 8 */\n      dup2\n      add\n      swap1\n      pop\n        /* \"@openzeppelin/contracts/utils/math/Math.sol\":12686:12786  if (value >= 10 ** 8) {... */\n    tag_295:\n        /* \"@openzeppelin/contracts/utils/math/Math.sol\":12812:12819  10 ** 4 */\n      0x2710\n        /* \"@openzeppelin/contracts/utils/math/Math.sol\":12803:12808  value */\n      dup4\n        /* \"@openzeppelin/contracts/utils/math/Math.sol\":12803:12819  value >= 10 ** 4 */\n      lt\n        /* \"@openzeppelin/contracts/utils/math/Math.sol\":12799:12899  if (value >= 10 ** 4) {... */\n      tag_298\n      jumpi\n        /* \"@openzeppelin/contracts/utils/math/Math.sol\":12848:12855  10 ** 4 */\n      0x2710\n        /* \"@openzeppelin/contracts/utils/math/Math.sol\":12839:12855  value /= 10 ** 4 */\n      dup4\n      dup2\n      tag_299\n      jumpi\n      tag_300\n      tag_259\n      jump\t// in\n    tag_300:\n    tag_299:\n      div\n      swap3\n      pop\n        /* \"@openzeppelin/contracts/utils/math/Math.sol\":12883:12884  4 */\n      0x04\n        /* \"@openzeppelin/contracts/utils/math/Math.sol\":12873:12884  result += 4 */\n      dup2\n      add\n      swap1\n      pop\n        /* \"@openzeppelin/contracts/utils/math/Math.sol\":12799:12899  if (value >= 10 ** 4) {... */\n    tag_298:\n        /* \"@openzeppelin/contracts/utils/math/Math.sol\":12925:12932  10 ** 2 */\n      0x64\n        /* \"@openzeppelin/contracts/utils/math/Math.sol\":12916:12921  value */\n      dup4\n        /* \"@openzeppelin/contracts/utils/math/Math.sol\":12916:12932  value >= 10 ** 2 */\n      lt\n        /* \"@openzeppelin/contracts/utils/math/Math.sol\":12912:13012  if (value >= 10 ** 2) {... */\n      tag_301\n      jumpi\n        /* \"@openzeppelin/contracts/utils/math/Math.sol\":12961:12968  10 ** 2 */\n      0x64\n        /* \"@openzeppelin/contracts/utils/math/Math.sol\":12952:12968  value /= 10 ** 2 */\n      dup4\n      dup2\n      tag_302\n      jumpi\n      tag_303\n      tag_259\n      jump\t// in\n    tag_303:\n    tag_302:\n      div\n      swap3\n      pop\n        /* \"@openzeppelin/contracts/utils/math/Math.sol\":12996:12997  2 */\n      0x02\n        /* \"@openzeppelin/contracts/utils/math/Math.sol\":12986:12997  result += 2 */\n      dup2\n      add\n      swap1\n      pop\n        /* \"@openzeppelin/contracts/utils/math/Math.sol\":12912:13012  if (value >= 10 ** 2) {... */\n    tag_301:\n        /* \"@openzeppelin/contracts/utils/math/Math.sol\":13038:13045  10 ** 1 */\n      0x0a\n        /* \"@openzeppelin/contracts/utils/math/Math.sol\":13029:13034  value */\n      dup4\n        /* \"@openzeppelin/contracts/utils/math/Math.sol\":13029:13045  value >= 10 ** 1 */\n      lt\n        /* \"@openzeppelin/contracts/utils/math/Math.sol\":13025:13091  if (value >= 10 ** 1) {... */\n      tag_304\n      jumpi\n        /* \"@openzeppelin/contracts/utils/math/Math.sol\":13075:13076  1 */\n      0x01\n        /* \"@openzeppelin/contracts/utils/math/Math.sol\":13065:13076  result += 1 */\n      dup2\n      add\n      swap1\n      pop\n        /* \"@openzeppelin/contracts/utils/math/Math.sol\":13025:13091  if (value >= 10 ** 1) {... */\n    tag_304:\n        /* \"@openzeppelin/contracts/utils/math/Math.sol\":13117:13123  result */\n      dup1\n        /* \"@openzeppelin/contracts/utils/math/Math.sol\":13110:13123  return result */\n      swap2\n      pop\n      pop\n        /* \"@openzeppelin/contracts/utils/math/Math.sol\":12214:13130  function log10(uint256 value) internal pure returns (uint256) {... */\n      swap2\n      swap1\n      pop\n      jump\t// out\n        /* \"@openzeppelin/contracts/token/ERC721/ERC721.sol\":6376:6648  function _isAuthorized(address owner, address spender, uint256 tokenId) internal view virtual returns (bool) {... */\n    tag_274:\n        /* \"@openzeppelin/contracts/token/ERC721/ERC721.sol\":6479:6483  bool */\n      0x00\n        /* \"@openzeppelin/contracts/token/ERC721/ERC721.sol\":6533:6534  0 */\n      dup1\n        /* \"@openzeppelin/contracts/token/ERC721/ERC721.sol\":6514:6535  spender != address(0) */\n      0xffffffffffffffffffffffffffffffffffffffff\n      and\n        /* \"@openzeppelin/contracts/token/ERC721/ERC721.sol\":6514:6521  spender */\n      dup4\n        /* \"@openzeppelin/contracts/token/ERC721/ERC721.sol\":6514:6535  spender != address(0) */\n      0xffffffffffffffffffffffffffffffffffffffff\n      and\n      eq\n      iszero\n        /* \"@openzeppelin/contracts/token/ERC721/ERC721.sol\":6514:6641  spender != address(0) &&... */\n      dup1\n      iszero\n      tag_306\n      jumpi\n      pop\n        /* \"@openzeppelin/contracts/token/ERC721/ERC721.sol\":6561:6568  spender */\n      dup3\n        /* \"@openzeppelin/contracts/token/ERC721/ERC721.sol\":6552:6568  owner == spender */\n      0xffffffffffffffffffffffffffffffffffffffff\n      and\n        /* \"@openzeppelin/contracts/token/ERC721/ERC721.sol\":6552:6557  owner */\n      dup5\n        /* \"@openzeppelin/contracts/token/ERC721/ERC721.sol\":6552:6568  owner == spender */\n      0xffffffffffffffffffffffffffffffffffffffff\n      and\n      eq\n        /* \"@openzeppelin/contracts/token/ERC721/ERC721.sol\":6552:6604  owner == spender || isApprovedForAll(owner, spender) */\n      dup1\n      tag_307\n      jumpi\n      pop\n        /* \"@openzeppelin/contracts/token/ERC721/ERC721.sol\":6572:6604  isApprovedForAll(owner, spender) */\n      tag_308\n        /* \"@openzeppelin/contracts/token/ERC721/ERC721.sol\":6589:6594  owner */\n      dup5\n        /* \"@openzeppelin/contracts/token/ERC721/ERC721.sol\":6596:6603  spender */\n      dup5\n        /* \"@openzeppelin/contracts/token/ERC721/ERC721.sol\":6572:6588  isApprovedForAll */\n      tag_91\n        /* \"@openzeppelin/contracts/token/ERC721/ERC721.sol\":6572:6604  isApprovedForAll(owner, spender) */\n      jump\t// in\n    tag_308:\n        /* \"@openzeppelin/contracts/token/ERC721/ERC721.sol\":6552:6604  owner == spender || isApprovedForAll(owner, spender) */\n    tag_307:\n        /* \"@openzeppelin/contracts/token/ERC721/ERC721.sol\":6552:6640  owner == spender || isApprovedForAll(owner, spender) || _getApproved(tokenId) == spender */\n      dup1\n      tag_309\n      jumpi\n      pop\n        /* \"@openzeppelin/contracts/token/ERC721/ERC721.sol\":6633:6640  spender */\n      dup3\n        /* \"@openzeppelin/contracts/token/ERC721/ERC721.sol\":6608:6640  _getApproved(tokenId) == spender */\n      0xffffffffffffffffffffffffffffffffffffffff\n      and\n        /* \"@openzeppelin/contracts/token/ERC721/ERC721.sol\":6608:6629  _getApproved(tokenId) */\n      tag_310\n        /* \"@openzeppelin/contracts/token/ERC721/ERC721.sol\":6621:6628  tokenId */\n      dup4\n        /* \"@openzeppelin/contracts/token/ERC721/ERC721.sol\":6608:6620  _getApproved */\n      tag_112\n        /* \"@openzeppelin/contracts/token/ERC721/ERC721.sol\":6608:6629  _getApproved(tokenId) */\n      jump\t// in\n    tag_310:\n        /* \"@openzeppelin/contracts/token/ERC721/ERC721.sol\":6608:6640  _getApproved(tokenId) == spender */\n      0xffffffffffffffffffffffffffffffffffffffff\n      and\n      eq\n        /* \"@openzeppelin/contracts/token/ERC721/ERC721.sol\":6552:6640  owner == spender || isApprovedForAll(owner, spender) || _getApproved(tokenId) == spender */\n    tag_309:\n        /* \"@openzeppelin/contracts/token/ERC721/ERC721.sol\":6514:6641  spender != address(0) &&... */\n    tag_306:\n        /* \"@openzeppelin/contracts/token/ERC721/ERC721.sol\":6495:6641  return... */\n      swap1\n      pop\n        /* \"@openzeppelin/contracts/token/ERC721/ERC721.sol\":6376:6648  function _isAuthorized(address owner, address spender, uint256 tokenId) internal view virtual returns (bool) {... */\n      swap4\n      swap3\n      pop\n      pop\n      pop\n      jump\t// out\n        /* \"@openzeppelin/contracts/token/ERC721/ERC721.sol\":9955:10282  function _mint(address to, uint256 tokenId) internal {... */\n    tag_283:\n        /* \"@openzeppelin/contracts/token/ERC721/ERC721.sol\":10036:10037  0 */\n      0x00\n        /* \"@openzeppelin/contracts/token/ERC721/ERC721.sol\":10022:10038  to == address(0) */\n      0xffffffffffffffffffffffffffffffffffffffff\n      and\n        /* \"@openzeppelin/contracts/token/ERC721/ERC721.sol\":10022:10024  to */\n      dup3\n        /* \"@openzeppelin/contracts/token/ERC721/ERC721.sol\":10022:10038  to == address(0) */\n      0xffffffffffffffffffffffffffffffffffffffff\n      and\n      sub\n        /* \"@openzeppelin/contracts/token/ERC721/ERC721.sol\":10018:10105  if (to == address(0)) {... */\n      tag_312\n      jumpi\n        /* \"@openzeppelin/contracts/token/ERC721/ERC721.sol\":10091:10092  0 */\n      0x00\n        /* \"@openzeppelin/contracts/token/ERC721/ERC721.sol\":10061:10094  ERC721InvalidReceiver(address(0)) */\n      mload(0x40)\n      0x64a0ae9200000000000000000000000000000000000000000000000000000000\n      dup2\n      mstore\n      0x04\n      add\n      tag_313\n      swap2\n      swap1\n      tag_38\n      jump\t// in\n    tag_313:\n      mload(0x40)\n      dup1\n      swap2\n      sub\n      swap1\n      revert\n        /* \"@openzeppelin/contracts/token/ERC721/ERC721.sol\":10018:10105  if (to == address(0)) {... */\n    tag_312:\n        /* \"@openzeppelin/contracts/token/ERC721/ERC721.sol\":10114:10135  address previousOwner */\n      0x00\n        /* \"@openzeppelin/contracts/token/ERC721/ERC721.sol\":10138:10170  _update(to, tokenId, address(0)) */\n      tag_314\n        /* \"@openzeppelin/contracts/token/ERC721/ERC721.sol\":10146:10148  to */\n      dup4\n        /* \"@openzeppelin/contracts/token/ERC721/ERC721.sol\":10150:10157  tokenId */\n      dup4\n        /* \"@openzeppelin/contracts/token/ERC721/ERC721.sol\":10167:10168  0 */\n      0x00\n        /* \"@openzeppelin/contracts/token/ERC721/ERC721.sol\":10138:10145  _update */\n      tag_123\n        /* \"@openzeppelin/contracts/token/ERC721/ERC721.sol\":10138:10170  _update(to, tokenId, address(0)) */\n      jump\t// in\n    tag_314:\n        /* \"@openzeppelin/contracts/token/ERC721/ERC721.sol\":10114:10170  address previousOwner = _update(to, tokenId, address(0)) */\n      swap1\n      pop\n        /* \"@openzeppelin/contracts/token/ERC721/ERC721.sol\":10209:10210  0 */\n      0x00\n        /* \"@openzeppelin/contracts/token/ERC721/ERC721.sol\":10184:10211  previousOwner != address(0) */\n      0xffffffffffffffffffffffffffffffffffffffff\n      and\n        /* \"@openzeppelin/contracts/token/ERC721/ERC721.sol\":10184:10197  previousOwner */\n      dup2\n        /* \"@openzeppelin/contracts/token/ERC721/ERC721.sol\":10184:10211  previousOwner != address(0) */\n      0xffffffffffffffffffffffffffffffffffffffff\n      and\n      eq\n        /* \"@openzeppelin/contracts/token/ERC721/ERC721.sol\":10180:10276  if (previousOwner != address(0)) {... */\n      tag_315\n      jumpi\n        /* \"@openzeppelin/contracts/token/ERC721/ERC721.sol\":10262:10263  0 */\n      0x00\n        /* \"@openzeppelin/contracts/token/ERC721/ERC721.sol\":10234:10265  ERC721InvalidSender(address(0)) */\n      mload(0x40)\n      0x73c6ac6e00000000000000000000000000000000000000000000000000000000\n      dup2\n      mstore\n      0x04\n      add\n      tag_316\n      swap2\n      swap1\n      tag_38\n      jump\t// in\n    tag_316:\n      mload(0x40)\n      dup1\n      swap2\n      sub\n      swap1\n      revert\n        /* \"@openzeppelin/contracts/token/ERC721/ERC721.sol\":10180:10276  if (previousOwner != address(0)) {... */\n    tag_315:\n        /* \"@openzeppelin/contracts/token/ERC721/ERC721.sol\":10008:10282  {... */\n      pop\n        /* \"@openzeppelin/contracts/token/ERC721/ERC721.sol\":9955:10282  function _mint(address to, uint256 tokenId) internal {... */\n      pop\n      pop\n      jump\t// out\n        /* \"#utility.yul\":7:82   */\n    tag_317:\n        /* \"#utility.yul\":40:46   */\n      0x00\n        /* \"#utility.yul\":73:75   */\n      0x40\n        /* \"#utility.yul\":67:76   */\n      mload\n        /* \"#utility.yul\":57:76   */\n      swap1\n      pop\n        /* \"#utility.yul\":7:82   */\n      swap1\n      jump\t// out\n        /* \"#utility.yul\":88:205   */\n    tag_318:\n        /* \"#utility.yul\":197:198   */\n      0x00\n        /* \"#utility.yul\":194:195   */\n      dup1\n        /* \"#utility.yul\":187:199   */\n      revert\n        /* \"#utility.yul\":211:328   */\n    tag_319:\n        /* \"#utility.yul\":320:321   */\n      0x00\n        /* \"#utility.yul\":317:318   */\n      dup1\n        /* \"#utility.yul\":310:322   */\n      revert\n        /* \"#utility.yul\":334:483   */\n    tag_320:\n        /* \"#utility.yul\":370:377   */\n      0x00\n        /* \"#utility.yul\":410:476   */\n      0xffffffff00000000000000000000000000000000000000000000000000000000\n        /* \"#utility.yul\":403:408   */\n      dup3\n        /* \"#utility.yul\":399:477   */\n      and\n        /* \"#utility.yul\":388:477   */\n      swap1\n      pop\n        /* \"#utility.yul\":334:483   */\n      swap2\n      swap1\n      pop\n      jump\t// out\n        /* \"#utility.yul\":489:609   */\n    tag_321:\n        /* \"#utility.yul\":561:584   */\n      tag_385\n        /* \"#utility.yul\":578:583   */\n      dup2\n        /* \"#utility.yul\":561:584   */\n      tag_320\n      jump\t// in\n    tag_385:\n        /* \"#utility.yul\":554:559   */\n      dup2\n        /* \"#utility.yul\":551:585   */\n      eq\n        /* \"#utility.yul\":541:603   */\n      tag_386\n      jumpi\n        /* \"#utility.yul\":599:600   */\n      0x00\n        /* \"#utility.yul\":596:597   */\n      dup1\n        /* \"#utility.yul\":589:601   */\n      revert\n        /* \"#utility.yul\":541:603   */\n    tag_386:\n        /* \"#utility.yul\":489:609   */\n      pop\n      jump\t// out\n        /* \"#utility.yul\":615:752   */\n    tag_322:\n        /* \"#utility.yul\":660:665   */\n      0x00\n        /* \"#utility.yul\":698:704   */\n      dup2\n        /* \"#utility.yul\":685:705   */\n      calldataload\n        /* \"#utility.yul\":676:705   */\n      swap1\n      pop\n        /* \"#utility.yul\":714:746   */\n      tag_388\n        /* \"#utility.yul\":740:745   */\n      dup2\n        /* \"#utility.yul\":714:746   */\n      tag_321\n      jump\t// in\n    tag_388:\n        /* \"#utility.yul\":615:752   */\n      swap3\n      swap2\n      pop\n      pop\n      jump\t// out\n        /* \"#utility.yul\":758:1085   */\n    tag_25:\n        /* \"#utility.yul\":816:822   */\n      0x00\n        /* \"#utility.yul\":865:867   */\n      0x20\n        /* \"#utility.yul\":853:862   */\n      dup3\n        /* \"#utility.yul\":844:851   */\n      dup5\n        /* \"#utility.yul\":840:863   */\n      sub\n        /* \"#utility.yul\":836:868   */\n      slt\n        /* \"#utility.yul\":833:952   */\n      iszero\n      tag_390\n      jumpi\n        /* \"#utility.yul\":871:950   */\n      tag_391\n      tag_318\n      jump\t// in\n    tag_391:\n        /* \"#utility.yul\":833:952   */\n    tag_390:\n        /* \"#utility.yul\":991:992   */\n      0x00\n        /* \"#utility.yul\":1016:1068   */\n      tag_392\n        /* \"#utility.yul\":1060:1067   */\n      dup5\n        /* \"#utility.yul\":1051:1057   */\n      dup3\n        /* \"#utility.yul\":1040:1049   */\n      dup6\n        /* \"#utility.yul\":1036:1058   */\n      add\n        /* \"#utility.yul\":1016:1068   */\n      tag_322\n      jump\t// in\n    tag_392:\n        /* \"#utility.yul\":1006:1068   */\n      swap2\n      pop\n        /* \"#utility.yul\":962:1078   */\n      pop\n        /* \"#utility.yul\":758:1085   */\n      swap3\n      swap2\n      pop\n      pop\n      jump\t// out\n        /* \"#utility.yul\":1091:1181   */\n    tag_323:\n        /* \"#utility.yul\":1125:1132   */\n      0x00\n        /* \"#utility.yul\":1168:1173   */\n      dup2\n        /* \"#utility.yul\":1161:1174   */\n      iszero\n        /* \"#utility.yul\":1154:1175   */\n      iszero\n        /* \"#utility.yul\":1143:1175   */\n      swap1\n      pop\n        /* \"#utility.yul\":1091:1181   */\n      swap2\n      swap1\n      pop\n      jump\t// out\n        /* \"#utility.yul\":1187:1296   */\n    tag_324:\n        /* \"#utility.yul\":1268:1289   */\n      tag_395\n        /* \"#utility.yul\":1283:1288   */\n      dup2\n        /* \"#utility.yul\":1268:1289   */\n      tag_323\n      jump\t// in\n    tag_395:\n        /* \"#utility.yul\":1263:1266   */\n      dup3\n        /* \"#utility.yul\":1256:1290   */\n      mstore\n        /* \"#utility.yul\":1187:1296   */\n      pop\n      pop\n      jump\t// out\n        /* \"#utility.yul\":1302:1512   */\n    tag_28:\n        /* \"#utility.yul\":1389:1393   */\n      0x00\n        /* \"#utility.yul\":1427:1429   */\n      0x20\n        /* \"#utility.yul\":1416:1425   */\n      dup3\n        /* \"#utility.yul\":1412:1430   */\n      add\n        /* \"#utility.yul\":1404:1430   */\n      swap1\n      pop\n        /* \"#utility.yul\":1440:1505   */\n      tag_397\n        /* \"#utility.yul\":1502:1503   */\n      0x00\n        /* \"#utility.yul\":1491:1500   */\n      dup4\n        /* \"#utility.yul\":1487:1504   */\n      add\n        /* \"#utility.yul\":1478:1484   */\n      dup5\n        /* \"#utility.yul\":1440:1505   */\n      tag_324\n      jump\t// in\n    tag_397:\n        /* \"#utility.yul\":1302:1512   */\n      swap3\n      swap2\n      pop\n      pop\n      jump\t// out\n        /* \"#utility.yul\":1518:1617   */\n    tag_325:\n        /* \"#utility.yul\":1570:1576   */\n      0x00\n        /* \"#utility.yul\":1604:1609   */\n      dup2\n        /* \"#utility.yul\":1598:1610   */\n      mload\n        /* \"#utility.yul\":1588:1610   */\n      swap1\n      pop\n        /* \"#utility.yul\":1518:1617   */\n      swap2\n      swap1\n      pop\n      jump\t// out\n        /* \"#utility.yul\":1623:1792   */\n    tag_326:\n        /* \"#utility.yul\":1707:1718   */\n      0x00\n        /* \"#utility.yul\":1741:1747   */\n      dup3\n        /* \"#utility.yul\":1736:1739   */\n      dup3\n        /* \"#utility.yul\":1729:1748   */\n      mstore\n        /* \"#utility.yul\":1781:1785   */\n      0x20\n        /* \"#utility.yul\":1776:1779   */\n      dup3\n        /* \"#utility.yul\":1772:1786   */\n      add\n        /* \"#utility.yul\":1757:1786   */\n      swap1\n      pop\n        /* \"#utility.yul\":1623:1792   */\n      swap3\n      swap2\n      pop\n      pop\n      jump\t// out\n        /* \"#utility.yul\":1798:2046   */\n    tag_327:\n        /* \"#utility.yul\":1880:1881   */\n      0x00\n        /* \"#utility.yul\":1890:2003   */\n    tag_401:\n        /* \"#utility.yul\":1904:1910   */\n      dup4\n        /* \"#utility.yul\":1901:1902   */\n      dup2\n        /* \"#utility.yul\":1898:1911   */\n      lt\n        /* \"#utility.yul\":1890:2003   */\n      iszero\n      tag_403\n      jumpi\n        /* \"#utility.yul\":1989:1990   */\n      dup1\n        /* \"#utility.yul\":1984:1987   */\n      dup3\n        /* \"#utility.yul\":1980:1991   */\n      add\n        /* \"#utility.yul\":1974:1992   */\n      mload\n        /* \"#utility.yul\":1970:1971   */\n      dup2\n        /* \"#utility.yul\":1965:1968   */\n      dup5\n        /* \"#utility.yul\":1961:1972   */\n      add\n        /* \"#utility.yul\":1954:1993   */\n      mstore\n        /* \"#utility.yul\":1926:1928   */\n      0x20\n        /* \"#utility.yul\":1923:1924   */\n      dup2\n        /* \"#utility.yul\":1919:1929   */\n      add\n        /* \"#utility.yul\":1914:1929   */\n      swap1\n      pop\n        /* \"#utility.yul\":1890:2003   */\n      jump(tag_401)\n    tag_403:\n        /* \"#utility.yul\":2037:2038   */\n      0x00\n        /* \"#utility.yul\":2028:2034   */\n      dup5\n        /* \"#utility.yul\":2023:2026   */\n      dup5\n        /* \"#utility.yul\":2019:2035   */\n      add\n        /* \"#utility.yul\":2012:2039   */\n      mstore\n        /* \"#utility.yul\":1860:2046   */\n      pop\n        /* \"#utility.yul\":1798:2046   */\n      pop\n      pop\n      pop\n      jump\t// out\n        /* \"#utility.yul\":2052:2154   */\n    tag_328:\n        /* \"#utility.yul\":2093:2099   */\n      0x00\n        /* \"#utility.yul\":2144:2146   */\n      0x1f\n        /* \"#utility.yul\":2140:2147   */\n      not\n        /* \"#utility.yul\":2135:2137   */\n      0x1f\n        /* \"#utility.yul\":2128:2133   */\n      dup4\n        /* \"#utility.yul\":2124:2138   */\n      add\n        /* \"#utility.yul\":2120:2148   */\n      and\n        /* \"#utility.yul\":2110:2148   */\n      swap1\n      pop\n        /* \"#utility.yul\":2052:2154   */\n      swap2\n      swap1\n      pop\n      jump\t// out\n        /* \"#utility.yul\":2160:2537   */\n    tag_329:\n        /* \"#utility.yul\":2248:2251   */\n      0x00\n        /* \"#utility.yul\":2276:2315   */\n      tag_406\n        /* \"#utility.yul\":2309:2314   */\n      dup3\n        /* \"#utility.yul\":2276:2315   */\n      tag_325\n      jump\t// in\n    tag_406:\n        /* \"#utility.yul\":2331:2402   */\n      tag_407\n        /* \"#utility.yul\":2395:2401   */\n      dup2\n        /* \"#utility.yul\":2390:2393   */\n      dup6\n        /* \"#utility.yul\":2331:2402   */\n      tag_326\n      jump\t// in\n    tag_407:\n        /* \"#utility.yul\":2324:2402   */\n      swap4\n      pop\n        /* \"#utility.yul\":2411:2476   */\n      tag_408\n        /* \"#utility.yul\":2469:2475   */\n      dup2\n        /* \"#utility.yul\":2464:2467   */\n      dup6\n        /* \"#utility.yul\":2457:2461   */\n      0x20\n        /* \"#utility.yul\":2450:2455   */\n      dup7\n        /* \"#utility.yul\":2446:2462   */\n      add\n        /* \"#utility.yul\":2411:2476   */\n      tag_327\n      jump\t// in\n    tag_408:\n        /* \"#utility.yul\":2501:2530   */\n      tag_409\n        /* \"#utility.yul\":2523:2529   */\n      dup2\n        /* \"#utility.yul\":2501:2530   */\n      tag_328\n      jump\t// in\n    tag_409:\n        /* \"#utility.yul\":2496:2499   */\n      dup5\n        /* \"#utility.yul\":2492:2531   */\n      add\n        /* \"#utility.yul\":2485:2531   */\n      swap2\n      pop\n        /* \"#utility.yul\":2252:2537   */\n      pop\n        /* \"#utility.yul\":2160:2537   */\n      swap3\n      swap2\n      pop\n      pop\n      jump\t// out\n        /* \"#utility.yul\":2543:2856   */\n    tag_32:\n        /* \"#utility.yul\":2656:2660   */\n      0x00\n        /* \"#utility.yul\":2694:2696   */\n      0x20\n        /* \"#utility.yul\":2683:2692   */\n      dup3\n        /* \"#utility.yul\":2679:2697   */\n      add\n        /* \"#utility.yul\":2671:2697   */\n      swap1\n      pop\n        /* \"#utility.yul\":2743:2752   */\n      dup2\n        /* \"#utility.yul\":2737:2741   */\n      dup2\n        /* \"#utility.yul\":2733:2753   */\n      sub\n        /* \"#utility.yul\":2729:2730   */\n      0x00\n        /* \"#utility.yul\":2718:2727   */\n      dup4\n        /* \"#utility.yul\":2714:2731   */\n      add\n        /* \"#utility.yul\":2707:2754   */\n      mstore\n        /* \"#utility.yul\":2771:2849   */\n      tag_411\n        /* \"#utility.yul\":2844:2848   */\n      dup2\n        /* \"#utility.yul\":2835:2841   */\n      dup5\n        /* \"#utility.yul\":2771:2849   */\n      tag_329\n      jump\t// in\n    tag_411:\n        /* \"#utility.yul\":2763:2849   */\n      swap1\n      pop\n        /* \"#utility.yul\":2543:2856   */\n      swap3\n      swap2\n      pop\n      pop\n      jump\t// out\n        /* \"#utility.yul\":2862:2939   */\n    tag_330:\n        /* \"#utility.yul\":2899:2906   */\n      0x00\n        /* \"#utility.yul\":2928:2933   */\n      dup2\n        /* \"#utility.yul\":2917:2933   */\n      swap1\n      pop\n        /* \"#utility.yul\":2862:2939   */\n      swap2\n      swap1\n      pop\n      jump\t// out\n        /* \"#utility.yul\":2945:3067   */\n    tag_331:\n        /* \"#utility.yul\":3018:3042   */\n      tag_414\n        /* \"#utility.yul\":3036:3041   */\n      dup2\n        /* \"#utility.yul\":3018:3042   */\n      tag_330\n      jump\t// in\n    tag_414:\n        /* \"#utility.yul\":3011:3016   */\n      dup2\n        /* \"#utility.yul\":3008:3043   */\n      eq\n        /* \"#utility.yul\":2998:3061   */\n      tag_415\n      jumpi\n        /* \"#utility.yul\":3057:3058   */\n      0x00\n        /* \"#utility.yul\":3054:3055   */\n      dup1\n        /* \"#utility.yul\":3047:3059   */\n      revert\n        /* \"#utility.yul\":2998:3061   */\n    tag_415:\n        /* \"#utility.yul\":2945:3067   */\n      pop\n      jump\t// out\n        /* \"#utility.yul\":3073:3212   */\n    tag_332:\n        /* \"#utility.yul\":3119:3124   */\n      0x00\n        /* \"#utility.yul\":3157:3163   */\n      dup2\n        /* \"#utility.yul\":3144:3164   */\n      calldataload\n        /* \"#utility.yul\":3135:3164   */\n      swap1\n      pop\n        /* \"#utility.yul\":3173:3206   */\n      tag_417\n        /* \"#utility.yul\":3200:3205   */\n      dup2\n        /* \"#utility.yul\":3173:3206   */\n      tag_331\n      jump\t// in\n    tag_417:\n        /* \"#utility.yul\":3073:3212   */\n      swap3\n      swap2\n      pop\n      pop\n      jump\t// out\n        /* \"#utility.yul\":3218:3547   */\n    tag_35:\n        /* \"#utility.yul\":3277:3283   */\n      0x00\n        /* \"#utility.yul\":3326:3328   */\n      0x20\n        /* \"#utility.yul\":3314:3323   */\n      dup3\n        /* \"#utility.yul\":3305:3312   */\n      dup5\n        /* \"#utility.yul\":3301:3324   */\n      sub\n        /* \"#utility.yul\":3297:3329   */\n      slt\n        /* \"#utility.yul\":3294:3413   */\n      iszero\n      tag_419\n      jumpi\n        /* \"#utility.yul\":3332:3411   */\n      tag_420\n      tag_318\n      jump\t// in\n    tag_420:\n        /* \"#utility.yul\":3294:3413   */\n    tag_419:\n        /* \"#utility.yul\":3452:3453   */\n      0x00\n        /* \"#utility.yul\":3477:3530   */\n      tag_421\n        /* \"#utility.yul\":3522:3529   */\n      dup5\n        /* \"#utility.yul\":3513:3519   */\n      dup3\n        /* \"#utility.yul\":3502:3511   */\n      dup6\n        /* \"#utility.yul\":3498:3520   */\n      add\n        /* \"#utility.yul\":3477:3530   */\n      tag_332\n      jump\t// in\n    tag_421:\n        /* \"#utility.yul\":3467:3530   */\n      swap2\n      pop\n        /* \"#utility.yul\":3423:3540   */\n      pop\n        /* \"#utility.yul\":3218:3547   */\n      swap3\n      swap2\n      pop\n      pop\n      jump\t// out\n        /* \"#utility.yul\":3553:3679   */\n    tag_333:\n        /* \"#utility.yul\":3590:3597   */\n      0x00\n        /* \"#utility.yul\":3630:3672   */\n      0xffffffffffffffffffffffffffffffffffffffff\n        /* \"#utility.yul\":3623:3628   */\n      dup3\n        /* \"#utility.yul\":3619:3673   */\n      and\n        /* \"#utility.yul\":3608:3673   */\n      swap1\n      pop\n        /* \"#utility.yul\":3553:3679   */\n      swap2\n      swap1\n      pop\n      jump\t// out\n        /* \"#utility.yul\":3685:3781   */\n    tag_334:\n        /* \"#utility.yul\":3722:3729   */\n      0x00\n        /* \"#utility.yul\":3751:3775   */\n      tag_424\n        /* \"#utility.yul\":3769:3774   */\n      dup3\n        /* \"#utility.yul\":3751:3775   */\n      tag_333\n      jump\t// in\n    tag_424:\n        /* \"#utility.yul\":3740:3775   */\n      swap1\n      pop\n        /* \"#utility.yul\":3685:3781   */\n      swap2\n      swap1\n      pop\n      jump\t// out\n        /* \"#utility.yul\":3787:3905   */\n    tag_335:\n        /* \"#utility.yul\":3874:3898   */\n      tag_426\n        /* \"#utility.yul\":3892:3897   */\n      dup2\n        /* \"#utility.yul\":3874:3898   */\n      tag_334\n      jump\t// in\n    tag_426:\n        /* \"#utility.yul\":3869:3872   */\n      dup3\n        /* \"#utility.yul\":3862:3899   */\n      mstore\n        /* \"#utility.yul\":3787:3905   */\n      pop\n      pop\n      jump\t// out\n        /* \"#utility.yul\":3911:4133   */\n    tag_38:\n        /* \"#utility.yul\":4004:4008   */\n      0x00\n        /* \"#utility.yul\":4042:4044   */\n      0x20\n        /* \"#utility.yul\":4031:4040   */\n      dup3\n        /* \"#utility.yul\":4027:4045   */\n      add\n        /* \"#utility.yul\":4019:4045   */\n      swap1\n      pop\n        /* \"#utility.yul\":4055:4126   */\n      tag_428\n        /* \"#utility.yul\":4123:4124   */\n      0x00\n        /* \"#utility.yul\":4112:4121   */\n      dup4\n        /* \"#utility.yul\":4108:4125   */\n      add\n        /* \"#utility.yul\":4099:4105   */\n      dup5\n        /* \"#utility.yul\":4055:4126   */\n      tag_335\n      jump\t// in\n    tag_428:\n        /* \"#utility.yul\":3911:4133   */\n      swap3\n      swap2\n      pop\n      pop\n      jump\t// out\n        /* \"#utility.yul\":4139:4261   */\n    tag_336:\n        /* \"#utility.yul\":4212:4236   */\n      tag_430\n        /* \"#utility.yul\":4230:4235   */\n      dup2\n        /* \"#utility.yul\":4212:4236   */\n      tag_334\n      jump\t// in\n    tag_430:\n        /* \"#utility.yul\":4205:4210   */\n      dup2\n        /* \"#utility.yul\":4202:4237   */\n      eq\n        /* \"#utility.yul\":4192:4255   */\n      tag_431\n      jumpi\n        /* \"#utility.yul\":4251:4252   */\n      0x00\n        /* \"#utility.yul\":4248:4249   */\n      dup1\n        /* \"#utility.yul\":4241:4253   */\n      revert\n        /* \"#utility.yul\":4192:4255   */\n    tag_431:\n        /* \"#utility.yul\":4139:4261   */\n      pop\n      jump\t// out\n        /* \"#utility.yul\":4267:4406   */\n    tag_337:\n        /* \"#utility.yul\":4313:4318   */\n      0x00\n        /* \"#utility.yul\":4351:4357   */\n      dup2\n        /* \"#utility.yul\":4338:4358   */\n      calldataload\n        /* \"#utility.yul\":4329:4358   */\n      swap1\n      pop\n        /* \"#utility.yul\":4367:4400   */\n      tag_433\n        /* \"#utility.yul\":4394:4399   */\n      dup2\n        /* \"#utility.yul\":4367:4400   */\n      tag_336\n      jump\t// in\n    tag_433:\n        /* \"#utility.yul\":4267:4406   */\n      swap3\n      swap2\n      pop\n      pop\n      jump\t// out\n        /* \"#utility.yul\":4412:4886   */\n    tag_41:\n        /* \"#utility.yul\":4480:4486   */\n      0x00\n        /* \"#utility.yul\":4488:4494   */\n      dup1\n        /* \"#utility.yul\":4537:4539   */\n      0x40\n        /* \"#utility.yul\":4525:4534   */\n      dup4\n        /* \"#utility.yul\":4516:4523   */\n      dup6\n        /* \"#utility.yul\":4512:4535   */\n      sub\n        /* \"#utility.yul\":4508:4540   */\n      slt\n        /* \"#utility.yul\":4505:4624   */\n      iszero\n      tag_435\n      jumpi\n        /* \"#utility.yul\":4543:4622   */\n      tag_436\n      tag_318\n      jump\t// in\n    tag_436:\n        /* \"#utility.yul\":4505:4624   */\n    tag_435:\n        /* \"#utility.yul\":4663:4664   */\n      0x00\n        /* \"#utility.yul\":4688:4741   */\n      tag_437\n        /* \"#utility.yul\":4733:4740   */\n      dup6\n        /* \"#utility.yul\":4724:4730   */\n      dup3\n        /* \"#utility.yul\":4713:4722   */\n      dup7\n        /* \"#utility.yul\":4709:4731   */\n      add\n        /* \"#utility.yul\":4688:4741   */\n      tag_337\n      jump\t// in\n    tag_437:\n        /* \"#utility.yul\":4678:4741   */\n      swap3\n      pop\n        /* \"#utility.yul\":4634:4751   */\n      pop\n        /* \"#utility.yul\":4790:4792   */\n      0x20\n        /* \"#utility.yul\":4816:4869   */\n      tag_438\n        /* \"#utility.yul\":4861:4868   */\n      dup6\n        /* \"#utility.yul\":4852:4858   */\n      dup3\n        /* \"#utility.yul\":4841:4850   */\n      dup7\n        /* \"#utility.yul\":4837:4859   */\n      add\n        /* \"#utility.yul\":4816:4869   */\n      tag_332\n      jump\t// in\n    tag_438:\n        /* \"#utility.yul\":4806:4869   */\n      swap2\n      pop\n        /* \"#utility.yul\":4761:4879   */\n      pop\n        /* \"#utility.yul\":4412:4886   */\n      swap3\n      pop\n      swap3\n      swap1\n      pop\n      jump\t// out\n        /* \"#utility.yul\":4892:5511   */\n    tag_45:\n        /* \"#utility.yul\":4969:4975   */\n      0x00\n        /* \"#utility.yul\":4977:4983   */\n      dup1\n        /* \"#utility.yul\":4985:4991   */\n      0x00\n        /* \"#utility.yul\":5034:5036   */\n      0x60\n        /* \"#utility.yul\":5022:5031   */\n      dup5\n        /* \"#utility.yul\":5013:5020   */\n      dup7\n        /* \"#utility.yul\":5009:5032   */\n      sub\n        /* \"#utility.yul\":5005:5037   */\n      slt\n        /* \"#utility.yul\":5002:5121   */\n      iszero\n      tag_440\n      jumpi\n        /* \"#utility.yul\":5040:5119   */\n      tag_441\n      tag_318\n      jump\t// in\n    tag_441:\n        /* \"#utility.yul\":5002:5121   */\n    tag_440:\n        /* \"#utility.yul\":5160:5161   */\n      0x00\n        /* \"#utility.yul\":5185:5238   */\n      tag_442\n        /* \"#utility.yul\":5230:5237   */\n      dup7\n        /* \"#utility.yul\":5221:5227   */\n      dup3\n        /* \"#utility.yul\":5210:5219   */\n      dup8\n        /* \"#utility.yul\":5206:5228   */\n      add\n        /* \"#utility.yul\":5185:5238   */\n      tag_337\n      jump\t// in\n    tag_442:\n        /* \"#utility.yul\":5175:5238   */\n      swap4\n      pop\n        /* \"#utility.yul\":5131:5248   */\n      pop\n        /* \"#utility.yul\":5287:5289   */\n      0x20\n        /* \"#utility.yul\":5313:5366   */\n      tag_443\n        /* \"#utility.yul\":5358:5365   */\n      dup7\n        /* \"#utility.yul\":5349:5355   */\n      dup3\n        /* \"#utility.yul\":5338:5347   */\n      dup8\n        /* \"#utility.yul\":5334:5356   */\n      add\n        /* \"#utility.yul\":5313:5366   */\n      tag_337\n      jump\t// in\n    tag_443:\n        /* \"#utility.yul\":5303:5366   */\n      swap3\n      pop\n        /* \"#utility.yul\":5258:5376   */\n      pop\n        /* \"#utility.yul\":5415:5417   */\n      0x40\n        /* \"#utility.yul\":5441:5494   */\n      tag_444\n        /* \"#utility.yul\":5486:5493   */\n      dup7\n        /* \"#utility.yul\":5477:5483   */\n      dup3\n        /* \"#utility.yul\":5466:5475   */\n      dup8\n        /* \"#utility.yul\":5462:5484   */\n      add\n        /* \"#utility.yul\":5441:5494   */\n      tag_332\n      jump\t// in\n    tag_444:\n        /* \"#utility.yul\":5431:5494   */\n      swap2\n      pop\n        /* \"#utility.yul\":5386:5504   */\n      pop\n        /* \"#utility.yul\":4892:5511   */\n      swap3\n      pop\n      swap3\n      pop\n      swap3\n      jump\t// out\n        /* \"#utility.yul\":5517:5991   */\n    tag_49:\n        /* \"#utility.yul\":5585:5591   */\n      0x00\n        /* \"#utility.yul\":5593:5599   */\n      dup1\n        /* \"#utility.yul\":5642:5644   */\n      0x40\n        /* \"#utility.yul\":5630:5639   */\n      dup4\n        /* \"#utility.yul\":5621:5628   */\n      dup6\n        /* \"#utility.yul\":5617:5640   */\n      sub\n        /* \"#utility.yul\":5613:5645   */\n      slt\n        /* \"#utility.yul\":5610:5729   */\n      iszero\n      tag_446\n      jumpi\n        /* \"#utility.yul\":5648:5727   */\n      tag_447\n      tag_318\n      jump\t// in\n    tag_447:\n        /* \"#utility.yul\":5610:5729   */\n    tag_446:\n        /* \"#utility.yul\":5768:5769   */\n      0x00\n        /* \"#utility.yul\":5793:5846   */\n      tag_448\n        /* \"#utility.yul\":5838:5845   */\n      dup6\n        /* \"#utility.yul\":5829:5835   */\n      dup3\n        /* \"#utility.yul\":5818:5827   */\n      dup7\n        /* \"#utility.yul\":5814:5836   */\n      add\n        /* \"#utility.yul\":5793:5846   */\n      tag_332\n      jump\t// in\n    tag_448:\n        /* \"#utility.yul\":5783:5846   */\n      swap3\n      pop\n        /* \"#utility.yul\":5739:5856   */\n      pop\n        /* \"#utility.yul\":5895:5897   */\n      0x20\n        /* \"#utility.yul\":5921:5974   */\n      tag_449\n        /* \"#utility.yul\":5966:5973   */\n      dup6\n        /* \"#utility.yul\":5957:5963   */\n      dup3\n        /* \"#utility.yul\":5946:5955   */\n      dup7\n        /* \"#utility.yul\":5942:5964   */\n      add\n        /* \"#utility.yul\":5921:5974   */\n      tag_332\n      jump\t// in\n    tag_449:\n        /* \"#utility.yul\":5911:5974   */\n      swap2\n      pop\n        /* \"#utility.yul\":5866:5984   */\n      pop\n        /* \"#utility.yul\":5517:5991   */\n      swap3\n      pop\n      swap3\n      swap1\n      pop\n      jump\t// out\n        /* \"#utility.yul\":5997:6114   */\n    tag_338:\n        /* \"#utility.yul\":6106:6107   */\n      0x00\n        /* \"#utility.yul\":6103:6104   */\n      dup1\n        /* \"#utility.yul\":6096:6108   */\n      revert\n        /* \"#utility.yul\":6120:6237   */\n    tag_339:\n        /* \"#utility.yul\":6229:6230   */\n      0x00\n        /* \"#utility.yul\":6226:6227   */\n      dup1\n        /* \"#utility.yul\":6219:6231   */\n      revert\n        /* \"#utility.yul\":6243:6423   */\n    tag_253:\n        /* \"#utility.yul\":6291:6368   */\n      0x4e487b7100000000000000000000000000000000000000000000000000000000\n        /* \"#utility.yul\":6288:6289   */\n      0x00\n        /* \"#utility.yul\":6281:6369   */\n      mstore\n        /* \"#utility.yul\":6388:6392   */\n      0x41\n        /* \"#utility.yul\":6385:6386   */\n      0x04\n        /* \"#utility.yul\":6378:6393   */\n      mstore\n        /* \"#utility.yul\":6412:6416   */\n      0x24\n        /* \"#utility.yul\":6409:6410   */\n      0x00\n        /* \"#utility.yul\":6402:6417   */\n      revert\n        /* \"#utility.yul\":6429:6710   */\n    tag_340:\n        /* \"#utility.yul\":6512:6539   */\n      tag_454\n        /* \"#utility.yul\":6534:6538   */\n      dup3\n        /* \"#utility.yul\":6512:6539   */\n      tag_328\n      jump\t// in\n    tag_454:\n        /* \"#utility.yul\":6504:6510   */\n      dup2\n        /* \"#utility.yul\":6500:6540   */\n      add\n        /* \"#utility.yul\":6642:6648   */\n      dup2\n        /* \"#utility.yul\":6630:6640   */\n      dup2\n        /* \"#utility.yul\":6627:6649   */\n      lt\n        /* \"#utility.yul\":6606:6624   */\n      0xffffffffffffffff\n        /* \"#utility.yul\":6594:6604   */\n      dup3\n        /* \"#utility.yul\":6591:6625   */\n      gt\n        /* \"#utility.yul\":6588:6650   */\n      or\n        /* \"#utility.yul\":6585:6673   */\n      iszero\n      tag_455\n      jumpi\n        /* \"#utility.yul\":6653:6671   */\n      tag_456\n      tag_253\n      jump\t// in\n    tag_456:\n        /* \"#utility.yul\":6585:6673   */\n    tag_455:\n        /* \"#utility.yul\":6693:6703   */\n      dup1\n        /* \"#utility.yul\":6689:6691   */\n      0x40\n        /* \"#utility.yul\":6682:6704   */\n      mstore\n        /* \"#utility.yul\":6472:6710   */\n      pop\n        /* \"#utility.yul\":6429:6710   */\n      pop\n      pop\n      jump\t// out\n        /* \"#utility.yul\":6716:6845   */\n    tag_341:\n        /* \"#utility.yul\":6750:6756   */\n      0x00\n        /* \"#utility.yul\":6777:6797   */\n      tag_458\n      tag_317\n      jump\t// in\n    tag_458:\n        /* \"#utility.yul\":6767:6797   */\n      swap1\n      pop\n        /* \"#utility.yul\":6806:6839   */\n      tag_459\n        /* \"#utility.yul\":6834:6838   */\n      dup3\n        /* \"#utility.yul\":6826:6832   */\n      dup3\n        /* \"#utility.yul\":6806:6839   */\n      tag_340\n      jump\t// in\n    tag_459:\n        /* \"#utility.yul\":6716:6845   */\n      swap2\n      swap1\n      pop\n      jump\t// out\n        /* \"#utility.yul\":6851:7159   */\n    tag_342:\n        /* \"#utility.yul\":6913:6917   */\n      0x00\n        /* \"#utility.yul\":7003:7021   */\n      0xffffffffffffffff\n        /* \"#utility.yul\":6995:7001   */\n      dup3\n        /* \"#utility.yul\":6992:7022   */\n      gt\n        /* \"#utility.yul\":6989:7045   */\n      iszero\n      tag_461\n      jumpi\n        /* \"#utility.yul\":7025:7043   */\n      tag_462\n      tag_253\n      jump\t// in\n    tag_462:\n        /* \"#utility.yul\":6989:7045   */\n    tag_461:\n        /* \"#utility.yul\":7063:7092   */\n      tag_463\n        /* \"#utility.yul\":7085:7091   */\n      dup3\n        /* \"#utility.yul\":7063:7092   */\n      tag_328\n      jump\t// in\n    tag_463:\n        /* \"#utility.yul\":7055:7092   */\n      swap1\n      pop\n        /* \"#utility.yul\":7147:7151   */\n      0x20\n        /* \"#utility.yul\":7141:7145   */\n      dup2\n        /* \"#utility.yul\":7137:7152   */\n      add\n        /* \"#utility.yul\":7129:7152   */\n      swap1\n      pop\n        /* \"#utility.yul\":6851:7159   */\n      swap2\n      swap1\n      pop\n      jump\t// out\n        /* \"#utility.yul\":7165:7313   */\n    tag_343:\n        /* \"#utility.yul\":7263:7269   */\n      dup3\n        /* \"#utility.yul\":7258:7261   */\n      dup2\n        /* \"#utility.yul\":7253:7256   */\n      dup4\n        /* \"#utility.yul\":7240:7270   */\n      calldatacopy\n        /* \"#utility.yul\":7304:7305   */\n      0x00\n        /* \"#utility.yul\":7295:7301   */\n      dup4\n        /* \"#utility.yul\":7290:7293   */\n      dup4\n        /* \"#utility.yul\":7286:7302   */\n      add\n        /* \"#utility.yul\":7279:7306   */\n      mstore\n        /* \"#utility.yul\":7165:7313   */\n      pop\n      pop\n      pop\n      jump\t// out\n        /* \"#utility.yul\":7319:7744   */\n    tag_344:\n        /* \"#utility.yul\":7397:7402   */\n      0x00\n        /* \"#utility.yul\":7422:7488   */\n      tag_466\n        /* \"#utility.yul\":7438:7487   */\n      tag_467\n        /* \"#utility.yul\":7480:7486   */\n      dup5\n        /* \"#utility.yul\":7438:7487   */\n      tag_342\n      jump\t// in\n    tag_467:\n        /* \"#utility.yul\":7422:7488   */\n      tag_341\n      jump\t// in\n    tag_466:\n        /* \"#utility.yul\":7413:7488   */\n      swap1\n      pop\n        /* \"#utility.yul\":7511:7517   */\n      dup3\n        /* \"#utility.yul\":7504:7509   */\n      dup2\n        /* \"#utility.yul\":7497:7518   */\n      mstore\n        /* \"#utility.yul\":7549:7553   */\n      0x20\n        /* \"#utility.yul\":7542:7547   */\n      dup2\n        /* \"#utility.yul\":7538:7554   */\n      add\n        /* \"#utility.yul\":7587:7590   */\n      dup5\n        /* \"#utility.yul\":7578:7584   */\n      dup5\n        /* \"#utility.yul\":7573:7576   */\n      dup5\n        /* \"#utility.yul\":7569:7585   */\n      add\n        /* \"#utility.yul\":7566:7591   */\n      gt\n        /* \"#utility.yul\":7563:7675   */\n      iszero\n      tag_468\n      jumpi\n        /* \"#utility.yul\":7594:7673   */\n      tag_469\n      tag_339\n      jump\t// in\n    tag_469:\n        /* \"#utility.yul\":7563:7675   */\n    tag_468:\n        /* \"#utility.yul\":7684:7738   */\n      tag_470\n        /* \"#utility.yul\":7731:7737   */\n      dup5\n        /* \"#utility.yul\":7726:7729   */\n      dup3\n        /* \"#utility.yul\":7721:7724   */\n      dup6\n        /* \"#utility.yul\":7684:7738   */\n      tag_343\n      jump\t// in\n    tag_470:\n        /* \"#utility.yul\":7403:7744   */\n      pop\n        /* \"#utility.yul\":7319:7744   */\n      swap4\n      swap3\n      pop\n      pop\n      pop\n      jump\t// out\n        /* \"#utility.yul\":7764:8104   */\n    tag_345:\n        /* \"#utility.yul\":7820:7825   */\n      0x00\n        /* \"#utility.yul\":7869:7872   */\n      dup3\n        /* \"#utility.yul\":7862:7866   */\n      0x1f\n        /* \"#utility.yul\":7854:7860   */\n      dup4\n        /* \"#utility.yul\":7850:7867   */\n      add\n        /* \"#utility.yul\":7846:7873   */\n      slt\n        /* \"#utility.yul\":7836:7958   */\n      tag_472\n      jumpi\n        /* \"#utility.yul\":7877:7956   */\n      tag_473\n      tag_338\n      jump\t// in\n    tag_473:\n        /* \"#utility.yul\":7836:7958   */\n    tag_472:\n        /* \"#utility.yul\":7994:8000   */\n      dup2\n        /* \"#utility.yul\":7981:8001   */\n      calldataload\n        /* \"#utility.yul\":8019:8098   */\n      tag_474\n        /* \"#utility.yul\":8094:8097   */\n      dup5\n        /* \"#utility.yul\":8086:8092   */\n      dup3\n        /* \"#utility.yul\":8079:8083   */\n      0x20\n        /* \"#utility.yul\":8071:8077   */\n      dup7\n        /* \"#utility.yul\":8067:8084   */\n      add\n        /* \"#utility.yul\":8019:8098   */\n      tag_344\n      jump\t// in\n    tag_474:\n        /* \"#utility.yul\":8010:8098   */\n      swap2\n      pop\n        /* \"#utility.yul\":7826:8104   */\n      pop\n        /* \"#utility.yul\":7764:8104   */\n      swap3\n      swap2\n      pop\n      pop\n      jump\t// out\n        /* \"#utility.yul\":8110:9089   */\n    tag_56:\n        /* \"#utility.yul\":8207:8213   */\n      0x00\n        /* \"#utility.yul\":8215:8221   */\n      dup1\n        /* \"#utility.yul\":8223:8229   */\n      0x00\n        /* \"#utility.yul\":8272:8274   */\n      0x60\n        /* \"#utility.yul\":8260:8269   */\n      dup5\n        /* \"#utility.yul\":8251:8258   */\n      dup7\n        /* \"#utility.yul\":8247:8270   */\n      sub\n        /* \"#utility.yul\":8243:8275   */\n      slt\n        /* \"#utility.yul\":8240:8359   */\n      iszero\n      tag_476\n      jumpi\n        /* \"#utility.yul\":8278:8357   */\n      tag_477\n      tag_318\n      jump\t// in\n    tag_477:\n        /* \"#utility.yul\":8240:8359   */\n    tag_476:\n        /* \"#utility.yul\":8426:8427   */\n      0x00\n        /* \"#utility.yul\":8415:8424   */\n      dup5\n        /* \"#utility.yul\":8411:8428   */\n      add\n        /* \"#utility.yul\":8398:8429   */\n      calldataload\n        /* \"#utility.yul\":8456:8474   */\n      0xffffffffffffffff\n        /* \"#utility.yul\":8448:8454   */\n      dup2\n        /* \"#utility.yul\":8445:8475   */\n      gt\n        /* \"#utility.yul\":8442:8559   */\n      iszero\n      tag_478\n      jumpi\n        /* \"#utility.yul\":8478:8557   */\n      tag_479\n      tag_319\n      jump\t// in\n    tag_479:\n        /* \"#utility.yul\":8442:8559   */\n    tag_478:\n        /* \"#utility.yul\":8583:8646   */\n      tag_480\n        /* \"#utility.yul\":8638:8645   */\n      dup7\n        /* \"#utility.yul\":8629:8635   */\n      dup3\n        /* \"#utility.yul\":8618:8627   */\n      dup8\n        /* \"#utility.yul\":8614:8636   */\n      add\n        /* \"#utility.yul\":8583:8646   */\n      tag_345\n      jump\t// in\n    tag_480:\n        /* \"#utility.yul\":8573:8646   */\n      swap4\n      pop\n        /* \"#utility.yul\":8369:8656   */\n      pop\n        /* \"#utility.yul\":8695:8697   */\n      0x20\n        /* \"#utility.yul\":8721:8774   */\n      tag_481\n        /* \"#utility.yul\":8766:8773   */\n      dup7\n        /* \"#utility.yul\":8757:8763   */\n      dup3\n        /* \"#utility.yul\":8746:8755   */\n      dup8\n        /* \"#utility.yul\":8742:8764   */\n      add\n        /* \"#utility.yul\":8721:8774   */\n      tag_337\n      jump\t// in\n    tag_481:\n        /* \"#utility.yul\":8711:8774   */\n      swap3\n      pop\n        /* \"#utility.yul\":8666:8784   */\n      pop\n        /* \"#utility.yul\":8851:8853   */\n      0x40\n        /* \"#utility.yul\":8840:8849   */\n      dup5\n        /* \"#utility.yul\":8836:8854   */\n      add\n        /* \"#utility.yul\":8823:8855   */\n      calldataload\n        /* \"#utility.yul\":8882:8900   */\n      0xffffffffffffffff\n        /* \"#utility.yul\":8874:8880   */\n      dup2\n        /* \"#utility.yul\":8871:8901   */\n      gt\n        /* \"#utility.yul\":8868:8985   */\n      iszero\n      tag_482\n      jumpi\n        /* \"#utility.yul\":8904:8983   */\n      tag_483\n      tag_319\n      jump\t// in\n    tag_483:\n        /* \"#utility.yul\":8868:8985   */\n    tag_482:\n        /* \"#utility.yul\":9009:9072   */\n      tag_484\n        /* \"#utility.yul\":9064:9071   */\n      dup7\n        /* \"#utility.yul\":9055:9061   */\n      dup3\n        /* \"#utility.yul\":9044:9053   */\n      dup8\n        /* \"#utility.yul\":9040:9062   */\n      add\n        /* \"#utility.yul\":9009:9072   */\n      tag_345\n      jump\t// in\n    tag_484:\n        /* \"#utility.yul\":8999:9072   */\n      swap2\n      pop\n        /* \"#utility.yul\":8794:9082   */\n      pop\n        /* \"#utility.yul\":8110:9089   */\n      swap3\n      pop\n      swap3\n      pop\n      swap3\n      jump\t// out\n        /* \"#utility.yul\":9095:9424   */\n    tag_64:\n        /* \"#utility.yul\":9154:9160   */\n      0x00\n        /* \"#utility.yul\":9203:9205   */\n      0x20\n        /* \"#utility.yul\":9191:9200   */\n      dup3\n        /* \"#utility.yul\":9182:9189   */\n      dup5\n        /* \"#utility.yul\":9178:9201   */\n      sub\n        /* \"#utility.yul\":9174:9206   */\n      slt\n        /* \"#utility.yul\":9171:9290   */\n      iszero\n      tag_486\n      jumpi\n        /* \"#utility.yul\":9209:9288   */\n      tag_487\n      tag_318\n      jump\t// in\n    tag_487:\n        /* \"#utility.yul\":9171:9290   */\n    tag_486:\n        /* \"#utility.yul\":9329:9330   */\n      0x00\n        /* \"#utility.yul\":9354:9407   */\n      tag_488\n        /* \"#utility.yul\":9399:9406   */\n      dup5\n        /* \"#utility.yul\":9390:9396   */\n      dup3\n        /* \"#utility.yul\":9379:9388   */\n      dup6\n        /* \"#utility.yul\":9375:9397   */\n      add\n        /* \"#utility.yul\":9354:9407   */\n      tag_337\n      jump\t// in\n    tag_488:\n        /* \"#utility.yul\":9344:9407   */\n      swap2\n      pop\n        /* \"#utility.yul\":9300:9417   */\n      pop\n        /* \"#utility.yul\":9095:9424   */\n      swap3\n      swap2\n      pop\n      pop\n      jump\t// out\n        /* \"#utility.yul\":9430:9548   */\n    tag_346:\n        /* \"#utility.yul\":9517:9541   */\n      tag_490\n        /* \"#utility.yul\":9535:9540   */\n      dup2\n        /* \"#utility.yul\":9517:9541   */\n      tag_330\n      jump\t// in\n    tag_490:\n        /* \"#utility.yul\":9512:9515   */\n      dup3\n        /* \"#utility.yul\":9505:9542   */\n      mstore\n        /* \"#utility.yul\":9430:9548   */\n      pop\n      pop\n      jump\t// out\n        /* \"#utility.yul\":9554:9776   */\n    tag_67:\n        /* \"#utility.yul\":9647:9651   */\n      0x00\n        /* \"#utility.yul\":9685:9687   */\n      0x20\n        /* \"#utility.yul\":9674:9683   */\n      dup3\n        /* \"#utility.yul\":9670:9688   */\n      add\n        /* \"#utility.yul\":9662:9688   */\n      swap1\n      pop\n        /* \"#utility.yul\":9698:9769   */\n      tag_492\n        /* \"#utility.yul\":9766:9767   */\n      0x00\n        /* \"#utility.yul\":9755:9764   */\n      dup4\n        /* \"#utility.yul\":9751:9768   */\n      add\n        /* \"#utility.yul\":9742:9748   */\n      dup5\n        /* \"#utility.yul\":9698:9769   */\n      tag_346\n      jump\t// in\n    tag_492:\n        /* \"#utility.yul\":9554:9776   */\n      swap3\n      swap2\n      pop\n      pop\n      jump\t// out\n        /* \"#utility.yul\":9782:10406   */\n    tag_72:\n        /* \"#utility.yul\":9971:9975   */\n      0x00\n        /* \"#utility.yul\":10009:10011   */\n      0x60\n        /* \"#utility.yul\":9998:10007   */\n      dup3\n        /* \"#utility.yul\":9994:10012   */\n      add\n        /* \"#utility.yul\":9986:10012   */\n      swap1\n      pop\n        /* \"#utility.yul\":10058:10067   */\n      dup2\n        /* \"#utility.yul\":10052:10056   */\n      dup2\n        /* \"#utility.yul\":10048:10068   */\n      sub\n        /* \"#utility.yul\":10044:10045   */\n      0x00\n        /* \"#utility.yul\":10033:10042   */\n      dup4\n        /* \"#utility.yul\":10029:10046   */\n      add\n        /* \"#utility.yul\":10022:10069   */\n      mstore\n        /* \"#utility.yul\":10086:10164   */\n      tag_494\n        /* \"#utility.yul\":10159:10163   */\n      dup2\n        /* \"#utility.yul\":10150:10156   */\n      dup7\n        /* \"#utility.yul\":10086:10164   */\n      tag_329\n      jump\t// in\n    tag_494:\n        /* \"#utility.yul\":10078:10164   */\n      swap1\n      pop\n        /* \"#utility.yul\":10174:10246   */\n      tag_495\n        /* \"#utility.yul\":10242:10244   */\n      0x20\n        /* \"#utility.yul\":10231:10240   */\n      dup4\n        /* \"#utility.yul\":10227:10245   */\n      add\n        /* \"#utility.yul\":10218:10224   */\n      dup6\n        /* \"#utility.yul\":10174:10246   */\n      tag_346\n      jump\t// in\n    tag_495:\n        /* \"#utility.yul\":10293:10302   */\n      dup2\n        /* \"#utility.yul\":10287:10291   */\n      dup2\n        /* \"#utility.yul\":10283:10303   */\n      sub\n        /* \"#utility.yul\":10278:10280   */\n      0x40\n        /* \"#utility.yul\":10267:10276   */\n      dup4\n        /* \"#utility.yul\":10263:10281   */\n      add\n        /* \"#utility.yul\":10256:10304   */\n      mstore\n        /* \"#utility.yul\":10321:10399   */\n      tag_496\n        /* \"#utility.yul\":10394:10398   */\n      dup2\n        /* \"#utility.yul\":10385:10391   */\n      dup5\n        /* \"#utility.yul\":10321:10399   */\n      tag_329\n      jump\t// in\n    tag_496:\n        /* \"#utility.yul\":10313:10399   */\n      swap1\n      pop\n        /* \"#utility.yul\":9782:10406   */\n      swap5\n      swap4\n      pop\n      pop\n      pop\n      pop\n      jump\t// out\n        /* \"#utility.yul\":10412:10528   */\n    tag_347:\n        /* \"#utility.yul\":10482:10503   */\n      tag_498\n        /* \"#utility.yul\":10497:10502   */\n      dup2\n        /* \"#utility.yul\":10482:10503   */\n      tag_323\n      jump\t// in\n    tag_498:\n        /* \"#utility.yul\":10475:10480   */\n      dup2\n        /* \"#utility.yul\":10472:10504   */\n      eq\n        /* \"#utility.yul\":10462:10522   */\n      tag_499\n      jumpi\n        /* \"#utility.yul\":10518:10519   */\n      0x00\n        /* \"#utility.yul\":10515:10516   */\n      dup1\n        /* \"#utility.yul\":10508:10520   */\n      revert\n        /* \"#utility.yul\":10462:10522   */\n    tag_499:\n        /* \"#utility.yul\":10412:10528   */\n      pop\n      jump\t// out\n        /* \"#utility.yul\":10534:10667   */\n    tag_348:\n        /* \"#utility.yul\":10577:10582   */\n      0x00\n        /* \"#utility.yul\":10615:10621   */\n      dup2\n        /* \"#utility.yul\":10602:10622   */\n      calldataload\n        /* \"#utility.yul\":10593:10622   */\n      swap1\n      pop\n        /* \"#utility.yul\":10631:10661   */\n      tag_501\n        /* \"#utility.yul\":10655:10660   */\n      dup2\n        /* \"#utility.yul\":10631:10661   */\n      tag_347\n      jump\t// in\n    tag_501:\n        /* \"#utility.yul\":10534:10667   */\n      swap3\n      swap2\n      pop\n      pop\n      jump\t// out\n        /* \"#utility.yul\":10673:11141   */\n    tag_78:\n        /* \"#utility.yul\":10738:10744   */\n      0x00\n        /* \"#utility.yul\":10746:10752   */\n      dup1\n        /* \"#utility.yul\":10795:10797   */\n      0x40\n        /* \"#utility.yul\":10783:10792   */\n      dup4\n        /* \"#utility.yul\":10774:10781   */\n      dup6\n        /* \"#utility.yul\":10770:10793   */\n      sub\n        /* \"#utility.yul\":10766:10798   */\n      slt\n        /* \"#utility.yul\":10763:10882   */\n      iszero\n      tag_503\n      jumpi\n        /* \"#utility.yul\":10801:10880   */\n      tag_504\n      tag_318\n      jump\t// in\n    tag_504:\n        /* \"#utility.yul\":10763:10882   */\n    tag_503:\n        /* \"#utility.yul\":10921:10922   */\n      0x00\n        /* \"#utility.yul\":10946:10999   */\n      tag_505\n        /* \"#utility.yul\":10991:10998   */\n      dup6\n        /* \"#utility.yul\":10982:10988   */\n      dup3\n        /* \"#utility.yul\":10971:10980   */\n      dup7\n        /* \"#utility.yul\":10967:10989   */\n      add\n        /* \"#utility.yul\":10946:10999   */\n      tag_337\n      jump\t// in\n    tag_505:\n        /* \"#utility.yul\":10936:10999   */\n      swap3\n      pop\n        /* \"#utility.yul\":10892:11009   */\n      pop\n        /* \"#utility.yul\":11048:11050   */\n      0x20\n        /* \"#utility.yul\":11074:11124   */\n      tag_506\n        /* \"#utility.yul\":11116:11123   */\n      dup6\n        /* \"#utility.yul\":11107:11113   */\n      dup3\n        /* \"#utility.yul\":11096:11105   */\n      dup7\n        /* \"#utility.yul\":11092:11114   */\n      add\n        /* \"#utility.yul\":11074:11124   */\n      tag_348\n      jump\t// in\n    tag_506:\n        /* \"#utility.yul\":11064:11124   */\n      swap2\n      pop\n        /* \"#utility.yul\":11019:11134   */\n      pop\n        /* \"#utility.yul\":10673:11141   */\n      swap3\n      pop\n      swap3\n      swap1\n      pop\n      jump\t// out\n        /* \"#utility.yul\":11147:11454   */\n    tag_349:\n        /* \"#utility.yul\":11208:11212   */\n      0x00\n        /* \"#utility.yul\":11298:11316   */\n      0xffffffffffffffff\n        /* \"#utility.yul\":11290:11296   */\n      dup3\n        /* \"#utility.yul\":11287:11317   */\n      gt\n        /* \"#utility.yul\":11284:11340   */\n      iszero\n      tag_508\n      jumpi\n        /* \"#utility.yul\":11320:11338   */\n      tag_509\n      tag_253\n      jump\t// in\n    tag_509:\n        /* \"#utility.yul\":11284:11340   */\n    tag_508:\n        /* \"#utility.yul\":11358:11387   */\n      tag_510\n        /* \"#utility.yul\":11380:11386   */\n      dup3\n        /* \"#utility.yul\":11358:11387   */\n      tag_328\n      jump\t// in\n    tag_510:\n        /* \"#utility.yul\":11350:11387   */\n      swap1\n      pop\n        /* \"#utility.yul\":11442:11446   */\n      0x20\n        /* \"#utility.yul\":11436:11440   */\n      dup2\n        /* \"#utility.yul\":11432:11447   */\n      add\n        /* \"#utility.yul\":11424:11447   */\n      swap1\n      pop\n        /* \"#utility.yul\":11147:11454   */\n      swap2\n      swap1\n      pop\n      jump\t// out\n        /* \"#utility.yul\":11460:11883   */\n    tag_350:\n        /* \"#utility.yul\":11537:11542   */\n      0x00\n        /* \"#utility.yul\":11562:11627   */\n      tag_512\n        /* \"#utility.yul\":11578:11626   */\n      tag_513\n        /* \"#utility.yul\":11619:11625   */\n      dup5\n        /* \"#utility.yul\":11578:11626   */\n      tag_349\n      jump\t// in\n    tag_513:\n        /* \"#utility.yul\":11562:11627   */\n      tag_341\n      jump\t// in\n    tag_512:\n        /* \"#utility.yul\":11553:11627   */\n      swap1\n      pop\n        /* \"#utility.yul\":11650:11656   */\n      dup3\n        /* \"#utility.yul\":11643:11648   */\n      dup2\n        /* \"#utility.yul\":11636:11657   */\n      mstore\n        /* \"#utility.yul\":11688:11692   */\n      0x20\n        /* \"#utility.yul\":11681:11686   */\n      dup2\n        /* \"#utility.yul\":11677:11693   */\n      add\n        /* \"#utility.yul\":11726:11729   */\n      dup5\n        /* \"#utility.yul\":11717:11723   */\n      dup5\n        /* \"#utility.yul\":11712:11715   */\n      dup5\n        /* \"#utility.yul\":11708:11724   */\n      add\n        /* \"#utility.yul\":11705:11730   */\n      gt\n        /* \"#utility.yul\":11702:11814   */\n      iszero\n      tag_514\n      jumpi\n        /* \"#utility.yul\":11733:11812   */\n      tag_515\n      tag_339\n      jump\t// in\n    tag_515:\n        /* \"#utility.yul\":11702:11814   */\n    tag_514:\n        /* \"#utility.yul\":11823:11877   */\n      tag_516\n        /* \"#utility.yul\":11870:11876   */\n      dup5\n        /* \"#utility.yul\":11865:11868   */\n      dup3\n        /* \"#utility.yul\":11860:11863   */\n      dup6\n        /* \"#utility.yul\":11823:11877   */\n      tag_343\n      jump\t// in\n    tag_516:\n        /* \"#utility.yul\":11543:11883   */\n      pop\n        /* \"#utility.yul\":11460:11883   */\n      swap4\n      swap3\n      pop\n      pop\n      pop\n      jump\t// out\n        /* \"#utility.yul\":11902:12240   */\n    tag_351:\n        /* \"#utility.yul\":11957:11962   */\n      0x00\n        /* \"#utility.yul\":12006:12009   */\n      dup3\n        /* \"#utility.yul\":11999:12003   */\n      0x1f\n        /* \"#utility.yul\":11991:11997   */\n      dup4\n        /* \"#utility.yul\":11987:12004   */\n      add\n        /* \"#utility.yul\":11983:12010   */\n      slt\n        /* \"#utility.yul\":11973:12095   */\n      tag_518\n      jumpi\n        /* \"#utility.yul\":12014:12093   */\n      tag_519\n      tag_338\n      jump\t// in\n    tag_519:\n        /* \"#utility.yul\":11973:12095   */\n    tag_518:\n        /* \"#utility.yul\":12131:12137   */\n      dup2\n        /* \"#utility.yul\":12118:12138   */\n      calldataload\n        /* \"#utility.yul\":12156:12234   */\n      tag_520\n        /* \"#utility.yul\":12230:12233   */\n      dup5\n        /* \"#utility.yul\":12222:12228   */\n      dup3\n        /* \"#utility.yul\":12215:12219   */\n      0x20\n        /* \"#utility.yul\":12207:12213   */\n      dup7\n        /* \"#utility.yul\":12203:12220   */\n      add\n        /* \"#utility.yul\":12156:12234   */\n      tag_350\n      jump\t// in\n    tag_520:\n        /* \"#utility.yul\":12147:12234   */\n      swap2\n      pop\n        /* \"#utility.yul\":11963:12240   */\n      pop\n        /* \"#utility.yul\":11902:12240   */\n      swap3\n      swap2\n      pop\n      pop\n      jump\t// out\n        /* \"#utility.yul\":12246:13189   */\n    tag_82:\n        /* \"#utility.yul\":12341:12347   */\n      0x00\n        /* \"#utility.yul\":12349:12355   */\n      dup1\n        /* \"#utility.yul\":12357:12363   */\n      0x00\n        /* \"#utility.yul\":12365:12371   */\n      dup1\n        /* \"#utility.yul\":12414:12417   */\n      0x80\n        /* \"#utility.yul\":12402:12411   */\n      dup6\n        /* \"#utility.yul\":12393:12400   */\n      dup8\n        /* \"#utility.yul\":12389:12412   */\n      sub\n        /* \"#utility.yul\":12385:12418   */\n      slt\n        /* \"#utility.yul\":12382:12502   */\n      iszero\n      tag_522\n      jumpi\n        /* \"#utility.yul\":12421:12500   */\n      tag_523\n      tag_318\n      jump\t// in\n    tag_523:\n        /* \"#utility.yul\":12382:12502   */\n    tag_522:\n        /* \"#utility.yul\":12541:12542   */\n      0x00\n        /* \"#utility.yul\":12566:12619   */\n      tag_524\n        /* \"#utility.yul\":12611:12618   */\n      dup8\n        /* \"#utility.yul\":12602:12608   */\n      dup3\n        /* \"#utility.yul\":12591:12600   */\n      dup9\n        /* \"#utility.yul\":12587:12609   */\n      add\n        /* \"#utility.yul\":12566:12619   */\n      tag_337\n      jump\t// in\n    tag_524:\n        /* \"#utility.yul\":12556:12619   */\n      swap5\n      pop\n        /* \"#utility.yul\":12512:12629   */\n      pop\n        /* \"#utility.yul\":12668:12670   */\n      0x20\n        /* \"#utility.yul\":12694:12747   */\n      tag_525\n        /* \"#utility.yul\":12739:12746   */\n      dup8\n        /* \"#utility.yul\":12730:12736   */\n      dup3\n        /* \"#utility.yul\":12719:12728   */\n      dup9\n        /* \"#utility.yul\":12715:12737   */\n      add\n        /* \"#utility.yul\":12694:12747   */\n      tag_337\n      jump\t// in\n    tag_525:\n        /* \"#utility.yul\":12684:12747   */\n      swap4\n      pop\n        /* \"#utility.yul\":12639:12757   */\n      pop\n        /* \"#utility.yul\":12796:12798   */\n      0x40\n        /* \"#utility.yul\":12822:12875   */\n      tag_526\n        /* \"#utility.yul\":12867:12874   */\n      dup8\n        /* \"#utility.yul\":12858:12864   */\n      dup3\n        /* \"#utility.yul\":12847:12856   */\n      dup9\n        /* \"#utility.yul\":12843:12865   */\n      add\n        /* \"#utility.yul\":12822:12875   */\n      tag_332\n      jump\t// in\n    tag_526:\n        /* \"#utility.yul\":12812:12875   */\n      swap3\n      pop\n        /* \"#utility.yul\":12767:12885   */\n      pop\n        /* \"#utility.yul\":12952:12954   */\n      0x60\n        /* \"#utility.yul\":12941:12950   */\n      dup6\n        /* \"#utility.yul\":12937:12955   */\n      add\n        /* \"#utility.yul\":12924:12956   */\n      calldataload\n        /* \"#utility.yul\":12983:13001   */\n      0xffffffffffffffff\n        /* \"#utility.yul\":12975:12981   */\n      dup2\n        /* \"#utility.yul\":12972:13002   */\n      gt\n        /* \"#utility.yul\":12969:13086   */\n      iszero\n      tag_527\n      jumpi\n        /* \"#utility.yul\":13005:13084   */\n      tag_528\n      tag_319\n      jump\t// in\n    tag_528:\n        /* \"#utility.yul\":12969:13086   */\n    tag_527:\n        /* \"#utility.yul\":13110:13172   */\n      tag_529\n        /* \"#utility.yul\":13164:13171   */\n      dup8\n        /* \"#utility.yul\":13155:13161   */\n      dup3\n        /* \"#utility.yul\":13144:13153   */\n      dup9\n        /* \"#utility.yul\":13140:13162   */\n      add\n        /* \"#utility.yul\":13110:13172   */\n      tag_351\n      jump\t// in\n    tag_529:\n        /* \"#utility.yul\":13100:13172   */\n      swap2\n      pop\n        /* \"#utility.yul\":12895:13182   */\n      pop\n        /* \"#utility.yul\":12246:13189   */\n      swap3\n      swap6\n      swap2\n      swap5\n      pop\n      swap3\n      pop\n      jump\t// out\n        /* \"#utility.yul\":13195:13669   */\n    tag_90:\n        /* \"#utility.yul\":13263:13269   */\n      0x00\n        /* \"#utility.yul\":13271:13277   */\n      dup1\n        /* \"#utility.yul\":13320:13322   */\n      0x40\n        /* \"#utility.yul\":13308:13317   */\n      dup4\n        /* \"#utility.yul\":13299:13306   */\n      dup6\n        /* \"#utility.yul\":13295:13318   */\n      sub\n        /* \"#utility.yul\":13291:13323   */\n      slt\n        /* \"#utility.yul\":13288:13407   */\n      iszero\n      tag_531\n      jumpi\n        /* \"#utility.yul\":13326:13405   */\n      tag_532\n      tag_318\n      jump\t// in\n    tag_532:\n        /* \"#utility.yul\":13288:13407   */\n    tag_531:\n        /* \"#utility.yul\":13446:13447   */\n      0x00\n        /* \"#utility.yul\":13471:13524   */\n      tag_533\n        /* \"#utility.yul\":13516:13523   */\n      dup6\n        /* \"#utility.yul\":13507:13513   */\n      dup3\n        /* \"#utility.yul\":13496:13505   */\n      dup7\n        /* \"#utility.yul\":13492:13514   */\n      add\n        /* \"#utility.yul\":13471:13524   */\n      tag_337\n      jump\t// in\n    tag_533:\n        /* \"#utility.yul\":13461:13524   */\n      swap3\n      pop\n        /* \"#utility.yul\":13417:13534   */\n      pop\n        /* \"#utility.yul\":13573:13575   */\n      0x20\n        /* \"#utility.yul\":13599:13652   */\n      tag_534\n        /* \"#utility.yul\":13644:13651   */\n      dup6\n        /* \"#utility.yul\":13635:13641   */\n      dup3\n        /* \"#utility.yul\":13624:13633   */\n      dup7\n        /* \"#utility.yul\":13620:13642   */\n      add\n        /* \"#utility.yul\":13599:13652   */\n      tag_337\n      jump\t// in\n    tag_534:\n        /* \"#utility.yul\":13589:13652   */\n      swap2\n      pop\n        /* \"#utility.yul\":13544:13662   */\n      pop\n        /* \"#utility.yul\":13195:13669   */\n      swap3\n      pop\n      swap3\n      swap1\n      pop\n      jump\t// out\n        /* \"#utility.yul\":13675:13855   */\n    tag_352:\n        /* \"#utility.yul\":13723:13800   */\n      0x4e487b7100000000000000000000000000000000000000000000000000000000\n        /* \"#utility.yul\":13720:13721   */\n      0x00\n        /* \"#utility.yul\":13713:13801   */\n      mstore\n        /* \"#utility.yul\":13820:13824   */\n      0x22\n        /* \"#utility.yul\":13817:13818   */\n      0x04\n        /* \"#utility.yul\":13810:13825   */\n      mstore\n        /* \"#utility.yul\":13844:13848   */\n      0x24\n        /* \"#utility.yul\":13841:13842   */\n      0x00\n        /* \"#utility.yul\":13834:13849   */\n      revert\n        /* \"#utility.yul\":13861:14181   */\n    tag_103:\n        /* \"#utility.yul\":13905:13911   */\n      0x00\n        /* \"#utility.yul\":13942:13943   */\n      0x02\n        /* \"#utility.yul\":13936:13940   */\n      dup3\n        /* \"#utility.yul\":13932:13944   */\n      div\n        /* \"#utility.yul\":13922:13944   */\n      swap1\n      pop\n        /* \"#utility.yul\":13989:13990   */\n      0x01\n        /* \"#utility.yul\":13983:13987   */\n      dup3\n        /* \"#utility.yul\":13979:13991   */\n      and\n        /* \"#utility.yul\":14010:14028   */\n      dup1\n        /* \"#utility.yul\":14000:14081   */\n      tag_537\n      jumpi\n        /* \"#utility.yul\":14066:14070   */\n      0x7f\n        /* \"#utility.yul\":14058:14064   */\n      dup3\n        /* \"#utility.yul\":14054:14071   */\n      and\n        /* \"#utility.yul\":14044:14071   */\n      swap2\n      pop\n        /* \"#utility.yul\":14000:14081   */\n    tag_537:\n        /* \"#utility.yul\":14128:14130   */\n      0x20\n        /* \"#utility.yul\":14120:14126   */\n      dup3\n        /* \"#utility.yul\":14117:14131   */\n      lt\n        /* \"#utility.yul\":14097:14115   */\n      dup2\n        /* \"#utility.yul\":14094:14132   */\n      sub\n        /* \"#utility.yul\":14091:14175   */\n      tag_538\n      jumpi\n        /* \"#utility.yul\":14147:14165   */\n      tag_539\n      tag_352\n      jump\t// in\n    tag_539:\n        /* \"#utility.yul\":14091:14175   */\n    tag_538:\n        /* \"#utility.yul\":13912:14181   */\n      pop\n        /* \"#utility.yul\":13861:14181   */\n      swap2\n      swap1\n      pop\n      jump\t// out\n        /* \"#utility.yul\":14187:14629   */\n    tag_126:\n        /* \"#utility.yul\":14336:14340   */\n      0x00\n        /* \"#utility.yul\":14374:14376   */\n      0x60\n        /* \"#utility.yul\":14363:14372   */\n      dup3\n        /* \"#utility.yul\":14359:14377   */\n      add\n        /* \"#utility.yul\":14351:14377   */\n      swap1\n      pop\n        /* \"#utility.yul\":14387:14458   */\n      tag_541\n        /* \"#utility.yul\":14455:14456   */\n      0x00\n        /* \"#utility.yul\":14444:14453   */\n      dup4\n        /* \"#utility.yul\":14440:14457   */\n      add\n        /* \"#utility.yul\":14431:14437   */\n      dup7\n        /* \"#utility.yul\":14387:14458   */\n      tag_335\n      jump\t// in\n    tag_541:\n        /* \"#utility.yul\":14468:14540   */\n      tag_542\n        /* \"#utility.yul\":14536:14538   */\n      0x20\n        /* \"#utility.yul\":14525:14534   */\n      dup4\n        /* \"#utility.yul\":14521:14539   */\n      add\n        /* \"#utility.yul\":14512:14518   */\n      dup6\n        /* \"#utility.yul\":14468:14540   */\n      tag_346\n      jump\t// in\n    tag_542:\n        /* \"#utility.yul\":14550:14622   */\n      tag_543\n        /* \"#utility.yul\":14618:14620   */\n      0x40\n        /* \"#utility.yul\":14607:14616   */\n      dup4\n        /* \"#utility.yul\":14603:14621   */\n      add\n        /* \"#utility.yul\":14594:14600   */\n      dup5\n        /* \"#utility.yul\":14550:14622   */\n      tag_335\n      jump\t// in\n    tag_543:\n        /* \"#utility.yul\":14187:14629   */\n      swap5\n      swap4\n      pop\n      pop\n      pop\n      pop\n      jump\t// out\n        /* \"#utility.yul\":14635:14866   */\n    tag_353:\n        /* \"#utility.yul\":14775:14809   */\n      0x4170656e6173206f20646f6e6f20706f646520626174616c68617220636f6d20\n        /* \"#utility.yul\":14771:14772   */\n      0x00\n        /* \"#utility.yul\":14763:14769   */\n      dup3\n        /* \"#utility.yul\":14759:14773   */\n      add\n        /* \"#utility.yul\":14752:14810   */\n      mstore\n        /* \"#utility.yul\":14844:14858   */\n      0x6573746520506f6b656d6f6e0000000000000000000000000000000000000000\n        /* \"#utility.yul\":14839:14841   */\n      0x20\n        /* \"#utility.yul\":14831:14837   */\n      dup3\n        /* \"#utility.yul\":14827:14842   */\n      add\n        /* \"#utility.yul\":14820:14859   */\n      mstore\n        /* \"#utility.yul\":14635:14866   */\n      pop\n      jump\t// out\n        /* \"#utility.yul\":14872:15238   */\n    tag_354:\n        /* \"#utility.yul\":15014:15017   */\n      0x00\n        /* \"#utility.yul\":15035:15102   */\n      tag_546\n        /* \"#utility.yul\":15099:15101   */\n      0x2c\n        /* \"#utility.yul\":15094:15097   */\n      dup4\n        /* \"#utility.yul\":15035:15102   */\n      tag_326\n      jump\t// in\n    tag_546:\n        /* \"#utility.yul\":15028:15102   */\n      swap2\n      pop\n        /* \"#utility.yul\":15111:15204   */\n      tag_547\n        /* \"#utility.yul\":15200:15203   */\n      dup3\n        /* \"#utility.yul\":15111:15204   */\n      tag_353\n      jump\t// in\n    tag_547:\n        /* \"#utility.yul\":15229:15231   */\n      0x40\n        /* \"#utility.yul\":15224:15227   */\n      dup3\n        /* \"#utility.yul\":15220:15232   */\n      add\n        /* \"#utility.yul\":15213:15232   */\n      swap1\n      pop\n        /* \"#utility.yul\":14872:15238   */\n      swap2\n      swap1\n      pop\n      jump\t// out\n        /* \"#utility.yul\":15244:15663   */\n    tag_131:\n        /* \"#utility.yul\":15410:15414   */\n      0x00\n        /* \"#utility.yul\":15448:15450   */\n      0x20\n        /* \"#utility.yul\":15437:15446   */\n      dup3\n        /* \"#utility.yul\":15433:15451   */\n      add\n        /* \"#utility.yul\":15425:15451   */\n      swap1\n      pop\n        /* \"#utility.yul\":15497:15506   */\n      dup2\n        /* \"#utility.yul\":15491:15495   */\n      dup2\n        /* \"#utility.yul\":15487:15507   */\n      sub\n        /* \"#utility.yul\":15483:15484   */\n      0x00\n        /* \"#utility.yul\":15472:15481   */\n      dup4\n        /* \"#utility.yul\":15468:15485   */\n      add\n        /* \"#utility.yul\":15461:15508   */\n      mstore\n        /* \"#utility.yul\":15525:15656   */\n      tag_549\n        /* \"#utility.yul\":15651:15655   */\n      dup2\n        /* \"#utility.yul\":15525:15656   */\n      tag_354\n      jump\t// in\n    tag_549:\n        /* \"#utility.yul\":15517:15656   */\n      swap1\n      pop\n        /* \"#utility.yul\":15244:15663   */\n      swap2\n      swap1\n      pop\n      jump\t// out\n        /* \"#utility.yul\":15669:15849   */\n    tag_135:\n        /* \"#utility.yul\":15717:15794   */\n      0x4e487b7100000000000000000000000000000000000000000000000000000000\n        /* \"#utility.yul\":15714:15715   */\n      0x00\n        /* \"#utility.yul\":15707:15795   */\n      mstore\n        /* \"#utility.yul\":15814:15818   */\n      0x32\n        /* \"#utility.yul\":15811:15812   */\n      0x04\n        /* \"#utility.yul\":15804:15819   */\n      mstore\n        /* \"#utility.yul\":15838:15842   */\n      0x24\n        /* \"#utility.yul\":15835:15836   */\n      0x00\n        /* \"#utility.yul\":15828:15843   */\n      revert\n        /* \"#utility.yul\":15855:16035   */\n    tag_355:\n        /* \"#utility.yul\":15903:15980   */\n      0x4e487b7100000000000000000000000000000000000000000000000000000000\n        /* \"#utility.yul\":15900:15901   */\n      0x00\n        /* \"#utility.yul\":15893:15981   */\n      mstore\n        /* \"#utility.yul\":16000:16004   */\n      0x11\n        /* \"#utility.yul\":15997:15998   */\n      0x04\n        /* \"#utility.yul\":15990:16005   */\n      mstore\n        /* \"#utility.yul\":16024:16028   */\n      0x24\n        /* \"#utility.yul\":16021:16022   */\n      0x00\n        /* \"#utility.yul\":16014:16029   */\n      revert\n        /* \"#utility.yul\":16041:16232   */\n    tag_142:\n        /* \"#utility.yul\":16081:16084   */\n      0x00\n        /* \"#utility.yul\":16100:16120   */\n      tag_553\n        /* \"#utility.yul\":16118:16119   */\n      dup3\n        /* \"#utility.yul\":16100:16120   */\n      tag_330\n      jump\t// in\n    tag_553:\n        /* \"#utility.yul\":16095:16120   */\n      swap2\n      pop\n        /* \"#utility.yul\":16134:16154   */\n      tag_554\n        /* \"#utility.yul\":16152:16153   */\n      dup4\n        /* \"#utility.yul\":16134:16154   */\n      tag_330\n      jump\t// in\n    tag_554:\n        /* \"#utility.yul\":16129:16154   */\n      swap3\n      pop\n        /* \"#utility.yul\":16177:16178   */\n      dup3\n        /* \"#utility.yul\":16174:16175   */\n      dup3\n        /* \"#utility.yul\":16170:16179   */\n      add\n        /* \"#utility.yul\":16163:16179   */\n      swap1\n      pop\n        /* \"#utility.yul\":16198:16201   */\n      dup1\n        /* \"#utility.yul\":16195:16196   */\n      dup3\n        /* \"#utility.yul\":16192:16202   */\n      gt\n        /* \"#utility.yul\":16189:16225   */\n      iszero\n      tag_555\n      jumpi\n        /* \"#utility.yul\":16205:16223   */\n      tag_556\n      tag_355\n      jump\t// in\n    tag_556:\n        /* \"#utility.yul\":16189:16225   */\n    tag_555:\n        /* \"#utility.yul\":16041:16232   */\n      swap3\n      swap2\n      pop\n      pop\n      jump\t// out\n        /* \"#utility.yul\":16238:16472   */\n    tag_356:\n        /* \"#utility.yul\":16378:16412   */\n      0x4170656e6173206f20646f6e6f20646f206a6f676f20706f6465206372696172\n        /* \"#utility.yul\":16374:16375   */\n      0x00\n        /* \"#utility.yul\":16366:16372   */\n      dup3\n        /* \"#utility.yul\":16362:16376   */\n      add\n        /* \"#utility.yul\":16355:16413   */\n      mstore\n        /* \"#utility.yul\":16447:16464   */\n      0x206e6f766f7320506f6b656d6f6e730000000000000000000000000000000000\n        /* \"#utility.yul\":16442:16444   */\n      0x20\n        /* \"#utility.yul\":16434:16440   */\n      dup3\n        /* \"#utility.yul\":16430:16445   */\n      add\n        /* \"#utility.yul\":16423:16465   */\n      mstore\n        /* \"#utility.yul\":16238:16472   */\n      pop\n      jump\t// out\n        /* \"#utility.yul\":16478:16844   */\n    tag_357:\n        /* \"#utility.yul\":16620:16623   */\n      0x00\n        /* \"#utility.yul\":16641:16708   */\n      tag_559\n        /* \"#utility.yul\":16705:16707   */\n      0x2f\n        /* \"#utility.yul\":16700:16703   */\n      dup4\n        /* \"#utility.yul\":16641:16708   */\n      tag_326\n      jump\t// in\n    tag_559:\n        /* \"#utility.yul\":16634:16708   */\n      swap2\n      pop\n        /* \"#utility.yul\":16717:16810   */\n      tag_560\n        /* \"#utility.yul\":16806:16809   */\n      dup3\n        /* \"#utility.yul\":16717:16810   */\n      tag_356\n      jump\t// in\n    tag_560:\n        /* \"#utility.yul\":16835:16837   */\n      0x40\n        /* \"#utility.yul\":16830:16833   */\n      dup3\n        /* \"#utility.yul\":16826:16838   */\n      add\n        /* \"#utility.yul\":16819:16838   */\n      swap1\n      pop\n        /* \"#utility.yul\":16478:16844   */\n      swap2\n      swap1\n      pop\n      jump\t// out\n        /* \"#utility.yul\":16850:17269   */\n    tag_152:\n        /* \"#utility.yul\":17016:17020   */\n      0x00\n        /* \"#utility.yul\":17054:17056   */\n      0x20\n        /* \"#utility.yul\":17043:17052   */\n      dup3\n        /* \"#utility.yul\":17039:17057   */\n      add\n        /* \"#utility.yul\":17031:17057   */\n      swap1\n      pop\n        /* \"#utility.yul\":17103:17112   */\n      dup2\n        /* \"#utility.yul\":17097:17101   */\n      dup2\n        /* \"#utility.yul\":17093:17113   */\n      sub\n        /* \"#utility.yul\":17089:17090   */\n      0x00\n        /* \"#utility.yul\":17078:17087   */\n      dup4\n        /* \"#utility.yul\":17074:17091   */\n      add\n        /* \"#utility.yul\":17067:17114   */\n      mstore\n        /* \"#utility.yul\":17131:17262   */\n      tag_562\n        /* \"#utility.yul\":17257:17261   */\n      dup2\n        /* \"#utility.yul\":17131:17262   */\n      tag_357\n      jump\t// in\n    tag_562:\n        /* \"#utility.yul\":17123:17262   */\n      swap1\n      pop\n        /* \"#utility.yul\":16850:17269   */\n      swap2\n      swap1\n      pop\n      jump\t// out\n        /* \"#utility.yul\":17275:17416   */\n    tag_358:\n        /* \"#utility.yul\":17324:17328   */\n      0x00\n        /* \"#utility.yul\":17347:17350   */\n      dup2\n        /* \"#utility.yul\":17339:17350   */\n      swap1\n      pop\n        /* \"#utility.yul\":17370:17373   */\n      dup2\n        /* \"#utility.yul\":17367:17368   */\n      0x00\n        /* \"#utility.yul\":17360:17374   */\n      mstore\n        /* \"#utility.yul\":17404:17408   */\n      0x20\n        /* \"#utility.yul\":17401:17402   */\n      0x00\n        /* \"#utility.yul\":17391:17409   */\n      keccak256\n        /* \"#utility.yul\":17383:17409   */\n      swap1\n      pop\n        /* \"#utility.yul\":17275:17416   */\n      swap2\n      swap1\n      pop\n      jump\t// out\n        /* \"#utility.yul\":17422:17515   */\n    tag_359:\n        /* \"#utility.yul\":17459:17465   */\n      0x00\n        /* \"#utility.yul\":17506:17508   */\n      0x20\n        /* \"#utility.yul\":17501:17503   */\n      0x1f\n        /* \"#utility.yul\":17494:17499   */\n      dup4\n        /* \"#utility.yul\":17490:17504   */\n      add\n        /* \"#utility.yul\":17486:17509   */\n      div\n        /* \"#utility.yul\":17476:17509   */\n      swap1\n      pop\n        /* \"#utility.yul\":17422:17515   */\n      swap2\n      swap1\n      pop\n      jump\t// out\n        /* \"#utility.yul\":17521:17628   */\n    tag_360:\n        /* \"#utility.yul\":17565:17573   */\n      0x00\n        /* \"#utility.yul\":17615:17620   */\n      dup3\n        /* \"#utility.yul\":17609:17613   */\n      dup3\n        /* \"#utility.yul\":17605:17621   */\n      shl\n        /* \"#utility.yul\":17584:17621   */\n      swap1\n      pop\n        /* \"#utility.yul\":17521:17628   */\n      swap3\n      swap2\n      pop\n      pop\n      jump\t// out\n        /* \"#utility.yul\":17634:18027   */\n    tag_361:\n        /* \"#utility.yul\":17703:17709   */\n      0x00\n        /* \"#utility.yul\":17753:17754   */\n      0x08\n        /* \"#utility.yul\":17741:17751   */\n      dup4\n        /* \"#utility.yul\":17737:17755   */\n      mul\n        /* \"#utility.yul\":17776:17873   */\n      tag_567\n        /* \"#utility.yul\":17806:17872   */\n      0xffffffffffffffffffffffffffffffffffffffffffffffffffffffffffffffff\n        /* \"#utility.yul\":17795:17804   */\n      dup3\n        /* \"#utility.yul\":17776:17873   */\n      tag_360\n      jump\t// in\n    tag_567:\n        /* \"#utility.yul\":17894:17933   */\n      tag_568\n        /* \"#utility.yul\":17924:17932   */\n      dup7\n        /* \"#utility.yul\":17913:17922   */\n      dup4\n        /* \"#utility.yul\":17894:17933   */\n      tag_360\n      jump\t// in\n    tag_568:\n        /* \"#utility.yul\":17882:17933   */\n      swap6\n      pop\n        /* \"#utility.yul\":17966:17970   */\n      dup1\n        /* \"#utility.yul\":17962:17971   */\n      not\n        /* \"#utility.yul\":17955:17960   */\n      dup5\n        /* \"#utility.yul\":17951:17972   */\n      and\n        /* \"#utility.yul\":17942:17972   */\n      swap4\n      pop\n        /* \"#utility.yul\":18015:18019   */\n      dup1\n        /* \"#utility.yul\":18005:18013   */\n      dup7\n        /* \"#utility.yul\":18001:18020   */\n      and\n        /* \"#utility.yul\":17994:17999   */\n      dup5\n        /* \"#utility.yul\":17991:18021   */\n      or\n        /* \"#utility.yul\":17981:18021   */\n      swap3\n      pop\n        /* \"#utility.yul\":17710:18027   */\n      pop\n      pop\n        /* \"#utility.yul\":17634:18027   */\n      swap4\n      swap3\n      pop\n      pop\n      pop\n      jump\t// out\n        /* \"#utility.yul\":18033:18093   */\n    tag_362:\n        /* \"#utility.yul\":18061:18064   */\n      0x00\n        /* \"#utility.yul\":18082:18087   */\n      dup2\n        /* \"#utility.yul\":18075:18087   */\n      swap1\n      pop\n        /* \"#utility.yul\":18033:18093   */\n      swap2\n      swap1\n      pop\n      jump\t// out\n        /* \"#utility.yul\":18099:18241   */\n    tag_363:\n        /* \"#utility.yul\":18149:18158   */\n      0x00\n        /* \"#utility.yul\":18182:18235   */\n      tag_571\n        /* \"#utility.yul\":18200:18234   */\n      tag_572\n        /* \"#utility.yul\":18209:18233   */\n      tag_573\n        /* \"#utility.yul\":18227:18232   */\n      dup5\n        /* \"#utility.yul\":18209:18233   */\n      tag_330\n      jump\t// in\n    tag_573:\n        /* \"#utility.yul\":18200:18234   */\n      tag_362\n      jump\t// in\n    tag_572:\n        /* \"#utility.yul\":18182:18235   */\n      tag_330\n      jump\t// in\n    tag_571:\n        /* \"#utility.yul\":18169:18235   */\n      swap1\n      pop\n        /* \"#utility.yul\":18099:18241   */\n      swap2\n      swap1\n      pop\n      jump\t// out\n        /* \"#utility.yul\":18247:18322   */\n    tag_364:\n        /* \"#utility.yul\":18290:18293   */\n      0x00\n        /* \"#utility.yul\":18311:18316   */\n      dup2\n        /* \"#utility.yul\":18304:18316   */\n      swap1\n      pop\n        /* \"#utility.yul\":18247:18322   */\n      swap2\n      swap1\n      pop\n      jump\t// out\n        /* \"#utility.yul\":18328:18597   */\n    tag_365:\n        /* \"#utility.yul\":18438:18477   */\n      tag_576\n        /* \"#utility.yul\":18469:18476   */\n      dup4\n        /* \"#utility.yul\":18438:18477   */\n      tag_363\n      jump\t// in\n    tag_576:\n        /* \"#utility.yul\":18499:18590   */\n      tag_577\n        /* \"#utility.yul\":18548:18589   */\n      tag_578\n        /* \"#utility.yul\":18572:18588   */\n      dup3\n        /* \"#utility.yul\":18548:18589   */\n      tag_364\n      jump\t// in\n    tag_578:\n        /* \"#utility.yul\":18540:18546   */\n      dup5\n        /* \"#utility.yul\":18533:18537   */\n      dup5\n        /* \"#utility.yul\":18527:18538   */\n      sload\n        /* \"#utility.yul\":18499:18590   */\n      tag_361\n      jump\t// in\n    tag_577:\n        /* \"#utility.yul\":18493:18497   */\n      dup3\n        /* \"#utility.yul\":18486:18591   */\n      sstore\n        /* \"#utility.yul\":18404:18597   */\n      pop\n        /* \"#utility.yul\":18328:18597   */\n      pop\n      pop\n      pop\n      jump\t// out\n        /* \"#utility.yul\":18603:18676   */\n    tag_366:\n        /* \"#utility.yul\":18648:18651   */\n      0x00\n        /* \"#utility.yul\":18603:18676   */\n      swap1\n      jump\t// out\n        /* \"#utility.yul\":18682:18871   */\n    tag_367:\n        /* \"#utility.yul\":18759:18791   */\n      tag_581\n      tag_366\n      jump\t// in\n    tag_581:\n        /* \"#utility.yul\":18800:18865   */\n      tag_582\n        /* \"#utility.yul\":18858:18864   */\n      dup2\n        /* \"#utility.yul\":18850:18856   */\n      dup5\n        /* \"#utility.yul\":18844:18848   */\n      dup5\n        /* \"#utility.yul\":18800:18865   */\n      tag_365\n      jump\t// in\n    tag_582:\n        /* \"#utility.yul\":18735:18871   */\n      pop\n        /* \"#utility.yul\":18682:18871   */\n      pop\n      pop\n      jump\t// out\n        /* \"#utility.yul\":18877:19063   */\n    tag_368:\n        /* \"#utility.yul\":18937:19057   */\n    tag_584:\n        /* \"#utility.yul\":18954:18957   */\n      dup2\n        /* \"#utility.yul\":18947:18952   */\n      dup2\n        /* \"#utility.yul\":18944:18958   */\n      lt\n        /* \"#utility.yul\":18937:19057   */\n      iszero\n      tag_586\n      jumpi\n        /* \"#utility.yul\":19008:19047   */\n      tag_587\n        /* \"#utility.yul\":19045:19046   */\n      0x00\n        /* \"#utility.yul\":19038:19043   */\n      dup3\n        /* \"#utility.yul\":19008:19047   */\n      tag_367\n      jump\t// in\n    tag_587:\n        /* \"#utility.yul\":18981:18982   */\n      0x01\n        /* \"#utility.yul\":18974:18979   */\n      dup2\n        /* \"#utility.yul\":18970:18983   */\n      add\n        /* \"#utility.yul\":18961:18983   */\n      swap1\n      pop\n        /* \"#utility.yul\":18937:19057   */\n      jump(tag_584)\n    tag_586:\n        /* \"#utility.yul\":18877:19063   */\n      pop\n      pop\n      jump\t// out\n        /* \"#utility.yul\":19069:19612   */\n    tag_369:\n        /* \"#utility.yul\":19170:19172   */\n      0x1f\n        /* \"#utility.yul\":19165:19168   */\n      dup3\n        /* \"#utility.yul\":19162:19173   */\n      gt\n        /* \"#utility.yul\":19159:19605   */\n      iszero\n      tag_589\n      jumpi\n        /* \"#utility.yul\":19204:19242   */\n      tag_590\n        /* \"#utility.yul\":19236:19241   */\n      dup2\n        /* \"#utility.yul\":19204:19242   */\n      tag_358\n      jump\t// in\n    tag_590:\n        /* \"#utility.yul\":19288:19317   */\n      tag_591\n        /* \"#utility.yul\":19306:19316   */\n      dup5\n        /* \"#utility.yul\":19288:19317   */\n      tag_359\n      jump\t// in\n    tag_591:\n        /* \"#utility.yul\":19278:19286   */\n      dup2\n        /* \"#utility.yul\":19274:19318   */\n      add\n        /* \"#utility.yul\":19471:19473   */\n      0x20\n        /* \"#utility.yul\":19459:19469   */\n      dup6\n        /* \"#utility.yul\":19456:19474   */\n      lt\n        /* \"#utility.yul\":19453:19502   */\n      iszero\n      tag_592\n      jumpi\n        /* \"#utility.yul\":19492:19500   */\n      dup2\n        /* \"#utility.yul\":19477:19500   */\n      swap1\n      pop\n        /* \"#utility.yul\":19453:19502   */\n    tag_592:\n        /* \"#utility.yul\":19515:19595   */\n      tag_593\n        /* \"#utility.yul\":19571:19593   */\n      tag_594\n        /* \"#utility.yul\":19589:19592   */\n      dup6\n        /* \"#utility.yul\":19571:19593   */\n      tag_359\n      jump\t// in\n    tag_594:\n        /* \"#utility.yul\":19561:19569   */\n      dup4\n        /* \"#utility.yul\":19557:19594   */\n      add\n        /* \"#utility.yul\":19544:19555   */\n      dup3\n        /* \"#utility.yul\":19515:19595   */\n      tag_368\n      jump\t// in\n    tag_593:\n        /* \"#utility.yul\":19174:19605   */\n      pop\n      pop\n        /* \"#utility.yul\":19159:19605   */\n    tag_589:\n        /* \"#utility.yul\":19069:19612   */\n      pop\n      pop\n      pop\n      jump\t// out\n        /* \"#utility.yul\":19618:19735   */\n    tag_370:\n        /* \"#utility.yul\":19672:19680   */\n      0x00\n        /* \"#utility.yul\":19722:19727   */\n      dup3\n        /* \"#utility.yul\":19716:19720   */\n      dup3\n        /* \"#utility.yul\":19712:19728   */\n      shr\n        /* \"#utility.yul\":19691:19728   */\n      swap1\n      pop\n        /* \"#utility.yul\":19618:19735   */\n      swap3\n      swap2\n      pop\n      pop\n      jump\t// out\n        /* \"#utility.yul\":19741:19910   */\n    tag_371:\n        /* \"#utility.yul\":19785:19791   */\n      0x00\n        /* \"#utility.yul\":19818:19869   */\n      tag_597\n        /* \"#utility.yul\":19866:19867   */\n      0x00\n        /* \"#utility.yul\":19862:19868   */\n      not\n        /* \"#utility.yul\":19854:19859   */\n      dup5\n        /* \"#utility.yul\":19851:19852   */\n      0x08\n        /* \"#utility.yul\":19847:19860   */\n      mul\n        /* \"#utility.yul\":19818:19869   */\n      tag_370\n      jump\t// in\n    tag_597:\n        /* \"#utility.yul\":19814:19870   */\n      not\n        /* \"#utility.yul\":19899:19903   */\n      dup1\n        /* \"#utility.yul\":19893:19897   */\n      dup4\n        /* \"#utility.yul\":19889:19904   */\n      and\n        /* \"#utility.yul\":19879:19904   */\n      swap2\n      pop\n        /* \"#utility.yul\":19792:19910   */\n      pop\n        /* \"#utility.yul\":19741:19910   */\n      swap3\n      swap2\n      pop\n      pop\n      jump\t// out\n        /* \"#utility.yul\":19915:20210   */\n    tag_372:\n        /* \"#utility.yul\":19991:19995   */\n      0x00\n        /* \"#utility.yul\":20137:20166   */\n      tag_599\n        /* \"#utility.yul\":20162:20165   */\n      dup4\n        /* \"#utility.yul\":20156:20160   */\n      dup4\n        /* \"#utility.yul\":20137:20166   */\n      tag_371\n      jump\t// in\n    tag_599:\n        /* \"#utility.yul\":20129:20166   */\n      swap2\n      pop\n        /* \"#utility.yul\":20199:20202   */\n      dup3\n        /* \"#utility.yul\":20196:20197   */\n      0x02\n        /* \"#utility.yul\":20192:20203   */\n      mul\n        /* \"#utility.yul\":20186:20190   */\n      dup3\n        /* \"#utility.yul\":20183:20204   */\n      or\n        /* \"#utility.yul\":20175:20204   */\n      swap1\n      pop\n        /* \"#utility.yul\":19915:20210   */\n      swap3\n      swap2\n      pop\n      pop\n      jump\t// out\n        /* \"#utility.yul\":20215:21610   */\n    tag_155:\n        /* \"#utility.yul\":20332:20369   */\n      tag_601\n        /* \"#utility.yul\":20365:20368   */\n      dup3\n        /* \"#utility.yul\":20332:20369   */\n      tag_325\n      jump\t// in\n    tag_601:\n        /* \"#utility.yul\":20434:20452   */\n      0xffffffffffffffff\n        /* \"#utility.yul\":20426:20432   */\n      dup2\n        /* \"#utility.yul\":20423:20453   */\n      gt\n        /* \"#utility.yul\":20420:20476   */\n      iszero\n      tag_602\n      jumpi\n        /* \"#utility.yul\":20456:20474   */\n      tag_603\n      tag_253\n      jump\t// in\n    tag_603:\n        /* \"#utility.yul\":20420:20476   */\n    tag_602:\n        /* \"#utility.yul\":20500:20538   */\n      tag_604\n        /* \"#utility.yul\":20532:20536   */\n      dup3\n        /* \"#utility.yul\":20526:20537   */\n      sload\n        /* \"#utility.yul\":20500:20538   */\n      tag_103\n      jump\t// in\n    tag_604:\n        /* \"#utility.yul\":20585:20652   */\n      tag_605\n        /* \"#utility.yul\":20645:20651   */\n      dup3\n        /* \"#utility.yul\":20637:20643   */\n      dup3\n        /* \"#utility.yul\":20631:20635   */\n      dup6\n        /* \"#utility.yul\":20585:20652   */\n      tag_369\n      jump\t// in\n    tag_605:\n        /* \"#utility.yul\":20679:20680   */\n      0x00\n        /* \"#utility.yul\":20703:20707   */\n      0x20\n        /* \"#utility.yul\":20690:20707   */\n      swap1\n      pop\n        /* \"#utility.yul\":20735:20737   */\n      0x1f\n        /* \"#utility.yul\":20727:20733   */\n      dup4\n        /* \"#utility.yul\":20724:20738   */\n      gt\n        /* \"#utility.yul\":20752:20753   */\n      0x01\n        /* \"#utility.yul\":20747:21365   */\n      dup2\n      eq\n      tag_607\n      jumpi\n        /* \"#utility.yul\":21409:21410   */\n      0x00\n        /* \"#utility.yul\":21426:21432   */\n      dup5\n        /* \"#utility.yul\":21423:21500   */\n      iszero\n      tag_608\n      jumpi\n        /* \"#utility.yul\":21475:21484   */\n      dup3\n        /* \"#utility.yul\":21470:21473   */\n      dup8\n        /* \"#utility.yul\":21466:21485   */\n      add\n        /* \"#utility.yul\":21460:21486   */\n      mload\n        /* \"#utility.yul\":21451:21486   */\n      swap1\n      pop\n        /* \"#utility.yul\":21423:21500   */\n    tag_608:\n        /* \"#utility.yul\":21526:21593   */\n      tag_609\n        /* \"#utility.yul\":21586:21592   */\n      dup6\n        /* \"#utility.yul\":21579:21584   */\n      dup3\n        /* \"#utility.yul\":21526:21593   */\n      tag_372\n      jump\t// in\n    tag_609:\n        /* \"#utility.yul\":21520:21524   */\n      dup7\n        /* \"#utility.yul\":21513:21594   */\n      sstore\n        /* \"#utility.yul\":21382:21604   */\n      pop\n        /* \"#utility.yul\":20717:21604   */\n      jump(tag_606)\n        /* \"#utility.yul\":20747:21365   */\n    tag_607:\n        /* \"#utility.yul\":20799:20803   */\n      0x1f\n        /* \"#utility.yul\":20795:20804   */\n      not\n        /* \"#utility.yul\":20787:20793   */\n      dup5\n        /* \"#utility.yul\":20783:20805   */\n      and\n        /* \"#utility.yul\":20833:20870   */\n      tag_610\n        /* \"#utility.yul\":20865:20869   */\n      dup7\n        /* \"#utility.yul\":20833:20870   */\n      tag_358\n      jump\t// in\n    tag_610:\n        /* \"#utility.yul\":20892:20893   */\n      0x00\n        /* \"#utility.yul\":20906:21114   */\n    tag_611:\n        /* \"#utility.yul\":20920:20927   */\n      dup3\n        /* \"#utility.yul\":20917:20918   */\n      dup2\n        /* \"#utility.yul\":20914:20928   */\n      lt\n        /* \"#utility.yul\":20906:21114   */\n      iszero\n      tag_613\n      jumpi\n        /* \"#utility.yul\":20999:21008   */\n      dup5\n        /* \"#utility.yul\":20994:20997   */\n      dup10\n        /* \"#utility.yul\":20990:21009   */\n      add\n        /* \"#utility.yul\":20984:21010   */\n      mload\n        /* \"#utility.yul\":20976:20982   */\n      dup3\n        /* \"#utility.yul\":20969:21011   */\n      sstore\n        /* \"#utility.yul\":21050:21051   */\n      0x01\n        /* \"#utility.yul\":21042:21048   */\n      dup3\n        /* \"#utility.yul\":21038:21052   */\n      add\n        /* \"#utility.yul\":21028:21052   */\n      swap2\n      pop\n        /* \"#utility.yul\":21097:21099   */\n      0x20\n        /* \"#utility.yul\":21086:21095   */\n      dup6\n        /* \"#utility.yul\":21082:21100   */\n      add\n        /* \"#utility.yul\":21069:21100   */\n      swap5\n      pop\n        /* \"#utility.yul\":20943:20947   */\n      0x20\n        /* \"#utility.yul\":20940:20941   */\n      dup2\n        /* \"#utility.yul\":20936:20948   */\n      add\n        /* \"#utility.yul\":20931:20948   */\n      swap1\n      pop\n        /* \"#utility.yul\":20906:21114   */\n      jump(tag_611)\n    tag_613:\n        /* \"#utility.yul\":21142:21148   */\n      dup7\n        /* \"#utility.yul\":21133:21140   */\n      dup4\n        /* \"#utility.yul\":21130:21149   */\n      lt\n        /* \"#utility.yul\":21127:21306   */\n      iszero\n      tag_614\n      jumpi\n        /* \"#utility.yul\":21200:21209   */\n      dup5\n        /* \"#utility.yul\":21195:21198   */\n      dup10\n        /* \"#utility.yul\":21191:21210   */\n      add\n        /* \"#utility.yul\":21185:21211   */\n      mload\n        /* \"#utility.yul\":21243:21291   */\n      tag_615\n        /* \"#utility.yul\":21285:21289   */\n      0x1f\n        /* \"#utility.yul\":21277:21283   */\n      dup10\n        /* \"#utility.yul\":21273:21290   */\n      and\n        /* \"#utility.yul\":21262:21271   */\n      dup3\n        /* \"#utility.yul\":21243:21291   */\n      tag_371\n      jump\t// in\n    tag_615:\n        /* \"#utility.yul\":21235:21241   */\n      dup4\n        /* \"#utility.yul\":21228:21292   */\n      sstore\n        /* \"#utility.yul\":21150:21306   */\n      pop\n        /* \"#utility.yul\":21127:21306   */\n    tag_614:\n        /* \"#utility.yul\":21352:21353   */\n      0x01\n        /* \"#utility.yul\":21348:21349   */\n      0x02\n        /* \"#utility.yul\":21340:21346   */\n      dup9\n        /* \"#utility.yul\":21336:21350   */\n      mul\n        /* \"#utility.yul\":21332:21354   */\n      add\n        /* \"#utility.yul\":21326:21330   */\n      dup9\n        /* \"#utility.yul\":21319:21355   */\n      sstore\n        /* \"#utility.yul\":20754:21365   */\n      pop\n      pop\n      pop\n        /* \"#utility.yul\":20717:21604   */\n    tag_606:\n      pop\n        /* \"#utility.yul\":20307:21610   */\n      pop\n      pop\n      pop\n        /* \"#utility.yul\":20215:21610   */\n      pop\n      pop\n      jump\t// out\n        /* \"#utility.yul\":21616:21764   */\n    tag_373:\n        /* \"#utility.yul\":21718:21729   */\n      0x00\n        /* \"#utility.yul\":21755:21758   */\n      dup2\n        /* \"#utility.yul\":21740:21758   */\n      swap1\n      pop\n        /* \"#utility.yul\":21616:21764   */\n      swap3\n      swap2\n      pop\n      pop\n      jump\t// out\n        /* \"#utility.yul\":21770:22160   */\n    tag_374:\n        /* \"#utility.yul\":21876:21879   */\n      0x00\n        /* \"#utility.yul\":21904:21943   */\n      tag_618\n        /* \"#utility.yul\":21937:21942   */\n      dup3\n        /* \"#utility.yul\":21904:21943   */\n      tag_325\n      jump\t// in\n    tag_618:\n        /* \"#utility.yul\":21959:22048   */\n      tag_619\n        /* \"#utility.yul\":22041:22047   */\n      dup2\n        /* \"#utility.yul\":22036:22039   */\n      dup6\n        /* \"#utility.yul\":21959:22048   */\n      tag_373\n      jump\t// in\n    tag_619:\n        /* \"#utility.yul\":21952:22048   */\n      swap4\n      pop\n        /* \"#utility.yul\":22057:22122   */\n      tag_620\n        /* \"#utility.yul\":22115:22121   */\n      dup2\n        /* \"#utility.yul\":22110:22113   */\n      dup6\n        /* \"#utility.yul\":22103:22107   */\n      0x20\n        /* \"#utility.yul\":22096:22101   */\n      dup7\n        /* \"#utility.yul\":22092:22108   */\n      add\n        /* \"#utility.yul\":22057:22122   */\n      tag_327\n      jump\t// in\n    tag_620:\n        /* \"#utility.yul\":22147:22153   */\n      dup1\n        /* \"#utility.yul\":22142:22145   */\n      dup5\n        /* \"#utility.yul\":22138:22154   */\n      add\n        /* \"#utility.yul\":22131:22154   */\n      swap2\n      pop\n        /* \"#utility.yul\":21880:22160   */\n      pop\n        /* \"#utility.yul\":21770:22160   */\n      swap3\n      swap2\n      pop\n      pop\n      jump\t// out\n        /* \"#utility.yul\":22166:22601   */\n    tag_199:\n        /* \"#utility.yul\":22346:22349   */\n      0x00\n        /* \"#utility.yul\":22368:22463   */\n      tag_622\n        /* \"#utility.yul\":22459:22462   */\n      dup3\n        /* \"#utility.yul\":22450:22456   */\n      dup6\n        /* \"#utility.yul\":22368:22463   */\n      tag_374\n      jump\t// in\n    tag_622:\n        /* \"#utility.yul\":22361:22463   */\n      swap2\n      pop\n        /* \"#utility.yul\":22480:22575   */\n      tag_623\n        /* \"#utility.yul\":22571:22574   */\n      dup3\n        /* \"#utility.yul\":22562:22568   */\n      dup5\n        /* \"#utility.yul\":22480:22575   */\n      tag_374\n      jump\t// in\n    tag_623:\n        /* \"#utility.yul\":22473:22575   */\n      swap2\n      pop\n        /* \"#utility.yul\":22592:22595   */\n      dup2\n        /* \"#utility.yul\":22585:22595   */\n      swap1\n      pop\n        /* \"#utility.yul\":22166:22601   */\n      swap4\n      swap3\n      pop\n      pop\n      pop\n      jump\t// out\n        /* \"#utility.yul\":22607:22705   */\n    tag_375:\n        /* \"#utility.yul\":22658:22664   */\n      0x00\n        /* \"#utility.yul\":22692:22697   */\n      dup2\n        /* \"#utility.yul\":22686:22698   */\n      mload\n        /* \"#utility.yul\":22676:22698   */\n      swap1\n      pop\n        /* \"#utility.yul\":22607:22705   */\n      swap2\n      swap1\n      pop\n      jump\t// out\n        /* \"#utility.yul\":22711:22879   */\n    tag_376:\n        /* \"#utility.yul\":22794:22805   */\n      0x00\n        /* \"#utility.yul\":22828:22834   */\n      dup3\n        /* \"#utility.yul\":22823:22826   */\n      dup3\n        /* \"#utility.yul\":22816:22835   */\n      mstore\n        /* \"#utility.yul\":22868:22872   */\n      0x20\n        /* \"#utility.yul\":22863:22866   */\n      dup3\n        /* \"#utility.yul\":22859:22873   */\n      add\n        /* \"#utility.yul\":22844:22873   */\n      swap1\n      pop\n        /* \"#utility.yul\":22711:22879   */\n      swap3\n      swap2\n      pop\n      pop\n      jump\t// out\n        /* \"#utility.yul\":22885:23258   */\n    tag_377:\n        /* \"#utility.yul\":22971:22974   */\n      0x00\n        /* \"#utility.yul\":22999:23037   */\n      tag_627\n        /* \"#utility.yul\":23031:23036   */\n      dup3\n        /* \"#utility.yul\":22999:23037   */\n      tag_375\n      jump\t// in\n    tag_627:\n        /* \"#utility.yul\":23053:23123   */\n      tag_628\n        /* \"#utility.yul\":23116:23122   */\n      dup2\n        /* \"#utility.yul\":23111:23114   */\n      dup6\n        /* \"#utility.yul\":23053:23123   */\n      tag_376\n      jump\t// in\n    tag_628:\n        /* \"#utility.yul\":23046:23123   */\n      swap4\n      pop\n        /* \"#utility.yul\":23132:23197   */\n      tag_629\n        /* \"#utility.yul\":23190:23196   */\n      dup2\n        /* \"#utility.yul\":23185:23188   */\n      dup6\n        /* \"#utility.yul\":23178:23182   */\n      0x20\n        /* \"#utility.yul\":23171:23176   */\n      dup7\n        /* \"#utility.yul\":23167:23183   */\n      add\n        /* \"#utility.yul\":23132:23197   */\n      tag_327\n      jump\t// in\n    tag_629:\n        /* \"#utility.yul\":23222:23251   */\n      tag_630\n        /* \"#utility.yul\":23244:23250   */\n      dup2\n        /* \"#utility.yul\":23222:23251   */\n      tag_328\n      jump\t// in\n    tag_630:\n        /* \"#utility.yul\":23217:23220   */\n      dup5\n        /* \"#utility.yul\":23213:23252   */\n      add\n        /* \"#utility.yul\":23206:23252   */\n      swap2\n      pop\n        /* \"#utility.yul\":22975:23258   */\n      pop\n        /* \"#utility.yul\":22885:23258   */\n      swap3\n      swap2\n      pop\n      pop\n      jump\t// out\n        /* \"#utility.yul\":23264:23904   */\n    tag_231:\n        /* \"#utility.yul\":23459:23463   */\n      0x00\n        /* \"#utility.yul\":23497:23500   */\n      0x80\n        /* \"#utility.yul\":23486:23495   */\n      dup3\n        /* \"#utility.yul\":23482:23501   */\n      add\n        /* \"#utility.yul\":23474:23501   */\n      swap1\n      pop\n        /* \"#utility.yul\":23511:23582   */\n      tag_632\n        /* \"#utility.yul\":23579:23580   */\n      0x00\n        /* \"#utility.yul\":23568:23577   */\n      dup4\n        /* \"#utility.yul\":23564:23581   */\n      add\n        /* \"#utility.yul\":23555:23561   */\n      dup8\n        /* \"#utility.yul\":23511:23582   */\n      tag_335\n      jump\t// in\n    tag_632:\n        /* \"#utility.yul\":23592:23664   */\n      tag_633\n        /* \"#utility.yul\":23660:23662   */\n      0x20\n        /* \"#utility.yul\":23649:23658   */\n      dup4\n        /* \"#utility.yul\":23645:23663   */\n      add\n        /* \"#utility.yul\":23636:23642   */\n      dup7\n        /* \"#utility.yul\":23592:23664   */\n      tag_335\n      jump\t// in\n    tag_633:\n        /* \"#utility.yul\":23674:23746   */\n      tag_634\n        /* \"#utility.yul\":23742:23744   */\n      0x40\n        /* \"#utility.yul\":23731:23740   */\n      dup4\n        /* \"#utility.yul\":23727:23745   */\n      add\n        /* \"#utility.yul\":23718:23724   */\n      dup6\n        /* \"#utility.yul\":23674:23746   */\n      tag_346\n      jump\t// in\n    tag_634:\n        /* \"#utility.yul\":23793:23802   */\n      dup2\n        /* \"#utility.yul\":23787:23791   */\n      dup2\n        /* \"#utility.yul\":23783:23803   */\n      sub\n        /* \"#utility.yul\":23778:23780   */\n      0x60\n        /* \"#utility.yul\":23767:23776   */\n      dup4\n        /* \"#utility.yul\":23763:23781   */\n      add\n        /* \"#utility.yul\":23756:23804   */\n      mstore\n        /* \"#utility.yul\":23821:23897   */\n      tag_635\n        /* \"#utility.yul\":23892:23896   */\n      dup2\n        /* \"#utility.yul\":23883:23889   */\n      dup5\n        /* \"#utility.yul\":23821:23897   */\n      tag_377\n      jump\t// in\n    tag_635:\n        /* \"#utility.yul\":23813:23897   */\n      swap1\n      pop\n        /* \"#utility.yul\":23264:23904   */\n      swap6\n      swap5\n      pop\n      pop\n      pop\n      pop\n      pop\n      jump\t// out\n        /* \"#utility.yul\":23910:24051   */\n    tag_378:\n        /* \"#utility.yul\":23966:23971   */\n      0x00\n        /* \"#utility.yul\":23997:24003   */\n      dup2\n        /* \"#utility.yul\":23991:24004   */\n      mload\n        /* \"#utility.yul\":23982:24004   */\n      swap1\n      pop\n        /* \"#utility.yul\":24013:24045   */\n      tag_637\n        /* \"#utility.yul\":24039:24044   */\n      dup2\n        /* \"#utility.yul\":24013:24045   */\n      tag_321\n      jump\t// in\n    tag_637:\n        /* \"#utility.yul\":23910:24051   */\n      swap3\n      swap2\n      pop\n      pop\n      jump\t// out\n        /* \"#utility.yul\":24057:24406   */\n    tag_234:\n        /* \"#utility.yul\":24126:24132   */\n      0x00\n        /* \"#utility.yul\":24175:24177   */\n      0x20\n        /* \"#utility.yul\":24163:24172   */\n      dup3\n        /* \"#utility.yul\":24154:24161   */\n      dup5\n        /* \"#utility.yul\":24150:24173   */\n      sub\n        /* \"#utility.yul\":24146:24178   */\n      slt\n        /* \"#utility.yul\":24143:24262   */\n      iszero\n      tag_639\n      jumpi\n        /* \"#utility.yul\":24181:24260   */\n      tag_640\n      tag_318\n      jump\t// in\n    tag_640:\n        /* \"#utility.yul\":24143:24262   */\n    tag_639:\n        /* \"#utility.yul\":24301:24302   */\n      0x00\n        /* \"#utility.yul\":24326:24389   */\n      tag_641\n        /* \"#utility.yul\":24381:24388   */\n      dup5\n        /* \"#utility.yul\":24372:24378   */\n      dup3\n        /* \"#utility.yul\":24361:24370   */\n      dup6\n        /* \"#utility.yul\":24357:24379   */\n      add\n        /* \"#utility.yul\":24326:24389   */\n      tag_378\n      jump\t// in\n    tag_641:\n        /* \"#utility.yul\":24316:24389   */\n      swap2\n      pop\n        /* \"#utility.yul\":24272:24399   */\n      pop\n        /* \"#utility.yul\":24057:24406   */\n      swap3\n      swap2\n      pop\n      pop\n      jump\t// out\n        /* \"#utility.yul\":24412:24592   */\n    tag_259:\n        /* \"#utility.yul\":24460:24537   */\n      0x4e487b7100000000000000000000000000000000000000000000000000000000\n        /* \"#utility.yul\":24457:24458   */\n      0x00\n        /* \"#utility.yul\":24450:24538   */\n      mstore\n        /* \"#utility.yul\":24557:24561   */\n      0x12\n        /* \"#utility.yul\":24554:24555   */\n      0x04\n        /* \"#utility.yul\":24547:24562   */\n      mstore\n        /* \"#utility.yul\":24581:24585   */\n      0x24\n        /* \"#utility.yul\":24578:24579   */\n      0x00\n        /* \"#utility.yul\":24571:24586   */\n      revert\n        /* \"#utility.yul\":24598:24930   */\n    tag_280:\n        /* \"#utility.yul\":24719:24723   */\n      0x00\n        /* \"#utility.yul\":24757:24759   */\n      0x40\n        /* \"#utility.yul\":24746:24755   */\n      dup3\n        /* \"#utility.yul\":24742:24760   */\n      add\n        /* \"#utility.yul\":24734:24760   */\n      swap1\n      pop\n        /* \"#utility.yul\":24770:24841   */\n      tag_644\n        /* \"#utility.yul\":24838:24839   */\n      0x00\n        /* \"#utility.yul\":24827:24836   */\n      dup4\n        /* \"#utility.yul\":24823:24840   */\n      add\n        /* \"#utility.yul\":24814:24820   */\n      dup6\n        /* \"#utility.yul\":24770:24841   */\n      tag_335\n      jump\t// in\n    tag_644:\n        /* \"#utility.yul\":24851:24923   */\n      tag_645\n        /* \"#utility.yul\":24919:24921   */\n      0x20\n        /* \"#utility.yul\":24908:24917   */\n      dup4\n        /* \"#utility.yul\":24904:24922   */\n      add\n        /* \"#utility.yul\":24895:24901   */\n      dup5\n        /* \"#utility.yul\":24851:24923   */\n      tag_346\n      jump\t// in\n    tag_645:\n        /* \"#utility.yul\":24598:24930   */\n      swap4\n      swap3\n      pop\n      pop\n      pop\n      jump\t// out\n\n    auxdata: 0xa2646970667358221220ee4f0fa7428494f2f8e32ed2edee63ae811d9b38045241c3c2223f87ec282cd564736f6c634300081a0033\n}\n",
				"bytecode": {
					"linkReferences": {},
					"object": "608060405234801561001057600080fd5b506040518060400160405280600781526020017f506f6b6544494f000000000000000000000000000000000000000000000000008152506040518060400160405280600381526020017f504b440000000000000000000000000000000000000000000000000000000000815250816000908161008c9190610335565b50806001908161009c9190610335565b50505033600760006101000a81548173ffffffffffffffffffffffffffffffffffffffff021916908373ffffffffffffffffffffffffffffffffffffffff160217905550610407565b600081519050919050565b7f4e487b7100000000000000000000000000000000000000000000000000000000600052604160045260246000fd5b7f4e487b7100000000000000000000000000000000000000000000000000000000600052602260045260246000fd5b6000600282049050600182168061016657607f821691505b6020821081036101795761017861011f565b5b50919050565b60008190508160005260206000209050919050565b60006020601f8301049050919050565b600082821b905092915050565b6000600883026101e17fffffffffffffffffffffffffffffffffffffffffffffffffffffffffffffffff826101a4565b6101eb86836101a4565b95508019841693508086168417925050509392505050565b6000819050919050565b6000819050919050565b600061023261022d61022884610203565b61020d565b610203565b9050919050565b6000819050919050565b61024c83610217565b61026061025882610239565b8484546101b1565b825550505050565b600090565b610275610268565b610280818484610243565b505050565b5b818110156102a45761029960008261026d565b600181019050610286565b5050565b601f8211156102e9576102ba8161017f565b6102c384610194565b810160208510156102d2578190505b6102e66102de85610194565b830182610285565b50505b505050565b600082821c905092915050565b600061030c600019846008026102ee565b1980831691505092915050565b600061032583836102fb565b9150826002028217905092915050565b61033e826100e5565b67ffffffffffffffff811115610357576103566100f0565b5b610361825461014e565b61036c8282856102a8565b600060209050601f83116001811461039f576000841561038d578287015190505b6103978582610319565b8655506103ff565b601f1984166103ad8661017f565b60005b828110156103d5578489015182556001820191506020850194506020810190506103b0565b868310156103f257848901516103ee601f8916826102fb565b8355505b6001600288020188555050505b505050505050565b612840806104166000396000f3fe608060405234801561001057600080fd5b506004361061010b5760003560e01c80636352211e116100a2578063a22cb46511610071578063a22cb465146102ca578063b88d4fde146102e6578063c87b56dd14610302578063e985e9c514610332578063f6b12f28146103625761010b565b80636352211e1461021a57806370a082311461024a578063858310791461027a57806395d89b41146102ac5761010b565b806323b872dd116100de57806323b872dd146101aa5780632a0c5221146101c657806342842e0e146101e2578063555072de146101fe5761010b565b806301ffc9a71461011057806306fdde0314610140578063081812fc1461015e578063095ea7b31461018e575b600080fd5b61012a60048036038101906101259190611aa5565b610380565b6040516101379190611aed565b60405180910390f35b610148610462565b6040516101559190611b98565b60405180910390f35b61017860048036038101906101739190611bf0565b6104f4565b6040516101859190611c5e565b60405180910390f35b6101a860048036038101906101a39190611ca5565b610510565b005b6101c460048036038101906101bf9190611ce5565b610526565b005b6101e060048036038101906101db9190611d38565b610628565b005b6101fc60048036038101906101f79190611ce5565b610777565b005b61021860048036038101906102139190611ead565b610797565b005b610234600480360381019061022f9190611bf0565b6108c0565b6040516102419190611c5e565b60405180910390f35b610264600480360381019061025f9190611f38565b6108d2565b6040516102719190611f74565b60405180910390f35b610294600480360381019061028f9190611bf0565b61098c565b6040516102a393929190611f8f565b60405180910390f35b6102b4610ad6565b6040516102c19190611b98565b60405180910390f35b6102e460048036038101906102df9190612000565b610b68565b005b61030060048036038101906102fb91906120e1565b610b7e565b005b61031c60048036038101906103179190611bf0565b610b9b565b6040516103299190611b98565b60405180910390f35b61034c60048036038101906103479190612164565b610c04565b6040516103599190611aed565b60405180910390f35b61036a610c98565b6040516103779190611c5e565b60405180910390f35b60007f80ac58cd000000000000000000000000000000000000000000000000000000007bffffffffffffffffffffffffffffffffffffffffffffffffffffffff1916827bffffffffffffffffffffffffffffffffffffffffffffffffffffffff1916148061044b57507f5b5e139f000000000000000000000000000000000000000000000000000000007bffffffffffffffffffffffffffffffffffffffffffffffffffffffff1916827bffffffffffffffffffffffffffffffffffffffffffffffffffffffff1916145b8061045b575061045a82610cbe565b5b9050919050565b606060008054610471906121d3565b80601f016020809104026020016040519081016040528092919081815260200182805461049d906121d3565b80156104ea5780601f106104bf576101008083540402835291602001916104ea565b820191906000526020600020905b8154815290600101906020018083116104cd57829003601f168201915b5050505050905090565b60006104ff82610d28565b5061050982610db0565b9050919050565b610522828261051d610ded565b610df5565b5050565b600073ffffffffffffffffffffffffffffffffffffffff168273ffffffffffffffffffffffffffffffffffffffff16036105985760006040517f64a0ae9200000000000000000000000000000000000000000000000000000000815260040161058f9190611c5e565b60405180910390fd5b60006105ac83836105a7610ded565b610e07565b90508373ffffffffffffffffffffffffffffffffffffffff168173ffffffffffffffffffffffffffffffffffffffff1614610622578382826040517f64283d7b00000000000000000000000000000000000000000000000000000000815260040161061993929190612204565b60405180910390fd5b50505050565b813373ffffffffffffffffffffffffffffffffffffffff16610649826108c0565b73ffffffffffffffffffffffffffffffffffffffff161461069f576040517f08c379a0000000000000000000000000000000000000000000000000000000008152600401610696906122ad565b60405180910390fd5b6000600684815481106106b5576106b46122cd565b5b906000526020600020906003020190506000600684815481106106db576106da6122cd565b5b90600052602060002090600302019050806001015482600101541061073757600282600101600082825461070f919061232b565b92505081905550600181600101600082825461072b919061232b565b92505081905550610770565b600182600101600082825461074c919061232b565b925050819055506002816001016000828254610768919061232b565b925050819055505b5050505050565b61079283838360405180602001604052806000815250610b7e565b505050565b600760009054906101000a900473ffffffffffffffffffffffffffffffffffffffff1673ffffffffffffffffffffffffffffffffffffffff163373ffffffffffffffffffffffffffffffffffffffff1614610827576040517f08c379a000000000000000000000000000000000000000000000000000000000815260040161081e906123d1565b60405180910390fd5b600060068054905090506006604051806060016040528086815260200160018152602001848152509080600181540180825580915050600190039060005260206000209060030201600090919091909150600082015181600001908161088d919061259d565b506020820151816001015560408201518160020190816108ad919061259d565b5050506108ba8382611021565b50505050565b60006108cb82610d28565b9050919050565b60008073ffffffffffffffffffffffffffffffffffffffff168273ffffffffffffffffffffffffffffffffffffffff16036109455760006040517f89c62b6400000000000000000000000000000000000000000000000000000000815260040161093c9190611c5e565b60405180910390fd5b600360008373ffffffffffffffffffffffffffffffffffffffff1673ffffffffffffffffffffffffffffffffffffffff168152602001908152602001600020549050919050565b6006818154811061099c57600080fd5b90600052602060002090600302016000915090508060000180546109bf906121d3565b80601f01602080910402602001604051908101604052809291908181526020018280546109eb906121d3565b8015610a385780601f10610a0d57610100808354040283529160200191610a38565b820191906000526020600020905b815481529060010190602001808311610a1b57829003601f168201915b505050505090806001015490806002018054610a53906121d3565b80601f0160208091040260200160405190810160405280929190818152602001828054610a7f906121d3565b8015610acc5780601f10610aa157610100808354040283529160200191610acc565b820191906000526020600020905b815481529060010190602001808311610aaf57829003601f168201915b5050505050905083565b606060018054610ae5906121d3565b80601f0160208091040260200160405190810160405280929190818152602001828054610b11906121d3565b8015610b5e5780601f10610b3357610100808354040283529160200191610b5e565b820191906000526020600020905b815481529060010190602001808311610b4157829003601f168201915b5050505050905090565b610b7a610b73610ded565b838361103f565b5050565b610b89848484610526565b610b95848484846111ae565b50505050565b6060610ba682610d28565b506000610bb1611365565b90506000815111610bd15760405180602001604052806000815250610bfc565b80610bdb8461137c565b604051602001610bec9291906126ab565b6040516020818303038152906040525b915050919050565b6000600560008473ffffffffffffffffffffffffffffffffffffffff1673ffffffffffffffffffffffffffffffffffffffff16815260200190815260200160002060008373ffffffffffffffffffffffffffffffffffffffff1673ffffffffffffffffffffffffffffffffffffffff16815260200190815260200160002060009054906101000a900460ff16905092915050565b600760009054906101000a900473ffffffffffffffffffffffffffffffffffffffff1681565b60007f01ffc9a7000000000000000000000000000000000000000000000000000000007bffffffffffffffffffffffffffffffffffffffffffffffffffffffff1916827bffffffffffffffffffffffffffffffffffffffffffffffffffffffff1916149050919050565b600080610d348361144a565b9050600073ffffffffffffffffffffffffffffffffffffffff168173ffffffffffffffffffffffffffffffffffffffff1603610da757826040517f7e273289000000000000000000000000000000000000000000000000000000008152600401610d9e9190611f74565b60405180910390fd5b80915050919050565b60006004600083815260200190815260200160002060009054906101000a900473ffffffffffffffffffffffffffffffffffffffff169050919050565b600033905090565b610e028383836001611487565b505050565b600080610e138461144a565b9050600073ffffffffffffffffffffffffffffffffffffffff168373ffffffffffffffffffffffffffffffffffffffff1614610e5557610e5481848661164c565b5b600073ffffffffffffffffffffffffffffffffffffffff168173ffffffffffffffffffffffffffffffffffffffff1614610ee657610e97600085600080611487565b6001600360008373ffffffffffffffffffffffffffffffffffffffff1673ffffffffffffffffffffffffffffffffffffffff168152602001908152602001600020600082825403925050819055505b600073ffffffffffffffffffffffffffffffffffffffff168573ffffffffffffffffffffffffffffffffffffffff1614610f69576001600360008773ffffffffffffffffffffffffffffffffffffffff1673ffffffffffffffffffffffffffffffffffffffff168152602001908152602001600020600082825401925050819055505b846002600086815260200190815260200160002060006101000a81548173ffffffffffffffffffffffffffffffffffffffff021916908373ffffffffffffffffffffffffffffffffffffffff160217905550838573ffffffffffffffffffffffffffffffffffffffff168273ffffffffffffffffffffffffffffffffffffffff167fddf252ad1be2c89b69c2b068fc378daa952ba7f163c4a11628f55a4df523b3ef60405160405180910390a4809150509392505050565b61103b828260405180602001604052806000815250611710565b5050565b600073ffffffffffffffffffffffffffffffffffffffff168273ffffffffffffffffffffffffffffffffffffffff16036110b057816040517f5b08ba180000000000000000000000000000000000000000000000000000000081526004016110a79190611c5e565b60405180910390fd5b80600560008573ffffffffffffffffffffffffffffffffffffffff1673ffffffffffffffffffffffffffffffffffffffff16815260200190815260200160002060008473ffffffffffffffffffffffffffffffffffffffff1673ffffffffffffffffffffffffffffffffffffffff16815260200190815260200160002060006101000a81548160ff0219169083151502179055508173ffffffffffffffffffffffffffffffffffffffff168373ffffffffffffffffffffffffffffffffffffffff167f17307eab39ab6107e8899845ad3d59bd9653f200f220920489ca2b5937696c31836040516111a19190611aed565b60405180910390a3505050565b60008373ffffffffffffffffffffffffffffffffffffffff163b111561135f578273ffffffffffffffffffffffffffffffffffffffff1663150b7a026111f2610ded565b8685856040518563ffffffff1660e01b81526004016112149493929190612724565b6020604051808303816000875af192505050801561125057506040513d601f19601f8201168201806040525081019061124d9190612785565b60015b6112d4573d8060008114611280576040519150601f19603f3d011682016040523d82523d6000602084013e611285565b606091505b5060008151036112cc57836040517f64a0ae920000000000000000000000000000000000000000000000000000000081526004016112c39190611c5e565b60405180910390fd5b805181602001fd5b63150b7a0260e01b7bffffffffffffffffffffffffffffffffffffffffffffffffffffffff1916817bffffffffffffffffffffffffffffffffffffffffffffffffffffffff19161461135d57836040517f64a0ae920000000000000000000000000000000000000000000000000000000081526004016113549190611c5e565b60405180910390fd5b505b50505050565b606060405180602001604052806000815250905090565b60606000600161138b8461172c565b01905060008167ffffffffffffffff8111156113aa576113a9611d82565b5b6040519080825280601f01601f1916602001820160405280156113dc5781602001600182028036833780820191505090505b509050600082602001820190505b60011561143f578080600190039150507f3031323334353637383961626364656600000000000000000000000000000000600a86061a8153600a8581611433576114326127b2565b5b049450600085036113ea575b819350505050919050565b60006002600083815260200190815260200160002060009054906101000a900473ffffffffffffffffffffffffffffffffffffffff169050919050565b80806114c05750600073ffffffffffffffffffffffffffffffffffffffff168273ffffffffffffffffffffffffffffffffffffffff1614155b156115f45760006114d084610d28565b9050600073ffffffffffffffffffffffffffffffffffffffff168373ffffffffffffffffffffffffffffffffffffffff161415801561153b57508273ffffffffffffffffffffffffffffffffffffffff168173ffffffffffffffffffffffffffffffffffffffff1614155b801561154e575061154c8184610c04565b155b1561159057826040517fa9fbf51f0000000000000000000000000000000000000000000000000000000081526004016115879190611c5e565b60405180910390fd5b81156115f257838573ffffffffffffffffffffffffffffffffffffffff168273ffffffffffffffffffffffffffffffffffffffff167f8c5be1e5ebec7d5bd14f71427d1e84f3dd0314c0f7b2291e5b200ac8c7c3b92560405160405180910390a45b505b836004600085815260200190815260200160002060006101000a81548173ffffffffffffffffffffffffffffffffffffffff021916908373ffffffffffffffffffffffffffffffffffffffff16021790555050505050565b61165783838361187f565b61170b57600073ffffffffffffffffffffffffffffffffffffffff168373ffffffffffffffffffffffffffffffffffffffff16036116cc57806040517f7e2732890000000000000000000000000000000000000000000000000000000081526004016116c39190611f74565b60405180910390fd5b81816040517f177e802f0000000000000000000000000000000000000000000000000000000081526004016117029291906127e1565b60405180910390fd5b505050565b61171a8383611940565b61172760008484846111ae565b505050565b600080600090507a184f03e93ff9f4daa797ed6e38ed64bf6a1f010000000000000000831061178a577a184f03e93ff9f4daa797ed6e38ed64bf6a1f01000000000000000083816117805761177f6127b2565b5b0492506040810190505b6d04ee2d6d415b85acef810000000083106117c7576d04ee2d6d415b85acef810000000083816117bd576117bc6127b2565b5b0492506020810190505b662386f26fc1000083106117f657662386f26fc1000083816117ec576117eb6127b2565b5b0492506010810190505b6305f5e100831061181f576305f5e1008381611815576118146127b2565b5b0492506008810190505b612710831061184457612710838161183a576118396127b2565b5b0492506004810190505b60648310611867576064838161185d5761185c6127b2565b5b0492506002810190505b600a8310611876576001810190505b80915050919050565b60008073ffffffffffffffffffffffffffffffffffffffff168373ffffffffffffffffffffffffffffffffffffffff161415801561193757508273ffffffffffffffffffffffffffffffffffffffff168473ffffffffffffffffffffffffffffffffffffffff1614806118f857506118f78484610c04565b5b8061193657508273ffffffffffffffffffffffffffffffffffffffff1661191e83610db0565b73ffffffffffffffffffffffffffffffffffffffff16145b5b90509392505050565b600073ffffffffffffffffffffffffffffffffffffffff168273ffffffffffffffffffffffffffffffffffffffff16036119b25760006040517f64a0ae920000000000000000000000000000000000000000000000000000000081526004016119a99190611c5e565b60405180910390fd5b60006119c083836000610e07565b9050600073ffffffffffffffffffffffffffffffffffffffff168173ffffffffffffffffffffffffffffffffffffffff1614611a345760006040517f73c6ac6e000000000000000000000000000000000000000000000000000000008152600401611a2b9190611c5e565b60405180910390fd5b505050565b6000604051905090565b600080fd5b600080fd5b60007fffffffff0000000000000000000000000000000000000000000000000000000082169050919050565b611a8281611a4d565b8114611a8d57600080fd5b50565b600081359050611a9f81611a79565b92915050565b600060208284031215611abb57611aba611a43565b5b6000611ac984828501611a90565b91505092915050565b60008115159050919050565b611ae781611ad2565b82525050565b6000602082019050611b026000830184611ade565b92915050565b600081519050919050565b600082825260208201905092915050565b60005b83811015611b42578082015181840152602081019050611b27565b60008484015250505050565b6000601f19601f8301169050919050565b6000611b6a82611b08565b611b748185611b13565b9350611b84818560208601611b24565b611b8d81611b4e565b840191505092915050565b60006020820190508181036000830152611bb28184611b5f565b905092915050565b6000819050919050565b611bcd81611bba565b8114611bd857600080fd5b50565b600081359050611bea81611bc4565b92915050565b600060208284031215611c0657611c05611a43565b5b6000611c1484828501611bdb565b91505092915050565b600073ffffffffffffffffffffffffffffffffffffffff82169050919050565b6000611c4882611c1d565b9050919050565b611c5881611c3d565b82525050565b6000602082019050611c736000830184611c4f565b92915050565b611c8281611c3d565b8114611c8d57600080fd5b50565b600081359050611c9f81611c79565b92915050565b60008060408385031215611cbc57611cbb611a43565b5b6000611cca85828601611c90565b9250506020611cdb85828601611bdb565b9150509250929050565b600080600060608486031215611cfe57611cfd611a43565b5b6000611d0c86828701611c90565b9350506020611d1d86828701611c90565b9250506040611d2e86828701611bdb565b9150509250925092565b60008060408385031215611d4f57611d4e611a43565b5b6000611d5d85828601611bdb565b9250506020611d6e85828601611bdb565b9150509250929050565b600080fd5b600080fd5b7f4e487b7100000000000000000000000000000000000000000000000000000000600052604160045260246000fd5b611dba82611b4e565b810181811067ffffffffffffffff82111715611dd957611dd8611d82565b5b80604052505050565b6000611dec611a39565b9050611df88282611db1565b919050565b600067ffffffffffffffff821115611e1857611e17611d82565b5b611e2182611b4e565b9050602081019050919050565b82818337600083830152505050565b6000611e50611e4b84611dfd565b611de2565b905082815260208101848484011115611e6c57611e6b611d7d565b5b611e77848285611e2e565b509392505050565b600082601f830112611e9457611e93611d78565b5b8135611ea4848260208601611e3d565b91505092915050565b600080600060608486031215611ec657611ec5611a43565b5b600084013567ffffffffffffffff811115611ee457611ee3611a48565b5b611ef086828701611e7f565b9350506020611f0186828701611c90565b925050604084013567ffffffffffffffff811115611f2257611f21611a48565b5b611f2e86828701611e7f565b9150509250925092565b600060208284031215611f4e57611f4d611a43565b5b6000611f5c84828501611c90565b91505092915050565b611f6e81611bba565b82525050565b6000602082019050611f896000830184611f65565b92915050565b60006060820190508181036000830152611fa98186611b5f565b9050611fb86020830185611f65565b8181036040830152611fca8184611b5f565b9050949350505050565b611fdd81611ad2565b8114611fe857600080fd5b50565b600081359050611ffa81611fd4565b92915050565b6000806040838503121561201757612016611a43565b5b600061202585828601611c90565b925050602061203685828601611feb565b9150509250929050565b600067ffffffffffffffff82111561205b5761205a611d82565b5b61206482611b4e565b9050602081019050919050565b600061208461207f84612040565b611de2565b9050828152602081018484840111156120a05761209f611d7d565b5b6120ab848285611e2e565b509392505050565b600082601f8301126120c8576120c7611d78565b5b81356120d8848260208601612071565b91505092915050565b600080600080608085870312156120fb576120fa611a43565b5b600061210987828801611c90565b945050602061211a87828801611c90565b935050604061212b87828801611bdb565b925050606085013567ffffffffffffffff81111561214c5761214b611a48565b5b612158878288016120b3565b91505092959194509250565b6000806040838503121561217b5761217a611a43565b5b600061218985828601611c90565b925050602061219a85828601611c90565b9150509250929050565b7f4e487b7100000000000000000000000000000000000000000000000000000000600052602260045260246000fd5b600060028204905060018216806121eb57607f821691505b6020821081036121fe576121fd6121a4565b5b50919050565b60006060820190506122196000830186611c4f565b6122266020830185611f65565b6122336040830184611c4f565b949350505050565b7f4170656e6173206f20646f6e6f20706f646520626174616c68617220636f6d2060008201527f6573746520506f6b656d6f6e0000000000000000000000000000000000000000602082015250565b6000612297602c83611b13565b91506122a28261223b565b604082019050919050565b600060208201905081810360008301526122c68161228a565b9050919050565b7f4e487b7100000000000000000000000000000000000000000000000000000000600052603260045260246000fd5b7f4e487b7100000000000000000000000000000000000000000000000000000000600052601160045260246000fd5b600061233682611bba565b915061234183611bba565b9250828201905080821115612359576123586122fc565b5b92915050565b7f4170656e6173206f20646f6e6f20646f206a6f676f20706f646520637269617260008201527f206e6f766f7320506f6b656d6f6e730000000000000000000000000000000000602082015250565b60006123bb602f83611b13565b91506123c68261235f565b604082019050919050565b600060208201905081810360008301526123ea816123ae565b9050919050565b60008190508160005260206000209050919050565b60006020601f8301049050919050565b600082821b905092915050565b6000600883026124537fffffffffffffffffffffffffffffffffffffffffffffffffffffffffffffffff82612416565b61245d8683612416565b95508019841693508086168417925050509392505050565b6000819050919050565b600061249a61249561249084611bba565b612475565b611bba565b9050919050565b6000819050919050565b6124b48361247f565b6124c86124c0826124a1565b848454612423565b825550505050565b600090565b6124dd6124d0565b6124e88184846124ab565b505050565b5b8181101561250c576125016000826124d5565b6001810190506124ee565b5050565b601f82111561255157612522816123f1565b61252b84612406565b8101602085101561253a578190505b61254e61254685612406565b8301826124ed565b50505b505050565b600082821c905092915050565b600061257460001984600802612556565b1980831691505092915050565b600061258d8383612563565b9150826002028217905092915050565b6125a682611b08565b67ffffffffffffffff8111156125bf576125be611d82565b5b6125c982546121d3565b6125d4828285612510565b600060209050601f83116001811461260757600084156125f5578287015190505b6125ff8582612581565b865550612667565b601f198416612615866123f1565b60005b8281101561263d57848901518255600182019150602085019450602081019050612618565b8683101561265a5784890151612656601f891682612563565b8355505b6001600288020188555050505b505050505050565b600081905092915050565b600061268582611b08565b61268f818561266f565b935061269f818560208601611b24565b80840191505092915050565b60006126b7828561267a565b91506126c3828461267a565b91508190509392505050565b600081519050919050565b600082825260208201905092915050565b60006126f6826126cf565b61270081856126da565b9350612710818560208601611b24565b61271981611b4e565b840191505092915050565b60006080820190506127396000830187611c4f565b6127466020830186611c4f565b6127536040830185611f65565b818103606083015261276581846126eb565b905095945050505050565b60008151905061277f81611a79565b92915050565b60006020828403121561279b5761279a611a43565b5b60006127a984828501612770565b91505092915050565b7f4e487b7100000000000000000000000000000000000000000000000000000000600052601260045260246000fd5b60006040820190506127f66000830185611c4f565b6128036020830184611f65565b939250505056fea2646970667358221220ee4f0fa7428494f2f8e32ed2edee63ae811d9b38045241c3c2223f87ec282cd564736f6c634300081a0033",
					"opcodes": "PUSH1 0x80 PUSH1 0x40 MSTORE CALLVALUE DUP1 ISZERO PUSH2 0x10 JUMPI PUSH1 0x0 DUP1 REVERT JUMPDEST POP PUSH1 0x40 MLOAD DUP1 PUSH1 0x40 ADD PUSH1 0x40 MSTORE DUP1 PUSH1 0x7 DUP2 MSTORE PUSH1 0x20 ADD PUSH32 0x506F6B6544494F00000000000000000000000000000000000000000000000000 DUP2 MSTORE POP PUSH1 0x40 MLOAD DUP1 PUSH1 0x40 ADD PUSH1 0x40 MSTORE DUP1 PUSH1 0x3 DUP2 MSTORE PUSH1 0x20 ADD PUSH32 0x504B440000000000000000000000000000000000000000000000000000000000 DUP2 MSTORE POP DUP2 PUSH1 0x0 SWAP1 DUP2 PUSH2 0x8C SWAP2 SWAP1 PUSH2 0x335 JUMP JUMPDEST POP DUP1 PUSH1 0x1 SWAP1 DUP2 PUSH2 0x9C SWAP2 SWAP1 PUSH2 0x335 JUMP JUMPDEST POP POP POP CALLER PUSH1 0x7 PUSH1 0x0 PUSH2 0x100 EXP DUP2 SLOAD DUP2 PUSH20 0xFFFFFFFFFFFFFFFFFFFFFFFFFFFFFFFFFFFFFFFF MUL NOT AND SWAP1 DUP4 PUSH20 0xFFFFFFFFFFFFFFFFFFFFFFFFFFFFFFFFFFFFFFFF AND MUL OR SWAP1 SSTORE POP PUSH2 0x407 JUMP JUMPDEST PUSH1 0x0 DUP2 MLOAD SWAP1 POP SWAP2 SWAP1 POP JUMP JUMPDEST PUSH32 0x4E487B7100000000000000000000000000000000000000000000000000000000 PUSH1 0x0 MSTORE PUSH1 0x41 PUSH1 0x4 MSTORE PUSH1 0x24 PUSH1 0x0 REVERT JUMPDEST PUSH32 0x4E487B7100000000000000000000000000000000000000000000000000000000 PUSH1 0x0 MSTORE PUSH1 0x22 PUSH1 0x4 MSTORE PUSH1 0x24 PUSH1 0x0 REVERT JUMPDEST PUSH1 0x0 PUSH1 0x2 DUP3 DIV SWAP1 POP PUSH1 0x1 DUP3 AND DUP1 PUSH2 0x166 JUMPI PUSH1 0x7F DUP3 AND SWAP2 POP JUMPDEST PUSH1 0x20 DUP3 LT DUP2 SUB PUSH2 0x179 JUMPI PUSH2 0x178 PUSH2 0x11F JUMP JUMPDEST JUMPDEST POP SWAP2 SWAP1 POP JUMP JUMPDEST PUSH1 0x0 DUP2 SWAP1 POP DUP2 PUSH1 0x0 MSTORE PUSH1 0x20 PUSH1 0x0 KECCAK256 SWAP1 POP SWAP2 SWAP1 POP JUMP JUMPDEST PUSH1 0x0 PUSH1 0x20 PUSH1 0x1F DUP4 ADD DIV SWAP1 POP SWAP2 SWAP1 POP JUMP JUMPDEST PUSH1 0x0 DUP3 DUP3 SHL SWAP1 POP SWAP3 SWAP2 POP POP JUMP JUMPDEST PUSH1 0x0 PUSH1 0x8 DUP4 MUL PUSH2 0x1E1 PUSH32 0xFFFFFFFFFFFFFFFFFFFFFFFFFFFFFFFFFFFFFFFFFFFFFFFFFFFFFFFFFFFFFFFF DUP3 PUSH2 0x1A4 JUMP JUMPDEST PUSH2 0x1EB DUP7 DUP4 PUSH2 0x1A4 JUMP JUMPDEST SWAP6 POP DUP1 NOT DUP5 AND SWAP4 POP DUP1 DUP7 AND DUP5 OR SWAP3 POP POP POP SWAP4 SWAP3 POP POP POP JUMP JUMPDEST PUSH1 0x0 DUP2 SWAP1 POP SWAP2 SWAP1 POP JUMP JUMPDEST PUSH1 0x0 DUP2 SWAP1 POP SWAP2 SWAP1 POP JUMP JUMPDEST PUSH1 0x0 PUSH2 0x232 PUSH2 0x22D PUSH2 0x228 DUP5 PUSH2 0x203 JUMP JUMPDEST PUSH2 0x20D JUMP JUMPDEST PUSH2 0x203 JUMP JUMPDEST SWAP1 POP SWAP2 SWAP1 POP JUMP JUMPDEST PUSH1 0x0 DUP2 SWAP1 POP SWAP2 SWAP1 POP JUMP JUMPDEST PUSH2 0x24C DUP4 PUSH2 0x217 JUMP JUMPDEST PUSH2 0x260 PUSH2 0x258 DUP3 PUSH2 0x239 JUMP JUMPDEST DUP5 DUP5 SLOAD PUSH2 0x1B1 JUMP JUMPDEST DUP3 SSTORE POP POP POP POP JUMP JUMPDEST PUSH1 0x0 SWAP1 JUMP JUMPDEST PUSH2 0x275 PUSH2 0x268 JUMP JUMPDEST PUSH2 0x280 DUP2 DUP5 DUP5 PUSH2 0x243 JUMP JUMPDEST POP POP POP JUMP JUMPDEST JUMPDEST DUP2 DUP2 LT ISZERO PUSH2 0x2A4 JUMPI PUSH2 0x299 PUSH1 0x0 DUP3 PUSH2 0x26D JUMP JUMPDEST PUSH1 0x1 DUP2 ADD SWAP1 POP PUSH2 0x286 JUMP JUMPDEST POP POP JUMP JUMPDEST PUSH1 0x1F DUP3 GT ISZERO PUSH2 0x2E9 JUMPI PUSH2 0x2BA DUP2 PUSH2 0x17F JUMP JUMPDEST PUSH2 0x2C3 DUP5 PUSH2 0x194 JUMP JUMPDEST DUP2 ADD PUSH1 0x20 DUP6 LT ISZERO PUSH2 0x2D2 JUMPI DUP2 SWAP1 POP JUMPDEST PUSH2 0x2E6 PUSH2 0x2DE DUP6 PUSH2 0x194 JUMP JUMPDEST DUP4 ADD DUP3 PUSH2 0x285 JUMP JUMPDEST POP POP JUMPDEST POP POP POP JUMP JUMPDEST PUSH1 0x0 DUP3 DUP3 SHR SWAP1 POP SWAP3 SWAP2 POP POP JUMP JUMPDEST PUSH1 0x0 PUSH2 0x30C PUSH1 0x0 NOT DUP5 PUSH1 0x8 MUL PUSH2 0x2EE JUMP JUMPDEST NOT DUP1 DUP4 AND SWAP2 POP POP SWAP3 SWAP2 POP POP JUMP JUMPDEST PUSH1 0x0 PUSH2 0x325 DUP4 DUP4 PUSH2 0x2FB JUMP JUMPDEST SWAP2 POP DUP3 PUSH1 0x2 MUL DUP3 OR SWAP1 POP SWAP3 SWAP2 POP POP JUMP JUMPDEST PUSH2 0x33E DUP3 PUSH2 0xE5 JUMP JUMPDEST PUSH8 0xFFFFFFFFFFFFFFFF DUP2 GT ISZERO PUSH2 0x357 JUMPI PUSH2 0x356 PUSH2 0xF0 JUMP JUMPDEST JUMPDEST PUSH2 0x361 DUP3 SLOAD PUSH2 0x14E JUMP JUMPDEST PUSH2 0x36C DUP3 DUP3 DUP6 PUSH2 0x2A8 JUMP JUMPDEST PUSH1 0x0 PUSH1 0x20 SWAP1 POP PUSH1 0x1F DUP4 GT PUSH1 0x1 DUP2 EQ PUSH2 0x39F JUMPI PUSH1 0x0 DUP5 ISZERO PUSH2 0x38D JUMPI DUP3 DUP8 ADD MLOAD SWAP1 POP JUMPDEST PUSH2 0x397 DUP6 DUP3 PUSH2 0x319 JUMP JUMPDEST DUP7 SSTORE POP PUSH2 0x3FF JUMP JUMPDEST PUSH1 0x1F NOT DUP5 AND PUSH2 0x3AD DUP7 PUSH2 0x17F JUMP JUMPDEST PUSH1 0x0 JUMPDEST DUP3 DUP2 LT ISZERO PUSH2 0x3D5 JUMPI DUP5 DUP10 ADD MLOAD DUP3 SSTORE PUSH1 0x1 DUP3 ADD SWAP2 POP PUSH1 0x20 DUP6 ADD SWAP5 POP PUSH1 0x20 DUP2 ADD SWAP1 POP PUSH2 0x3B0 JUMP JUMPDEST DUP7 DUP4 LT ISZERO PUSH2 0x3F2 JUMPI DUP5 DUP10 ADD MLOAD PUSH2 0x3EE PUSH1 0x1F DUP10 AND DUP3 PUSH2 0x2FB JUMP JUMPDEST DUP4 SSTORE POP JUMPDEST PUSH1 0x1 PUSH1 0x2 DUP9 MUL ADD DUP9 SSTORE POP POP POP JUMPDEST POP POP POP POP POP POP JUMP JUMPDEST PUSH2 0x2840 DUP1 PUSH2 0x416 PUSH1 0x0 CODECOPY PUSH1 0x0 RETURN INVALID PUSH1 0x80 PUSH1 0x40 MSTORE CALLVALUE DUP1 ISZERO PUSH2 0x10 JUMPI PUSH1 0x0 DUP1 REVERT JUMPDEST POP PUSH1 0x4 CALLDATASIZE LT PUSH2 0x10B JUMPI PUSH1 0x0 CALLDATALOAD PUSH1 0xE0 SHR DUP1 PUSH4 0x6352211E GT PUSH2 0xA2 JUMPI DUP1 PUSH4 0xA22CB465 GT PUSH2 0x71 JUMPI DUP1 PUSH4 0xA22CB465 EQ PUSH2 0x2CA JUMPI DUP1 PUSH4 0xB88D4FDE EQ PUSH2 0x2E6 JUMPI DUP1 PUSH4 0xC87B56DD EQ PUSH2 0x302 JUMPI DUP1 PUSH4 0xE985E9C5 EQ PUSH2 0x332 JUMPI DUP1 PUSH4 0xF6B12F28 EQ PUSH2 0x362 JUMPI PUSH2 0x10B JUMP JUMPDEST DUP1 PUSH4 0x6352211E EQ PUSH2 0x21A JUMPI DUP1 PUSH4 0x70A08231 EQ PUSH2 0x24A JUMPI DUP1 PUSH4 0x85831079 EQ PUSH2 0x27A JUMPI DUP1 PUSH4 0x95D89B41 EQ PUSH2 0x2AC JUMPI PUSH2 0x10B JUMP JUMPDEST DUP1 PUSH4 0x23B872DD GT PUSH2 0xDE JUMPI DUP1 PUSH4 0x23B872DD EQ PUSH2 0x1AA JUMPI DUP1 PUSH4 0x2A0C5221 EQ PUSH2 0x1C6 JUMPI DUP1 PUSH4 0x42842E0E EQ PUSH2 0x1E2 JUMPI DUP1 PUSH4 0x555072DE EQ PUSH2 0x1FE JUMPI PUSH2 0x10B JUMP JUMPDEST DUP1 PUSH4 0x1FFC9A7 EQ PUSH2 0x110 JUMPI DUP1 PUSH4 0x6FDDE03 EQ PUSH2 0x140 JUMPI DUP1 PUSH4 0x81812FC EQ PUSH2 0x15E JUMPI DUP1 PUSH4 0x95EA7B3 EQ PUSH2 0x18E JUMPI JUMPDEST PUSH1 0x0 DUP1 REVERT JUMPDEST PUSH2 0x12A PUSH1 0x4 DUP1 CALLDATASIZE SUB DUP2 ADD SWAP1 PUSH2 0x125 SWAP2 SWAP1 PUSH2 0x1AA5 JUMP JUMPDEST PUSH2 0x380 JUMP JUMPDEST PUSH1 0x40 MLOAD PUSH2 0x137 SWAP2 SWAP1 PUSH2 0x1AED JUMP JUMPDEST PUSH1 0x40 MLOAD DUP1 SWAP2 SUB SWAP1 RETURN JUMPDEST PUSH2 0x148 PUSH2 0x462 JUMP JUMPDEST PUSH1 0x40 MLOAD PUSH2 0x155 SWAP2 SWAP1 PUSH2 0x1B98 JUMP JUMPDEST PUSH1 0x40 MLOAD DUP1 SWAP2 SUB SWAP1 RETURN JUMPDEST PUSH2 0x178 PUSH1 0x4 DUP1 CALLDATASIZE SUB DUP2 ADD SWAP1 PUSH2 0x173 SWAP2 SWAP1 PUSH2 0x1BF0 JUMP JUMPDEST PUSH2 0x4F4 JUMP JUMPDEST PUSH1 0x40 MLOAD PUSH2 0x185 SWAP2 SWAP1 PUSH2 0x1C5E JUMP JUMPDEST PUSH1 0x40 MLOAD DUP1 SWAP2 SUB SWAP1 RETURN JUMPDEST PUSH2 0x1A8 PUSH1 0x4 DUP1 CALLDATASIZE SUB DUP2 ADD SWAP1 PUSH2 0x1A3 SWAP2 SWAP1 PUSH2 0x1CA5 JUMP JUMPDEST PUSH2 0x510 JUMP JUMPDEST STOP JUMPDEST PUSH2 0x1C4 PUSH1 0x4 DUP1 CALLDATASIZE SUB DUP2 ADD SWAP1 PUSH2 0x1BF SWAP2 SWAP1 PUSH2 0x1CE5 JUMP JUMPDEST PUSH2 0x526 JUMP JUMPDEST STOP JUMPDEST PUSH2 0x1E0 PUSH1 0x4 DUP1 CALLDATASIZE SUB DUP2 ADD SWAP1 PUSH2 0x1DB SWAP2 SWAP1 PUSH2 0x1D38 JUMP JUMPDEST PUSH2 0x628 JUMP JUMPDEST STOP JUMPDEST PUSH2 0x1FC PUSH1 0x4 DUP1 CALLDATASIZE SUB DUP2 ADD SWAP1 PUSH2 0x1F7 SWAP2 SWAP1 PUSH2 0x1CE5 JUMP JUMPDEST PUSH2 0x777 JUMP JUMPDEST STOP JUMPDEST PUSH2 0x218 PUSH1 0x4 DUP1 CALLDATASIZE SUB DUP2 ADD SWAP1 PUSH2 0x213 SWAP2 SWAP1 PUSH2 0x1EAD JUMP JUMPDEST PUSH2 0x797 JUMP JUMPDEST STOP JUMPDEST PUSH2 0x234 PUSH1 0x4 DUP1 CALLDATASIZE SUB DUP2 ADD SWAP1 PUSH2 0x22F SWAP2 SWAP1 PUSH2 0x1BF0 JUMP JUMPDEST PUSH2 0x8C0 JUMP JUMPDEST PUSH1 0x40 MLOAD PUSH2 0x241 SWAP2 SWAP1 PUSH2 0x1C5E JUMP JUMPDEST PUSH1 0x40 MLOAD DUP1 SWAP2 SUB SWAP1 RETURN JUMPDEST PUSH2 0x264 PUSH1 0x4 DUP1 CALLDATASIZE SUB DUP2 ADD SWAP1 PUSH2 0x25F SWAP2 SWAP1 PUSH2 0x1F38 JUMP JUMPDEST PUSH2 0x8D2 JUMP JUMPDEST PUSH1 0x40 MLOAD PUSH2 0x271 SWAP2 SWAP1 PUSH2 0x1F74 JUMP JUMPDEST PUSH1 0x40 MLOAD DUP1 SWAP2 SUB SWAP1 RETURN JUMPDEST PUSH2 0x294 PUSH1 0x4 DUP1 CALLDATASIZE SUB DUP2 ADD SWAP1 PUSH2 0x28F SWAP2 SWAP1 PUSH2 0x1BF0 JUMP JUMPDEST PUSH2 0x98C JUMP JUMPDEST PUSH1 0x40 MLOAD PUSH2 0x2A3 SWAP4 SWAP3 SWAP2 SWAP1 PUSH2 0x1F8F JUMP JUMPDEST PUSH1 0x40 MLOAD DUP1 SWAP2 SUB SWAP1 RETURN JUMPDEST PUSH2 0x2B4 PUSH2 0xAD6 JUMP JUMPDEST PUSH1 0x40 MLOAD PUSH2 0x2C1 SWAP2 SWAP1 PUSH2 0x1B98 JUMP JUMPDEST PUSH1 0x40 MLOAD DUP1 SWAP2 SUB SWAP1 RETURN JUMPDEST PUSH2 0x2E4 PUSH1 0x4 DUP1 CALLDATASIZE SUB DUP2 ADD SWAP1 PUSH2 0x2DF SWAP2 SWAP1 PUSH2 0x2000 JUMP JUMPDEST PUSH2 0xB68 JUMP JUMPDEST STOP JUMPDEST PUSH2 0x300 PUSH1 0x4 DUP1 CALLDATASIZE SUB DUP2 ADD SWAP1 PUSH2 0x2FB SWAP2 SWAP1 PUSH2 0x20E1 JUMP JUMPDEST PUSH2 0xB7E JUMP JUMPDEST STOP JUMPDEST PUSH2 0x31C PUSH1 0x4 DUP1 CALLDATASIZE SUB DUP2 ADD SWAP1 PUSH2 0x317 SWAP2 SWAP1 PUSH2 0x1BF0 JUMP JUMPDEST PUSH2 0xB9B JUMP JUMPDEST PUSH1 0x40 MLOAD PUSH2 0x329 SWAP2 SWAP1 PUSH2 0x1B98 JUMP JUMPDEST PUSH1 0x40 MLOAD DUP1 SWAP2 SUB SWAP1 RETURN JUMPDEST PUSH2 0x34C PUSH1 0x4 DUP1 CALLDATASIZE SUB DUP2 ADD SWAP1 PUSH2 0x347 SWAP2 SWAP1 PUSH2 0x2164 JUMP JUMPDEST PUSH2 0xC04 JUMP JUMPDEST PUSH1 0x40 MLOAD PUSH2 0x359 SWAP2 SWAP1 PUSH2 0x1AED JUMP JUMPDEST PUSH1 0x40 MLOAD DUP1 SWAP2 SUB SWAP1 RETURN JUMPDEST PUSH2 0x36A PUSH2 0xC98 JUMP JUMPDEST PUSH1 0x40 MLOAD PUSH2 0x377 SWAP2 SWAP1 PUSH2 0x1C5E JUMP JUMPDEST PUSH1 0x40 MLOAD DUP1 SWAP2 SUB SWAP1 RETURN JUMPDEST PUSH1 0x0 PUSH32 0x80AC58CD00000000000000000000000000000000000000000000000000000000 PUSH28 0xFFFFFFFFFFFFFFFFFFFFFFFFFFFFFFFFFFFFFFFFFFFFFFFFFFFFFFFF NOT AND DUP3 PUSH28 0xFFFFFFFFFFFFFFFFFFFFFFFFFFFFFFFFFFFFFFFFFFFFFFFFFFFFFFFF NOT AND EQ DUP1 PUSH2 0x44B JUMPI POP PUSH32 0x5B5E139F00000000000000000000000000000000000000000000000000000000 PUSH28 0xFFFFFFFFFFFFFFFFFFFFFFFFFFFFFFFFFFFFFFFFFFFFFFFFFFFFFFFF NOT AND DUP3 PUSH28 0xFFFFFFFFFFFFFFFFFFFFFFFFFFFFFFFFFFFFFFFFFFFFFFFFFFFFFFFF NOT AND EQ JUMPDEST DUP1 PUSH2 0x45B JUMPI POP PUSH2 0x45A DUP3 PUSH2 0xCBE JUMP JUMPDEST JUMPDEST SWAP1 POP SWAP2 SWAP1 POP JUMP JUMPDEST PUSH1 0x60 PUSH1 0x0 DUP1 SLOAD PUSH2 0x471 SWAP1 PUSH2 0x21D3 JUMP JUMPDEST DUP1 PUSH1 0x1F ADD PUSH1 0x20 DUP1 SWAP2 DIV MUL PUSH1 0x20 ADD PUSH1 0x40 MLOAD SWAP1 DUP2 ADD PUSH1 0x40 MSTORE DUP1 SWAP3 SWAP2 SWAP1 DUP2 DUP2 MSTORE PUSH1 0x20 ADD DUP3 DUP1 SLOAD PUSH2 0x49D SWAP1 PUSH2 0x21D3 JUMP JUMPDEST DUP1 ISZERO PUSH2 0x4EA JUMPI DUP1 PUSH1 0x1F LT PUSH2 0x4BF JUMPI PUSH2 0x100 DUP1 DUP4 SLOAD DIV MUL DUP4 MSTORE SWAP2 PUSH1 0x20 ADD SWAP2 PUSH2 0x4EA JUMP JUMPDEST DUP3 ADD SWAP2 SWAP1 PUSH1 0x0 MSTORE PUSH1 0x20 PUSH1 0x0 KECCAK256 SWAP1 JUMPDEST DUP2 SLOAD DUP2 MSTORE SWAP1 PUSH1 0x1 ADD SWAP1 PUSH1 0x20 ADD DUP1 DUP4 GT PUSH2 0x4CD JUMPI DUP3 SWAP1 SUB PUSH1 0x1F AND DUP3 ADD SWAP2 JUMPDEST POP POP POP POP POP SWAP1 POP SWAP1 JUMP JUMPDEST PUSH1 0x0 PUSH2 0x4FF DUP3 PUSH2 0xD28 JUMP JUMPDEST POP PUSH2 0x509 DUP3 PUSH2 0xDB0 JUMP JUMPDEST SWAP1 POP SWAP2 SWAP1 POP JUMP JUMPDEST PUSH2 0x522 DUP3 DUP3 PUSH2 0x51D PUSH2 0xDED JUMP JUMPDEST PUSH2 0xDF5 JUMP JUMPDEST POP POP JUMP JUMPDEST PUSH1 0x0 PUSH20 0xFFFFFFFFFFFFFFFFFFFFFFFFFFFFFFFFFFFFFFFF AND DUP3 PUSH20 0xFFFFFFFFFFFFFFFFFFFFFFFFFFFFFFFFFFFFFFFF AND SUB PUSH2 0x598 JUMPI PUSH1 0x0 PUSH1 0x40 MLOAD PUSH32 0x64A0AE9200000000000000000000000000000000000000000000000000000000 DUP2 MSTORE PUSH1 0x4 ADD PUSH2 0x58F SWAP2 SWAP1 PUSH2 0x1C5E JUMP JUMPDEST PUSH1 0x40 MLOAD DUP1 SWAP2 SUB SWAP1 REVERT JUMPDEST PUSH1 0x0 PUSH2 0x5AC DUP4 DUP4 PUSH2 0x5A7 PUSH2 0xDED JUMP JUMPDEST PUSH2 0xE07 JUMP JUMPDEST SWAP1 POP DUP4 PUSH20 0xFFFFFFFFFFFFFFFFFFFFFFFFFFFFFFFFFFFFFFFF AND DUP2 PUSH20 0xFFFFFFFFFFFFFFFFFFFFFFFFFFFFFFFFFFFFFFFF AND EQ PUSH2 0x622 JUMPI DUP4 DUP3 DUP3 PUSH1 0x40 MLOAD PUSH32 0x64283D7B00000000000000000000000000000000000000000000000000000000 DUP2 MSTORE PUSH1 0x4 ADD PUSH2 0x619 SWAP4 SWAP3 SWAP2 SWAP1 PUSH2 0x2204 JUMP JUMPDEST PUSH1 0x40 MLOAD DUP1 SWAP2 SUB SWAP1 REVERT JUMPDEST POP POP POP POP JUMP JUMPDEST DUP2 CALLER PUSH20 0xFFFFFFFFFFFFFFFFFFFFFFFFFFFFFFFFFFFFFFFF AND PUSH2 0x649 DUP3 PUSH2 0x8C0 JUMP JUMPDEST PUSH20 0xFFFFFFFFFFFFFFFFFFFFFFFFFFFFFFFFFFFFFFFF AND EQ PUSH2 0x69F JUMPI PUSH1 0x40 MLOAD PUSH32 0x8C379A000000000000000000000000000000000000000000000000000000000 DUP2 MSTORE PUSH1 0x4 ADD PUSH2 0x696 SWAP1 PUSH2 0x22AD JUMP JUMPDEST PUSH1 0x40 MLOAD DUP1 SWAP2 SUB SWAP1 REVERT JUMPDEST PUSH1 0x0 PUSH1 0x6 DUP5 DUP2 SLOAD DUP2 LT PUSH2 0x6B5 JUMPI PUSH2 0x6B4 PUSH2 0x22CD JUMP JUMPDEST JUMPDEST SWAP1 PUSH1 0x0 MSTORE PUSH1 0x20 PUSH1 0x0 KECCAK256 SWAP1 PUSH1 0x3 MUL ADD SWAP1 POP PUSH1 0x0 PUSH1 0x6 DUP5 DUP2 SLOAD DUP2 LT PUSH2 0x6DB JUMPI PUSH2 0x6DA PUSH2 0x22CD JUMP JUMPDEST JUMPDEST SWAP1 PUSH1 0x0 MSTORE PUSH1 0x20 PUSH1 0x0 KECCAK256 SWAP1 PUSH1 0x3 MUL ADD SWAP1 POP DUP1 PUSH1 0x1 ADD SLOAD DUP3 PUSH1 0x1 ADD SLOAD LT PUSH2 0x737 JUMPI PUSH1 0x2 DUP3 PUSH1 0x1 ADD PUSH1 0x0 DUP3 DUP3 SLOAD PUSH2 0x70F SWAP2 SWAP1 PUSH2 0x232B JUMP JUMPDEST SWAP3 POP POP DUP2 SWAP1 SSTORE POP PUSH1 0x1 DUP2 PUSH1 0x1 ADD PUSH1 0x0 DUP3 DUP3 SLOAD PUSH2 0x72B SWAP2 SWAP1 PUSH2 0x232B JUMP JUMPDEST SWAP3 POP POP DUP2 SWAP1 SSTORE POP PUSH2 0x770 JUMP JUMPDEST PUSH1 0x1 DUP3 PUSH1 0x1 ADD PUSH1 0x0 DUP3 DUP3 SLOAD PUSH2 0x74C SWAP2 SWAP1 PUSH2 0x232B JUMP JUMPDEST SWAP3 POP POP DUP2 SWAP1 SSTORE POP PUSH1 0x2 DUP2 PUSH1 0x1 ADD PUSH1 0x0 DUP3 DUP3 SLOAD PUSH2 0x768 SWAP2 SWAP1 PUSH2 0x232B JUMP JUMPDEST SWAP3 POP POP DUP2 SWAP1 SSTORE POP JUMPDEST POP POP POP POP POP JUMP JUMPDEST PUSH2 0x792 DUP4 DUP4 DUP4 PUSH1 0x40 MLOAD DUP1 PUSH1 0x20 ADD PUSH1 0x40 MSTORE DUP1 PUSH1 0x0 DUP2 MSTORE POP PUSH2 0xB7E JUMP JUMPDEST POP POP POP JUMP JUMPDEST PUSH1 0x7 PUSH1 0x0 SWAP1 SLOAD SWAP1 PUSH2 0x100 EXP SWAP1 DIV PUSH20 0xFFFFFFFFFFFFFFFFFFFFFFFFFFFFFFFFFFFFFFFF AND PUSH20 0xFFFFFFFFFFFFFFFFFFFFFFFFFFFFFFFFFFFFFFFF AND CALLER PUSH20 0xFFFFFFFFFFFFFFFFFFFFFFFFFFFFFFFFFFFFFFFF AND EQ PUSH2 0x827 JUMPI PUSH1 0x40 MLOAD PUSH32 0x8C379A000000000000000000000000000000000000000000000000000000000 DUP2 MSTORE PUSH1 0x4 ADD PUSH2 0x81E SWAP1 PUSH2 0x23D1 JUMP JUMPDEST PUSH1 0x40 MLOAD DUP1 SWAP2 SUB SWAP1 REVERT JUMPDEST PUSH1 0x0 PUSH1 0x6 DUP1 SLOAD SWAP1 POP SWAP1 POP PUSH1 0x6 PUSH1 0x40 MLOAD DUP1 PUSH1 0x60 ADD PUSH1 0x40 MSTORE DUP1 DUP7 DUP2 MSTORE PUSH1 0x20 ADD PUSH1 0x1 DUP2 MSTORE PUSH1 0x20 ADD DUP5 DUP2 MSTORE POP SWAP1 DUP1 PUSH1 0x1 DUP2 SLOAD ADD DUP1 DUP3 SSTORE DUP1 SWAP2 POP POP PUSH1 0x1 SWAP1 SUB SWAP1 PUSH1 0x0 MSTORE PUSH1 0x20 PUSH1 0x0 KECCAK256 SWAP1 PUSH1 0x3 MUL ADD PUSH1 0x0 SWAP1 SWAP2 SWAP1 SWAP2 SWAP1 SWAP2 POP PUSH1 0x0 DUP3 ADD MLOAD DUP2 PUSH1 0x0 ADD SWAP1 DUP2 PUSH2 0x88D SWAP2 SWAP1 PUSH2 0x259D JUMP JUMPDEST POP PUSH1 0x20 DUP3 ADD MLOAD DUP2 PUSH1 0x1 ADD SSTORE PUSH1 0x40 DUP3 ADD MLOAD DUP2 PUSH1 0x2 ADD SWAP1 DUP2 PUSH2 0x8AD SWAP2 SWAP1 PUSH2 0x259D JUMP JUMPDEST POP POP POP PUSH2 0x8BA DUP4 DUP3 PUSH2 0x1021 JUMP JUMPDEST POP POP POP POP JUMP JUMPDEST PUSH1 0x0 PUSH2 0x8CB DUP3 PUSH2 0xD28 JUMP JUMPDEST SWAP1 POP SWAP2 SWAP1 POP JUMP JUMPDEST PUSH1 0x0 DUP1 PUSH20 0xFFFFFFFFFFFFFFFFFFFFFFFFFFFFFFFFFFFFFFFF AND DUP3 PUSH20 0xFFFFFFFFFFFFFFFFFFFFFFFFFFFFFFFFFFFFFFFF AND SUB PUSH2 0x945 JUMPI PUSH1 0x0 PUSH1 0x40 MLOAD PUSH32 0x89C62B6400000000000000000000000000000000000000000000000000000000 DUP2 MSTORE PUSH1 0x4 ADD PUSH2 0x93C SWAP2 SWAP1 PUSH2 0x1C5E JUMP JUMPDEST PUSH1 0x40 MLOAD DUP1 SWAP2 SUB SWAP1 REVERT JUMPDEST PUSH1 0x3 PUSH1 0x0 DUP4 PUSH20 0xFFFFFFFFFFFFFFFFFFFFFFFFFFFFFFFFFFFFFFFF AND PUSH20 0xFFFFFFFFFFFFFFFFFFFFFFFFFFFFFFFFFFFFFFFF AND DUP2 MSTORE PUSH1 0x20 ADD SWAP1 DUP2 MSTORE PUSH1 0x20 ADD PUSH1 0x0 KECCAK256 SLOAD SWAP1 POP SWAP2 SWAP1 POP JUMP JUMPDEST PUSH1 0x6 DUP2 DUP2 SLOAD DUP2 LT PUSH2 0x99C JUMPI PUSH1 0x0 DUP1 REVERT JUMPDEST SWAP1 PUSH1 0x0 MSTORE PUSH1 0x20 PUSH1 0x0 KECCAK256 SWAP1 PUSH1 0x3 MUL ADD PUSH1 0x0 SWAP2 POP SWAP1 POP DUP1 PUSH1 0x0 ADD DUP1 SLOAD PUSH2 0x9BF SWAP1 PUSH2 0x21D3 JUMP JUMPDEST DUP1 PUSH1 0x1F ADD PUSH1 0x20 DUP1 SWAP2 DIV MUL PUSH1 0x20 ADD PUSH1 0x40 MLOAD SWAP1 DUP2 ADD PUSH1 0x40 MSTORE DUP1 SWAP3 SWAP2 SWAP1 DUP2 DUP2 MSTORE PUSH1 0x20 ADD DUP3 DUP1 SLOAD PUSH2 0x9EB SWAP1 PUSH2 0x21D3 JUMP JUMPDEST DUP1 ISZERO PUSH2 0xA38 JUMPI DUP1 PUSH1 0x1F LT PUSH2 0xA0D JUMPI PUSH2 0x100 DUP1 DUP4 SLOAD DIV MUL DUP4 MSTORE SWAP2 PUSH1 0x20 ADD SWAP2 PUSH2 0xA38 JUMP JUMPDEST DUP3 ADD SWAP2 SWAP1 PUSH1 0x0 MSTORE PUSH1 0x20 PUSH1 0x0 KECCAK256 SWAP1 JUMPDEST DUP2 SLOAD DUP2 MSTORE SWAP1 PUSH1 0x1 ADD SWAP1 PUSH1 0x20 ADD DUP1 DUP4 GT PUSH2 0xA1B JUMPI DUP3 SWAP1 SUB PUSH1 0x1F AND DUP3 ADD SWAP2 JUMPDEST POP POP POP POP POP SWAP1 DUP1 PUSH1 0x1 ADD SLOAD SWAP1 DUP1 PUSH1 0x2 ADD DUP1 SLOAD PUSH2 0xA53 SWAP1 PUSH2 0x21D3 JUMP JUMPDEST DUP1 PUSH1 0x1F ADD PUSH1 0x20 DUP1 SWAP2 DIV MUL PUSH1 0x20 ADD PUSH1 0x40 MLOAD SWAP1 DUP2 ADD PUSH1 0x40 MSTORE DUP1 SWAP3 SWAP2 SWAP1 DUP2 DUP2 MSTORE PUSH1 0x20 ADD DUP3 DUP1 SLOAD PUSH2 0xA7F SWAP1 PUSH2 0x21D3 JUMP JUMPDEST DUP1 ISZERO PUSH2 0xACC JUMPI DUP1 PUSH1 0x1F LT PUSH2 0xAA1 JUMPI PUSH2 0x100 DUP1 DUP4 SLOAD DIV MUL DUP4 MSTORE SWAP2 PUSH1 0x20 ADD SWAP2 PUSH2 0xACC JUMP JUMPDEST DUP3 ADD SWAP2 SWAP1 PUSH1 0x0 MSTORE PUSH1 0x20 PUSH1 0x0 KECCAK256 SWAP1 JUMPDEST DUP2 SLOAD DUP2 MSTORE SWAP1 PUSH1 0x1 ADD SWAP1 PUSH1 0x20 ADD DUP1 DUP4 GT PUSH2 0xAAF JUMPI DUP3 SWAP1 SUB PUSH1 0x1F AND DUP3 ADD SWAP2 JUMPDEST POP POP POP POP POP SWAP1 POP DUP4 JUMP JUMPDEST PUSH1 0x60 PUSH1 0x1 DUP1 SLOAD PUSH2 0xAE5 SWAP1 PUSH2 0x21D3 JUMP JUMPDEST DUP1 PUSH1 0x1F ADD PUSH1 0x20 DUP1 SWAP2 DIV MUL PUSH1 0x20 ADD PUSH1 0x40 MLOAD SWAP1 DUP2 ADD PUSH1 0x40 MSTORE DUP1 SWAP3 SWAP2 SWAP1 DUP2 DUP2 MSTORE PUSH1 0x20 ADD DUP3 DUP1 SLOAD PUSH2 0xB11 SWAP1 PUSH2 0x21D3 JUMP JUMPDEST DUP1 ISZERO PUSH2 0xB5E JUMPI DUP1 PUSH1 0x1F LT PUSH2 0xB33 JUMPI PUSH2 0x100 DUP1 DUP4 SLOAD DIV MUL DUP4 MSTORE SWAP2 PUSH1 0x20 ADD SWAP2 PUSH2 0xB5E JUMP JUMPDEST DUP3 ADD SWAP2 SWAP1 PUSH1 0x0 MSTORE PUSH1 0x20 PUSH1 0x0 KECCAK256 SWAP1 JUMPDEST DUP2 SLOAD DUP2 MSTORE SWAP1 PUSH1 0x1 ADD SWAP1 PUSH1 0x20 ADD DUP1 DUP4 GT PUSH2 0xB41 JUMPI DUP3 SWAP1 SUB PUSH1 0x1F AND DUP3 ADD SWAP2 JUMPDEST POP POP POP POP POP SWAP1 POP SWAP1 JUMP JUMPDEST PUSH2 0xB7A PUSH2 0xB73 PUSH2 0xDED JUMP JUMPDEST DUP4 DUP4 PUSH2 0x103F JUMP JUMPDEST POP POP JUMP JUMPDEST PUSH2 0xB89 DUP5 DUP5 DUP5 PUSH2 0x526 JUMP JUMPDEST PUSH2 0xB95 DUP5 DUP5 DUP5 DUP5 PUSH2 0x11AE JUMP JUMPDEST POP POP POP POP JUMP JUMPDEST PUSH1 0x60 PUSH2 0xBA6 DUP3 PUSH2 0xD28 JUMP JUMPDEST POP PUSH1 0x0 PUSH2 0xBB1 PUSH2 0x1365 JUMP JUMPDEST SWAP1 POP PUSH1 0x0 DUP2 MLOAD GT PUSH2 0xBD1 JUMPI PUSH1 0x40 MLOAD DUP1 PUSH1 0x20 ADD PUSH1 0x40 MSTORE DUP1 PUSH1 0x0 DUP2 MSTORE POP PUSH2 0xBFC JUMP JUMPDEST DUP1 PUSH2 0xBDB DUP5 PUSH2 0x137C JUMP JUMPDEST PUSH1 0x40 MLOAD PUSH1 0x20 ADD PUSH2 0xBEC SWAP3 SWAP2 SWAP1 PUSH2 0x26AB JUMP JUMPDEST PUSH1 0x40 MLOAD PUSH1 0x20 DUP2 DUP4 SUB SUB DUP2 MSTORE SWAP1 PUSH1 0x40 MSTORE JUMPDEST SWAP2 POP POP SWAP2 SWAP1 POP JUMP JUMPDEST PUSH1 0x0 PUSH1 0x5 PUSH1 0x0 DUP5 PUSH20 0xFFFFFFFFFFFFFFFFFFFFFFFFFFFFFFFFFFFFFFFF AND PUSH20 0xFFFFFFFFFFFFFFFFFFFFFFFFFFFFFFFFFFFFFFFF AND DUP2 MSTORE PUSH1 0x20 ADD SWAP1 DUP2 MSTORE PUSH1 0x20 ADD PUSH1 0x0 KECCAK256 PUSH1 0x0 DUP4 PUSH20 0xFFFFFFFFFFFFFFFFFFFFFFFFFFFFFFFFFFFFFFFF AND PUSH20 0xFFFFFFFFFFFFFFFFFFFFFFFFFFFFFFFFFFFFFFFF AND DUP2 MSTORE PUSH1 0x20 ADD SWAP1 DUP2 MSTORE PUSH1 0x20 ADD PUSH1 0x0 KECCAK256 PUSH1 0x0 SWAP1 SLOAD SWAP1 PUSH2 0x100 EXP SWAP1 DIV PUSH1 0xFF AND SWAP1 POP SWAP3 SWAP2 POP POP JUMP JUMPDEST PUSH1 0x7 PUSH1 0x0 SWAP1 SLOAD SWAP1 PUSH2 0x100 EXP SWAP1 DIV PUSH20 0xFFFFFFFFFFFFFFFFFFFFFFFFFFFFFFFFFFFFFFFF AND DUP2 JUMP JUMPDEST PUSH1 0x0 PUSH32 0x1FFC9A700000000000000000000000000000000000000000000000000000000 PUSH28 0xFFFFFFFFFFFFFFFFFFFFFFFFFFFFFFFFFFFFFFFFFFFFFFFFFFFFFFFF NOT AND DUP3 PUSH28 0xFFFFFFFFFFFFFFFFFFFFFFFFFFFFFFFFFFFFFFFFFFFFFFFFFFFFFFFF NOT AND EQ SWAP1 POP SWAP2 SWAP1 POP JUMP JUMPDEST PUSH1 0x0 DUP1 PUSH2 0xD34 DUP4 PUSH2 0x144A JUMP JUMPDEST SWAP1 POP PUSH1 0x0 PUSH20 0xFFFFFFFFFFFFFFFFFFFFFFFFFFFFFFFFFFFFFFFF AND DUP2 PUSH20 0xFFFFFFFFFFFFFFFFFFFFFFFFFFFFFFFFFFFFFFFF AND SUB PUSH2 0xDA7 JUMPI DUP3 PUSH1 0x40 MLOAD PUSH32 0x7E27328900000000000000000000000000000000000000000000000000000000 DUP2 MSTORE PUSH1 0x4 ADD PUSH2 0xD9E SWAP2 SWAP1 PUSH2 0x1F74 JUMP JUMPDEST PUSH1 0x40 MLOAD DUP1 SWAP2 SUB SWAP1 REVERT JUMPDEST DUP1 SWAP2 POP POP SWAP2 SWAP1 POP JUMP JUMPDEST PUSH1 0x0 PUSH1 0x4 PUSH1 0x0 DUP4 DUP2 MSTORE PUSH1 0x20 ADD SWAP1 DUP2 MSTORE PUSH1 0x20 ADD PUSH1 0x0 KECCAK256 PUSH1 0x0 SWAP1 SLOAD SWAP1 PUSH2 0x100 EXP SWAP1 DIV PUSH20 0xFFFFFFFFFFFFFFFFFFFFFFFFFFFFFFFFFFFFFFFF AND SWAP1 POP SWAP2 SWAP1 POP JUMP JUMPDEST PUSH1 0x0 CALLER SWAP1 POP SWAP1 JUMP JUMPDEST PUSH2 0xE02 DUP4 DUP4 DUP4 PUSH1 0x1 PUSH2 0x1487 JUMP JUMPDEST POP POP POP JUMP JUMPDEST PUSH1 0x0 DUP1 PUSH2 0xE13 DUP5 PUSH2 0x144A JUMP JUMPDEST SWAP1 POP PUSH1 0x0 PUSH20 0xFFFFFFFFFFFFFFFFFFFFFFFFFFFFFFFFFFFFFFFF AND DUP4 PUSH20 0xFFFFFFFFFFFFFFFFFFFFFFFFFFFFFFFFFFFFFFFF AND EQ PUSH2 0xE55 JUMPI PUSH2 0xE54 DUP2 DUP5 DUP7 PUSH2 0x164C JUMP JUMPDEST JUMPDEST PUSH1 0x0 PUSH20 0xFFFFFFFFFFFFFFFFFFFFFFFFFFFFFFFFFFFFFFFF AND DUP2 PUSH20 0xFFFFFFFFFFFFFFFFFFFFFFFFFFFFFFFFFFFFFFFF AND EQ PUSH2 0xEE6 JUMPI PUSH2 0xE97 PUSH1 0x0 DUP6 PUSH1 0x0 DUP1 PUSH2 0x1487 JUMP JUMPDEST PUSH1 0x1 PUSH1 0x3 PUSH1 0x0 DUP4 PUSH20 0xFFFFFFFFFFFFFFFFFFFFFFFFFFFFFFFFFFFFFFFF AND PUSH20 0xFFFFFFFFFFFFFFFFFFFFFFFFFFFFFFFFFFFFFFFF AND DUP2 MSTORE PUSH1 0x20 ADD SWAP1 DUP2 MSTORE PUSH1 0x20 ADD PUSH1 0x0 KECCAK256 PUSH1 0x0 DUP3 DUP3 SLOAD SUB SWAP3 POP POP DUP2 SWAP1 SSTORE POP JUMPDEST PUSH1 0x0 PUSH20 0xFFFFFFFFFFFFFFFFFFFFFFFFFFFFFFFFFFFFFFFF AND DUP6 PUSH20 0xFFFFFFFFFFFFFFFFFFFFFFFFFFFFFFFFFFFFFFFF AND EQ PUSH2 0xF69 JUMPI PUSH1 0x1 PUSH1 0x3 PUSH1 0x0 DUP8 PUSH20 0xFFFFFFFFFFFFFFFFFFFFFFFFFFFFFFFFFFFFFFFF AND PUSH20 0xFFFFFFFFFFFFFFFFFFFFFFFFFFFFFFFFFFFFFFFF AND DUP2 MSTORE PUSH1 0x20 ADD SWAP1 DUP2 MSTORE PUSH1 0x20 ADD PUSH1 0x0 KECCAK256 PUSH1 0x0 DUP3 DUP3 SLOAD ADD SWAP3 POP POP DUP2 SWAP1 SSTORE POP JUMPDEST DUP5 PUSH1 0x2 PUSH1 0x0 DUP7 DUP2 MSTORE PUSH1 0x20 ADD SWAP1 DUP2 MSTORE PUSH1 0x20 ADD PUSH1 0x0 KECCAK256 PUSH1 0x0 PUSH2 0x100 EXP DUP2 SLOAD DUP2 PUSH20 0xFFFFFFFFFFFFFFFFFFFFFFFFFFFFFFFFFFFFFFFF MUL NOT AND SWAP1 DUP4 PUSH20 0xFFFFFFFFFFFFFFFFFFFFFFFFFFFFFFFFFFFFFFFF AND MUL OR SWAP1 SSTORE POP DUP4 DUP6 PUSH20 0xFFFFFFFFFFFFFFFFFFFFFFFFFFFFFFFFFFFFFFFF AND DUP3 PUSH20 0xFFFFFFFFFFFFFFFFFFFFFFFFFFFFFFFFFFFFFFFF AND PUSH32 0xDDF252AD1BE2C89B69C2B068FC378DAA952BA7F163C4A11628F55A4DF523B3EF PUSH1 0x40 MLOAD PUSH1 0x40 MLOAD DUP1 SWAP2 SUB SWAP1 LOG4 DUP1 SWAP2 POP POP SWAP4 SWAP3 POP POP POP JUMP JUMPDEST PUSH2 0x103B DUP3 DUP3 PUSH1 0x40 MLOAD DUP1 PUSH1 0x20 ADD PUSH1 0x40 MSTORE DUP1 PUSH1 0x0 DUP2 MSTORE POP PUSH2 0x1710 JUMP JUMPDEST POP POP JUMP JUMPDEST PUSH1 0x0 PUSH20 0xFFFFFFFFFFFFFFFFFFFFFFFFFFFFFFFFFFFFFFFF AND DUP3 PUSH20 0xFFFFFFFFFFFFFFFFFFFFFFFFFFFFFFFFFFFFFFFF AND SUB PUSH2 0x10B0 JUMPI DUP2 PUSH1 0x40 MLOAD PUSH32 0x5B08BA1800000000000000000000000000000000000000000000000000000000 DUP2 MSTORE PUSH1 0x4 ADD PUSH2 0x10A7 SWAP2 SWAP1 PUSH2 0x1C5E JUMP JUMPDEST PUSH1 0x40 MLOAD DUP1 SWAP2 SUB SWAP1 REVERT JUMPDEST DUP1 PUSH1 0x5 PUSH1 0x0 DUP6 PUSH20 0xFFFFFFFFFFFFFFFFFFFFFFFFFFFFFFFFFFFFFFFF AND PUSH20 0xFFFFFFFFFFFFFFFFFFFFFFFFFFFFFFFFFFFFFFFF AND DUP2 MSTORE PUSH1 0x20 ADD SWAP1 DUP2 MSTORE PUSH1 0x20 ADD PUSH1 0x0 KECCAK256 PUSH1 0x0 DUP5 PUSH20 0xFFFFFFFFFFFFFFFFFFFFFFFFFFFFFFFFFFFFFFFF AND PUSH20 0xFFFFFFFFFFFFFFFFFFFFFFFFFFFFFFFFFFFFFFFF AND DUP2 MSTORE PUSH1 0x20 ADD SWAP1 DUP2 MSTORE PUSH1 0x20 ADD PUSH1 0x0 KECCAK256 PUSH1 0x0 PUSH2 0x100 EXP DUP2 SLOAD DUP2 PUSH1 0xFF MUL NOT AND SWAP1 DUP4 ISZERO ISZERO MUL OR SWAP1 SSTORE POP DUP2 PUSH20 0xFFFFFFFFFFFFFFFFFFFFFFFFFFFFFFFFFFFFFFFF AND DUP4 PUSH20 0xFFFFFFFFFFFFFFFFFFFFFFFFFFFFFFFFFFFFFFFF AND PUSH32 0x17307EAB39AB6107E8899845AD3D59BD9653F200F220920489CA2B5937696C31 DUP4 PUSH1 0x40 MLOAD PUSH2 0x11A1 SWAP2 SWAP1 PUSH2 0x1AED JUMP JUMPDEST PUSH1 0x40 MLOAD DUP1 SWAP2 SUB SWAP1 LOG3 POP POP POP JUMP JUMPDEST PUSH1 0x0 DUP4 PUSH20 0xFFFFFFFFFFFFFFFFFFFFFFFFFFFFFFFFFFFFFFFF AND EXTCODESIZE GT ISZERO PUSH2 0x135F JUMPI DUP3 PUSH20 0xFFFFFFFFFFFFFFFFFFFFFFFFFFFFFFFFFFFFFFFF AND PUSH4 0x150B7A02 PUSH2 0x11F2 PUSH2 0xDED JUMP JUMPDEST DUP7 DUP6 DUP6 PUSH1 0x40 MLOAD DUP6 PUSH4 0xFFFFFFFF AND PUSH1 0xE0 SHL DUP2 MSTORE PUSH1 0x4 ADD PUSH2 0x1214 SWAP5 SWAP4 SWAP3 SWAP2 SWAP1 PUSH2 0x2724 JUMP JUMPDEST PUSH1 0x20 PUSH1 0x40 MLOAD DUP1 DUP4 SUB DUP2 PUSH1 0x0 DUP8 GAS CALL SWAP3 POP POP POP DUP1 ISZERO PUSH2 0x1250 JUMPI POP PUSH1 0x40 MLOAD RETURNDATASIZE PUSH1 0x1F NOT PUSH1 0x1F DUP3 ADD AND DUP3 ADD DUP1 PUSH1 0x40 MSTORE POP DUP2 ADD SWAP1 PUSH2 0x124D SWAP2 SWAP1 PUSH2 0x2785 JUMP JUMPDEST PUSH1 0x1 JUMPDEST PUSH2 0x12D4 JUMPI RETURNDATASIZE DUP1 PUSH1 0x0 DUP2 EQ PUSH2 0x1280 JUMPI PUSH1 0x40 MLOAD SWAP2 POP PUSH1 0x1F NOT PUSH1 0x3F RETURNDATASIZE ADD AND DUP3 ADD PUSH1 0x40 MSTORE RETURNDATASIZE DUP3 MSTORE RETURNDATASIZE PUSH1 0x0 PUSH1 0x20 DUP5 ADD RETURNDATACOPY PUSH2 0x1285 JUMP JUMPDEST PUSH1 0x60 SWAP2 POP JUMPDEST POP PUSH1 0x0 DUP2 MLOAD SUB PUSH2 0x12CC JUMPI DUP4 PUSH1 0x40 MLOAD PUSH32 0x64A0AE9200000000000000000000000000000000000000000000000000000000 DUP2 MSTORE PUSH1 0x4 ADD PUSH2 0x12C3 SWAP2 SWAP1 PUSH2 0x1C5E JUMP JUMPDEST PUSH1 0x40 MLOAD DUP1 SWAP2 SUB SWAP1 REVERT JUMPDEST DUP1 MLOAD DUP2 PUSH1 0x20 ADD REVERT JUMPDEST PUSH4 0x150B7A02 PUSH1 0xE0 SHL PUSH28 0xFFFFFFFFFFFFFFFFFFFFFFFFFFFFFFFFFFFFFFFFFFFFFFFFFFFFFFFF NOT AND DUP2 PUSH28 0xFFFFFFFFFFFFFFFFFFFFFFFFFFFFFFFFFFFFFFFFFFFFFFFFFFFFFFFF NOT AND EQ PUSH2 0x135D JUMPI DUP4 PUSH1 0x40 MLOAD PUSH32 0x64A0AE9200000000000000000000000000000000000000000000000000000000 DUP2 MSTORE PUSH1 0x4 ADD PUSH2 0x1354 SWAP2 SWAP1 PUSH2 0x1C5E JUMP JUMPDEST PUSH1 0x40 MLOAD DUP1 SWAP2 SUB SWAP1 REVERT JUMPDEST POP JUMPDEST POP POP POP POP JUMP JUMPDEST PUSH1 0x60 PUSH1 0x40 MLOAD DUP1 PUSH1 0x20 ADD PUSH1 0x40 MSTORE DUP1 PUSH1 0x0 DUP2 MSTORE POP SWAP1 POP SWAP1 JUMP JUMPDEST PUSH1 0x60 PUSH1 0x0 PUSH1 0x1 PUSH2 0x138B DUP5 PUSH2 0x172C JUMP JUMPDEST ADD SWAP1 POP PUSH1 0x0 DUP2 PUSH8 0xFFFFFFFFFFFFFFFF DUP2 GT ISZERO PUSH2 0x13AA JUMPI PUSH2 0x13A9 PUSH2 0x1D82 JUMP JUMPDEST JUMPDEST PUSH1 0x40 MLOAD SWAP1 DUP1 DUP3 MSTORE DUP1 PUSH1 0x1F ADD PUSH1 0x1F NOT AND PUSH1 0x20 ADD DUP3 ADD PUSH1 0x40 MSTORE DUP1 ISZERO PUSH2 0x13DC JUMPI DUP2 PUSH1 0x20 ADD PUSH1 0x1 DUP3 MUL DUP1 CALLDATASIZE DUP4 CALLDATACOPY DUP1 DUP3 ADD SWAP2 POP POP SWAP1 POP JUMPDEST POP SWAP1 POP PUSH1 0x0 DUP3 PUSH1 0x20 ADD DUP3 ADD SWAP1 POP JUMPDEST PUSH1 0x1 ISZERO PUSH2 0x143F JUMPI DUP1 DUP1 PUSH1 0x1 SWAP1 SUB SWAP2 POP POP PUSH32 0x3031323334353637383961626364656600000000000000000000000000000000 PUSH1 0xA DUP7 MOD BYTE DUP2 MSTORE8 PUSH1 0xA DUP6 DUP2 PUSH2 0x1433 JUMPI PUSH2 0x1432 PUSH2 0x27B2 JUMP JUMPDEST JUMPDEST DIV SWAP5 POP PUSH1 0x0 DUP6 SUB PUSH2 0x13EA JUMPI JUMPDEST DUP2 SWAP4 POP POP POP POP SWAP2 SWAP1 POP JUMP JUMPDEST PUSH1 0x0 PUSH1 0x2 PUSH1 0x0 DUP4 DUP2 MSTORE PUSH1 0x20 ADD SWAP1 DUP2 MSTORE PUSH1 0x20 ADD PUSH1 0x0 KECCAK256 PUSH1 0x0 SWAP1 SLOAD SWAP1 PUSH2 0x100 EXP SWAP1 DIV PUSH20 0xFFFFFFFFFFFFFFFFFFFFFFFFFFFFFFFFFFFFFFFF AND SWAP1 POP SWAP2 SWAP1 POP JUMP JUMPDEST DUP1 DUP1 PUSH2 0x14C0 JUMPI POP PUSH1 0x0 PUSH20 0xFFFFFFFFFFFFFFFFFFFFFFFFFFFFFFFFFFFFFFFF AND DUP3 PUSH20 0xFFFFFFFFFFFFFFFFFFFFFFFFFFFFFFFFFFFFFFFF AND EQ ISZERO JUMPDEST ISZERO PUSH2 0x15F4 JUMPI PUSH1 0x0 PUSH2 0x14D0 DUP5 PUSH2 0xD28 JUMP JUMPDEST SWAP1 POP PUSH1 0x0 PUSH20 0xFFFFFFFFFFFFFFFFFFFFFFFFFFFFFFFFFFFFFFFF AND DUP4 PUSH20 0xFFFFFFFFFFFFFFFFFFFFFFFFFFFFFFFFFFFFFFFF AND EQ ISZERO DUP1 ISZERO PUSH2 0x153B JUMPI POP DUP3 PUSH20 0xFFFFFFFFFFFFFFFFFFFFFFFFFFFFFFFFFFFFFFFF AND DUP2 PUSH20 0xFFFFFFFFFFFFFFFFFFFFFFFFFFFFFFFFFFFFFFFF AND EQ ISZERO JUMPDEST DUP1 ISZERO PUSH2 0x154E JUMPI POP PUSH2 0x154C DUP2 DUP5 PUSH2 0xC04 JUMP JUMPDEST ISZERO JUMPDEST ISZERO PUSH2 0x1590 JUMPI DUP3 PUSH1 0x40 MLOAD PUSH32 0xA9FBF51F00000000000000000000000000000000000000000000000000000000 DUP2 MSTORE PUSH1 0x4 ADD PUSH2 0x1587 SWAP2 SWAP1 PUSH2 0x1C5E JUMP JUMPDEST PUSH1 0x40 MLOAD DUP1 SWAP2 SUB SWAP1 REVERT JUMPDEST DUP2 ISZERO PUSH2 0x15F2 JUMPI DUP4 DUP6 PUSH20 0xFFFFFFFFFFFFFFFFFFFFFFFFFFFFFFFFFFFFFFFF AND DUP3 PUSH20 0xFFFFFFFFFFFFFFFFFFFFFFFFFFFFFFFFFFFFFFFF AND PUSH32 0x8C5BE1E5EBEC7D5BD14F71427D1E84F3DD0314C0F7B2291E5B200AC8C7C3B925 PUSH1 0x40 MLOAD PUSH1 0x40 MLOAD DUP1 SWAP2 SUB SWAP1 LOG4 JUMPDEST POP JUMPDEST DUP4 PUSH1 0x4 PUSH1 0x0 DUP6 DUP2 MSTORE PUSH1 0x20 ADD SWAP1 DUP2 MSTORE PUSH1 0x20 ADD PUSH1 0x0 KECCAK256 PUSH1 0x0 PUSH2 0x100 EXP DUP2 SLOAD DUP2 PUSH20 0xFFFFFFFFFFFFFFFFFFFFFFFFFFFFFFFFFFFFFFFF MUL NOT AND SWAP1 DUP4 PUSH20 0xFFFFFFFFFFFFFFFFFFFFFFFFFFFFFFFFFFFFFFFF AND MUL OR SWAP1 SSTORE POP POP POP POP POP JUMP JUMPDEST PUSH2 0x1657 DUP4 DUP4 DUP4 PUSH2 0x187F JUMP JUMPDEST PUSH2 0x170B JUMPI PUSH1 0x0 PUSH20 0xFFFFFFFFFFFFFFFFFFFFFFFFFFFFFFFFFFFFFFFF AND DUP4 PUSH20 0xFFFFFFFFFFFFFFFFFFFFFFFFFFFFFFFFFFFFFFFF AND SUB PUSH2 0x16CC JUMPI DUP1 PUSH1 0x40 MLOAD PUSH32 0x7E27328900000000000000000000000000000000000000000000000000000000 DUP2 MSTORE PUSH1 0x4 ADD PUSH2 0x16C3 SWAP2 SWAP1 PUSH2 0x1F74 JUMP JUMPDEST PUSH1 0x40 MLOAD DUP1 SWAP2 SUB SWAP1 REVERT JUMPDEST DUP2 DUP2 PUSH1 0x40 MLOAD PUSH32 0x177E802F00000000000000000000000000000000000000000000000000000000 DUP2 MSTORE PUSH1 0x4 ADD PUSH2 0x1702 SWAP3 SWAP2 SWAP1 PUSH2 0x27E1 JUMP JUMPDEST PUSH1 0x40 MLOAD DUP1 SWAP2 SUB SWAP1 REVERT JUMPDEST POP POP POP JUMP JUMPDEST PUSH2 0x171A DUP4 DUP4 PUSH2 0x1940 JUMP JUMPDEST PUSH2 0x1727 PUSH1 0x0 DUP5 DUP5 DUP5 PUSH2 0x11AE JUMP JUMPDEST POP POP POP JUMP JUMPDEST PUSH1 0x0 DUP1 PUSH1 0x0 SWAP1 POP PUSH27 0x184F03E93FF9F4DAA797ED6E38ED64BF6A1F010000000000000000 DUP4 LT PUSH2 0x178A JUMPI PUSH27 0x184F03E93FF9F4DAA797ED6E38ED64BF6A1F010000000000000000 DUP4 DUP2 PUSH2 0x1780 JUMPI PUSH2 0x177F PUSH2 0x27B2 JUMP JUMPDEST JUMPDEST DIV SWAP3 POP PUSH1 0x40 DUP2 ADD SWAP1 POP JUMPDEST PUSH14 0x4EE2D6D415B85ACEF8100000000 DUP4 LT PUSH2 0x17C7 JUMPI PUSH14 0x4EE2D6D415B85ACEF8100000000 DUP4 DUP2 PUSH2 0x17BD JUMPI PUSH2 0x17BC PUSH2 0x27B2 JUMP JUMPDEST JUMPDEST DIV SWAP3 POP PUSH1 0x20 DUP2 ADD SWAP1 POP JUMPDEST PUSH7 0x2386F26FC10000 DUP4 LT PUSH2 0x17F6 JUMPI PUSH7 0x2386F26FC10000 DUP4 DUP2 PUSH2 0x17EC JUMPI PUSH2 0x17EB PUSH2 0x27B2 JUMP JUMPDEST JUMPDEST DIV SWAP3 POP PUSH1 0x10 DUP2 ADD SWAP1 POP JUMPDEST PUSH4 0x5F5E100 DUP4 LT PUSH2 0x181F JUMPI PUSH4 0x5F5E100 DUP4 DUP2 PUSH2 0x1815 JUMPI PUSH2 0x1814 PUSH2 0x27B2 JUMP JUMPDEST JUMPDEST DIV SWAP3 POP PUSH1 0x8 DUP2 ADD SWAP1 POP JUMPDEST PUSH2 0x2710 DUP4 LT PUSH2 0x1844 JUMPI PUSH2 0x2710 DUP4 DUP2 PUSH2 0x183A JUMPI PUSH2 0x1839 PUSH2 0x27B2 JUMP JUMPDEST JUMPDEST DIV SWAP3 POP PUSH1 0x4 DUP2 ADD SWAP1 POP JUMPDEST PUSH1 0x64 DUP4 LT PUSH2 0x1867 JUMPI PUSH1 0x64 DUP4 DUP2 PUSH2 0x185D JUMPI PUSH2 0x185C PUSH2 0x27B2 JUMP JUMPDEST JUMPDEST DIV SWAP3 POP PUSH1 0x2 DUP2 ADD SWAP1 POP JUMPDEST PUSH1 0xA DUP4 LT PUSH2 0x1876 JUMPI PUSH1 0x1 DUP2 ADD SWAP1 POP JUMPDEST DUP1 SWAP2 POP POP SWAP2 SWAP1 POP JUMP JUMPDEST PUSH1 0x0 DUP1 PUSH20 0xFFFFFFFFFFFFFFFFFFFFFFFFFFFFFFFFFFFFFFFF AND DUP4 PUSH20 0xFFFFFFFFFFFFFFFFFFFFFFFFFFFFFFFFFFFFFFFF AND EQ ISZERO DUP1 ISZERO PUSH2 0x1937 JUMPI POP DUP3 PUSH20 0xFFFFFFFFFFFFFFFFFFFFFFFFFFFFFFFFFFFFFFFF AND DUP5 PUSH20 0xFFFFFFFFFFFFFFFFFFFFFFFFFFFFFFFFFFFFFFFF AND EQ DUP1 PUSH2 0x18F8 JUMPI POP PUSH2 0x18F7 DUP5 DUP5 PUSH2 0xC04 JUMP JUMPDEST JUMPDEST DUP1 PUSH2 0x1936 JUMPI POP DUP3 PUSH20 0xFFFFFFFFFFFFFFFFFFFFFFFFFFFFFFFFFFFFFFFF AND PUSH2 0x191E DUP4 PUSH2 0xDB0 JUMP JUMPDEST PUSH20 0xFFFFFFFFFFFFFFFFFFFFFFFFFFFFFFFFFFFFFFFF AND EQ JUMPDEST JUMPDEST SWAP1 POP SWAP4 SWAP3 POP POP POP JUMP JUMPDEST PUSH1 0x0 PUSH20 0xFFFFFFFFFFFFFFFFFFFFFFFFFFFFFFFFFFFFFFFF AND DUP3 PUSH20 0xFFFFFFFFFFFFFFFFFFFFFFFFFFFFFFFFFFFFFFFF AND SUB PUSH2 0x19B2 JUMPI PUSH1 0x0 PUSH1 0x40 MLOAD PUSH32 0x64A0AE9200000000000000000000000000000000000000000000000000000000 DUP2 MSTORE PUSH1 0x4 ADD PUSH2 0x19A9 SWAP2 SWAP1 PUSH2 0x1C5E JUMP JUMPDEST PUSH1 0x40 MLOAD DUP1 SWAP2 SUB SWAP1 REVERT JUMPDEST PUSH1 0x0 PUSH2 0x19C0 DUP4 DUP4 PUSH1 0x0 PUSH2 0xE07 JUMP JUMPDEST SWAP1 POP PUSH1 0x0 PUSH20 0xFFFFFFFFFFFFFFFFFFFFFFFFFFFFFFFFFFFFFFFF AND DUP2 PUSH20 0xFFFFFFFFFFFFFFFFFFFFFFFFFFFFFFFFFFFFFFFF AND EQ PUSH2 0x1A34 JUMPI PUSH1 0x0 PUSH1 0x40 MLOAD PUSH32 0x73C6AC6E00000000000000000000000000000000000000000000000000000000 DUP2 MSTORE PUSH1 0x4 ADD PUSH2 0x1A2B SWAP2 SWAP1 PUSH2 0x1C5E JUMP JUMPDEST PUSH1 0x40 MLOAD DUP1 SWAP2 SUB SWAP1 REVERT JUMPDEST POP POP POP JUMP JUMPDEST PUSH1 0x0 PUSH1 0x40 MLOAD SWAP1 POP SWAP1 JUMP JUMPDEST PUSH1 0x0 DUP1 REVERT JUMPDEST PUSH1 0x0 DUP1 REVERT JUMPDEST PUSH1 0x0 PUSH32 0xFFFFFFFF00000000000000000000000000000000000000000000000000000000 DUP3 AND SWAP1 POP SWAP2 SWAP1 POP JUMP JUMPDEST PUSH2 0x1A82 DUP2 PUSH2 0x1A4D JUMP JUMPDEST DUP2 EQ PUSH2 0x1A8D JUMPI PUSH1 0x0 DUP1 REVERT JUMPDEST POP JUMP JUMPDEST PUSH1 0x0 DUP2 CALLDATALOAD SWAP1 POP PUSH2 0x1A9F DUP2 PUSH2 0x1A79 JUMP JUMPDEST SWAP3 SWAP2 POP POP JUMP JUMPDEST PUSH1 0x0 PUSH1 0x20 DUP3 DUP5 SUB SLT ISZERO PUSH2 0x1ABB JUMPI PUSH2 0x1ABA PUSH2 0x1A43 JUMP JUMPDEST JUMPDEST PUSH1 0x0 PUSH2 0x1AC9 DUP5 DUP3 DUP6 ADD PUSH2 0x1A90 JUMP JUMPDEST SWAP2 POP POP SWAP3 SWAP2 POP POP JUMP JUMPDEST PUSH1 0x0 DUP2 ISZERO ISZERO SWAP1 POP SWAP2 SWAP1 POP JUMP JUMPDEST PUSH2 0x1AE7 DUP2 PUSH2 0x1AD2 JUMP JUMPDEST DUP3 MSTORE POP POP JUMP JUMPDEST PUSH1 0x0 PUSH1 0x20 DUP3 ADD SWAP1 POP PUSH2 0x1B02 PUSH1 0x0 DUP4 ADD DUP5 PUSH2 0x1ADE JUMP JUMPDEST SWAP3 SWAP2 POP POP JUMP JUMPDEST PUSH1 0x0 DUP2 MLOAD SWAP1 POP SWAP2 SWAP1 POP JUMP JUMPDEST PUSH1 0x0 DUP3 DUP3 MSTORE PUSH1 0x20 DUP3 ADD SWAP1 POP SWAP3 SWAP2 POP POP JUMP JUMPDEST PUSH1 0x0 JUMPDEST DUP4 DUP2 LT ISZERO PUSH2 0x1B42 JUMPI DUP1 DUP3 ADD MLOAD DUP2 DUP5 ADD MSTORE PUSH1 0x20 DUP2 ADD SWAP1 POP PUSH2 0x1B27 JUMP JUMPDEST PUSH1 0x0 DUP5 DUP5 ADD MSTORE POP POP POP POP JUMP JUMPDEST PUSH1 0x0 PUSH1 0x1F NOT PUSH1 0x1F DUP4 ADD AND SWAP1 POP SWAP2 SWAP1 POP JUMP JUMPDEST PUSH1 0x0 PUSH2 0x1B6A DUP3 PUSH2 0x1B08 JUMP JUMPDEST PUSH2 0x1B74 DUP2 DUP6 PUSH2 0x1B13 JUMP JUMPDEST SWAP4 POP PUSH2 0x1B84 DUP2 DUP6 PUSH1 0x20 DUP7 ADD PUSH2 0x1B24 JUMP JUMPDEST PUSH2 0x1B8D DUP2 PUSH2 0x1B4E JUMP JUMPDEST DUP5 ADD SWAP2 POP POP SWAP3 SWAP2 POP POP JUMP JUMPDEST PUSH1 0x0 PUSH1 0x20 DUP3 ADD SWAP1 POP DUP2 DUP2 SUB PUSH1 0x0 DUP4 ADD MSTORE PUSH2 0x1BB2 DUP2 DUP5 PUSH2 0x1B5F JUMP JUMPDEST SWAP1 POP SWAP3 SWAP2 POP POP JUMP JUMPDEST PUSH1 0x0 DUP2 SWAP1 POP SWAP2 SWAP1 POP JUMP JUMPDEST PUSH2 0x1BCD DUP2 PUSH2 0x1BBA JUMP JUMPDEST DUP2 EQ PUSH2 0x1BD8 JUMPI PUSH1 0x0 DUP1 REVERT JUMPDEST POP JUMP JUMPDEST PUSH1 0x0 DUP2 CALLDATALOAD SWAP1 POP PUSH2 0x1BEA DUP2 PUSH2 0x1BC4 JUMP JUMPDEST SWAP3 SWAP2 POP POP JUMP JUMPDEST PUSH1 0x0 PUSH1 0x20 DUP3 DUP5 SUB SLT ISZERO PUSH2 0x1C06 JUMPI PUSH2 0x1C05 PUSH2 0x1A43 JUMP JUMPDEST JUMPDEST PUSH1 0x0 PUSH2 0x1C14 DUP5 DUP3 DUP6 ADD PUSH2 0x1BDB JUMP JUMPDEST SWAP2 POP POP SWAP3 SWAP2 POP POP JUMP JUMPDEST PUSH1 0x0 PUSH20 0xFFFFFFFFFFFFFFFFFFFFFFFFFFFFFFFFFFFFFFFF DUP3 AND SWAP1 POP SWAP2 SWAP1 POP JUMP JUMPDEST PUSH1 0x0 PUSH2 0x1C48 DUP3 PUSH2 0x1C1D JUMP JUMPDEST SWAP1 POP SWAP2 SWAP1 POP JUMP JUMPDEST PUSH2 0x1C58 DUP2 PUSH2 0x1C3D JUMP JUMPDEST DUP3 MSTORE POP POP JUMP JUMPDEST PUSH1 0x0 PUSH1 0x20 DUP3 ADD SWAP1 POP PUSH2 0x1C73 PUSH1 0x0 DUP4 ADD DUP5 PUSH2 0x1C4F JUMP JUMPDEST SWAP3 SWAP2 POP POP JUMP JUMPDEST PUSH2 0x1C82 DUP2 PUSH2 0x1C3D JUMP JUMPDEST DUP2 EQ PUSH2 0x1C8D JUMPI PUSH1 0x0 DUP1 REVERT JUMPDEST POP JUMP JUMPDEST PUSH1 0x0 DUP2 CALLDATALOAD SWAP1 POP PUSH2 0x1C9F DUP2 PUSH2 0x1C79 JUMP JUMPDEST SWAP3 SWAP2 POP POP JUMP JUMPDEST PUSH1 0x0 DUP1 PUSH1 0x40 DUP4 DUP6 SUB SLT ISZERO PUSH2 0x1CBC JUMPI PUSH2 0x1CBB PUSH2 0x1A43 JUMP JUMPDEST JUMPDEST PUSH1 0x0 PUSH2 0x1CCA DUP6 DUP3 DUP7 ADD PUSH2 0x1C90 JUMP JUMPDEST SWAP3 POP POP PUSH1 0x20 PUSH2 0x1CDB DUP6 DUP3 DUP7 ADD PUSH2 0x1BDB JUMP JUMPDEST SWAP2 POP POP SWAP3 POP SWAP3 SWAP1 POP JUMP JUMPDEST PUSH1 0x0 DUP1 PUSH1 0x0 PUSH1 0x60 DUP5 DUP7 SUB SLT ISZERO PUSH2 0x1CFE JUMPI PUSH2 0x1CFD PUSH2 0x1A43 JUMP JUMPDEST JUMPDEST PUSH1 0x0 PUSH2 0x1D0C DUP7 DUP3 DUP8 ADD PUSH2 0x1C90 JUMP JUMPDEST SWAP4 POP POP PUSH1 0x20 PUSH2 0x1D1D DUP7 DUP3 DUP8 ADD PUSH2 0x1C90 JUMP JUMPDEST SWAP3 POP POP PUSH1 0x40 PUSH2 0x1D2E DUP7 DUP3 DUP8 ADD PUSH2 0x1BDB JUMP JUMPDEST SWAP2 POP POP SWAP3 POP SWAP3 POP SWAP3 JUMP JUMPDEST PUSH1 0x0 DUP1 PUSH1 0x40 DUP4 DUP6 SUB SLT ISZERO PUSH2 0x1D4F JUMPI PUSH2 0x1D4E PUSH2 0x1A43 JUMP JUMPDEST JUMPDEST PUSH1 0x0 PUSH2 0x1D5D DUP6 DUP3 DUP7 ADD PUSH2 0x1BDB JUMP JUMPDEST SWAP3 POP POP PUSH1 0x20 PUSH2 0x1D6E DUP6 DUP3 DUP7 ADD PUSH2 0x1BDB JUMP JUMPDEST SWAP2 POP POP SWAP3 POP SWAP3 SWAP1 POP JUMP JUMPDEST PUSH1 0x0 DUP1 REVERT JUMPDEST PUSH1 0x0 DUP1 REVERT JUMPDEST PUSH32 0x4E487B7100000000000000000000000000000000000000000000000000000000 PUSH1 0x0 MSTORE PUSH1 0x41 PUSH1 0x4 MSTORE PUSH1 0x24 PUSH1 0x0 REVERT JUMPDEST PUSH2 0x1DBA DUP3 PUSH2 0x1B4E JUMP JUMPDEST DUP2 ADD DUP2 DUP2 LT PUSH8 0xFFFFFFFFFFFFFFFF DUP3 GT OR ISZERO PUSH2 0x1DD9 JUMPI PUSH2 0x1DD8 PUSH2 0x1D82 JUMP JUMPDEST JUMPDEST DUP1 PUSH1 0x40 MSTORE POP POP POP JUMP JUMPDEST PUSH1 0x0 PUSH2 0x1DEC PUSH2 0x1A39 JUMP JUMPDEST SWAP1 POP PUSH2 0x1DF8 DUP3 DUP3 PUSH2 0x1DB1 JUMP JUMPDEST SWAP2 SWAP1 POP JUMP JUMPDEST PUSH1 0x0 PUSH8 0xFFFFFFFFFFFFFFFF DUP3 GT ISZERO PUSH2 0x1E18 JUMPI PUSH2 0x1E17 PUSH2 0x1D82 JUMP JUMPDEST JUMPDEST PUSH2 0x1E21 DUP3 PUSH2 0x1B4E JUMP JUMPDEST SWAP1 POP PUSH1 0x20 DUP2 ADD SWAP1 POP SWAP2 SWAP1 POP JUMP JUMPDEST DUP3 DUP2 DUP4 CALLDATACOPY PUSH1 0x0 DUP4 DUP4 ADD MSTORE POP POP POP JUMP JUMPDEST PUSH1 0x0 PUSH2 0x1E50 PUSH2 0x1E4B DUP5 PUSH2 0x1DFD JUMP JUMPDEST PUSH2 0x1DE2 JUMP JUMPDEST SWAP1 POP DUP3 DUP2 MSTORE PUSH1 0x20 DUP2 ADD DUP5 DUP5 DUP5 ADD GT ISZERO PUSH2 0x1E6C JUMPI PUSH2 0x1E6B PUSH2 0x1D7D JUMP JUMPDEST JUMPDEST PUSH2 0x1E77 DUP5 DUP3 DUP6 PUSH2 0x1E2E JUMP JUMPDEST POP SWAP4 SWAP3 POP POP POP JUMP JUMPDEST PUSH1 0x0 DUP3 PUSH1 0x1F DUP4 ADD SLT PUSH2 0x1E94 JUMPI PUSH2 0x1E93 PUSH2 0x1D78 JUMP JUMPDEST JUMPDEST DUP2 CALLDATALOAD PUSH2 0x1EA4 DUP5 DUP3 PUSH1 0x20 DUP7 ADD PUSH2 0x1E3D JUMP JUMPDEST SWAP2 POP POP SWAP3 SWAP2 POP POP JUMP JUMPDEST PUSH1 0x0 DUP1 PUSH1 0x0 PUSH1 0x60 DUP5 DUP7 SUB SLT ISZERO PUSH2 0x1EC6 JUMPI PUSH2 0x1EC5 PUSH2 0x1A43 JUMP JUMPDEST JUMPDEST PUSH1 0x0 DUP5 ADD CALLDATALOAD PUSH8 0xFFFFFFFFFFFFFFFF DUP2 GT ISZERO PUSH2 0x1EE4 JUMPI PUSH2 0x1EE3 PUSH2 0x1A48 JUMP JUMPDEST JUMPDEST PUSH2 0x1EF0 DUP7 DUP3 DUP8 ADD PUSH2 0x1E7F JUMP JUMPDEST SWAP4 POP POP PUSH1 0x20 PUSH2 0x1F01 DUP7 DUP3 DUP8 ADD PUSH2 0x1C90 JUMP JUMPDEST SWAP3 POP POP PUSH1 0x40 DUP5 ADD CALLDATALOAD PUSH8 0xFFFFFFFFFFFFFFFF DUP2 GT ISZERO PUSH2 0x1F22 JUMPI PUSH2 0x1F21 PUSH2 0x1A48 JUMP JUMPDEST JUMPDEST PUSH2 0x1F2E DUP7 DUP3 DUP8 ADD PUSH2 0x1E7F JUMP JUMPDEST SWAP2 POP POP SWAP3 POP SWAP3 POP SWAP3 JUMP JUMPDEST PUSH1 0x0 PUSH1 0x20 DUP3 DUP5 SUB SLT ISZERO PUSH2 0x1F4E JUMPI PUSH2 0x1F4D PUSH2 0x1A43 JUMP JUMPDEST JUMPDEST PUSH1 0x0 PUSH2 0x1F5C DUP5 DUP3 DUP6 ADD PUSH2 0x1C90 JUMP JUMPDEST SWAP2 POP POP SWAP3 SWAP2 POP POP JUMP JUMPDEST PUSH2 0x1F6E DUP2 PUSH2 0x1BBA JUMP JUMPDEST DUP3 MSTORE POP POP JUMP JUMPDEST PUSH1 0x0 PUSH1 0x20 DUP3 ADD SWAP1 POP PUSH2 0x1F89 PUSH1 0x0 DUP4 ADD DUP5 PUSH2 0x1F65 JUMP JUMPDEST SWAP3 SWAP2 POP POP JUMP JUMPDEST PUSH1 0x0 PUSH1 0x60 DUP3 ADD SWAP1 POP DUP2 DUP2 SUB PUSH1 0x0 DUP4 ADD MSTORE PUSH2 0x1FA9 DUP2 DUP7 PUSH2 0x1B5F JUMP JUMPDEST SWAP1 POP PUSH2 0x1FB8 PUSH1 0x20 DUP4 ADD DUP6 PUSH2 0x1F65 JUMP JUMPDEST DUP2 DUP2 SUB PUSH1 0x40 DUP4 ADD MSTORE PUSH2 0x1FCA DUP2 DUP5 PUSH2 0x1B5F JUMP JUMPDEST SWAP1 POP SWAP5 SWAP4 POP POP POP POP JUMP JUMPDEST PUSH2 0x1FDD DUP2 PUSH2 0x1AD2 JUMP JUMPDEST DUP2 EQ PUSH2 0x1FE8 JUMPI PUSH1 0x0 DUP1 REVERT JUMPDEST POP JUMP JUMPDEST PUSH1 0x0 DUP2 CALLDATALOAD SWAP1 POP PUSH2 0x1FFA DUP2 PUSH2 0x1FD4 JUMP JUMPDEST SWAP3 SWAP2 POP POP JUMP JUMPDEST PUSH1 0x0 DUP1 PUSH1 0x40 DUP4 DUP6 SUB SLT ISZERO PUSH2 0x2017 JUMPI PUSH2 0x2016 PUSH2 0x1A43 JUMP JUMPDEST JUMPDEST PUSH1 0x0 PUSH2 0x2025 DUP6 DUP3 DUP7 ADD PUSH2 0x1C90 JUMP JUMPDEST SWAP3 POP POP PUSH1 0x20 PUSH2 0x2036 DUP6 DUP3 DUP7 ADD PUSH2 0x1FEB JUMP JUMPDEST SWAP2 POP POP SWAP3 POP SWAP3 SWAP1 POP JUMP JUMPDEST PUSH1 0x0 PUSH8 0xFFFFFFFFFFFFFFFF DUP3 GT ISZERO PUSH2 0x205B JUMPI PUSH2 0x205A PUSH2 0x1D82 JUMP JUMPDEST JUMPDEST PUSH2 0x2064 DUP3 PUSH2 0x1B4E JUMP JUMPDEST SWAP1 POP PUSH1 0x20 DUP2 ADD SWAP1 POP SWAP2 SWAP1 POP JUMP JUMPDEST PUSH1 0x0 PUSH2 0x2084 PUSH2 0x207F DUP5 PUSH2 0x2040 JUMP JUMPDEST PUSH2 0x1DE2 JUMP JUMPDEST SWAP1 POP DUP3 DUP2 MSTORE PUSH1 0x20 DUP2 ADD DUP5 DUP5 DUP5 ADD GT ISZERO PUSH2 0x20A0 JUMPI PUSH2 0x209F PUSH2 0x1D7D JUMP JUMPDEST JUMPDEST PUSH2 0x20AB DUP5 DUP3 DUP6 PUSH2 0x1E2E JUMP JUMPDEST POP SWAP4 SWAP3 POP POP POP JUMP JUMPDEST PUSH1 0x0 DUP3 PUSH1 0x1F DUP4 ADD SLT PUSH2 0x20C8 JUMPI PUSH2 0x20C7 PUSH2 0x1D78 JUMP JUMPDEST JUMPDEST DUP2 CALLDATALOAD PUSH2 0x20D8 DUP5 DUP3 PUSH1 0x20 DUP7 ADD PUSH2 0x2071 JUMP JUMPDEST SWAP2 POP POP SWAP3 SWAP2 POP POP JUMP JUMPDEST PUSH1 0x0 DUP1 PUSH1 0x0 DUP1 PUSH1 0x80 DUP6 DUP8 SUB SLT ISZERO PUSH2 0x20FB JUMPI PUSH2 0x20FA PUSH2 0x1A43 JUMP JUMPDEST JUMPDEST PUSH1 0x0 PUSH2 0x2109 DUP8 DUP3 DUP9 ADD PUSH2 0x1C90 JUMP JUMPDEST SWAP5 POP POP PUSH1 0x20 PUSH2 0x211A DUP8 DUP3 DUP9 ADD PUSH2 0x1C90 JUMP JUMPDEST SWAP4 POP POP PUSH1 0x40 PUSH2 0x212B DUP8 DUP3 DUP9 ADD PUSH2 0x1BDB JUMP JUMPDEST SWAP3 POP POP PUSH1 0x60 DUP6 ADD CALLDATALOAD PUSH8 0xFFFFFFFFFFFFFFFF DUP2 GT ISZERO PUSH2 0x214C JUMPI PUSH2 0x214B PUSH2 0x1A48 JUMP JUMPDEST JUMPDEST PUSH2 0x2158 DUP8 DUP3 DUP9 ADD PUSH2 0x20B3 JUMP JUMPDEST SWAP2 POP POP SWAP3 SWAP6 SWAP2 SWAP5 POP SWAP3 POP JUMP JUMPDEST PUSH1 0x0 DUP1 PUSH1 0x40 DUP4 DUP6 SUB SLT ISZERO PUSH2 0x217B JUMPI PUSH2 0x217A PUSH2 0x1A43 JUMP JUMPDEST JUMPDEST PUSH1 0x0 PUSH2 0x2189 DUP6 DUP3 DUP7 ADD PUSH2 0x1C90 JUMP JUMPDEST SWAP3 POP POP PUSH1 0x20 PUSH2 0x219A DUP6 DUP3 DUP7 ADD PUSH2 0x1C90 JUMP JUMPDEST SWAP2 POP POP SWAP3 POP SWAP3 SWAP1 POP JUMP JUMPDEST PUSH32 0x4E487B7100000000000000000000000000000000000000000000000000000000 PUSH1 0x0 MSTORE PUSH1 0x22 PUSH1 0x4 MSTORE PUSH1 0x24 PUSH1 0x0 REVERT JUMPDEST PUSH1 0x0 PUSH1 0x2 DUP3 DIV SWAP1 POP PUSH1 0x1 DUP3 AND DUP1 PUSH2 0x21EB JUMPI PUSH1 0x7F DUP3 AND SWAP2 POP JUMPDEST PUSH1 0x20 DUP3 LT DUP2 SUB PUSH2 0x21FE JUMPI PUSH2 0x21FD PUSH2 0x21A4 JUMP JUMPDEST JUMPDEST POP SWAP2 SWAP1 POP JUMP JUMPDEST PUSH1 0x0 PUSH1 0x60 DUP3 ADD SWAP1 POP PUSH2 0x2219 PUSH1 0x0 DUP4 ADD DUP7 PUSH2 0x1C4F JUMP JUMPDEST PUSH2 0x2226 PUSH1 0x20 DUP4 ADD DUP6 PUSH2 0x1F65 JUMP JUMPDEST PUSH2 0x2233 PUSH1 0x40 DUP4 ADD DUP5 PUSH2 0x1C4F JUMP JUMPDEST SWAP5 SWAP4 POP POP POP POP JUMP JUMPDEST PUSH32 0x4170656E6173206F20646F6E6F20706F646520626174616C68617220636F6D20 PUSH1 0x0 DUP3 ADD MSTORE PUSH32 0x6573746520506F6B656D6F6E0000000000000000000000000000000000000000 PUSH1 0x20 DUP3 ADD MSTORE POP JUMP JUMPDEST PUSH1 0x0 PUSH2 0x2297 PUSH1 0x2C DUP4 PUSH2 0x1B13 JUMP JUMPDEST SWAP2 POP PUSH2 0x22A2 DUP3 PUSH2 0x223B JUMP JUMPDEST PUSH1 0x40 DUP3 ADD SWAP1 POP SWAP2 SWAP1 POP JUMP JUMPDEST PUSH1 0x0 PUSH1 0x20 DUP3 ADD SWAP1 POP DUP2 DUP2 SUB PUSH1 0x0 DUP4 ADD MSTORE PUSH2 0x22C6 DUP2 PUSH2 0x228A JUMP JUMPDEST SWAP1 POP SWAP2 SWAP1 POP JUMP JUMPDEST PUSH32 0x4E487B7100000000000000000000000000000000000000000000000000000000 PUSH1 0x0 MSTORE PUSH1 0x32 PUSH1 0x4 MSTORE PUSH1 0x24 PUSH1 0x0 REVERT JUMPDEST PUSH32 0x4E487B7100000000000000000000000000000000000000000000000000000000 PUSH1 0x0 MSTORE PUSH1 0x11 PUSH1 0x4 MSTORE PUSH1 0x24 PUSH1 0x0 REVERT JUMPDEST PUSH1 0x0 PUSH2 0x2336 DUP3 PUSH2 0x1BBA JUMP JUMPDEST SWAP2 POP PUSH2 0x2341 DUP4 PUSH2 0x1BBA JUMP JUMPDEST SWAP3 POP DUP3 DUP3 ADD SWAP1 POP DUP1 DUP3 GT ISZERO PUSH2 0x2359 JUMPI PUSH2 0x2358 PUSH2 0x22FC JUMP JUMPDEST JUMPDEST SWAP3 SWAP2 POP POP JUMP JUMPDEST PUSH32 0x4170656E6173206F20646F6E6F20646F206A6F676F20706F6465206372696172 PUSH1 0x0 DUP3 ADD MSTORE PUSH32 0x206E6F766F7320506F6B656D6F6E730000000000000000000000000000000000 PUSH1 0x20 DUP3 ADD MSTORE POP JUMP JUMPDEST PUSH1 0x0 PUSH2 0x23BB PUSH1 0x2F DUP4 PUSH2 0x1B13 JUMP JUMPDEST SWAP2 POP PUSH2 0x23C6 DUP3 PUSH2 0x235F JUMP JUMPDEST PUSH1 0x40 DUP3 ADD SWAP1 POP SWAP2 SWAP1 POP JUMP JUMPDEST PUSH1 0x0 PUSH1 0x20 DUP3 ADD SWAP1 POP DUP2 DUP2 SUB PUSH1 0x0 DUP4 ADD MSTORE PUSH2 0x23EA DUP2 PUSH2 0x23AE JUMP JUMPDEST SWAP1 POP SWAP2 SWAP1 POP JUMP JUMPDEST PUSH1 0x0 DUP2 SWAP1 POP DUP2 PUSH1 0x0 MSTORE PUSH1 0x20 PUSH1 0x0 KECCAK256 SWAP1 POP SWAP2 SWAP1 POP JUMP JUMPDEST PUSH1 0x0 PUSH1 0x20 PUSH1 0x1F DUP4 ADD DIV SWAP1 POP SWAP2 SWAP1 POP JUMP JUMPDEST PUSH1 0x0 DUP3 DUP3 SHL SWAP1 POP SWAP3 SWAP2 POP POP JUMP JUMPDEST PUSH1 0x0 PUSH1 0x8 DUP4 MUL PUSH2 0x2453 PUSH32 0xFFFFFFFFFFFFFFFFFFFFFFFFFFFFFFFFFFFFFFFFFFFFFFFFFFFFFFFFFFFFFFFF DUP3 PUSH2 0x2416 JUMP JUMPDEST PUSH2 0x245D DUP7 DUP4 PUSH2 0x2416 JUMP JUMPDEST SWAP6 POP DUP1 NOT DUP5 AND SWAP4 POP DUP1 DUP7 AND DUP5 OR SWAP3 POP POP POP SWAP4 SWAP3 POP POP POP JUMP JUMPDEST PUSH1 0x0 DUP2 SWAP1 POP SWAP2 SWAP1 POP JUMP JUMPDEST PUSH1 0x0 PUSH2 0x249A PUSH2 0x2495 PUSH2 0x2490 DUP5 PUSH2 0x1BBA JUMP JUMPDEST PUSH2 0x2475 JUMP JUMPDEST PUSH2 0x1BBA JUMP JUMPDEST SWAP1 POP SWAP2 SWAP1 POP JUMP JUMPDEST PUSH1 0x0 DUP2 SWAP1 POP SWAP2 SWAP1 POP JUMP JUMPDEST PUSH2 0x24B4 DUP4 PUSH2 0x247F JUMP JUMPDEST PUSH2 0x24C8 PUSH2 0x24C0 DUP3 PUSH2 0x24A1 JUMP JUMPDEST DUP5 DUP5 SLOAD PUSH2 0x2423 JUMP JUMPDEST DUP3 SSTORE POP POP POP POP JUMP JUMPDEST PUSH1 0x0 SWAP1 JUMP JUMPDEST PUSH2 0x24DD PUSH2 0x24D0 JUMP JUMPDEST PUSH2 0x24E8 DUP2 DUP5 DUP5 PUSH2 0x24AB JUMP JUMPDEST POP POP POP JUMP JUMPDEST JUMPDEST DUP2 DUP2 LT ISZERO PUSH2 0x250C JUMPI PUSH2 0x2501 PUSH1 0x0 DUP3 PUSH2 0x24D5 JUMP JUMPDEST PUSH1 0x1 DUP2 ADD SWAP1 POP PUSH2 0x24EE JUMP JUMPDEST POP POP JUMP JUMPDEST PUSH1 0x1F DUP3 GT ISZERO PUSH2 0x2551 JUMPI PUSH2 0x2522 DUP2 PUSH2 0x23F1 JUMP JUMPDEST PUSH2 0x252B DUP5 PUSH2 0x2406 JUMP JUMPDEST DUP2 ADD PUSH1 0x20 DUP6 LT ISZERO PUSH2 0x253A JUMPI DUP2 SWAP1 POP JUMPDEST PUSH2 0x254E PUSH2 0x2546 DUP6 PUSH2 0x2406 JUMP JUMPDEST DUP4 ADD DUP3 PUSH2 0x24ED JUMP JUMPDEST POP POP JUMPDEST POP POP POP JUMP JUMPDEST PUSH1 0x0 DUP3 DUP3 SHR SWAP1 POP SWAP3 SWAP2 POP POP JUMP JUMPDEST PUSH1 0x0 PUSH2 0x2574 PUSH1 0x0 NOT DUP5 PUSH1 0x8 MUL PUSH2 0x2556 JUMP JUMPDEST NOT DUP1 DUP4 AND SWAP2 POP POP SWAP3 SWAP2 POP POP JUMP JUMPDEST PUSH1 0x0 PUSH2 0x258D DUP4 DUP4 PUSH2 0x2563 JUMP JUMPDEST SWAP2 POP DUP3 PUSH1 0x2 MUL DUP3 OR SWAP1 POP SWAP3 SWAP2 POP POP JUMP JUMPDEST PUSH2 0x25A6 DUP3 PUSH2 0x1B08 JUMP JUMPDEST PUSH8 0xFFFFFFFFFFFFFFFF DUP2 GT ISZERO PUSH2 0x25BF JUMPI PUSH2 0x25BE PUSH2 0x1D82 JUMP JUMPDEST JUMPDEST PUSH2 0x25C9 DUP3 SLOAD PUSH2 0x21D3 JUMP JUMPDEST PUSH2 0x25D4 DUP3 DUP3 DUP6 PUSH2 0x2510 JUMP JUMPDEST PUSH1 0x0 PUSH1 0x20 SWAP1 POP PUSH1 0x1F DUP4 GT PUSH1 0x1 DUP2 EQ PUSH2 0x2607 JUMPI PUSH1 0x0 DUP5 ISZERO PUSH2 0x25F5 JUMPI DUP3 DUP8 ADD MLOAD SWAP1 POP JUMPDEST PUSH2 0x25FF DUP6 DUP3 PUSH2 0x2581 JUMP JUMPDEST DUP7 SSTORE POP PUSH2 0x2667 JUMP JUMPDEST PUSH1 0x1F NOT DUP5 AND PUSH2 0x2615 DUP7 PUSH2 0x23F1 JUMP JUMPDEST PUSH1 0x0 JUMPDEST DUP3 DUP2 LT ISZERO PUSH2 0x263D JUMPI DUP5 DUP10 ADD MLOAD DUP3 SSTORE PUSH1 0x1 DUP3 ADD SWAP2 POP PUSH1 0x20 DUP6 ADD SWAP5 POP PUSH1 0x20 DUP2 ADD SWAP1 POP PUSH2 0x2618 JUMP JUMPDEST DUP7 DUP4 LT ISZERO PUSH2 0x265A JUMPI DUP5 DUP10 ADD MLOAD PUSH2 0x2656 PUSH1 0x1F DUP10 AND DUP3 PUSH2 0x2563 JUMP JUMPDEST DUP4 SSTORE POP JUMPDEST PUSH1 0x1 PUSH1 0x2 DUP9 MUL ADD DUP9 SSTORE POP POP POP JUMPDEST POP POP POP POP POP POP JUMP JUMPDEST PUSH1 0x0 DUP2 SWAP1 POP SWAP3 SWAP2 POP POP JUMP JUMPDEST PUSH1 0x0 PUSH2 0x2685 DUP3 PUSH2 0x1B08 JUMP JUMPDEST PUSH2 0x268F DUP2 DUP6 PUSH2 0x266F JUMP JUMPDEST SWAP4 POP PUSH2 0x269F DUP2 DUP6 PUSH1 0x20 DUP7 ADD PUSH2 0x1B24 JUMP JUMPDEST DUP1 DUP5 ADD SWAP2 POP POP SWAP3 SWAP2 POP POP JUMP JUMPDEST PUSH1 0x0 PUSH2 0x26B7 DUP3 DUP6 PUSH2 0x267A JUMP JUMPDEST SWAP2 POP PUSH2 0x26C3 DUP3 DUP5 PUSH2 0x267A JUMP JUMPDEST SWAP2 POP DUP2 SWAP1 POP SWAP4 SWAP3 POP POP POP JUMP JUMPDEST PUSH1 0x0 DUP2 MLOAD SWAP1 POP SWAP2 SWAP1 POP JUMP JUMPDEST PUSH1 0x0 DUP3 DUP3 MSTORE PUSH1 0x20 DUP3 ADD SWAP1 POP SWAP3 SWAP2 POP POP JUMP JUMPDEST PUSH1 0x0 PUSH2 0x26F6 DUP3 PUSH2 0x26CF JUMP JUMPDEST PUSH2 0x2700 DUP2 DUP6 PUSH2 0x26DA JUMP JUMPDEST SWAP4 POP PUSH2 0x2710 DUP2 DUP6 PUSH1 0x20 DUP7 ADD PUSH2 0x1B24 JUMP JUMPDEST PUSH2 0x2719 DUP2 PUSH2 0x1B4E JUMP JUMPDEST DUP5 ADD SWAP2 POP POP SWAP3 SWAP2 POP POP JUMP JUMPDEST PUSH1 0x0 PUSH1 0x80 DUP3 ADD SWAP1 POP PUSH2 0x2739 PUSH1 0x0 DUP4 ADD DUP8 PUSH2 0x1C4F JUMP JUMPDEST PUSH2 0x2746 PUSH1 0x20 DUP4 ADD DUP7 PUSH2 0x1C4F JUMP JUMPDEST PUSH2 0x2753 PUSH1 0x40 DUP4 ADD DUP6 PUSH2 0x1F65 JUMP JUMPDEST DUP2 DUP2 SUB PUSH1 0x60 DUP4 ADD MSTORE PUSH2 0x2765 DUP2 DUP5 PUSH2 0x26EB JUMP JUMPDEST SWAP1 POP SWAP6 SWAP5 POP POP POP POP POP JUMP JUMPDEST PUSH1 0x0 DUP2 MLOAD SWAP1 POP PUSH2 0x277F DUP2 PUSH2 0x1A79 JUMP JUMPDEST SWAP3 SWAP2 POP POP JUMP JUMPDEST PUSH1 0x0 PUSH1 0x20 DUP3 DUP5 SUB SLT ISZERO PUSH2 0x279B JUMPI PUSH2 0x279A PUSH2 0x1A43 JUMP JUMPDEST JUMPDEST PUSH1 0x0 PUSH2 0x27A9 DUP5 DUP3 DUP6 ADD PUSH2 0x2770 JUMP JUMPDEST SWAP2 POP POP SWAP3 SWAP2 POP POP JUMP JUMPDEST PUSH32 0x4E487B7100000000000000000000000000000000000000000000000000000000 PUSH1 0x0 MSTORE PUSH1 0x12 PUSH1 0x4 MSTORE PUSH1 0x24 PUSH1 0x0 REVERT JUMPDEST PUSH1 0x0 PUSH1 0x40 DUP3 ADD SWAP1 POP PUSH2 0x27F6 PUSH1 0x0 DUP4 ADD DUP6 PUSH2 0x1C4F JUMP JUMPDEST PUSH2 0x2803 PUSH1 0x20 DUP4 ADD DUP5 PUSH2 0x1F65 JUMP JUMPDEST SWAP4 SWAP3 POP POP POP JUMP INVALID LOG2 PUSH5 0x6970667358 0x22 SLT KECCAK256 0xEE 0x4F 0xF 0xA7 TIMESTAMP DUP5 SWAP5 CALLCODE 0xF8 0xE3 0x2E 0xD2 0xED 0xEE PUSH4 0xAE811D9B CODESIZE DIV MSTORE COINBASE 0xC3 0xC2 0x22 EXTCODEHASH DUP8 0xEC 0x28 0x2C 0xD5 PUSH5 0x736F6C6343 STOP ADDMOD BYTE STOP CALLER "
				},
				"gasEstimates": {
					"creation": {
						"codeDepositCost": "2060800",
						"executionCost": "infinite",
						"totalCost": "infinite"
					},
					"external": {
						"approve(address,uint256)": "infinite",
						"balanceOf(address)": "infinite",
						"battle(uint256,uint256)": "infinite",
						"createNewPokemon(string,address,string)": "infinite",
						"gameOwner()": "2624",
						"getApproved(uint256)": "infinite",
						"isApprovedForAll(address,address)": "infinite",
						"name()": "infinite",
						"ownerOf(uint256)": "infinite",
						"pokemons(uint256)": "infinite",
						"safeTransferFrom(address,address,uint256)": "infinite",
						"safeTransferFrom(address,address,uint256,bytes)": "infinite",
						"setApprovalForAll(address,bool)": "infinite",
						"supportsInterface(bytes4)": "797",
						"symbol()": "infinite",
						"tokenURI(uint256)": "infinite",
						"transferFrom(address,address,uint256)": "infinite"
					}
				},
				"methodIdentifiers": {
					"approve(address,uint256)": "095ea7b3",
					"balanceOf(address)": "70a08231",
					"battle(uint256,uint256)": "2a0c5221",
					"createNewPokemon(string,address,string)": "555072de",
					"gameOwner()": "f6b12f28",
					"getApproved(uint256)": "081812fc",
					"isApprovedForAll(address,address)": "e985e9c5",
					"name()": "06fdde03",
					"ownerOf(uint256)": "6352211e",
					"pokemons(uint256)": "85831079",
					"safeTransferFrom(address,address,uint256)": "42842e0e",
					"safeTransferFrom(address,address,uint256,bytes)": "b88d4fde",
					"setApprovalForAll(address,bool)": "a22cb465",
					"supportsInterface(bytes4)": "01ffc9a7",
					"symbol()": "95d89b41",
					"tokenURI(uint256)": "c87b56dd",
					"transferFrom(address,address,uint256)": "23b872dd"
				}
			},
			"storageLayout": {
				"storage": [
					{
						"astId": 169,
						"contract": "contracts/PokeDIO.sol:PokeDIO",
						"label": "_name",
						"offset": 0,
						"slot": "0",
						"type": "t_string_storage"
					},
					{
						"astId": 171,
						"contract": "contracts/PokeDIO.sol:PokeDIO",
						"label": "_symbol",
						"offset": 0,
						"slot": "1",
						"type": "t_string_storage"
					},
					{
						"astId": 175,
						"contract": "contracts/PokeDIO.sol:PokeDIO",
						"label": "_owners",
						"offset": 0,
						"slot": "2",
						"type": "t_mapping(t_uint256,t_address)"
					},
					{
						"astId": 179,
						"contract": "contracts/PokeDIO.sol:PokeDIO",
						"label": "_balances",
						"offset": 0,
						"slot": "3",
						"type": "t_mapping(t_address,t_uint256)"
					},
					{
						"astId": 183,
						"contract": "contracts/PokeDIO.sol:PokeDIO",
						"label": "_tokenApprovals",
						"offset": 0,
						"slot": "4",
						"type": "t_mapping(t_uint256,t_address)"
					},
					{
						"astId": 189,
						"contract": "contracts/PokeDIO.sol:PokeDIO",
						"label": "_operatorApprovals",
						"offset": 0,
						"slot": "5",
						"type": "t_mapping(t_address,t_mapping(t_address,t_bool))"
					},
					{
						"astId": 2804,
						"contract": "contracts/PokeDIO.sol:PokeDIO",
						"label": "pokemons",
						"offset": 0,
						"slot": "6",
						"type": "t_array(t_struct(Pokemon)2800_storage)dyn_storage"
					},
					{
						"astId": 2806,
						"contract": "contracts/PokeDIO.sol:PokeDIO",
						"label": "gameOwner",
						"offset": 0,
						"slot": "7",
						"type": "t_address"
					}
				],
				"types": {
					"t_address": {
						"encoding": "inplace",
						"label": "address",
						"numberOfBytes": "20"
					},
					"t_array(t_struct(Pokemon)2800_storage)dyn_storage": {
						"base": "t_struct(Pokemon)2800_storage",
						"encoding": "dynamic_array",
						"label": "struct PokeDIO.Pokemon[]",
						"numberOfBytes": "32"
					},
					"t_bool": {
						"encoding": "inplace",
						"label": "bool",
						"numberOfBytes": "1"
					},
					"t_mapping(t_address,t_bool)": {
						"encoding": "mapping",
						"key": "t_address",
						"label": "mapping(address => bool)",
						"numberOfBytes": "32",
						"value": "t_bool"
					},
					"t_mapping(t_address,t_mapping(t_address,t_bool))": {
						"encoding": "mapping",
						"key": "t_address",
						"label": "mapping(address => mapping(address => bool))",
						"numberOfBytes": "32",
						"value": "t_mapping(t_address,t_bool)"
					},
					"t_mapping(t_address,t_uint256)": {
						"encoding": "mapping",
						"key": "t_address",
						"label": "mapping(address => uint256)",
						"numberOfBytes": "32",
						"value": "t_uint256"
					},
					"t_mapping(t_uint256,t_address)": {
						"encoding": "mapping",
						"key": "t_uint256",
						"label": "mapping(uint256 => address)",
						"numberOfBytes": "32",
						"value": "t_address"
					},
					"t_string_storage": {
						"encoding": "bytes",
						"label": "string",
						"numberOfBytes": "32"
					},
					"t_struct(Pokemon)2800_storage": {
						"encoding": "inplace",
						"label": "struct PokeDIO.Pokemon",
						"members": [
							{
								"astId": 2795,
								"contract": "contracts/PokeDIO.sol:PokeDIO",
								"label": "name",
								"offset": 0,
								"slot": "0",
								"type": "t_string_storage"
							},
							{
								"astId": 2797,
								"contract": "contracts/PokeDIO.sol:PokeDIO",
								"label": "level",
								"offset": 0,
								"slot": "1",
								"type": "t_uint256"
							},
							{
								"astId": 2799,
								"contract": "contracts/PokeDIO.sol:PokeDIO",
								"label": "img",
								"offset": 0,
								"slot": "2",
								"type": "t_string_storage"
							}
						],
						"numberOfBytes": "96"
					},
					"t_uint256": {
						"encoding": "inplace",
						"label": "uint256",
						"numberOfBytes": "32"
					}
				}
			},
			"userdoc": {
				"kind": "user",
				"methods": {},
				"version": 1
			}
		}
	}
}